:100000000C9458000C9480000C9480000C94800098
:100010000C9480000C9480000C9480000C94800060
:100020000C9480000C9480000C9480000C94800050
:100030000C9480000C9480000C9480000C94800040
:100040000C94B7050C9480000C9485050C945F0506
:100050000C9480000C9480000C9480000C94800020
:100060000C9401060C94800000000000250028007C
:100070002B00040404040404040402020202020229
:10008000030303030303010204081020408001025C
:1000900004081020010204081020000000080002DB
:1000A00001000003040700000000000000002F070B
:1000B00011241FBECFEFD8E0DEBFCDBF23E0A4E9FF
:1000C000B1E001C01D92AF37B207E1F711E0A0E047
:1000D000B1E0E2ECF2E102C005900D92A439B10763
:1000E000D9F710E0C8E5D0E004C02197FE010E94D6
:1000F0005409C735D107C9F70E947A070C945F09E4
:100100000C940000EEE8F2E0A089B18982E08C93C3
:10011000A485B5851C92A685B7858FEC8C93108E2F
:10012000A489B58986E08C93A289B3898C9180617A
:100130008C93A289B3898C9188608C93A289B389AE
:100140008C9180688C930288F389E02D80818F7D6B
:100150008083089590E0FC01E656FF4F2491FC0156
:10016000EA57FF4F3491FC01EE58FF4FE491EE2324
:10017000B1F1222339F1233091F038F42130A9F084
:10018000223001F584B58F7D12C0273091F02830E0
:10019000A1F02430B9F4809180008F7D03C080915C
:1001A00080008F77809380000DC084B58F7784BDE9
:1001B00009C08091B0008F7703C08091B0008F7D1F
:1001C0008093B000F0E0EE0FFF1FE859FF4FA591BC
:1001D000B4918FB7F894EC913E2B3C938FBF089568
:1001E000CF92DF92EF92FF920F931F932FB7F89465
:1001F000C0900002D0900102E0900202F090030251
:100200002FBFDC01CB018C0D9D1DAE1DBF1D4FB757
:10021000F8940091000210910102209102023091A5
:1002200003024FBF0C151D052E053F0528F0801752
:100230009107A207B30758F71F910F91FF90EF9016
:10024000DF90CF900895CF92DF92EF92FF920F93BD
:100250001F93CF93DF936C017A018B01C0E0D0E054
:10026000CE15DF0589F0D8016D918D01D601ED9194
:10027000FC910190F081E02DC6010995892B11F4C4
:100280007E0102C02196ECCFC701DF91CF911F9173
:100290000F91FF90EF90DF90CF900895FC01538D68
:1002A000448D252F30E0842F90E0821B930B541750
:1002B00010F0CF96089501970895FC01918D828DDD
:1002C000981761F0828DDF01A80FB11D5D968C91AA
:1002D000928D9F5F9F73928F90E008958FEF9FEFB5
:1002E0000895FC01918D828D981731F0828DE80F71
:1002F000F11D858D90E008958FEF9FEF0895FC012B
:10030000918D228D892F90E0805C9F4F821B9109F7
:100310008F73992708958EE892E00E947F0121E073
:10032000892B09F420E0822F0895FC01848DDF01E0
:10033000A80FB11DA35ABF4F2C91848D90E0019658
:100340008F739927848FA689B7892C93A089B18947
:100350008C9180648C93938D848D981306C0028851
:10036000F389E02D80818F7D80830895EF92FF9245
:100370000F931F93CF93DF93EC0181E0888F9B8DC8
:100380008C8D981305C0E889F989808185FD24C08A
:10039000F62E0B8D10E00F5F1F4F0F731127E02E0D
:1003A0008C8DE8120CC00FB607FCFACFE889F989EA
:1003B000808185FFF5CFCE010E949501F1CF8B8D15
:1003C000FE01E80FF11DE35AFF4FF0820B8FEA891F
:1003D000FB898081806207C0EE89FF896083E8899C
:1003E000F98980818064808381E090E0DF91CF9102
:1003F0001F910F91FF90EF900895CF93DF93EC0141
:10040000888D8823C9F0EA89FB89808185FD05C034
:10041000A889B9898C9186FD0FC00FB607FCF5CF6E
:10042000808185FFF2CFA889B9898C9185FFEDCFB6
:10043000CE010E949501E7CFDF91CF91089580E032
:1004400090E0892B29F00E948B0181110C9400000F
:1004500008953FB7F8948091FC019091FD01A0911F
:10046000FE01B091FF0126B5A89B05C02F3F19F0F2
:100470000196A11DB11D3FBFBA2FA92F982F882724
:10048000820F911DA11DB11DBC01CD0142E0660F7F
:10049000771F881F991F4A95D1F708958F929F92D1
:1004A000AF92BF92CF92DF92EF92FF920E94290209
:1004B0004B015C018AE0C82ED12CE12CF12C0E946A
:1004C0002902DC01CB0188199909AA09BB09883ED8
:1004D0009340A105B10558F021E0C21AD108E10806
:1004E000F10888EE880E83E0981EA11CB11CC1148F
:1004F000D104E104F10419F7FF90EF90DF90CF9061
:10050000BF90AF909F908F90089585ED8093BC0031
:100510008091BC0084FDFCCF10926B020895409145
:10052000D601262F30E0240F311D21323105DCF4B5
:1005300020916B022430C9F4FC0180E090E0861722
:1005400058F43091D6012191DC01AC54BE4FA30F79
:10055000B11D2C930196F3CF8091D601680F609363
:10056000D60180E0089581E0089582E0089508951D
:10057000E0916D0280916C02E81730F4F0E0E259EE
:10058000FD4F808190E008958FEF9FEF0895909147
:100590006D0280916C02981750F4E92FF0E0E25957
:1005A000FD4F208130E09F5F90936D0202C02FEFDE
:1005B0003FEFC901089580916C0290E020916D0297
:1005C000821B91090895CF92DF92EF92FF920F93D1
:1005D0001F93CF93DF937C01262F972F8A01809161
:1005E0000702882391F0C62FD72F6E01C40ED51EA7
:1005F000CC15DD0571F06991D701ED91FC91019069
:10060000F081E02DC7010995F3CF642F822F0E945E
:100610008F02C801DF91CF911F910F91FF90EF9052
:10062000DF90CF900895CF93DF931F92CDB7DEB7C1
:100630006983209107022223D1F020910402203205
:1006400040F021E030E0FC013383228380E090E041
:1006500015C080910502E82FF0E0EC56FE4F99811D
:1006600090838F5F809305028093040205C061E050
:10067000CE0101960E948F0281E090E00F90DF9101
:10068000CF9108952091040290910602213208F042
:100690004AC080916B028111FCCF32E030936B0233
:1006A00031E030936A023FEF3093690210926802A2
:1006B00020936702A4E9B1E045E452E0FA013E2F3D
:1006C000341B321718F43D913193F9CF1092660222
:1006D00020916602990F922B909366029091650289
:1006E000913061F410926502909166029093BB0084
:1006F0009091BC0093FDF8CF95EC01C095EE9093DE
:10070000BC0090916B029230E1F3909169029F3F9F
:1007100079F080916902803241F0809169028033E2
:1007200031F084E005C081E003C082E001C083E0D5
:1007300010920502109204021092070208951F936E
:10074000CF93DF93162F91E0909307029CE4909350
:1007500006021092050210920402C8E0D2E0ABAD8E
:10076000BCADED91FC9111970190F081E02D682FC7
:10077000CD0109958BAD9CADDC01ED91FC91019013
:10078000F081E02D612F09958BAD9CADDF91CF916C
:100790001F910C944203EF92FF921F93CF93DF932C
:1007A0001F92CDB7DEB7162F91E0909307029CE41D
:1007B00090930602109205021092040298E0E92E2E
:1007C00092E0F92EF701A3ADB4ADED91FC91119734
:1007D0000190F081E02D682FCD0179830995D70133
:1007E000DB968D919C91DC97DC01ED91FC91019061
:1007F000F081E02D612F0995F70183AD94ADDC0107
:10080000ED91FC910190F081E02D7981672F0995A0
:10081000F70183AD94AD0F90DF91CF911F91FF90C1
:10082000EF900C944203089580E090E00895809149
:100830006B028111FCCF862F613208F080E291E0DB
:1008400090936B0290936A022FEF209369021092AB
:100850006802280F209367029093660290916602C7
:1008600098699093660290916502913061F41092BC
:100870006502909166029093BB009091BC0093FD3D
:10088000F8CF95EC01C095EE9093BC0090916B026F
:100890009130E1F390916802981710F4809168020A
:1008A000A5E4B2E02EE632E0F9019E2F921B9817E4
:1008B00018F49D919193F9CF10926D0280936C0280
:1008C000089591E0909307029CE4909306021092A1
:1008D000050210920402A0914302B0914402ED91EE
:1008E000FC9111970190F081E02D682FCD010995C1
:1008F00080914302909144020E94420361E070E0C3
:1009000080914302909144020E9417048091430217
:1009100090914402DC01ED91FC910084F185E02D81
:100920000995892B61F08091430290914402DC018A
:10093000ED91FC910284F385E02D099508958FEFE8
:100940000895CF9391E0909307029CE49093060260
:100950001092050210920402A0914302B091440249
:10096000ED91FC9111970190F081E02D682FCD0160
:10097000099580914302909144020E94420362E0F3
:1009800070E080914302909144020E94170480918C
:10099000430290914402DC01ED91FC910084F185C9
:1009A000E02D09950297D9F4809143029091440279
:1009B000DC01ED91FC910284F385E02D0995C82FAF
:1009C0008091430290914402DC01ED91FC910284FC
:1009D000F385E02D0995982F88278C2B02C08FEF87
:1009E0009FEFCF910895CF9361E984E00E949F0328
:1009F000CAE086E00E94A1048F719927409731F0E8
:100A00000E944E02C150A9F780E001C081E0CF9161
:100A10000895CF9362E984E00E949F03CAE086E0D4
:100A20000E94A1048F719927489731F00E944E02CD
:100A3000C150A9F780E001C081E0CF910895CF9324
:100A400060E984E00E949F03CAE086E00E94A1045E
:100A50008F719927892B31F00E944E02C150A9F75E
:100A600080E001C081E0CF9108956115710579F0B2
:100A7000FB0101900020E9F73197AF01461B570BAE
:100A8000DC01ED91FC910280F381E02D099480E07E
:100A900090E00895CF93DF93BC018EE892E00E942E
:100AA0003505EC0163E371E08EE892E00E943505C4
:100AB0008C0F9D1FDF91CF9108950E945A091F92BC
:100AC0000F920FB60F9211242F933F934F935F9382
:100AD0006F937F938F939F93AF93BF93EF93FF9306
:100AE0008EE892E00E949501FF91EF91BF91AF9146
:100AF0009F918F917F916F915F914F913F912F9136
:100B00000F900FBE0F901F9018951F920F920FB667
:100B10000F9211242F938F939F93EF93FF93E09164
:100B20009E02F0919F028081E091A402F091A502C3
:100B300082FD12C090818091A7028F5F8F732091F8
:100B4000A802821751F0E091A702F0E0E257FD4FB2
:100B5000958F8093A70201C08081FF91EF919F91B3
:100B60008F912F910F900FBE0F901F9018951F928D
:100B70000F920FB60F9211242F933F938F939F9351
:100B8000AF93BF938091000290910102A091020265
:100B9000B09103023091FB0123E0230F2D3720F4A5
:100BA0000196A11DB11D05C026E8230F0296A11DC7
:100BB000B11D2093FB018093000290930102A0934A
:100BC0000202B09303028091FC019091FD01A0917B
:100BD000FE01B091FF010196A11DB11D8093FC01A2
:100BE0009093FD01A093FE01B093FF01BF91AF91DF
:100BF0009F918F913F912F910F900FBE0F901F905B
:100C000018951F920F920FB60F9211242F933F93B6
:100C10004F935F936F937F938F939F93AF93BF9304
:100C2000EF93FF938091B900887F803609F49CC0D0
:100C300068F5883209F45BC090F4803109F454C03F
:100C400038F4882309F4F6C0883009F44DC0F6C0A2
:100C5000883109F44CC0803209F45DC0EFC08034A3
:100C600009F468C048F4803309F455C0883309F0AA
:100C7000E5C080936902D8C0803509F44FC088353B
:100C800009F45DC0883409F0D9C0D6C0883909F4A8
:100C9000C7C0A8F4883709F467C038F4883609F467
:100CA00063C0803709F460C0C9C0883809F4B8C08F
:100CB000803909F45FC0803809F0C0C05BC0803B58
:100CC00009F486C038F4803A09F466C0883A09F419
:100CD0007FC0B4C0803C09F4A7C0883C09F4A4C01C
:100CE000883B09F48AC0AAC08091660210C0909126
:100CF000680280916702981770F5E091680281E0C0
:100D00008E0F80936802F0E0EB5BFD4F8081809353
:100D1000BB0085EC86C0809369028EC0E0916802BA
:100D200081E08E0F809368028091BB00F0E0EB5B66
:100D3000FD4F808390916802809167026EC0E091C0
:100D4000680281E08E0F809368028091BB00F0E022
:100D5000EB5BFD4F808380916A0281116DC081E061
:100D60008093650284EA61C083E080936B021092F5
:100D7000FA01CFCF8091FA01803208F051C0E091A2
:100D8000FA0181E08E0F8093FA018091BB00F0E0C0
:100D9000E652FE4F8083BDCF85EC8093BC0010925D
:100DA0006B028091FA01803230F4E091FA01F0E0B8
:100DB000E652FE4F10826091FA0170E0E091D80196
:100DC000F091D9018AED91E009951092FA0136C0AF
:100DD00084E080936B021092D7011092D601E091CB
:100DE000D401F091D50109958091D601811105C0FA
:100DF00081E08093D6011092B401E091D70181E0A7
:100E00008E0F8093D701F0E0EC54FE4F80818093E9
:100E1000BB009091D7018091D601981708F479CF43
:100E200085E88093BC000AC085EC8093BC001092DA
:100E30006B0204C0109269020E948502FF91EF913B
:100E4000BF91AF919F918F917F916F915F914F91E2
:100E50003F912F910F900FBE0F901F901895EEE8C5
:100E6000F2E01382128288EE93E0A0E0B0E0848387
:100E70009583A683B78324E031E03183208325EC7A
:100E800030E03587248724EC30E03787268720EC54
:100E900030E0318B208B21EC30E0338B228B22EC45
:100EA00030E0358B248B26EC30E0378B268B118E8F
:100EB000128E138E148EEBE2F3E0168217821086E8
:100EC0001186128613861486158616861786108A52
:100ED000118A128A138A148A158AE3E7F3E01382CF
:100EE000128284839583A683B78386E191E0918300
:100EF00080830895CF93DF93CDB7DEB7A1970FB668
:100F0000F894DEBF0FBECDBF789484B5826084BDF7
:100F100084B5816084BD85B5826085BD85B58160FD
:100F200085BD80916E00816080936E00109281007B
:100F30008091810082608093810080918100816036
:100F400080938100809180008160809380008091F7
:100F5000B10084608093B1008091B0008160809383
:100F6000B00080917A00846080937A0080917A004A
:100F7000826080937A0080917A00816080937A0009
:100F800080917A00806880937A001092C10010925C
:100F90006F031092700310927103109272031092FB
:100FA0002D0310922E0310922F031092300368EB42
:100FB0007BE080E090E00E94F0008EE892E0909369
:100FC0006E0380936D030E9482002FB7F894809186
:100FD000000290910102A0910202B09103022FBF82
:100FE00080932D0390932E03A0932F03B09330038F
:100FF00064E271E080916D0390916E030E9435056B
:101000006AE070E080E090E00E94F00011E0109350
:1010100041030E94820086E391E00E944A0583E733
:1010200093E0909344028093430210926D021092D9
:101030006C02109205021092040210926B0210933F
:101040006A021092650282E10E94AA0083E10E9476
:10105000AA008091B9008E7F8093B9008091B90079
:101060008D7F8093B90088E48093B80095E49093D5
:10107000BC008093B80088E20E94A10481159D4ABB
:1010800008F4EBC00E941F05882309F4E6C080E045
:101090000E946104807F682F656080E00E949F034A
:1010A00082E00E94610461E082E00E949F0365E6A5
:1010B0008CE10E949F0360E075E084E10E94CB0315
:1010C0000E94F304882309F4C8C060E076E084E15C
:1010D0000E94CB030E940905882309F4BEC08CE05E
:1010E0000E94A1049F70BC01706E8CE00E94CB0333
:1010F0008CE00E94A104907FBC0171608CE00E9492
:10110000CB036FEF70E18EE00E94CB0360ED77E0E0
:1011100080E20E94CB0368E070E582E20E94CB038C
:1011200061E470EA84E20E94CB0364ED75E486E238
:101130000E94CB030E941F05882309F48EC00E94E1
:101140001F05882309F489C060E075E084E10E94EE
:10115000CB030E94F304882309F47FC060E076E0AB
:1011600084E10E94CB030E940905882309F475C01D
:101170008AE591E00E944A058AE0C82ED12CE12C34
:10118000F12C61E884E00E949F031AE080E00E9455
:10119000610484FD05C00E944E021150B9F729C0B8
:1011A00088E00E94A1049C013F77232B11F19C0150
:1011B000232F33272295269527702370D1F49695F7
:1011C000879596958795977090930902809308026A
:1011D0008AE00E94A104282F2F7020930A0234E095
:1011E000969587953A95E1F7977090930C028093C6
:1011F0000B0200910802109109026CE471E08EE884
:1012000092E00E943505980140E050E019A28E015D
:101210000F5D1F4FCA01B901A70196010E94320953
:10122000605DF80162938F0121153105410551057B
:1012300089F7BF018EE892E00E94350567E571E00D
:101240008EE892E00E94350563E371E08EE892E05B
:101250000E9435050E941F0294CF89E691E00E940A
:101260004A05FFCFA1E21A2EAA1BBB1BFD010DC030
:10127000AA1FBB1FEE1FFF1FA217B307E407F50746
:1012800020F0A21BB30BE40BF50B661F771F881F22
:10129000991F1A9469F760957095809590959B01B8
:1012A000AC01BD01CF010895EE0FFF1F0590F49131
:1012B000E02D099481E090E0F8940C945F09F89493
:0212C000FFCF5E
:1012C20000000000B60123014E01FD017F015D0116
:1012D2007101000000001303E3021404B702DB02F1
:1012E200C702B802564D4450565F317C315F564DAD
:1012F2004450560D0A005246443737343032205299
:10130200656164204578616D706C65006469737411
:10131200616E63653A20006D6D0053656E736F7286
:10132200206F6E6C696E65210053656E736F72205B
:101332006661696C656420746F20696E69746961A5
:101342006C697A652E20436865636B2077697269E0
:041352006E672E0094
:107E0000112484B714BE81FFF0D085E080938100F7
:107E100082E08093C00088E18093C10086E0809377
:107E2000C20080E18093C4008EE0C9D0259A86E02C
:107E300020E33CEF91E0309385002093840096BBD3
:107E4000B09BFECF1D9AA8958150A9F7CC24DD24C4
:107E500088248394B5E0AB2EA1E19A2EF3E0BF2EE7
:107E6000A2D0813461F49FD0082FAFD0023811F036
:107E7000013811F484E001C083E08DD089C08234E0
:107E800011F484E103C0853419F485E0A6D080C0E4
:107E9000853579F488D0E82EFF2485D0082F10E0AE
:107EA000102F00270E291F29000F111F8ED06801E7
:107EB0006FC0863521F484E090D080E0DECF843638
:107EC00009F040C070D06FD0082F6DD080E0C81688
:107ED00080E7D80618F4F601B7BEE895C0E0D1E017
:107EE00062D089930C17E1F7F0E0CF16F0E7DF06D8
:107EF00018F0F601B7BEE89568D007B600FCFDCFD4
:107F0000A601A0E0B1E02C9130E011968C91119780
:107F100090E0982F8827822B932B1296FA010C0160
:107F200087BEE89511244E5F5F4FF1E0A038BF0790
:107F300051F7F601A7BEE89507B600FCFDCF97BE46
:107F4000E89526C08437B1F42ED02DD0F82E2BD052
:107F50003CD0F601EF2C8F010F5F1F4F84911BD097
:107F6000EA94F801C1F70894C11CD11CFA94CF0C13
:107F7000D11C0EC0853739F428D08EE10CD085E9AC
:107F80000AD08FE07ACF813511F488E018D01DD067
:107F900080E101D065CF982F8091C00085FFFCCF94
:107FA0009093C60008958091C00087FFFCCF809118
:107FB000C00084FD01C0A8958091C6000895E0E648
:107FC000F0E098E1908380830895EDDF803219F02E
:107FD00088E0F5DFFFCF84E1DECF1F93182FE3DFCA
:107FE0001150E9F7F2DF1F91089580E0E8DFEE27F6
:047FF000FF270994CA
:027FFE00040479
:0400000300007E007B
:00000001FF