:100000000C94F2000C941A010C941A010C946402E2
:100010000C9464020C9464020C941A010C941A015E
:100020000C941A010C941A010C941A010C941A01E4
:100030000C941A010C941A010C941A010C941A01D4
:100040000C9479090C941A010C94B2080C948C0845
:100050000C941A010C941A010C941A010C941A01B4
:100060000C94EE060C941A01084AD73B3BCE016E65
:1000700084BCBFFDC12F3D6C74319ABD56833DDAFF
:100080003D00C77F11BED9E4BB4C3E916BAAAABE0E
:10009000000000803F0000407A10F35A00A0724E2A
:1000A00018090010A5D4E80000E87648170000E41D
:1000B0000B54020000CA9A3B000000E1F505000065
:1000C00080969800000040420F000000A0860100CA
:1000D0000000102700000000E8030000000064009A
:1000E000000000000A000000000001000000000005
:1000F0002C76D888DC674F0823DFC1DFAE59E1B129
:10010000B796E5E3E453C63AE651997696E8E6C237
:100110008426EB898C9B62ED407C6FFCEFBC9C9F3E
:1001200040F2BAA56FA5F490055A2AF75C936B6C60
:10013000F9676DC11BFCE0E40D47FEF520E6B50054
:10014000D0ED902E0300943577050080841E0800C2
:1001500000204E0A000000C80C333333330F986E72
:1001600012831141EF8D2114893BE65516CFFEE62F
:10017000DB18D1844B381BF77C1D901DA4BBE424F5
:10018000203284725E228100C9F124ECA1E53D2772
:1001900000000000240027002A00000000002500C5
:1001A00028002B00040404040404040402020202D4
:1001B000020203030303030301020408102040802A
:1001C00001020408102001020408102000000008A9
:1001D000000201000003040700000000000000000E
:1001E000A1117E0C11241FBECFEFD8E0DEBFCDBF22
:1001F00023E0A6EDB1E001C01D92AF38B207E1F7F0
:1002000011E0A0E0B1E0EAE9F4E302C005900D924C
:10021000A63DB107D9F710E0C1EFD0E004C02197A7
:10022000FE010E943E18C03FD107C9F70E94820C10
:100230000C94401A0C940000089508950895E091DC
:10024000400280913F02E81730F4F0E0E65AFD4F9B
:10025000808190E008958FEF9FEF08959091400284
:1002600080913F02981750F4E92FF0E0E65AFD4FD5
:10027000208130E09F5F9093400202C02FEF3FEF5C
:10028000C901089580913F0290E020914002821BB5
:1002900091090895089580E090E0089585ED809398
:1002A000BC008091BC0084FDFCCF1092A002089598
:1002B0004091F601262F30E0240F311D2132310507
:1002C000DCF42091A0022430C9F4FC0180E090E02D
:1002D000861758F43091F6012191DC01AA52BE4FE5
:1002E000A30FB11D2C930196F3CF8091F601680FF7
:1002F0006093F60180E0089581E0089582E008951A
:10030000CF92DF92EF92FF920F931F93CF93DF93E1
:100310007C01CB018A0120914402222389F0EB0168
:100320006B01C40ED51ECC15DD0569F06991D701AE
:10033000ED91FC910190F081E02DC7010995F3CF7B
:10034000642F0E945801C801DF91CF911F910F9136
:10035000FF90EF90DF90CF900895CF93DF931F929F
:10036000CDB7DEB76983209144022223D1F02091DA
:100370004102203240F021E030E0FC01338322834F
:1003800080E090E015C080914202E82FF0E0E75E47
:10039000FD4F998190838F5F809342028093410249
:1003A00005C061E0CE0101960E94580181E090E015
:1003B0000F90DF91CF9108950F931F93CF93DF9309
:1003C000EC0188819981009729F02A813B812617C9
:1003D000370788F48B016F5F7F4F0E946519009784
:1003E00061F0998388831B830A832C813D81232BB1
:1003F00011F4FC01108281E001C080E0DF91CF9117
:100400001F910F910895EF92FF920F931F93CF9337
:10041000DF936115710511F480E01CC04115510591
:10042000C1F07B01EC018C819D818A01080F191FAD
:10043000B801CE010E94DC01882371F32881398143
:100440008C819D81B701820F931F0E94391A1D83F1
:100450000C8381E0DF91CF911F910F91FF90EF907E
:100460000895CF93DF93EC0188819981009711F073
:100470000E94DC18198218821D821C821B821A823B
:10048000DF91CF910895EF92FF920F931F93CF9337
:10049000DF93EC017B018A01BA010E94DC0181112A
:1004A00004C0CE010E94310207C01D830C83B70136
:1004B000888199810E94391ACE01DF91CF911F91D5
:1004C0000F91FF90EF9008951F920F920FB60F9229
:1004D00011240F900FBE0F901F901895309141027C
:1004E000313208F04AC08091A0028111FCCF909176
:1004F000430222E02093A00260939F022FEF2093FB
:100500009E0210929D0230939C02E9E1F2E0AAE77C
:10051000B2E020E0321721F041914D932F5FFACFE6
:1005200010929B0220919B02990F922B90939B0219
:1005300090919A02913061F410929A0290919B02EC
:100540009093BB009091BC0093FDF8CF95EC01C057
:1005500095EE9093BC009091A0029230E1F39091BF
:100560009E029F3F79F080919E02803241F08091FF
:100570009E02803331F084E005C081E003C082E058
:1005800001C083E010924202109241021092440294
:1005900008952F923F924F925F926F927F928F9227
:1005A0009F92AF92BF92CF92DF92EF92FF920F9302
:1005B0001F93CF93DF93CDB7DEB7C254D1090FB6E7
:1005C000F894DEBF0FBECDBF1C0181E080934402D2
:1005D00089E6809343021092420210924102D101B7
:1005E0008D919C91DC01ED91FC910190F081E02DC9
:1005F0006BE3099560E0F101808191810E946E02B8
:1006000041E06EE089E60E94880A109240028093E1
:100610003F02D1018D919C91DC01ED91FC9102840E
:10062000F385E02D0995182FF10180819181DC017E
:10063000ED91FC910284F385E02D099520E030E0F6
:10064000312F822B932BF1019383828380819181BF
:10065000DC01ED91FC910284F385E02D0995182FC2
:10066000F10180819181DC01ED91FC910284F3859F
:10067000E02D099520E030E0312F822B932BF10102
:100680009583848380819181DC01ED91FC910284CA
:10069000F385E02D0995182FF10180819181DC010E
:1006A000ED91FC910284F385E02D099520E030E086
:1006B000312F822B932BF101978386838081918147
:1006C000DC01ED91FC910284F385E02D0995182F52
:1006D000F10180819181DC01ED91FC910284F3852F
:1006E000E02D099520E030E0312F822B932BF10192
:1006F0009187808780819181DC01ED91FC9102845A
:10070000F385E02D0995182FF10180819181DC019D
:10071000ED91FC910284F385E02D099520E030E015
:10072000312F822B932BF1019387828780819181D6
:10073000DC01ED91FC910284F385E02D0995182FE1
:10074000F10180819181DC01ED91FC910284F385BE
:10075000E02D099520E030E0312F822B932BF10121
:100760009587848780819181DC01ED91FC910284E1
:10077000F385E02D0995F82EF10180819181DC014E
:10078000ED91FC910284F385E02D099500E010E0E5
:100790001F2D082B192BF10117870687608571859E
:1007A000072E000C880B990B0E94E31420E030EF19
:1007B00041E456E40E94381620E030E04AEA53E46F
:1007C0000E941617D1015C966D937D938D939C9337
:1007D0005F9712966D917C911397072E000C880BF2
:1007E000990B0E94E31420E030E040E858E30E94B7
:1007F00042154B015C01F10160A371A382A393A395
:1008000064817581072E000C880B990B0E94E314FC
:1008100020E030E040E858E30E9442156B017C0183
:10082000D10194966D937D938D939C939797169693
:100830006D917C911797072E000C880B990B0E94E5
:10084000E31420E030E040E858E30E9442152B0119
:100850003C01F10160A771A782A793A720E030E0D7
:10086000A901C501B4010E94DE17181624F0C501C4
:10087000B401905802C0C501B401A30192010E94C5
:1008800038169B01AC01C701B6010E94B716910151
:100890002C5B3F4F3CAB2BAB20E030E044EB53E410
:1008A0000E94421520E030E040E05FE30E944215E4
:1008B0002BED3FE049E450E40E941617ABA9BCA918
:1008C0006D937D938D939C93139720E030E0A90165
:1008D000C701B6010E94DE17181624F0F7FAF0944B
:1008E000F7F8F094A3019201C701B6010E943816EF
:1008F0009B01AC01C501B4010E94B716F101E85B90
:10090000FF4F2196FFAFEEAF219720E030E044EBA0
:1009100053E40E94421520E030E040E05FEB0E948B
:1009200042152BED3FE049E450E40E941617219652
:10093000AEADBFAD21976D937D938D939C9313972F
:10094000F10164857585072E000C880B990B0E94B8
:10095000E31420E030E043E852E40E9416176B01F4
:100960007C01D1011A966D917C911B97072E000C8A
:10097000880B990B0E94E31420E030E043E852E436
:100980000E941617F10120893189428953890E94FA
:100990003716D1019C966D937D938D939C939F9771
:1009A00054962D913D914D915C915797C701B60199
:1009B0000E943716F10160AB71AB82AB93ABB8010B
:1009C000110F880B990B0E94E31420E030E043E8FC
:1009D00052E40E941617D10158962D913D914D91E8
:1009E0005C915B970E943716F10164AB75AB86ABE7
:1009F00097AB0E946D099101205A3F4F23963FAF5C
:100A00002EAF2397D9010D911D912D913C91601B23
:100A1000710B820B930B0E94E1142FE632E143E845
:100A20005AE30E9442156B017C01F101E45AFF4F29
:100A30006083718382839383F10124A535A546A544
:100A400057A50E9442152B013C019B01AC01D1012D
:100A5000D8966D917D918D919C91DB970E9438166F
:100A6000F10160AF71AF82AF93AF20A931A942A964
:100A700053A9C701B6010E9442154B015C019B01BD
:100A8000AC01D101DC966D917D918D919C91DF97A8
:100A90000E943816F10164AF75AF86AF97AF24A9F5
:100AA00035A946A957A9C701B6010E94421581017F
:100AB000005C1F4FD8012D913D914D915C910E949A
:100AC00038166BAB7CAB8DAB9EABF801608371834A
:100AD00082839383B89680819181A281B3818FAB09
:100AE00098AFA9AFBAAF349780819181A281B381C9
:100AF0008BAF9CAFADAFBEAF005F1F4FD8012D9144
:100B00003D914D915C91C301B2010E9438162FA90D
:100B100038AD49AD5AAD0E9442152B013C01F1019F
:100B2000EC5BFF4F20813181428153816BAD7CAD05
:100B30008DAD9EAD0E9442159B01AC01C301B20177
:100B40000E943816F80160837183828393830C5F5F
:100B50001F4FD8012D913D914D915C91C501B4017C
:100B60000E9438162FA938AD49AD5AAD0E944215E2
:100B70004B015C012196EEADFFAD219720813181C3
:100B8000428153816BAD7CAD8DAD9EAD0E9442150F
:100B90009B01AC01C501B4010E943816D8016D93C8
:100BA0007D938D939C931397F101E85AFF4F8BA986
:100BB0009CA9ADA9BEA980839183A283B383AC0114
:100BC000BD01CE018D960E944A0AD10158964D91E1
:100BD0005D916D917C915B97CE0187960E944A0A48
:100BE000F10144A955A966A977A9CE0181960E9471
:100BF0004A0AD1011E968D919C911F971C8E1B8EC7
:100C00001E8E1D8E18A21F8E4AE0FE0131965F01D6
:100C1000BF010E947512F50101900020E9F731979C
:100C2000AF014A195B09B501CE014B960E94430200
:100C30001E8A1D8A188E1F8A1A8E198E4AE050E06D
:100C400062E371E0CE0145960E944302BE01655EFB
:100C50007F4FCE0145960E94370A6DE371E00E94F6
:100C6000C309BE016F5D7F4F0E94370A66E471E0E1
:100C70000E94C309BE01695D7F4F0E94370A65E586
:100C800071E00E94C309BE01635D7F4F0E94370A75
:100C900063E671E00E94C3094C01850122E044E053
:100CA000C701B6010E945512FC0101900020E9F72E
:100CB0003197AF01481B590BBC01C4010E940302CC
:100CC000811103C0C4010E9431021A8219821C8260
:100CD0001B821E821D82A814B90471F0D4016D918B
:100CE0007C9111976115710539F014964D915C91C5
:100CF0001597C5010E9443028D899E890E94DC18C8
:100D00008B8D9C8D0E94DC1889A19AA10E94DC1811
:100D10008FA198A50E94DC188DA59EA50E94DC18C5
:100D20004D815E8169817A8181EA92E00E94580852
:100D30008FE691E00E94250A0E946D092396EEAD90
:100D4000FFAD2397608371838283938389819A8126
:100D50000E94DC18CE5BDF4F0FB6F894DEBF0FBEEB
:100D6000CDBFDF91CF911F910F91FF90EF90DF905A
:100D7000CF90BF90AF909F908F907F906F905F903B
:100D80004F903F902F9008951F93CF93DF93EC01E6
:100D9000142F81E08093440289E6809343021092ED
:100DA00042021092410288819981DC01ED91FC910F
:100DB0000190F081E02D099588819981DC01ED9108
:100DC000FC910190F081E02D612F099561E088810F
:100DD0009981DF91CF911F910C946E021F920F9217
:100DE0000FB60F9211242F933F934F935F936F93FE
:100DF0007F938F939F93AF93BF93EF93FF938091D4
:100E0000B900887F803609F49CC068F5883209F4FF
:100E10005BC090F4803109F454C038F4882309F49D
:100E2000F6C0883009F44DC0F6C0883109F44CC0D2
:100E3000803209F45DC0EFC0803409F468C048F422
:100E4000803309F455C0883309F0E5C080939E02D1
:100E5000D8C0803509F44FC0883509F45DC08834A6
:100E600009F0D9C0D6C0883909F4C7C0A8F48837BA
:100E700009F467C038F4883609F463C0803709F490
:100E800060C0C9C0883809F4B8C0803909F45FC0AF
:100E9000803809F0C0C05BC0803B09F486C038F4DC
:100EA000803A09F466C0883A09F47FC0B4C0803C37
:100EB00009F4A7C0883C09F4A4C0883B09F48AC09F
:100EC000AAC080919B0210C090919D0280919C02CB
:100ED000981770F5E0919D0281E08E0F80939D023E
:100EE000F0E0E658FD4F80818093BB0085EC86C022
:100EF00080939E028EC0E0919D0281E08E0F8093D0
:100F00009D028091BB00F0E0E658FD4F80839091F8
:100F10009D0280919C026EC0E0919D0281E08E0F47
:100F200080939D028091BB00F0E0E658FD4F8083E6
:100F300080919F0281116DC081E080939A0284EAC2
:100F400061C083E08093A00210921802CFCF8091FD
:100F50001802803208F051C0E091180281E08E0F33
:100F6000809318028091BB00F0E0E850FE4F808330
:100F7000BDCF85EC8093BC001092A0028091180236
:100F8000803230F4E0911802F0E0E850FE4F108219
:100F90006091180270E0E0913B02F0913C0288EF12
:100FA00091E009951092180236C084E08093A00267
:100FB0001092F7011092F601E0913D02F0913E028D
:100FC00009958091F601811105C081E08093F601B9
:100FD0001092D601E091F70181E08E0F8093F70126
:100FE000F0E0EA52FE4F80818093BB009091F701C0
:100FF0008091F601981708F479CF85E88093BC00BA
:101000000AC085EC8093BC001092A00204C010922C
:101010009E020E944E01FF91EF91BF91AF919F916F
:101020008F917F916F915F914F913F912F910F9091
:101030000FBE0F901F901895CF93DF93EC018C811A
:101040009D810E94DC188A819B81DF91CF910C9455
:10105000DC18CF93DF93EC010E941C08CE01DF91D6
:10106000CF910C94DC183FB7F89480915602909180
:101070005702A0915802B091590226B5A89B05C00D
:101080002F3F19F00196A11DB11D3FBFBA2FA92F07
:10109000982F8827820F911DA11DB11DBC01CD0184
:1010A00042E0660F771F881F991F4A95D1F7089570
:1010B000CF92DF92EF92FF920F931F93CF93DF9324
:1010C0006C017A018B01C0E0D0E0CE15DF0581F024
:1010D000D8016D918D01D601ED91FC910190F081C7
:1010E000E02DC6010995892B11F02196EECF7E01E6
:1010F000C701DF91CF911F910F91FF90EF90DF908B
:10110000CF90089581EA92E00E940D0A21E0892B98
:1011100009F420E0822F08951F920F920FB60F92CC
:1011200011242F933F934F935F936F937F938F93EC
:101130009F93AF93BF93EF93FF9381EA92E00E9456
:101140001B0BFF91EF91BF91AF919F918F917F9179
:101150006F915F914F913F912F910F900FBE0F9024
:101160001F9018951F920F920FB60F9211242F9374
:101170008F939F93EF93FF93E091B102F091B202AE
:101180008081E091B702F091B80282FD12C0908197
:101190008091BA028F5F8F732091BB02821751F04A
:1011A000E091BA02F0E0EF55FD4F958F8093BA02BF
:1011B00001C08081FF91EF919F918F912F910F90AE
:1011C0000FBE0F901F90189590E0FC01E453FE4F66
:1011D0002491FC01E854FE4F3491FC01EC55FE4F84
:1011E000E491EE2309F43CC0222339F1233091F03D
:1011F00038F42130A9F0223001F584B58F7D12C07A
:10120000273091F02830A1F02430B9F4809180008B
:101210008F7D03C0809180008F77809380000DC008
:1012200084B58F7784BD09C08091B0008F7703C0EB
:101230008091B0008F7D8093B000F0E0EE0FFF1F33
:10124000E656FE4FA591B4919FB7F894611104C082
:101250008C913095382302C0EC913E2B3C939FBF7C
:101260000895CF93DF9390E0FC01E854FE4F249162
:10127000FC01EC55FE4F8491882361F190E0880FCA
:10128000991FFC01E057FE4FC591D491FC01E65631
:10129000FE4FA591B491611109C09FB7F894888160
:1012A000209582238883EC912E230BC0623061F459
:1012B0009FB7F8948881322F309583238883EC91EF
:1012C0002E2B2C939FBF06C08FB7F894E8812E2B4E
:1012D00028838FBFDF91CF9108952FB7F894609145
:1012E00052027091530280915402909155022FBF87
:1012F00008951F920F920FB60F9211242F933F93D0
:101300008F939F93AF93BF9380915202909153021A
:10131000A0915402B09155023091510223E0230F65
:101320002D3720F40196A11DB11D05C026E8230F1D
:101330000296A11DB11D20935102809352029093F9
:101340005302A0935402B09355028091560290919B
:101350005702A0915802B09159020196A11DB11DEA
:101360008093560290935702A0935802B09359026B
:10137000BF91AF919F918F913F912F910F900FBE91
:101380000F901F901895CF93DF93EC0161157105B5
:1013900061F0FB0101900020E9F73197AF01461B96
:1013A000570B0E940302811103C0CE010E9431023B
:1013B000CE01DF91CF910895FC01538D448D252FEF
:1013C00030E0842F90E0821B930B541710F0CF96DF
:1013D000089501970895FC01918D828D981761F011
:1013E000828DDF01A80FB11D5D968C91928D9F5F5C
:1013F0009F73928F90E008958FEF9FEF0895FC0107
:10140000918D828D981731F0828DE80FF11D858DB9
:1014100090E008958FEF9FEF0895FC01918D228D4C
:10142000892F90E0805C9F4F821B91098F739927D1
:10143000089580E090E0892B29F00E9482088111B4
:101440000C94000008950E942B1A009769F0FC018B
:1014500001900020E9F73197AF01481B590BBC01FF
:1014600081EA92E00C94580880E090E00895CF93D0
:10147000DF93EC01FB0144815581608171810E9401
:101480000302811103C0CE010E943102CE01DF911F
:10149000CF910895EF92FF920F931F93CF93DF9315
:1014A000CDB7DEB7A1970FB6F894DEBF0FBECDBFA4
:1014B0007C01CB01BA01F7011182108213821282E2
:1014C000158214828E010F5F1F4F22E044E00E94BC
:1014D0005512009769F0FC0101900020E9F731975F
:1014E000AF01481B590BBC01C7010E94430203C056
:1014F000C7010E943102A1960FB6F894DEBF0FBE5D
:10150000CDBFDF91CF911F910F91FF90EF90089584
:101510009091A0029111FCCF91E09093A002409392
:101520009F022FEF20939E0210929D02260F209380
:101530009C0290939B0290919B02880F892B809331
:101540009B0280919A02813061F410929A028091FC
:101550009B028093BB008091BC0083FDF8CF85EC9B
:1015600001C085EE8093BC008091A0028130E1F340
:1015700080919D02861710F460919D02AAE7B2E067
:10158000EAE5F2E080E0861721F09D9191938F5F6C
:10159000FACF08958F929F92AF92BF920F931F93AD
:1015A000CF93DF93CDB7DEB7A1970FB6F894DEBF28
:1015B0000FBECDBF19A2423008F44AE08E010F5D84
:1015C0001F4F842E912CA12CB12CA50194010E94B7
:1015D0000818E62FB901CA0101501109EA3014F4C4
:1015E000E05D01C0E95CD801EC93232B242B252B73
:1015F00061F7C8010E94250AA1960FB6F894DEBFD4
:101600000FBECDBFDF91CF911F910F91BF90AF90D3
:101610009F908F9008950C94250ACF93DF930E949A
:10162000250AEC018FE691E00E94250A8C0F9D1F90
:10163000DF91CF910895FC01848DDF01A80FB11DCA
:10164000A35ABF4F2C91848D90E001968F739927F8
:10165000848FA689B7892C93A089B1898C918370D6
:1016600080648C93938D848D981306C00288F389CF
:10167000E02D80818F7D80830895EF92FF920F93FC
:101680001F93CF93DF93EC0181E0888F9B8D8C8D2E
:10169000981305C0E889F989808185FD26C0F62E5A
:1016A0000B8D10E00F5F1F4F0F731127E02E8C8DF5
:1016B000E8120CC00FB607FCFACFE889F9898081DF
:1016C00085FFF5CFCE010E941B0BF1CF8B8DFE0164
:1016D000E80FF11DE35AFF4FF0829FB7F8940B8F8C
:1016E000EA89FB89808180620AC09FB7F894EE89FD
:1016F000FF896083E889F9898081837080648083B1
:101700009FBF81E090E0DF91CF911F910F91FF90FB
:10171000EF9008958F929F92AF92BF92CF92DF92F7
:10172000EF92FF920F931F93CF93DF936B017C0196
:10173000142F9B01AC010E94EF17882319F08AEC4B
:1017400091E027C046015701E894B7F82FEF3FEF2B
:101750004FE75FE7C501B4010E94EF1781110DC08B
:101760002FEF3FEF4FE75FE7C501B4010E94DC14A4
:1017700018161CF48EEC91E00CC02FEF3FEF4FE7F2
:101780005FE4C701B6010E94DE17181684F482EDEB
:1017900091E0DF91CF911F910F91FF90EF90DF903B
:1017A000CF90BF90AF909F908F900C94250A2FEF11
:1017B0003FEF4FE75FECC701B6010E94DC1487FDE5
:1017C000E6CF20E030E0A901C701B6010E94DC1499
:1017D00087FF0BC06DE281EA92E00E943D0BEC01B5
:1017E000F7FAF094F7F8F09402C0C0E0D0E000E01F
:1017F00060E070E080E09FE3101741F020E030E00F
:1018000040E251E40E9416170F5FF6CFA701960140
:101810000E9438166B017C010E9488174B015C0105
:101820004AE00E94CA0AC80FD91F1123B9F1C501A5
:10183000B4010E94E1149B01AC01C701B6010E94F2
:1018400037166B017C016EE281EA92E00E943D0B4B
:10185000C80FD91F20E030E040E251E4C701B601D3
:101860000E9442154B015C010E9488176B01E12C1C
:10187000F12C4AE0C701B6010E94CA0AC80FD91F5D
:10188000C701B6010E94E1149B01AC01C501B4017E
:101890000E9437166B017C011150E1F6CE01DF91F9
:1018A000CF911F910F91FF90EF90DF90CF90BF905D
:1018B000AF909F908F900895CF93DF93EC01888D28
:1018C0008823C9F0EA89FB89808185FD05C0A88944
:1018D000B9898C9186FD0FC00FB607FCF5CF8081CA
:1018E00085FFF2CFA889B9898C9185FFEDCFCE0114
:1018F0000E941B0BE7CFDF91CF9108958AE493E01C
:101900000C941C08CF93DF93CDB7DEB76E970FB65C
:10191000F894DEBF0FBECDBF789484B5826084BDDD
:1019200084B5816084BD85B5826085BD85B58160E3
:1019300085BD80916E00816080936E001092810061
:10194000809181008260809381008091810081601C
:1019500080938100809180008160809380008091DD
:10196000B10084608093B1008091B0008160809369
:10197000B00080917A00846080937A0080917A0030
:10198000826080937A0080917A00816080937A00EF
:1019900080917A00806880937A001092C100E09173
:1019A000B102F091B20282E08083E091AD02F09149
:1019B000AE021082E091AF02F091B00280E180832C
:1019C0001092B902E091B502F091B60286E08083F0
:1019D000E091B302F091B402808180618083E09154
:1019E000B302F091B402808188608083E091B302F9
:1019F000F091B402808180688083E091B302F0911D
:101A0000B40280818F7D80831092400210923F0249
:101A100010924202109241021092A00281E0809343
:101A20009F0210929A0261E082E10E94E40861E064
:101A300083E10E94E4088091B9008E7F8093B90011
:101A40008091B9008D7F8093B90088E48093B800BD
:101A500085E48093BC008CE191E090933E028093FA
:101A60003D028DE191E090933C0280933B028CE03B
:101A70008093B80082E791E00E940D0B8CE690E025
:101A80000E9444189E878D878EE393E0AD85BE85C6
:101A900011969C938E93FD01EC59FF4F8AE097EDD0
:101AA000A3EABCE380839183A283B383ED85FE85A3
:101AB000E859FF4F88E491EEAAE7BFE38083918362
:101AC000A283B383ED85FE85F0934D03E0934C0331
:101AD00088EC90E00E94441890934F0380934E034B
:101AE000109253031092520310925103109250031C
:101AF00082E891E00E940D0B40E069E18D859E85B2
:101B00000E94C40640E06AE18D859E850E94C4065D
:101B100048E06BE18D859E850E94C40640E06CE143
:101B20008D859E850E94C40641E06BE68D859E856D
:101B30000E94C4068D859E850E94C902AD85BE8522
:101B4000D8961D921D921D921C92DB97FD0114AE3A
:101B500015AE16AE17AEE05BFF4FAC5BBF4F8D917D
:101B60009D910D90BC91A02D80839183A283B3831E
:101B7000ED85FE85EC5AFF4FAD85BE85A85BBF4F56
:101B80008D919D910D90BC91A02D80839183A28316
:101B9000B3830E946D092D853E85205A3F4FD901A0
:101BA0006D937D938D939C9313978FE891E00E94A2
:101BB0000D0BE0914C03F0914D03FA8FE98F8EE904
:101BC00091E00E940D0B0E9433084B015C0198EEDE
:101BD000C92E93E0D92EE12CF12C0E943308DC01B0
:101BE000CB0188199909AA09BB09883E9340A10530
:101BF000B10598F3F1E0CF1AD108E108F10828EE19
:101C0000820E23E0921EA11CB11CC114D104E10478
:101C1000F10419F708EB1BE0C12CD12C7601460129
:101C200057012601370141E04093440259E65093A1
:101C300043021092420210924102A98DBA8D8D91F9
:101C40009C91DC01ED91FC910190F081E02D6BE322
:101C5000099560E0E98DFA8D808191810E946E0284
:101C600041E06EE089E60E94880A1092400280936B
:101C70003F02A98DBA8D8D919C91DC01ED91FC9173
:101C80000284F385E02D0995E98DFA8D808191819B
:101C9000DC01ED91FC910284F385E02D0995E98D3D
:101CA000FA8D80819181DC01ED91FC910284F385B4
:101CB000E02D0995E98DFA8D80819181DC01ED910E
:101CC000FC910284F385E02D0995E98DFA8D8081E0
:101CD0009181DC01ED91FC910284F385E02D099561
:101CE000E98DFA8D80819181DC01ED91FC91028476
:101CF000F385E02D0995E98DFA8D80819181DC01D4
:101D0000ED91FC910284F385E02D0995E98DFA8D22
:101D100080819181DC01ED91FC910284F385E02DBD
:101D20000995E98DFA8D80819181DC01ED91FC911D
:101D30000284F385E02D0995382EE98DFA8D808196
:101D40009181DC01ED91FC910284F385E02D0995F0
:101D50003A821982E981FA81E82BF92BFE87ED8717
:101D6000A98DBA8D8D919C91DC01ED91FC9102843D
:101D7000F385E02D0995382EE98DFA8D80819181CA
:101D8000DC01ED91FC910284F385E02D09953E8202
:101D90001D82ED81FE81E82BF92BFA8BE98BA98D51
:101DA000BA8D8D919C91DC01ED91FC910284F385BB
:101DB000E02D09958D8BE98DFA8D80819181DC0173
:101DC000ED91FC910284F385E02D09951C01ED85D0
:101DD000FE85BF01FF0F880B990B0E94E31420E0E2
:101DE00030E043E852E40E9416179B01AC01C301A6
:101DF000B2010E9438162B013C0129893A89B901A8
:101E0000330F880B990B0E94E31420E030E043E885
:101E100052E40E9416179B01AC01C501B4010E9457
:101E200038164B015C013D893A87198669857A85A8
:101E300062297329072E000C880B990B0E94E3146A
:101E400020E030E043E852E40E9416179B01AC0109
:101E5000C701B6010E9438166B017C0101501109BF
:101E600009F0E1CE20E030E84BE355E4C301B201D4
:101E70000E941617A98DBA8D50966D937D938D9300
:101E80009C93539720E030E84BE355E4C501B4013F
:101E90000E941617E98DFA8D648B758B868B978B54
:101EA00020E030E84BE355E4C701B6010E94161765
:101EB000A98DBA8D58966D937D938D939C935B9766
:101EC00002E310E0C12CD12C760146015701260116
:101ED000370180914C0390914D030E94C902E0911B
:101EE0004C03F0914D03FA83E983E05BFF4F2081BF
:101EF000318142815381C301B2010E9438162B0106
:101F00003C01E981FA81EC5AFF4F20813181428105
:101F10005381C501B4010E9438164B015C0129812F
:101F20003A81285A3F4FD9012D913D914D915C91B5
:101F3000C701B6010E9438166B017C0101501109DE
:101F400041F620E030E048E452E4C301B2010E94CF
:101F50001617609354037093550380935603909320
:101F6000570320E030E048E452E4C501B4010E9488
:101F70001617609358037093590380935A039093F4
:101F80005B0320E030E048E452E4C701B6010E9460
:101F9000161760935C0370935D0380935E039093C8
:101FA0005F0386E090E00E944418FC0188E2808391
:101FB0008AE2818388E893E1A0E0B0E082839383A2
:101FC000A483B58361E088E20E94310960E08AE27F
:101FD0000E9431090E946D096093490270934A0280
:101FE00080934B0290934C0218E285E0282E312C0E
:101FF0000E946D0960934D0270934E0280934F02D0
:1020000090935002C0904502D0904602E090470263
:10201000F0904802DC01CB018C199D09AE09BF0983
:102020008B3F9105A105B10508F45BC180914C037C
:1020300090914D030E94C9020E946D0969837A83C1
:102040008B839C83E0914C03F0914D03FE8FED8FC9
:1020500020A131A142A153A12D833E834F835887F4
:1020600024A135A146A157A129873A874B875C87D0
:1020700020A531A542A553A52D873E874F87588BB4
:1020800024A535A546A557A5298B3A8B4B8B5C8B90
:1020900020A931A942A953A92D8B3E8B4F8B588F74
:1020A00024A935A946A957A9298F3A8F4B8F5C8F50
:1020B000E05BFF4F2091540330915503409156034C
:1020C0005091570360817181828193810E943716FC
:1020D0002B013C01ED8DFE8DEC5AFF4F20915803F2
:1020E0003091590340915A0350915B036081718193
:1020F000828193810E9437164B015C01ED8DFE8D2C
:10210000E85AFF4F20915C0330915D0340915E03DC
:1021100050915F0360817181828193810E943716A3
:102120006B017C018091500390915103189F9001A5
:10213000199F300D1124E0914E03F0914F03E20FEF
:10214000F31F29813A814B815C8120833183428353
:1021500053832D813E814F81588524833583468367
:10216000578329853A854B855C852087318742874F
:1021700053872D853E854F85588924873587468727
:10218000578729893A894B895C89208B318B428B0F
:10219000538B2D893E894F89588D248B358B468BE7
:1021A000578B298D3A8D4B8D5C8D208F318F428FCF
:1021B000538F448E558E668E778E80A291A2A2A2F6
:1021C000B3A2C4A2D5A2E6A2F7A20196B1010E94D1
:1021D000F417909351038093500380915203909190
:1021E0005303853091052CF401969093530380930B
:1021F000520342E06D817E818F8198850E948A0B17
:1022000087EC91E00E940B0B42E069857A858B8513
:102210009C850E948A0B87EC91E00E940B0B42E0A8
:102220006D857E858F8598890E948A0B87EC91E069
:102230000E940B0B42E069897A898B899C890E94F4
:102240008A0B87EC91E00E940B0B42E06D897E893E
:102250008F89988D0E948A0B87EC91E00E940B0B6E
:1022600042E0698D7A8D8B8D9C8D0E948A0B87EC64
:1022700091E00E940B0B42E0C301B2010E948A0B65
:1022800087EC91E00E940B0B42E0C501B4010E9473
:102290008A0B87EC91E00E940B0B42E0C701B6016C
:1022A0000E948A0B87EC91E00E940B0B4AE0698147
:1022B0007A818B819C810E94CA0A8FE691E00E94FC
:1022C000250A80914D0290914E02A0914F02B0914B
:1022D00050028093450290934602A0934702B09328
:1022E00048020E94190A84CECF93DF9360E08CE00D
:1022F0000E94E40860E088E00E94E408C7E0D0E0C3
:1023000060E084E00E94E4088091600390E00C2E7D
:1023100002C0959587950A94E2F780FF02C061E0BC
:1023200001C060E088E00E94E40861E084E00E946F
:10233000E408219728F761E08CE0DF91CF910C94BD
:10234000E408CF93E1EAF2E01382128288EE93E090
:10235000A0E0B0E084839583A683B7832AE031E0D0
:102360003183208325EC30E03587248724EC30E06E
:102370003787268720EC30E0318B208B21EC30E052
:10238000338B228B22EC30E0358B248B26EC30E033
:10239000378B268B118E128E138E148EEEE3F3E0A4
:1023A0001382128284839583A683B7838CE191E0A4
:1023B00091838083E5E6F3E089E2868B108E178AAD
:1023C000118E10A211A212A283E090E094A383A325
:1023D000EAE4F3E08EE291E0918380831782168233
:1023E000118610861382128215821482128A138A31
:1023F000148A158A16861786108A118A1286138601
:1024000014861586E3E6F3E084E08083C2E0C183AE
:1024100061E08CE00E94310961E087E00E943109AF
:1024200061E088E00E94310961E084E00E943109A6
:10243000109260030E94741160E087E00E94E4083B
:102440000E94741184B5836284BD18BC61E085E08C
:102450000E943109E1E6F3E083E08083C18361E01B
:102460008CE00E94310961E087E00E94310961E05F
:1024700088E00E94310961E084E00E9431091092F5
:1024800060030E94741160E087E00E94E4080E94EB
:10249000741184B5836884BD17BC61E086E00E9436
:1024A000310910928A03CF910895EF920F931F93F1
:1024B000CF93DF93E80147FD02C034E001C034E16F
:1024C000042E000C550B57FF03C05195419551093F
:1024D000E32E022F242FAE010E949A12CE01DF912B
:1024E000CF911F910F91EF900895BB274A3031F49F
:1024F000992322F4BDE2909581959F4F0C9481120F
:10250000BB27FB015527AA27880F991FAA1FA417CD
:1025100010F0A41B83955051B9F7A05DAA3308F0C1
:10252000A95DA193009779F7B111B1931192CB01F5
:102530000C94CC14A9E0B0E0E0EAF2E10C940616A9
:102540006A01122FB02E2BE3201720F0FF24F39402
:10255000F00E02C02CE3F22E0F2D27E0AE014F5FEC
:102560005F4F0E94F413BC014981842F8970813030
:1025700031F0E1FC06C0E0FE06C090E205C09DE23D
:1025800003C09BE201C090E05E2D507143FF3CC050
:10259000911102C083E001C084E0811718F4212F5B
:1025A000281B01C020E051110BC0F601822F30E240
:1025B000882319F031938150FBCFC20ED11C20E04B
:1025C000992329F0D6019C93F60131966F01C6013B
:1025D0000396E2FE0AC03EE4D6013C9341E4119624
:1025E0004C93119712963C9306C03EE6F601308359
:1025F00041E641833283FC01322F40E2332309F468
:1026000042C041933150FACF42FF44C0911102C001
:1026100083E001C084E0811718F4212F281B01C03A
:1026200020E051110BC0F601822F30E2882319F00F
:1026300031938150FBCFC20ED11C20E0992329F0A9
:10264000D6019C93F60131966F01C6010396E2FE16
:102650000BC039E4D6013C933EE411963C931197AC
:1026600036E412963C9307C039E6F60130833EE625
:10267000318336E63283FC01322F40E2332319F0F6
:1026800041933150FBCFFC01E20FF11D10828EEF20
:102690009FEFA6C021E030E0911102C020E030E0C1
:1026A000161617061CF4FB01319602C0E1E0F0E0BB
:1026B0002E0F3F1FBB2021F0EB2DF0E0319602C022
:1026C000E0E0F0E02E0F3F1FE12FF0E02E173F0774
:1026D0001CF4121B212F01C020E08E2D887159F4AB
:1026E000F601822F30E2882319F031938150FBCF1D
:1026F000C20ED11C20E0992329F0D6019C93F6014B
:1027000031966F0151110BC0F601822F90E388239F
:1027100019F091938150FBCFC20ED11C20E00F2DF8
:10272000060F9A81342F307144FF03C0913309F4AE
:102730000150101624F4093018F008E001C001E03F
:10274000AB0177FF02C040E050E0FB01E41BF50B5A
:10275000A1E0B0E0AC0FBD1FEA0FFB1F8EE2A82E78
:102760004B01801A91080B2D10E01195019511096C
:102770004F3FBFEF5B0721F4D601AC9211966D017C
:10278000641775072CF08416950614F4818101C036
:1027900080E3415051093196D60111967D014017D1
:1027A000510724F0D6018C936701E2CF64177507B7
:1027B00039F4963320F4953319F4311101C081E3D3
:1027C000F6018083F701822F90E2882319F091931C
:1027D0008150FBCFF701E20FF11D108280E090E005
:1027E0002996ECE00C942216283008F027E03327D5
:1027F000DA01990F311D87FD916000966105710521
:1028000039F432602E5F3D9330E32A95E1F7089565
:102810009F3F30F080387105610509F03C5F3C5FF7
:102820003D93913008F08068911DDF93CF931F9303
:102830000F93FF92EF92192F987F9695E92F969517
:102840009695E90FFF27E051FF4F99273327EE2494
:10285000FF24A701E70105900894079428F4360F98
:10286000E71EF81E491F511D660F771F881F991F0D
:102870000694A1F70590079428F4E70EF81E491F67
:10288000561FC11D770F881F991F661F0694A1F759
:102890000590079428F4F80E491F561FC71FD11D35
:1028A000880F991F661F771F0694A1F7059007945C
:1028B00020F4490F561FC71FD81F990F661F771F97
:1028C000881F0694A9F784911095177041F0D6954A
:1028D000C79557954795F794E7941A95C1F7E6E998
:1028E000F0E068941590159135916591959105905A
:1028F0007FE27395E118F10A430B560BC90BD0091F
:10290000C0F7E10CF11E431F561FC91FD01D7EF4F6
:10291000703311F48A95E6CFE894015030F0080F37
:102920000AF40027021708F4202F2395022F7A3388
:1029300028F079E37D932A95E9F710C07D932A95D5
:1029400089F6069497956795379517951794E1182A
:10295000F10A430B560BC90BD00998F023957E91D1
:1029600073957A3308F070E37C932013B8F77E9167
:1029700070617D9330F0839571E37D9370E32A95C8
:10298000E1F71124EF90FF900F911F91CF91DF910C
:10299000992787FD90950895DC01FC01672F7191BF
:1029A0007723E1F7329704C07C916D937083629135
:1029B000AE17BF07C8F308950E941E1508F481E002
:1029C0000895E89409C097FB3EF490958095709522
:1029D00061957F4F8F4F9F4F9923A9F0F92F96E96B
:1029E000BB279395F695879577956795B795F111E0
:1029F000F8CFFAF4BB0F11F460FF1BC06F5F7F4F7D
:102A00008F4F9F4F16C0882311F096E911C077238E
:102A100021F09EE8872F762F05C0662371F096E897
:102A2000862F70E060E02AF09A95660F771F881F66
:102A3000DAF7880F9695879597F90895990F00080A
:102A4000550FAA0BE0E8FEEF16161706E807F90780
:102A5000C0F012161306E407F50798F0621B730B1B
:102A6000840B950B39F40A2661F0232B242B252B9C
:102A700021F408950A2609F4A140A6958FEF811D3F
:102A8000811D08950E9455150C94C6150E94B81515
:102A900038F00E94BF1520F0952311F00C94AF156B
:102AA0000C94B51511240C94FA150E94D71570F3E7
:102AB000959FC1F3950F50E0551F629FF001729FE3
:102AC000BB27F00DB11D639FAA27F00DB11DAA1FF2
:102AD000649F6627B00DA11D661F829F2227B00D3F
:102AE000A11D621F739FB00DA11D621F839FA00DCA
:102AF000611D221F749F3327A00D611D231F849F1A
:102B0000600D211D822F762F6A2F11249F57504070
:102B10009AF0F1F088234AF0EE0FFF1FBB1F661FEB
:102B2000771F881F91505040A9F79E3F510580F0B4
:102B30000C94AF150C94FA155F3FE4F3983ED4F370
:102B4000869577956795B795F795E7959F5FC1F758
:102B5000FE2B880F911D9695879597F9089597F903
:102B60009F6780E870E060E008959FEF80EC089533
:102B700000240A941616170618060906089500245C
:102B80000A9412161306140605060895092E0394D6
:102B9000000C11F4882352F0BB0F40F4BF2B11F44A
:102BA00060FF04C06F5F7F4F8F4F9F4F089557FDA9
:102BB0009058440F551F59F05F3F71F04795880FAB
:102BC00097FB991F61F09F3F79F087950895121642
:102BD00013061406551FF2CF4695F1DF08C01616EE
:102BE00017061806991FF1CF86957105610508949F
:102BF0000895E894BB2766277727CB0197F90895B6
:102C00002F923F924F925F926F927F928F929F92FC
:102C1000AF92BF92CF92DF92EF92FF920F931F93EA
:102C2000CF93DF93CDB7DEB7CA1BDB0B0FB6F8949B
:102C3000DEBF0FBECDBF09942A88398848885F84DB
:102C40006E847D848C849B84AA84B984C884DF804C
:102C5000EE80FD800C811B81AA81B981CE0FD11D30
:102C60000FB6F894DEBF0FBECDBFED0108955058EA
:102C7000BB27AA270E944F160C94C6150E94B815B0
:102C800038F00E94BF1520F039F49F3F19F426F464
:102C90000C94B5150EF4E095E7FB0C94AF15E92FF5
:102CA0000E94D71558F3BA17620773078407950770
:102CB00020F079F4A6F50C94F9150EF4E0950B2E9E
:102CC000BA2FA02D0B01B90190010C01CA01A0017E
:102CD0001124FF27591B99F0593F50F4503E68F1D9
:102CE0001A16F040A22F232F342F4427585FF3CF1A
:102CF000469537952795A795F0405395C9F77EF4EB
:102D00001F16BA0B620B730B840BBAF09150A1F033
:102D1000FF0FBB1F661F771F881FC2F70EC0BA0FB9
:102D2000621F731F841F48F4879577956795B79541
:102D3000F7959E3F08F0B0CF9395880F08F099273C
:102D4000EE0F9795879508950E94B81560F080E87A
:102D500091E009F49EEF0E94BF1528F040E851E091
:102D600071F45EEF0CC00C94B5150C94F915E92FB5
:102D7000E0780E94D71540F3092E052AB1F32617F3
:102D800037074807590738F00E2E07F8E02569F095
:102D9000E025E0640AC0EF6307F8009407FADB015E
:102DA000B9019D01DC01CA01AD01EF930E942D170D
:102DB0000E94C6150E94E7165F91552339F02BED4E
:102DC0003FE049E450FD49EC0C9438160895DF9338
:102DD000DD27B92FBF7740E85FE3161617064807CF
:102DE0005B0718F4D92F0E94E3179F938F937F936B
:102DF0006F930E94EB17E8E6F0E00E94B7170E947D
:102E0000C6152F913F914F915F910E945515DD237B
:102E100051F09058A2EA2AED3FE049EC5FE3D07808
:102E20005D270E944F16DF910C94C6150E942A1749
:102E30000C94C6150E94BF1558F00E94B81540F0BA
:102E400029F45F3F29F00C94AF1551110C94FA1539
:102E50000C94B5150E94D71568F39923B1F3552347
:102E600091F3951B550BBB27AA276217730784079D
:102E700038F09F5F5F4F220F331F441FAA1FA9F333
:102E800035D00E2E3AF0E0E832D091505040E69521
:102E9000001CCAF72BD0FE2F29D0660F771F881F82
:102EA000BB1F261737074807AB07B0E809F0BB0B75
:102EB000802DBF01FF2793585F4F3AF09E3F510589
:102EC00078F00C94AF150C94FA155F3FE4F3983E3C
:102ED000D4F3869577956795B795F7959F5FC9F772
:102EE000880F911D9695879597F90895E1E0660FF3
:102EF000771F881FBB1F621773078407BA0720F06C
:102F0000621B730B840BBA0BEE1F88F7E0950895D4
:102F10000E94DF1588F09F5798F0B92F9927B75175
:102F2000B0F0E1F0660F771F881F991F1AF0BA956D
:102F3000C9F714C0B13091F00E94F915B1E00895BD
:102F40000C94F915672F782F8827B85F39F0B93FAF
:102F5000CCF3869577956795B395D9F73EF4909520
:102F60008095709561957F4F8F4F9F4F0895DF93A8
:102F7000CF931F930F93FF92EF92DF927B018C010F
:102F8000689406C0DA2EEF010E945515FE01E89400
:102F9000A5912591359145915591A6F3EF010E9498
:102FA0004F16FE019701A801DA9469F7DF90EF90C0
:102FB000FF900F911F91CF91DF9108950E941E15F0
:102FC00008F48FEF08959B01AC0160E070E080E8A9
:102FD0009FE30C9416179B01AC010C9442150E94C0
:102FE0001E15880B990B089597FB072E16F4009475
:102FF00007D077FD09D00E942A1807FC05D03EF4BF
:10300000909581959F4F0895709561957F4F089594
:10301000A1E21A2EAA1BBB1BFD010DC0AA1FBB1FDC
:10302000EE1FFF1FA217B307E407F50720F0A21B4E
:10303000B30BE40BF50B661F771F881F991F1A94BB
:1030400069F760957095809590959B01AC01BD01E5
:10305000CF010895AA1BBB1B51E107C0AA1FBB1FCC
:10306000A617B70710F0A61BB70B881F991F5A9514
:10307000A9F780959095BC01CD010895EE0FFF1F33
:103080000590F491E02D09940F931F93CF93DF9354
:103090008230910510F482E090E0E0918D03F09190
:1030A0008E0320E030E0A0E0B0E0309719F14081DD
:1030B00051810281138148175907C8F08417950779
:1030C00069F4109731F012960C93129713961C9393
:1030D00027C000938D0310938E0322C02115310564
:1030E00019F04217530718F49A01BD01EF01DF01EF
:1030F000F801DBCF21153105F9F0281B390B2430FD
:10310000310580F48A819B816115710521F0FB01F5
:103110009383828304C090938E0380938D03FE017A
:10312000329644C0FE01E20FF31F81939193225027
:103130003109398328833AC020918B0330918C0365
:10314000232B41F4209102013091030130938C0331
:1031500020938B032091000130910101211531054D
:1031600041F42DB73EB74091040150910501241B55
:10317000350BE0918B03F0918C03E217F307A0F479
:103180002E1B3F0B2817390778F0AC014E5F5F4FBD
:103190002417350748F04E0F5F1F50938C03409360
:1031A0008B038193919302C0E0E0F0E0CF01DF91C7
:1031B000CF911F910F910895CF93DF93009709F45A
:1031C00081C0FC01329713821282A0918D03B091CD
:1031D0008E03109781F420813181820F931F2091FB
:1031E0008B0330918C032817390751F5F0938C032A
:1031F000E0938B0367C0ED0120E030E0CE17DF07DE
:1032000040F44A815B819E0141155105F1F0EA01CC
:10321000F5CFD383C28340815181840F951FC81796
:10322000D90759F488819981840F951F029691835B
:1032300080838A819B81938382832115310529F4C0
:10324000F0938E03E0938D033DC0E901FB83EA8395
:1032500049915991C40FD51FEC17FD0761F4808186
:103260009181840F951F0296E90199838883828159
:1032700093819B838A83E0E0F0E012968D919C918C
:103280001397009719F0FD01DC01F7CF8D919C9108
:1032900011979D012E5F3F4F820F931F20918B034B
:1032A00030918C032817390769F4309729F410926C
:1032B0008E0310928D0302C013821282B0938C038E
:1032C000A0938B03DF91CF910895A0E0B0E0EBE6EF
:1032D000F9E10C940416EC01009721F4CB010E9453
:1032E0004418B4C0FC01E60FF71F9C0122503109BD
:1032F000E217F30708F4A8C0D9010D911C911197AA
:1033000006171707B0F00530110508F49BC0C80177
:1033100004978617970708F495C002501109061BF9
:10332000170B019311936D937C93CF010E94DC18CE
:1033300089C05B01A01AB10A4C01800E911EA091B8
:103340008D03B0918E03612C712CE12CF12C109720
:1033500009F446C08D919C911197A815B905B1F556
:103360006C0142E0C40ED11CCA14DB0478F14C019C
:103370008A189B08640142E0C40ED11C1296BC90CE
:1033800012971396AC91B5E0CB16D10440F0B282FF
:10339000A38391828082D9016D937C9309C00E5FD3
:1033A0001F4F800F911FF90191838083EB2DFA2F1E
:1033B000E114F10431F0D7011396FC93EE931297C8
:1033C00041C0F0938E03E0938D033CC068167906EC
:1033D00008F43C017D0112960D90BC91A02DB7CF51
:1033E00080918B0390918C0388169906E1F4661600
:1033F0007706C8F48091000190910101009741F493
:103400008DB79EB74091040150910501841B950B27
:10341000E817F907C8F4F0938C03E0938B03F901E4
:10342000718360830FC0CB010E9444187C01009718
:1034300059F0A801BE010E94301ACE010E94DC188A
:10344000C70104C0CE0102C080E090E0CDB7DEB776
:10345000EEE00C94201681E090E0F8940C94401A71
:10346000FB01DC0102C001900D9241505040D8F7A1
:103470000895FB01DC0101900D920020E1F7089511
:1034800010E0C1EFD0E004C0FE010E943E1821967A
:0A349000C23FD107C9F7F894FFCF3F
:10349A0000008F038000000000003D0B5808DC0983
:1034AA005C0C0D0AEB09FF0900000000AD01800168
:1034BA004B011E0142012E011F01000000001C08E1
:1034CA0029087261774779726F5A3A200020677922
:1034DA00726F5A3A2000206779726F5A6F66667364
:1034EA0065743A200020616E676C654779726F5A7D
:1034FA003A200020696E74657276616C3A20000D7C
:10350A000A00494D55204F626A65637420546573F9
:10351A007400496E7369646520426567696E004686
:10352A00696E697368656420426567696E003D3D2E
:10353A003D3D3D3D3D3D3D3D3D3D3D3D3D3D3D3DB1
:10354A003D3D3D3D3D3D3D3D3D3D3D3D3D3D3D3DA1
:10355A003D3D3D3D3D3D002C20006E616E00696E93
:06356A0066006F766600AA
:00000001FF
