:100000000C9479000C94A1000C94A1000C94E705C9
:100010000C94E7050C94E7050C94A1000C94A10046
:100020000C94A1000C94A1000C94A1000C94A100CC
:100030000C94A1000C94A1000C94A1000C94A100BC
:100040000C949D050C94A1000C94F3080C94CD081D
:100050000C94A1000C94A1000C94A1000C94A1009C
:100060000C94F1050C94A100084AD73B3BCE016EDD
:1000700084BCBFFDC12F3D6C74319ABD56833DDAFF
:100080003D00C77F11BED9E4BB4C3E916BAAAABE0E
:10009000000000803F00000000002300260029002F
:1000A00000000000240027002A00000000002500B6
:1000B00028002B00040404040404040402020202C5
:1000C000020203030303030301020408102040801B
:1000D000010204081020010204081020000000089A
:1000E00000020100000304070000000000000000FF
:1000F000310D11241FBECFEFD8E0DEBFCDBF11E020
:10010000A0E0B1E0EAEBF3E202C005900D92AE345C
:10011000B107D9F722E0AEE4B1E001C01D92AC3DD9
:10012000B207E1F710E0C9E7D0E004C02197FE0173
:100130000E94AF10C837D107C9F70E942C0A0C944F
:10014000DB110C940000CF92DF92EF92FF920F939D
:100150001F93CF93DF936C017A018B01C0E0D0E055
:10016000CE15DF0581F0D8016D918D01D601ED919D
:10017000FC910190F081E02DC6010995892B11F0C9
:100180002196EECF7E01C701DF91CF911F910F9194
:10019000FF90EF90DF90CF9008950895089508950F
:1001A000E091030280910202E81730F4F0E0E95296
:1001B000FE4F808190E008958FEF9FEF089590911A
:1001C000030280910202981750F4E92FF0E0E952FF
:1001D000FE4F208130E09F5F9093030202C02FEF1B
:1001E0003FEFC90108958091020290E0209103023F
:1001F000821B9109089530910002313208F04AC003
:100200008091FF018111FCCF9091B10122E02093F8
:10021000FF016093FE012FEF2093D6011092D501CC
:100220003093D401E1E9F1E0A3EBB1E020E0321733
:1002300021F041914D932F5FFACF1092D30120917D
:10024000D301990F922B9093D3019091FD0191309E
:1002500061F41092FD019091D3019093BB009091B5
:10026000BC0093FDF8CF95EC01C095EE9093BC00D7
:100270009091FF019230E1F39091D6019F3F79F088
:100280008091D601803241F08091D601803331F0E7
:1002900084E005C081E003C082E001C083E01092E9
:1002A0000102109200021092B20108951F93CF93A1
:1002B000DF93EC01142F81E08093B20189E68093F3
:1002C000B101109201021092000288819981DC0133
:1002D000ED91FC910190F081E02D09958881998143
:1002E000DC01ED91FC910190F081E02D612F0995E9
:1002F00061E088819981DF91CF911F910C94FB007F
:10030000089580E090E0089585ED8093BC00809191
:10031000BC0084FDFCCF1092FF01089540916E0156
:10032000262F30E0240F311D21323105DCF42091DD
:10033000FF012430C9F4FC0180E090E0861758F4F6
:1003400030916E012191DC01A25BBE4FA30FB11D64
:100350002C930196F3CF80916E01680F60936E012C
:1003600080E0089581E0089582E00895CF92DF92C1
:10037000EF92FF920F931F93CF93DF937C01CB01FA
:100380008A012091B201222389F0EB016B01C40E96
:10039000D51ECC15DD0569F06991D701ED91FC9171
:1003A0000190F081E02DC7010995F3CF642F0E94E1
:1003B0008E01C801DF91CF911F910F91FF90EF90B7
:1003C000DF90CF900895CF93DF931F92CDB7DEB724
:1003D00069832091B2012223D1F0209100022032C2
:1003E00040F021E030E0FC013383228380E090E0A4
:1003F00015C080910102E82FF0E0EF56FE4F998181
:1004000090838F5F809301028093000205C061E0BA
:10041000CE0101960E948E0181E090E00F90DF9165
:10042000CF9108952F923F924F925F926F927F9259
:100430008F929F92AF92BF92CF92DF92EF92FF92F4
:100440000F931F93CF93DF93EC0181E08093B20170
:1004500089E68093B1011092010210920002888116
:100460009981DC01ED91FC910190F081E02D6BE32D
:10047000099560E0888199810E94FB008091FF01CD
:100480008111FCCF81E08093FF018093FE019FEFFB
:100490009093D6011092D5019DE09093D401809362
:1004A000D3018091D301826D8093D3018091FD01AE
:1004B000813061F41092FD018091D3018093BB00E3
:1004C0008091BC0083FDF8CF85EC01C085EE809360
:1004D000BC008091FF018130E1F38091D5018E3025
:1004E00018F49091D50101C09EE0A3EBB1E0E7EDD7
:1004F000F1E080E0891721F02D9121938F5FFACFF1
:10050000109203028093020288819981DC01ED91AF
:10051000FC910284F385E02D0995182F888199813B
:10052000DC01ED91FC910284F385E02D099520E03A
:1005300030E0312F822B932B9B838A838881998192
:10054000DC01ED91FC910284F385E02D0995182FD3
:1005500088819981DC01ED91FC910284F385E02D85
:10056000099520E030E0312F822B932B9D838C83E3
:1005700088819981DC01ED91FC910284F385E02D65
:100580000995182F88819981DC01ED91FC910284F5
:10059000F385E02D099520E030E0312F822B932B5D
:1005A0009F838E8388819981DC01ED91FC91028487
:1005B000F385E02D0995182F88819981DC01ED9153
:1005C000FC910284F385E02D099520E030E0312F85
:1005D000822B932B9987888788819981DC01ED9103
:1005E000FC910284F385E02D0995182F888199816B
:1005F000DC01ED91FC910284F385E02D099520E06A
:1006000030E0312F822B932B9B878A8788819981B9
:10061000DC01ED91FC910284F385E02D0995182F02
:1006200088819981DC01ED91FC910284F385E02DB4
:10063000099520E030E0312F822B932B9D878C870A
:1006400088819981DC01ED91FC910284F385E02D94
:100650000995F82E88819981DC01ED91FC91028445
:10066000F385E02D099500E010E01F2D082B192BD4
:100670001F870E8768857985072E000C880B990BDC
:100680000E94100F20E030EF41E456E40E94BE0DBE
:1006900020E030E04AEA53E40E949C0E6C8F7D8F8C
:1006A0008E8F9F8F6A817B81072E000C880B990BA0
:1006B0000E94100F20E030E040E858E30E94D00F85
:1006C0004B015C0168A379A38AA39BA36C817D8104
:1006D000072E000C880B990B0E94100F20E030E0D1
:1006E00040E858E30E94D00F6B017C016CA37DA30E
:1006F0008EA39FA36E817F81072E000C880B990B20
:100700000E94100F20E030E040E858E30E94D00F34
:100710002B013C0168A779A78AA79BA720E030E0BE
:10072000A901C501B4010E94C30F181624F0C50128
:10073000B401905802C0C501B401A30192010E9406
:10074000BE0D9B01AC01C701B6010E943D0E1E010A
:10075000B4E42B0E311C20E030E044EB53E40E9463
:10076000D00F20E030E040E05FE30E94D00F2BED9F
:100770003FE049E450E40E949C0EF10160837183E4
:100780008283938320E030E0A901C701B6010E9473
:10079000C30F181624F0F7FAF094F7F8F094A301B9
:1007A0009201C701B6010E94BE0D9B01AC01C501BB
:1007B000B4010E943D0E7E01F8E4EF0EF11C20E032
:1007C00030E044EB53E40E94D00F20E030E040E002
:1007D0005FEB0E94D00F2BED3FE049E450E40E9414
:1007E0009C0ED7016D937D938D939C9313976C858D
:1007F0007D85072E000C880B990B0E94100F20E0BE
:1008000030E043E852E40E949C0E6B017C016A8553
:100810007B85072E000C880B990B0E94100F20E09F
:1008200030E043E852E40E949C0E288939894A89C5
:100830005B890E94BD0D6CA77DA78EA79FA72C8901
:100840003D894E895F89C701B6010E94BD0D68AB25
:1008500079AB8AAB9BABB801110F880B990B0E9447
:10086000100F20E030E043E852E40E949C0E288DF7
:10087000398D4A8D5B8D0E94BD0D6CAB7DAB8EAB0F
:100880009FAB0E94DB098E01005A1F4FF801C08008
:10089000D180E280F3806C197D098E099F090E9446
:1008A0000E0F2FE632E143E85AE30E94D00F6B01AE
:1008B0007C01FE01E45AFF4F60837183828393833E
:1008C0002CA53DA54EA55FA50E94D00F9B01AC01B4
:1008D00068AD79AD8AAD9BAD0E94BE0D68AF79AFB2
:1008E0008AAF9BAF28A939A94AA95BA9C701B6015C
:1008F0000E94D00F9B01AC016CAD7DAD8EAD9FAD64
:100900000E94BE0D6CAF7DAF8EAF9FAF5E01F0E475
:10091000AF0EB11C2CA93DA94EA95FA9C701B60114
:100920000E94D00FD5012D913D914D915C910E9477
:10093000BE0DF50160837183828393837E01F0E5B0
:10094000EF0EF11C6A857B85072E000C880B990B36
:100950000E94100FD7016D937D938D939C931397F5
:100960007E01B4E5EB0EF11C6C857D85072E000C35
:10097000880B990B0E94100FF701608371838283AB
:1009800093837E01F8E5EF0EF11C6E857F85072EBF
:10099000000C880B990B0E94100FD7016D937D936B
:1009A0008D939C9313970E94DB09F80160837183F8
:1009B00082839383DF91CF911F910F91FF90EF90EE
:1009C000DF90CF90BF90AF909F908F907F906F906F
:1009D0005F904F903F902F9008950F931F93CF9368
:1009E000DF93EC0161E088810E949F0960E08881CB
:1009F0000E94250983E090E00197F1F761E088818A
:100A00000E94250983E290E00197F1F760E0888178
:100A10000E94250960E089810E949F09898190E0F8
:100A2000FC01E853FF4F6491FC01EC54FF4FE4914B
:100A3000F0E0EE0FFF1FEA56FF4F859194910A8177
:100A40001B812C813D813F70462F0E94E709611573
:100A500071058105910541F0AB01BC014F5F5F4F0E
:100A60006F4F7F4F7F7003C040E050E0BA014115E7
:100A7000510531F0CA0157FD01969595879502C041
:100A800080E090E0DF91CF911F910F910895FC01DC
:100A90008081823049F018F4813079F008958330F4
:100AA00031F0843039F0089524E031E008C027E0C7
:100AB00035E005C026E030E002C023E032E06230DD
:100AC000A9F0643029F16130B9F581E090E0AC0122
:100AD00001C0440F3A95EAF73091D202432B01C08E
:100AE000880F2A95EAF78095842322C081E090E060
:100AF000AC0101C0440F3A95EAF7342F309540918C
:100B0000D202342301C0880F2A95EAF7832B10C044
:100B100041E050E0CA0101C0880F3A95EAF701C0F0
:100B2000440F2A95EAF7842B80959091D20289236D
:100B30008093D2020C94720908951F920F920FB6FF
:100B40000F9211242F933F938F939F93AF93BF9353
:100B50008091210290912202A0912302B09124025F
:100B60003091200223E0230F2D3720F40196A11DA0
:100B7000B11D05C026E8230F0296A11DB11D2093CB
:100B800020028093210290932202A0932302B0932B
:100B900024028091250290912602A0912702B09113
:100BA00028020196A11DB11D809325029093260273
:100BB000A0932702B0932802BF91AF919F918F918C
:100BC0003F912F910F900FBE0F901F9018951F927D
:100BD0000F920FB60F9211240F900FBE0F901F901F
:100BE00018951F920F920FB60F9211242F933F93D7
:100BF0004F935F936F937F938F939F93AF93BF9325
:100C0000EF93FF938091B900887F803609F49CC0F0
:100C100068F5883209F45BC090F4803109F454C05F
:100C200038F4882309F4F6C0883009F44DC0F6C0C2
:100C3000883109F44CC0803209F45DC0EFC08034C3
:100C400009F468C048F4803309F455C0883309F0CA
:100C5000E5C08093D601D8C0803509F44FC08835EF
:100C600009F45DC0883409F0D9C0D6C0883909F4C8
:100C7000C7C0A8F4883709F467C038F4883609F487
:100C800063C0803709F460C0C9C0883809F4B8C0AF
:100C9000803909F45FC0803809F0C0C05BC0803B78
:100CA00009F486C038F4803A09F466C0883A09F439
:100CB0007FC0B4C0803C09F4A7C0883C09F4A4C03C
:100CC000883B09F48AC0AAC08091D30110C09091DA
:100CD000D5018091D401981770F5E091D50181E09C
:100CE0008E0F8093D501F0E0ED54FE4F808180930C
:100CF000BB0085EC86C08093D6018EC0E091D50103
:100D000081E08E0F8093D5018091BB00F0E0ED541F
:100D1000FE4F80839091D5018091D4016EC0E09107
:100D2000D50181E08E0F8093D5018091BB00F0E06A
:100D3000ED54FE4F80838091FE0181116DC081E0F2
:100D40008093FD0184EA61C083E08093FF011092EB
:100D50009001CFCF80919001803208F051C0E09196
:100D6000900181E08E0F809390018091BB00F0E0B4
:100D7000E059FE4F8083BDCF85EC8093BC0010927C
:100D8000FF0180919001803230F4E0919001F0E019
:100D9000E059FE4F10826091900170E0E091F901FE
:100DA000F091FA0180E791E009951092900136C028
:100DB00084E08093FF0110926F0110926E01E09128
:100DC000FB01F091FC01099580916E01811105C034
:100DD00081E080936E0110924E01E0916F0181E0FD
:100DE0008E0F80936F01F0E0E25BFE4F8081809375
:100DF000BB0090916F0180916E01981708F479CF34
:100E000085E88093BC000AC085EC8093BC001092FA
:100E1000FF0104C01092D6010E948401FF91EF915E
:100E2000BF91AF919F918F917F916F915F914F9102
:100E30003F912F910F900FBE0F901F901895FC01BE
:100E4000538D448D252F30E0842F90E0821B930B2F
:100E5000541710F0CF96089501970895FC01918DD5
:100E6000828D981761F0828DDF01A80FB11D5D960C
:100E70008C91928D9F5F9F73928F90E008958FEF7A
:100E80009FEF0895FC01918D828D981731F0828D2E
:100E9000E80FF11D858D90E008958FEF9FEF089585
:100EA000FC01918D228D892F90E0805C9F4F821BE9
:100EB00091098F7399270895FC01848DDF01A80F94
:100EC000B11DA35ABF4F2C91848D90E001968F7372
:100ED0009927848FA689B7892C93A089B1898C9191
:100EE000837080648C93938D848D981306C00288E0
:100EF000F389E02D80818F7D80830895EF92FF92AA
:100F00000F931F93CF93DF93EC0181E0888F9B8D2C
:100F10008C8D981305C0E889F989808185FD26C0EC
:100F2000F62E0B8D10E00F5F1F4F0F731127E02E71
:100F30008C8DE8120CC00FB607FCFACFE889F9894E
:100F4000808185FFF5CFCE010E945C07F1CF8B8DAC
:100F5000FE01E80FF11DE35AFF4FF0829FB7F894AE
:100F60000B8FEA89FB89808180620AC09FB7F89461
:100F7000EE89FF896083E889F989808183708064C4
:100F800080839FBF81E090E0DF91CF911F910F910F
:100F9000FF90EF900895CF93DF93EC01888D882325
:100FA000C9F0EA89FB89808185FD05C0A889B989D6
:100FB0008C9186FD0FC00FB607FCF5CF808185FFB1
:100FC000F2CFA889B9898C9185FFEDCFCE010E941F
:100FD0005C07E7CFDF91CF91089589E292E00E940C
:100FE000500721E0892B09F420E0822F089580E04A
:100FF00090E0892B29F00E94ED0781110C940000EC
:1010000008953FB7F8948091250290912602A0910F
:101010002702B091280226B5A89B05C02F3F19F0E2
:101020000196A11DB11D3FBFBA2FA92F982F882768
:10103000820F911DA11DB11DBC01CD0142E0660FC3
:10104000771F881F991F4A95D1F708950E94D611DE
:10105000FC018081823069F018F4813031F008950C
:10106000833059F0843061F0089584E68093B300B2
:10107000089584E68093B400089584E687BD0895BA
:1010800084E688BD0895009769F0FC010190002076
:10109000E9F73197AF01481B590BBC0189E292E097
:1010A0000C94A30080E090E008958F929F92AF92FD
:1010B000BF92CF92DF92EF92FF920E9401084B0104
:1010C0005C0184E6C82ED12CE12CF12C0E94010891
:1010D000DC01CB0188199909AA09BB09883E934014
:1010E000A105B10598F321E0C21AD108E108F10881
:1010F00088EE880E83E0981EA11CB11CC114D10497
:10110000E104F10419F7FF90EF90DF90CF90BF90CA
:10111000AF909F908F9008958F929F92AF92BF92C1
:101120000F931F93CF93DF93CDB7DEB7A1970FB681
:10113000F894DEBF0FBECDBF19A2423008F44AE0DA
:101140008E010F5D1F4F842E912CA12CB12CA50177
:1011500094010E947910E62FB901CA0101501109CA
:10116000EA3014F4E05D01C0E95CD801EC93232B74
:10117000242B252B61F7C8010E944308A1960FB6C6
:10118000F894DEBF0FBECDBFDF91CF911F910F91BD
:10119000BF90AF909F908F9008951F920F920FB6BF
:1011A0000F9211242F933F934F935F936F937F93ED
:1011B0008F939F93AF93BF93EF93FF9389E292E056
:1011C0000E945C07FF91EF91BF91AF919F918F912A
:1011D0007F916F915F914F913F912F910F900FBE33
:1011E0000F901F9018951F920F920FB60F92112417
:1011F0002F938F939F93EF93FF93E0913902F09198
:101200003A028081E0913F02F091400282FD12C0DB
:101210009081809142028F5F8F73209143028217E9
:1012200051F0E0914202F0E0E75DFD4F958F809331
:10123000420201C08081FF91EF919F918F912F9188
:101240000F900FBE0F901F90189590E0FC01E45294
:10125000FF4F2491FC01E853FF4F3491FC01EC5403
:10126000FF4FE491EE2309F43CC0222339F12330EF
:1012700091F038F42130A9F0223001F584B58F7D4A
:1012800012C0273091F02830A1F02430B9F48091B9
:1012900080008F7D03C0809180008F7780938000D5
:1012A0000DC084B58F7784BD09C08091B0008F7761
:1012B00003C08091B0008F7D8093B000F0E0EE0F0E
:1012C000FF1FE655FF4FA591B4919FB7F8946111A8
:1012D00004C08C913095382302C0EC913E2B3C9396
:1012E0009FBF0895CF93DF9360E08CE00E942509B3
:1012F00060E088E00E942509C7E0D0E060E084E07B
:101300000E9425098091D20290E00C2E02C0959592
:1013100087950A94E2F780FF02C061E001C060E0B7
:1013200088E00E94250961E084E00E942509219758
:1013300028F761E08CE0DF91CF910C942509CF93E1
:10134000DF9390E0FC01E853FF4F2491FC01EC5443
:10135000FF4F8491882361F190E0880F991FFC0171
:10136000E056FF4FC591D491FC01E655FF4FA59182
:10137000B491611109C09FB7F894888120958223A8
:101380008883EC912E230BC0623061F49FB7F894F0
:101390008881322F309583238883EC912E2B2C93D8
:1013A0009FBF06C08FB7F894E8812E2B28838FBF8C
:1013B000DF91CF9108952FB7F89460912102709139
:1013C000220280912302909124022FBF0895CF9290
:1013D000DF92EF92FF920F931F93E82FF92F05C032
:1013E000015011092109310961F190819623941767
:1013F000B9F305C0015011092109310911F190819A
:1014000096239413F7CFC12CD12CE12CF12C0AC0D8
:101410008FEFC81AD80AE80AF80A0C151D052E0520
:101420003F0579F080818623841791F36C2D7D2D03
:101430008E2D9F2D1F910F91FF90EF90DF90CF90F9
:10144000089560E070E080E090E01F910F91FF90C0
:10145000EF90DF90CF900895789484B5826084BD3A
:1014600084B5816084BD85B5826085BD85B58160A8
:1014700085BD80916E00816080936E001092810026
:1014800080918100826080938100809181008160E1
:1014900080938100809180008160809380008091A2
:1014A000B10084608093B1008091B000816080932E
:1014B000B00080917A00846080937A0080917A00F5
:1014C000826080937A0080917A00816080937A00B4
:1014D00080917A00806880937A001092C100E09138
:1014E0003902F0913A0282E08083E0913502F09176
:1014F00036021082E0913702F091380280E1808359
:1015000010924102E0913D02F0913E0286E080831C
:10151000E0913B02F0913C02808180618083E09108
:101520003B02F0913C02808188608083E0913B0225
:10153000F0913C02808180688083E0913B02F091D1
:101540003C0280818F7D8083109203021092020200
:1015500010920102109200021092FF0181E080932C
:10156000FE011092FD0161E082E10E94250961E027
:1015700083E10E9425098091B9008E7F8093B90094
:101580008091B9008D7F8093B90088E48093B80082
:1015900085E48093BC008DEC90E09093FC018093F7
:1015A000FB018EEC90E09093FA018093F9012CE01E
:1015B000F22EF092B8008AE291E00E94430884E49F
:1015C00091E00E9443088CE690E00E94B510EC0187
:1015D00086EC92E099838883FE01EC59FF4F8AE004
:1015E00097EDA3EABCE380839183A283B38334960F
:1015F00088E491EEAAE7BFE380839183A283B3835B
:10160000D0931702C093160286E090E00E94B510B6
:101610008C018DE0F8018083F18288E893E1A0E0FD
:10162000B0E082839383A483B58361E08DE00E9460
:101630009F0960E08CE00E949F09109311020093C3
:10164000100240E069E1CE010E94560140E06AE1EB
:10165000CE010E94560148E06BE1CE010E94560186
:1016600040E06CE1CE010E94560141E06BE6CE0104
:101670000E945601CE010E94120218AE19AE1AAE97
:101680001BAE1CAE1DAE1EAE1FAEFE01E05BFF4FDB
:10169000DE01AC5BBF4F8D919D910D90BC91A02D53
:1016A00080839183A283B3833496DE01A85BBF4F0E
:1016B0008D919D910D90BC91A02D80839183A283EB
:1016C000B3830E94DB09C05ADF4F688379838A8322
:1016D0009B8302E310E080911602909117020E9412
:1016E0001202C0911602D0911702FE01E05BFF4F7B
:1016F00020910C0230910D0240910E0250910F0288
:1017000060817181828193810E94BE0D4B015C01D9
:1017100060930C0270930D0280930E0290930F025F
:10172000FE01EC5AFF4F20910802309109024091CE
:101730000A0250910B0260817181828193810E9423
:10174000BE0D6B017C0160930802709309028093C7
:101750000A0290930B02C85ADF4F20910402309185
:1017600005024091060250910702688179818A81C1
:101770009B810E94BE0D2B013C016093040270937B
:10178000050280930602909307020150110909F0A7
:10179000A2CF20E030E048E452E4C501B4010E9449
:1017A0009C0E60930C0270930D0280930E02909336
:1017B0000F0220E030E048E452E4C701B6010E9485
:1017C0009C0E609308027093090280930A02909322
:1017D0000B0220E030E048E452E4C301B2010E9471
:1017E0009C0E60930402709305028093060290930E
:1017F00007020E94DB09609318027093190280931C
:101800001A0290931B0261E085ED92E00E94470569
:1018100061E083ED92E00E94470585ED92E00E9431
:10182000280883ED92E00E9428080DE110E092E381
:10183000C92ED12C0E94DB0960931C0270931D02FB
:1018400080931E0290931F028091160290911702BE
:101850000E94120280911C0290911D02A0911E0212
:10186000B0911F0240911202509113026091140234
:1018700070911502841B950BA60BB70B8B3F91053E
:10188000A105B10508F4EAC0E0901002F090110241
:1018900061E085ED92E00E94470561E083ED92E012
:1018A0000E94470582E3A82EB12CC0E0D0E0C7011A
:1018B0000E94ED04B8010E946510C60FD71FF1E029
:1018C000AF1AB108A1F7CE01B6010E946510EB0175
:1018D0004B01072E000CAA08BB0877FF0EC06DE273
:1018E00089E292E00E947E0766277727CB0168197C
:1018F00079098A099B094AE003C04AE0C501B4019D
:101900000E948C0884E491E00E94430885ED92E0F7
:101910000E94280883ED92E00E942808C7010E94D7
:10192000ED04B8010E9465104B018C1A9D0AAA248F
:10193000BB24A818B908CB018C1B9D0B97FF03C0D3
:1019400091958195910982309105C4F0940197FC9D
:1019500095018217930794F462E083ED92E00E9470
:10196000470583ED92E00E9428080E945508C701B0
:101970000E94ED04B8010E946510DDCF97FE03C000
:10198000919481949108881599052CF56C1B7D0B19
:1019900077FF03C071956195710962307105DCF0C4
:1019A00061E083ED92E00E94470583ED92E00E94A2
:1019B000280862E085ED92E00E94470585ED92E0FF
:1019C0000E9428080E945508C7010E94ED04B80132
:1019D0000E946510DBCF61E085ED92E00E94470533
:1019E00061E083ED92E00E94470585ED92E00E9460
:1019F000280883ED92E00E94280887E491E00E9485
:101A0000430880911C0290911D02A0911E02B0918A
:101A10001F028090120290901302A0901402B090C6
:101A20001502BC01CD01681979098A099B094AE0B0
:101A30000E948C0884E491E00E94430880911C027B
:101A400090911D02A0911E02B0911F02809312027C
:101A500090931302A0931402B09315020E94F7070B
:101A6000E9CECF93E9E2F2E01382128288EE93E0AE
:101A7000A0E0B0E084839583A683B7832AE031E0B9
:101A80003183208325EC30E03587248724EC30E057
:101A90003787268720EC30E0318B208B21EC30E03B
:101AA000338B228B22EC30E0358B248B26EC30E01C
:101AB000378B268B118E128E138E148EE6ECF2E08D
:101AC0001382128284839583A683B7838CE191E08D
:101AD00091838083E5EDF2E084E08083C2E0C183FE
:101AE00061E08CE00E949F0961E087E00E949F090D
:101AF00061E088E00E949F0961E084E00E949F0904
:101B00001092D2020E94720960E087E00E942509CB
:101B10000E94720984B5836284BD18BC61E085E0CF
:101B20000E949F09E3EDF2E083E08083C18361E0DE
:101B30008CE00E949F0961E087E00E949F0961E0BC
:101B400088E00E949F0961E084E00E949F09109252
:101B5000D2020E94720960E087E00E9425090E947B
:101B6000720984B5836884BD17BC61E086E00E9479
:101B70009F091092D702CF9108955058BB27AA27EA
:101B80000E94D50D0C94890F0E947B0F38F00E94A3
:101B9000820F20F039F49F3F19F426F40C94510F72
:101BA0000EF4E095E7FB0C944B0FE92F0E949A0F7F
:101BB00058F3BA17620773078407950720F079F482
:101BC000A6F50C94BC0F0EF4E0950B2EBA2FA02DA9
:101BD0000B01B90190010C01CA01A0011124FF27DA
:101BE000591B99F0593F50F4503E68F11A16F040D5
:101BF000A22F232F342F4427585FF3CF46953795D4
:101C00002795A795F0405395C9F77EF41F16BA0B98
:101C1000620B730B840BBAF09150A1F0FF0FBB1F46
:101C2000661F771F881FC2F70EC0BA0F621F731F8F
:101C3000841F48F4879577956795B795F7959E3FEC
:101C400008F0B0CF9395880F08F09927EE0F97957D
:101C5000879508950E947B0F60F080E891E009F479
:101C60009EEF0E94820F28F040E851E071F45EEF91
:101C70000CC00C94510F0C94BC0FE92FE0780E941B
:101C80009A0F40F3092E052AB1F3261737074807A4
:101C9000590738F00E2E07F8E02569F0E025E064DA
:101CA0000AC0EF6307F8009407FADB01B9019D0150
:101CB000DC01CA01AD01EF930E94B30E0E94890FAF
:101CC0000E946D0E5F91552339F02BED3FE049E402
:101CD00050FD49EC0C94BE0D0895DF93DD27B92F1C
:101CE000BF7740E85FE31616170648075B0718F44E
:101CF000D92F0E94C80F9F938F937F936F930E9459
:101D00003D10E8E6F0E00E94540F0E94890F2F91E9
:101D10003F914F915F910E94E30FDD2351F0905866
:101D2000A2EA2AED3FE049EC5FE3D0785D270E940C
:101D3000D50DDF910C94890F0E94B00E0C94890F81
:101D40000E94820F58F00E947B0F40F029F45F3F01
:101D500029F00C944B0F51110C94BD0F0C94510FA2
:101D60000E949A0F68F39923B1F3552391F3951BC1
:101D7000550BBB27AA2762177307840738F09F5FAC
:101D80005F4F220F331F441FAA1FA9F335D00E2E19
:101D90003AF0E0E832D091505040E695001CCAF786
:101DA0002BD0FE2F29D0660F771F881FBB1F261749
:101DB00037074807AB07B0E809F0BB0B802DBF0120
:101DC000FF2793585F4F3AF09E3F510578F00C94EF
:101DD0004B0F0C94BD0F5F3FE4F3983ED4F3869510
:101DE00077956795B795F7959F5FC9F7880F911D10
:101DF0009695879597F90895E1E0660F771F881FFC
:101E0000BB1F621773078407BA0720F0621B730BAE
:101E1000840BBA0BEE1F88F7E0950895E89409C08B
:101E200097FB3EF490958095709561957F4F8F4F0D
:101E30009F4F9923A9F0F92F96E9BB279395F69523
:101E4000879577956795B795F111F8CFFAF4BB0FA1
:101E500011F460FF1BC06F5F7F4F8F4F9F4F16C005
:101E6000882311F096E911C0772321F09EE8872F8F
:101E7000762F05C0662371F096E8862F70E060E04B
:101E80002AF09A95660F771F881FDAF7880F9695C4
:101E9000879597F9089597F99F6780E870E060E06B
:101EA00008959FEF80EC0895DF93CF931F930F93D6
:101EB000FF92EF92DF927B018C01689406C0DA2ECC
:101EC000EF010E94E30FFE01E894A5912591359161
:101ED00045915591A6F3EF010E94D50DFE019701A2
:101EE000A801DA9469F7DF90EF90FF900F911F91AE
:101EF000CF91DF91089500240A941616170618064C
:101F00000906089500240A941216130614060506FD
:101F10000895092E0394000C11F4882352F0BB0F8E
:101F200040F4BF2B11F460FF04C06F5F7F4F8F4FF1
:101F30009F4F089557FD9058440F551F59F05F3F2C
:101F400071F04795880F97FB991F61F09F3F79F0DB
:101F500087950895121613061406551FF2CF46955D
:101F6000F1DF08C0161617061806991FF1CF8695DF
:101F70007105610508940895E894BB2766277727C3
:101F8000CB0197F908950E94411008F48FEF08954E
:101F90009B01AC0160E070E080E89FE30C949C0E34
:101FA0000E94E30F0C94890F0E947B0F38F00E946F
:101FB000820F20F0952311F00C944B0F0C94510FCD
:101FC00011240C94BD0F0E949A0F70F3959FC1F3DA
:101FD000950F50E0551F629FF001729FBB27F00DD7
:101FE000B11D639FAA27F00DB11DAA1F649F66272C
:101FF000B00DA11D661F829F2227B00DA11D621F7B
:10200000739FB00DA11D621F839FA00D611D221F34
:10201000749F3327A00D611D231F849F600D211D18
:10202000822F762F6A2F11249F5750409AF0F1F09B
:1020300088234AF0EE0FFF1FBB1F661F771F881F04
:1020400091505040A9F79E3F510580F00C944B0FE2
:102050000C94BD0F5F3FE4F3983ED4F386957795DB
:102060006795B795F795E7959F5FC1F7FE2B880FAA
:10207000911D9695879597F908959B01AC010C9455
:10208000D00F990F0008550FAA0BE0E8FEEF1616C7
:102090001706E807F907C0F012161306E407F5075C
:1020A00098F0621B730B840B950B39F40A2661F0D0
:1020B000232B242B252B21F408950A2609F4A14073
:1020C000A6958FEF811D811D089597FB072E16F4AD
:1020D000009407D077FD09D00E949B1007FC05D023
:1020E0003EF4909581959F4F0895709561957F4F2F
:1020F0000895A1E21A2EAA1BBB1BFD010DC0AA1F49
:10210000BB1FEE1FFF1FA217B307E407F50720F060
:10211000A21BB30BE40BF50B661F771F881F991FDB
:102120001A9469F760957095809590959B01AC0124
:10213000BD01CF010895AA1BBB1B51E107C0AA1F17
:10214000BB1FA617B70710F0A61BB70B881F991F58
:102150005A95A9F780959095BC01CD010895EE0F91
:10216000FF1F0590F491E02D09940F931F93CF93D7
:10217000DF938230910510F482E090E0E091DA0282
:10218000F091DB0220E030E0A0E0B0E0309719F100
:10219000408151810281138148175907C8F0841783
:1021A000950769F4109731F012960C9312971396D5
:1021B0001C9327C00093DA021093DB0222C0211582
:1021C000310519F04217530718F49A01BD01EF01C8
:1021D000DF01F801DBCF21153105F9F0281B390BA0
:1021E0002430310580F48A819B816115710521F0CD
:1021F000FB019383828304C09093DB028093DA0215
:10220000FE01329644C0FE01E20FF31F81939193C9
:1022100022503109398328833AC02091D802309165
:10222000D902232B41F42091020130910301309314
:10223000D9022093D802209100013091010121158B
:10224000310541F42DB73EB740910401509105018D
:10225000241B350BE091D802F091D902E217F30765
:10226000A0F42E1B3F0B2817390778F0AC014E5F06
:102270005F4F2417350748F04E0F5F1F5093D90268
:102280004093D8028193919302C0E0E0F0E0CF0147
:10229000DF91CF911F910F910895CF93DF93009716
:1022A00009F481C0FC01329713821282A091DA02F4
:1022B000B091DB02109781F420813181820F931F4E
:1022C0002091D8023091D9022817390751F5F0939F
:1022D000D902E093D80267C0ED0120E030E0CE17CC
:1022E000DF0740F44A815B819E0141155105F1F001
:1022F000EA01F5CFD383C28340815181840F951FBA
:10230000C817D90759F488819981840F951F0296BF
:10231000918380838A819B819383828321153105F8
:1023200029F4F093DB02E093DA023DC0E901FB837C
:10233000EA8349915991C40FD51FEC17FD0761F449
:1023400080819181840F951F0296E901998388838A
:10235000828193819B838A83E0E0F0E012968D91E5
:102360009C911397009719F0FD01DC01F7CF8D9137
:102370009C9111979D012E5F3F4F820F931F2091DB
:10238000D8023091D9022817390769F4309729F417
:102390001092DB021092DA0202C013821282B09312
:1023A000D902A093D802DF91CF91089581E090E007
:0A23B000F8940C94DB11F894FFCFB1
:1023BA000000DC028000000000007E07A3001F0767
:1023CA00CB0750072E07420700000000E301B601C1
:1023DA008101CF00F300DF00D000466972737420D8
:1023EA0057616C6C20466F6C6C6F77696E6720540E
:0E23FA00657374000D0A0054696D653A200089
:00000001FF
