:100000000C9475000C949D000C949D000C947D053F
:100010000C947D050C947D050C949D000C949D0022
:100020000C949D000C949D000C949D000C949D00DC
:100030000C949D000C949D000C949D000C949D00CC
:100040000C94DF090C949D000C945F080C94390803
:100050000C949D000C949D000C949D000C949D00AC
:100060000C9487050C949D00084AD73B3BCE016E4B
:1000700084BCBFFDC12F3D6C74319ABD56833DDAFF
:100080003D00C77F11BED9E4BB4C3E916BAAAABE0E
:10009000000000803F0000000000240027002A002C
:1000A00000000000250028002B00040404040404C0
:1000B0000404020202020202030303030303010217
:1000C00004081020408001020408102001020408E6
:1000D00010200000000800020100000304070000D7
:1000E0000000000000009D0D990D11241FBECFEFF0
:1000F000D8E0DEBFCDBF23E0A6E8B1E001C01D928D
:10010000A031B207E1F711E0A0E0B1E0E2E3F4E2F0
:1001100002C005900D92A638B107D9F710E0C4E7E8
:10012000D0E004C02197FE010E94E010C337D10740
:10013000C9F70E94290A0C940C120C940000CF926B
:10014000DF92EF92FF920F931F93CF93DF936C0197
:100150007A018B01C0E0D0E0CE15DF0581F0D80137
:100160006D918D01D601ED91FC910190F081E02D12
:10017000C6010995892B11F02196EECF7E01C701AA
:10018000DF91CF911F910F91FF90EF90DF90CF9073
:100190000895089508950895E091F2018091F10184
:1001A000E81730F4F0E0E550FE4F808190E00895CC
:1001B0008FEF9FEF08959091F2018091F1019817D0
:1001C00050F4E92FF0E0E550FE4F208130E09F5FD2
:1001D0009093F20102C02FEF3FEFC9010895809183
:1001E000F10190E02091F201821B91090895309174
:1001F000F301313208F04AC0809141028111FCCFF5
:100200009091F50122E020934102609340022FEF8C
:1002100020933F0210923E0230933D02EBECF1E05E
:10022000ABE1B2E020E0321721F041914D932F5F16
:10023000FACF10923C0220913C02990F922B90939E
:100240003C0290913B02913061F410923B029091FC
:100250003C029093BB009091BC0093FDF8CF95ECCD
:1002600001C095EE9093BC00909141029230E1F371
:1002700090913F029F3F79F080913F02803241F0A0
:1002800080913F02803331F084E005C081E003C0FB
:1002900082E001C083E01092F4011092F301109209
:1002A000F60108951F93CF93DF93EC01142F81E0A3
:1002B0008093F60189E68093F5011092F401109283
:1002C000F30188819981DC01ED91FC910190F0812D
:1002D000E02D099588819981DC01ED91FC910190D7
:1002E000F081E02D612F099561E088819981DF918E
:1002F000CF911F910C94F700089580E090E008954D
:1003000085ED8093BC008091BC0084FDFCCF1092F1
:10031000410208954091A801262F30E0240F311D9D
:1003200021323105DCF4209141022430C9F4FC0172
:1003300080E090E0861758F43091A8012191DC010B
:10034000A857BE4FA30FB11D2C930196F3CF8091F8
:10035000A801680F6093A80180E0089581E00895E6
:1003600082E00895CF92DF92EF92FF920F931F9356
:10037000CF93DF937C01CB018A012091F6012223E8
:1003800089F0EB016B01C40ED51ECC15DD0569F0BB
:100390006991D701ED91FC910190F081E02DC701A9
:1003A0000995F3CF642F0E948A01C801DF91CF9194
:1003B0001F910F91FF90EF90DF90CF900895CF9312
:1003C000DF931F92CDB7DEB769832091F601222318
:1003D000D1F02091F301203240F021E030E0FC0127
:1003E0003383228380E090E015C08091F401E82FF0
:1003F000F0E0E553FE4F998190838F5F8093F40185
:100400008093F30105C061E0CE0101960E948A014C
:1004100081E090E00F90DF91CF9108952F923F926D
:100420004F925F926F927F928F929F92AF92BF9204
:10043000CF92DF92EF92FF920F931F93CF93DF93B0
:10044000CDB7DEB72C970FB6F894DEBF0FBECDBF89
:100450009C878B8781E08093F60189E68093F50184
:100460001092F4011092F301AB85BC858D919C91A3
:10047000DC01ED91FC910190F081E02D6BE3099599
:1004800060E0EB85FC85808191810E94F70041E06E
:100490006EE089E60E94D5071092F2018093F10187
:1004A000AB85BC858D919C91DC01ED91FC91028422
:1004B000F385E02D0995182FEB85FC8580819181CE
:1004C000DC01ED91FC910284F385E02D099520E09B
:1004D00030E0312F822B932BEB85FC859383828335
:1004E00080819181DC01ED91FC910284F385E02D06
:1004F0000995182FEB85FC8580819181DC01ED91B8
:10050000FC910284F385E02D099520E030E0312F45
:10051000822B932BEB85FC8595838483808191814D
:10052000DC01ED91FC910284F385E02D0995182FF3
:10053000EB85FC8580819181DC01ED91FC91028449
:10054000F385E02D099520E030E0312F822B932BAD
:10055000EB85FC859783868380819181DC01ED9119
:10056000FC910284F385E02D0995182FEB85FC851D
:1005700080819181DC01ED91FC910284F385E02D75
:10058000099520E030E0312F822B932BEB85FC8501
:100590009187808780819181DC01ED91FC910284BB
:1005A000F385E02D0995182FEB85FC8580819181DD
:1005B000DC01ED91FC910284F385E02D099520E0AA
:1005C00030E0312F822B932BEB85FC85938782873C
:1005D00080819181DC01ED91FC910284F385E02D15
:1005E0000995182FEB85FC8580819181DC01ED91C7
:1005F000FC910284F385E02D099520E030E0312F55
:10060000822B932BEB85FC85958784878081918154
:10061000DC01ED91FC910284F385E02D0995182F02
:10062000EB85FC8580819181DC01ED91FC91028458
:10063000F385E02D099520E030E0312F1901282ABB
:10064000392AEB85FC853786268660857185072EDD
:10065000000C880B990B0E94120E20E030EF41E451
:1006600056E40E94300F20E030E04AEA53E40E9452
:100670000E10AB85BC855C966D937D938D939C939A
:100680005F9712966D917C911397072E000C880B43
:10069000990B0E94120E20E030E040E858E30E94DF
:1006A000710E4B015C01EB85FC8560A371A382A3F5
:1006B00093A364817581072E000C880B990B0E940F
:1006C000120E20E030E040E858E30E94710E6B010A
:1006D0007C01AB85BC8594966D937D938D939C93A3
:1006E000979716966D917C911797072E000C880BA3
:1006F000990B0E94120E20E030E040E858E30E947F
:10070000710E2B013C01EB85FC8560A771A782A7C8
:1007100093A720E030E0A901C501B4010E94A71011
:10072000181624F0C501B401905802C0C501B401E7
:10073000A30192010E94300F9B01AC01C701B601D9
:100740000E94AF0F0B851C850C5B1F4F20E030E033
:1007500044EB53E40E94710E20E030E040E05FE3A0
:100760000E94710E2BED3FE049E450E40E940E1010
:10077000D8016D937D938D939C93139720E030E087
:10078000A901C701B6010E94A710181624F0F7FAB4
:10079000F094F7F8F094A3019201C701B6010E940A
:1007A000300F9B01AC01C501B4010E94AF0F0B8556
:1007B0001C85085B1F4F20E030E044EB53E40E94AF
:1007C000710E20E030E040E05FEB0E94710E2BEDF7
:1007D0003FE049E450E40E940E10F8016083718309
:1007E00082839383AB85BC851C966D917C911D970C
:1007F000072E000C880B990B0E94120E20E030E0AF
:1008000043E852E40E940E106B017C01EB85FC85ED
:1008100062857385072E000C880B990B0E94120EBF
:1008200020E030E043E852E40E940E10AB85BC8526
:1008300050962D913D914D915C9153970E942F0FB1
:10084000EB85FC8564A775A786A797A724893589BA
:1008500046895789C701B6010E942F0FAB85BC8519
:10086000D0966D937D938D939C93D397B101330C68
:10087000880B990B0E94120E20E030E043E852E40E
:100880000E940E10EB85FC85208D318D428D538D9D
:100890000E942F0FAB85BC85D4966D937D938D936D
:1008A0009C93D7972FB7F8948091F7019091F80116
:1008B000A091F901B091FA012FBFEB85FC85E05AB8
:1008C000FF4FFE83ED83C080D180E280F380BC01C6
:1008D000CD016C197D098E099F090E94100E2FE62B
:1008E00032E143E85AE30E94710E2B013C01EB8593
:1008F000FC85E45AFF4F6083718382839383AB85C9
:10090000BC859C962D913D914D915C919F970E9445
:10091000710E4B015C019B01AC01EB85FC8560AD68
:1009200071AD82AD93AD0E94300FAB85BC85D8967A
:100930006D937D938D939C93DB97D0962D913D91F4
:100940004D915C91D397C301B2010E94710E6B016E
:100950007C019B01AC01EB85FC8564AD75AD86AD7A
:1009600097AD0E94300FAB85BC85DC966D937D936F
:100970008D939C93DF97D4962D913D914D915C91F1
:10098000D797C301B2010E94710E6B847C84B0E4DE
:100990006B0E711CF30120813181428153810E94D1
:1009A000300F6F83788789879A87D3016D937D9302
:1009B0008D939C931397EB85FC85E859FF4F4080FE
:1009C000518062807380EB85FC85EC59FF4F8081FC
:1009D0009181A281B38189839A83AB83BC832B8469
:1009E0003C8490E5290E311CD1012D913D914D9112
:1009F0005C91C501B4010E94300FA30192010E94D5
:100A0000710E4B015C01EB85FC85EC5BFF4F208197
:100A100031814281538169817A818B819C810E94DD
:100A2000710E9B01AC01C501B4010E94300FF101B0
:100A30006083718382839383AB84BC84F4E5AF0EBF
:100A4000B11CD5012D913D914D915C91C701B6012D
:100A50000E94300FA30192010E94710E6B017C0174
:100A6000F801208131814281538169817A818B81B2
:100A70009C810E94710E9B01AC01C701B6010E94CE
:100A8000300FD5016D937D938D939C931397EB85D8
:100A9000FC85E85AFF4F8F819885A985BA858083A8
:100AA0009183A283B3832FB7F8948091F70190913B
:100AB000F801A091F901B091FA012FBFED81FE81FB
:100AC00080839183A283B3832C960FB6F894DEBF04
:100AD0000FBECDBFDF91CF911F910F91FF90EF908F
:100AE000DF90CF90BF90AF909F908F907F906F904E
:100AF0005F904F903F902F9008951F920F920FB6E6
:100B00000F9211240F900FBE0F901F9018951F92F7
:100B10000F920FB60F9211242F933F934F935F9331
:100B20006F937F938F939F93AF93BF93EF93FF93B5
:100B30008091B900887F803609F49CC068F58832BE
:100B400009F45BC090F4803109F454C038F4882370
:100B500009F4F6C0883009F44DC0F6C0883109F4B4
:100B60004CC0803209F45DC0EFC0803409F468C025
:100B700048F4803309F455C0883309F0E5C0809308
:100B80003F02D8C0803509F44FC0883509F45DC0F4
:100B9000883409F0D9C0D6C0883909F4C7C0A8F490
:100BA000883709F467C038F4883609F463C08037A1
:100BB00009F460C0C9C0883809F4B8C0803909F4A4
:100BC0005FC0803809F0C0C05BC0803B09F486C0BC
:100BD00038F4803A09F466C0883A09F47FC0B4C09A
:100BE000803C09F4A7C0883C09F4A4C0883B09F400
:100BF0008AC0AAC080913C0210C090913E028091B0
:100C00003D02981770F5E0913E0281E08E0F8093CF
:100C10003E02F0E0E55EFD4F80818093BB0085ECF5
:100C200086C080933F028EC0E0913E0281E08E0F2D
:100C300080933E028091BB00F0E0E55EFD4F808333
:100C400090913E0280913D026EC0E0913E0281E0B3
:100C50008E0F80933E028091BB00F0E0E55EFD4F79
:100C600080838091400281116DC081E080933B02BE
:100C700084EA61C083E0809341021092CA01CFCF21
:100C80008091CA01803208F051C0E091CA0181E030
:100C90008E0F8093CA018091BB00F0E0E655FE4FB5
:100CA0008083BDCF85EC8093BC001092410280917F
:100CB000CA01803230F4E091CA01F0E0E655FE4FFF
:100CC00010826091CA0170E0E091ED01F091EE01B7
:100CD0008AEA91E009951092CA0136C084E08093B7
:100CE00041021092A9011092A801E091EF01F09148
:100CF000F00109958091A801811105C081E08093E0
:100D0000A80110928801E091A90181E08E0F8093E3
:100D1000A901F0E0E857FE4F80818093BB009091DD
:100D2000A9018091A801981708F479CF85E88093EC
:100D3000BC000AC085EC8093BC001092410204C044
:100D400010923F020E948001FF91EF91BF91AF91FD
:100D50009F918F917F916F915F914F913F912F91D3
:100D60000F900FBE0F901F901895CF93DF93EC015B
:100D70008C819D810E947E118A819B81DF91CF9120
:100D80000C947E11CF93DF93EC010E94B506CE0147
:100D9000DF91CF910C947E11FC01538D448D252F52
:100DA00030E0842F90E0821B930B541710F0CF9605
:100DB000089501970895FC01918D828D981761F037
:100DC000828DDF01A80FB11D5D968C91928D9F5F82
:100DD0009F73928F90E008958FEF9FEF0895FC012D
:100DE000918D828D981731F0828DE80FF11D858DE0
:100DF00090E008958FEF9FEF0895FC01918D228D73
:100E0000892F90E0805C9F4F821B91098F739927F7
:100E10000895FC01848DDF01A80FB11DA35ABF4FB7
:100E20002C91848D90E001968F739927848FA689E9
:100E3000B7892C93A089B1898C91837080648C933D
:100E4000938D848D981306C00288F389E02D8081EC
:100E50008F7D80830895EF92FF920F931F93CF931E
:100E6000DF93EC0181E0888F9B8D8C8D981305C0FA
:100E7000E889F989808185FD26C0F62E0B8D10E06A
:100E80000F5F1F4F0F731127E02E8C8DE8120CC0DF
:100E90000FB607FCFACFE889F989808185FFF5CF85
:100EA000CE010E940907F1CF8B8DFE01E80FF11DE5
:100EB000E35AFF4FF0829FB7F8940B8FEA89FB89C2
:100EC000808180620AC09FB7F894EE89FF896083B1
:100ED000E889F98980818370806480839FBF81E085
:100EE00090E0DF91CF911F910F91FF90EF900895C7
:100EF000CF93DF93EC01888D8823C9F0EA89FB89C1
:100F0000808185FD05C0A889B9898C9186FD0FC0B7
:100F10000FB607FCF5CF808185FFF2CFA889B9898C
:100F20008C9185FFEDCFCE010E940907E7CFDF91BD
:100F3000CF91089582E492E00E94FD0621E0892B82
:100F400009F420E0822F089580E090E0892B29F0B9
:100F50000E949A0781110C94000008953FB7F894FD
:100F60008091020390910303A0910403B0910503C3
:100F700026B5A89B05C02F3F19F00196A11DB11DF4
:100F80003FBFBA2FA92F982F8827820F911DA11D2F
:100F9000B11DBC01CD0142E0660F771F881F991F6C
:100FA0004A95D1F708950E9407129091410291113C
:100FB000FCCF91E090934102409340022FEF2093A9
:100FC0003F0210923E02260F20933D0290933C0276
:100FD00090913C02880F892B80933C0280913B02C8
:100FE000813061F410923B0280913C028093BB00FF
:100FF0008091BC0083FDF8CF85EC01C085EE809325
:10100000BC00809141028130E1F380913E0286175D
:1010100010F460913E02ABE1B2E0EBEFF1E080E072
:10102000861721F09D9191938F5FFACF0895CF930A
:10103000DF93009779F0FC0101900020E9F73197E8
:10104000AF01481B590BBC0182E492E00E949F0053
:10105000EC0102C0C0E0D0E042E050E063E871E0A3
:1010600082E492E00E949F008C0F9D1FDF91CF9140
:1010700008951F920F920FB60F9211242F933F9352
:101080004F935F936F937F938F939F93AF93BF9390
:10109000EF93FF9382E492E00E940907FF91EF91A2
:1010A000BF91AF919F918F917F916F915F914F9180
:1010B0003F912F910F900FBE0F901F9018951F9288
:1010C0000F920FB60F9211242F938F939F93EF934C
:1010D000FF93E0915202F09153028081E091580217
:1010E000F091590282FD12C0908180915B028F5F66
:1010F0008F7320915C02821751F0E0915B02F0E067
:10110000EE5BFD4F958F80935B0201C08081FF9164
:10111000EF919F918F912F910F900FBE0F901F9085
:10112000189590E0FC01EE52FF4F2491FC01E2542F
:10113000FF4F3491FC01E655FF4FE491EE2309F493
:101140003CC0222339F1233091F038F42130A9F04A
:10115000223001F584B58F7D12C0273091F0283000
:10116000A1F02430B9F4809180008F7D03C080917C
:1011700080008F77809380000DC084B58F7784BD09
:1011800009C08091B0008F7703C08091B0008F7D3F
:101190008093B000F0E0EE0FFF1FE056FF4FA591E7
:1011A000B4919FB7F894611104C08C9130953823A5
:1011B00002C0EC913E2B3C939FBF0895CF93DF93E9
:1011C00090E0FC01E254FF4F2491FC01E655FF4FF3
:1011D0008491882361F190E0880F991FFC01EA5601
:1011E000FF4FC591D491FC01E056FF4FA591B491FA
:1011F000611109C09FB7F894888120958223888364
:10120000EC912E230BC0623061F49FB7F894888173
:10121000322F309583238883EC912E2B2C939FBF04
:1012200006C08FB7F894E8812E2B28838FBFDF91FB
:10123000CF9108951F93CF93DF93182FEB0161E0B7
:101240000E94DE08209711F460E004C0CF3FD10572
:1012500039F461E0812FDF91CF911F910C949108B7
:10126000E12FF0E0EE52FF4FE491E330F9F048F463
:10127000E130B9F0E230A1F584B5806284BDC8BD2B
:1012800034C0E730E9F0E83019F1E43049F58091F5
:101290008000806280938000D0938B00C0938A008E
:1012A00024C084B5806884BDC7BD1FC08091800004
:1012B000806880938000D0938900C093880015C017
:1012C0008091B00080688093B000C093B3000DC0DF
:1012D0008091B00080628093B000C093B40005C0DC
:1012E000C038D1050CF0B5CFAFCFDF91CF911F91B2
:1012F0000895CF93DF93EC0161E087E00E949108AD
:1013000060E086E00E949108CE016FEF70E00E94DD
:10131000B810BC0185E0DF91CF910C941A09CF93EE
:10132000DF93EC0161E089E00E94910860E088E0D1
:101330000E949108CE016FEF70E00E94B810BC01CE
:101340008AE0DF91CF910C941A098F929F92AF920D
:10135000BF92CF92DF92EF92FF926B017C010E94CD
:10136000AE074B015C01C114D104E104F104F1F0BA
:101370000E94AE07DC01CB0188199909AA09BB09B3
:10138000883E9340A105B10570F321E0C21AD1084F
:10139000E108F10888EE880E83E0981EA11CB11CBC
:1013A000C114D104E104F10419F7DDCFFF90EF90EF
:1013B000DF90CF90BF90AF909F908F9008951F9235
:1013C0000F920FB60F9211242F933F938F939F93F9
:1013D000AF93BF938091F7019091F801A091F9012B
:1013E000B091FA013091010323E0230F2D3720F44F
:1013F0000196A11DB11D05C026E8230F0296A11D6F
:10140000B11D209301038093F7019093F801A093FD
:10141000F901B093FA018091020390910303A09126
:101420000403B09105030196A11DB11D8093020331
:1014300090930303A0930403B0930503BF91AF916E
:101440009F918F913F912F910F900FBE0F901F9002
:101450001895CF93DF93CDB7DEB72D970FB6F894DD
:10146000DEBF0FBECDBF789484B5826084BD84B5E5
:10147000816084BD85B5826085BD85B5816085BD8F
:1014800080916E00816080936E0010928100809147
:1014900081008260809381008091810081608093CF
:1014A0008100809180008160809380008091B100F4
:1014B00084608093B1008091B00081608093B0001F
:1014C00080917A00846080937A0080917A008260B3
:1014D00080937A0080917A00816080937A00809175
:1014E0007A00806880937A001092C10061E08AE0FF
:1014F0000E94DE0861E085E00E94DE0861E089E08C
:101500000E94DE0861E088E00E94DE0861E087E07A
:101510000E94DE0861E086E00E94DE0880E090E044
:101520000E948F0980E090E00E947909E0915202C8
:10153000F091530282E08083E0914E02F0914F02DD
:101540001082E0915002F091510280E1808310926C
:101550005A02E0915602F091570286E08083E091B2
:101560005402F0915502808180618083E0915402A1
:10157000F0915502808188608083E0915402F0915F
:101580005502808180688083E0915402F091550279
:1015900080818F7D80831092F2011092F101109270
:1015A000F4011092F3011092410281E08093400215
:1015B00010923B0261E082E10E94910861E083E1C8
:1015C0000E9491088091B9008E7F8093B90080912C
:1015D000B9008D7F8093B90088E48093B80085E4DA
:1015E0008093BC0089EC90E09093F0018093EF0130
:1015F0008AEC90E09093EE018093ED018CE0809373
:10160000B8008CE690E00E94E61098878F838FEDFB
:1016100092E0AF81B88511969C938E93FD01EC59B1
:10162000FF4F8AE097EDA3EABCE380839183A28316
:10163000B383EF81F885E859FF4F88E491EEAAE77C
:10164000BFE380839183A283B383EF81F885F09316
:10165000EE02E093ED0288EC90E00E94E610909399
:10166000F0028093EF021092F4021092F3028FEFD7
:101670009FEF9093F2028093F1028EE391E00E943B
:10168000170840E069E18F8198850E94520140E08F
:101690006AE18F8198850E94520148E06BE18F8159
:1016A00098850E94520140E06CE18F8198850E94EC
:1016B000520141E06BE68F8198850E9452018F8133
:1016C00098850E940E02AF81B885D8961D921D9212
:1016D0001D921C92DB97FD0114AE15AE16AE17AE2F
:1016E000E05BFF4FAC5BBF4F8D919D910D90BC9126
:1016F000A02D80839183A283B383EF81F885EC5A78
:10170000FF4FAF81B885A85BBF4F8D919D910D9024
:10171000BC91A02D80839183A283B3832FB7F894CB
:101720008091F7019091F801A091F901B091FA012F
:101730002FBF2F813885205A3F4FF9018083918335
:10174000A283B3838BE491E00E9417082091ED02FD
:101750003091EE023D872C878AE591E00E941708C0
:1017600068EE73E080E090E00E94A50908EB1BE0C2
:10177000C12CD12C7601460157012601370131E0F9
:101780003093F60189E68093F5011092F4011092EE
:10179000F301AC85BD858D919C91DC01ED91FC91AF
:1017A0000190F081E02D6BE3099560E0EC85FD850B
:1017B000808191810E94F70041E06EE089E60E94FD
:1017C000D5071092F2018093F101AC85BD858D9112
:1017D0009C91DC01ED91FC910284F385E02D09954B
:1017E000EC85FD8580819181DC01ED91FC91028485
:1017F000F385E02D0995EC85FD8580819181DC01E3
:10180000ED91FC910284F385E02D0995EC85FD8531
:1018100080819181DC01ED91FC910284F385E02DC2
:101820000995EC85FD8580819181DC01ED91FC912C
:101830000284F385E02D0995EC85FD8580819181F9
:10184000DC01ED91FC910284F385E02D0995EC8596
:10185000FD8580819181DC01ED91FC910284F3850D
:10186000E02D0995EC85FD8580819181DC01ED916C
:10187000FC910284F385E02D0995EC85FD8580813E
:101880009181DC01ED91FC910284F385E02D0995B5
:10189000382EEC85FD8580819181DC01ED91FC91F4
:1018A0000284F385E02D09953A821982E981FA8153
:1018B000E82BF92BF887EF83AC85BD858D919C9142
:1018C000DC01ED91FC910284F385E02D0995382E21
:1018D000EC85FD8580819181DC01ED91FC91028494
:1018E000F385E02D09953C821B82EB81FC81E82B7E
:1018F000F92BFA87E987AC85BD858D919C91DC0138
:10190000ED91FC910284F385E02D09958B87EC85A0
:10191000FD8580819181DC01ED91FC910284F3854C
:10192000E02D09951C01EF81F885BF01FF0F880BA1
:10193000990B0E94120E20E030E043E852E40E942E
:101940000E109B01AC01C301B2010E94300F2B01AC
:101950003C0129853A85B901330F880B990B0E9408
:10196000120E20E030E043E852E40E940E109B018A
:10197000AC01C501B4010E94300F4B015C013B85F5
:101980003E831D826D817E8162297329072E000CA2
:10199000880B990B0E94120E20E030E043E852E4DD
:1019A0000E940E109B01AC01C701B6010E94300FCE
:1019B0006B017C010150110909F0E1CE20E030E813
:1019C0004BE355E4C301B2010E940E10AC85BD8506
:1019D00050966D937D938D939C93539720E030E8C0
:1019E0004BE355E4C501B4010E940E10EC85FD8562
:1019F000648B758B868B978B20E030E84BE355E446
:101A0000C701B6010E940E10AC85BD8558966D9336
:101A10007D938D939C935B9764E670E080E090E00B
:101A20000E94A50902E310E0C12CD12C76014601E9
:101A30005701260137018091ED029091EE020E943C
:101A40000E02E091ED02F091EE02FA83E983E05B91
:101A5000FF4F2081318142815381C301B2010E9435
:101A6000300F2B013C01E981FA81EC5AFF4F2081B4
:101A7000318142815381C501B4010E94300F4B0175
:101A80005C0129813A81285A3F4FD9012D913D911E
:101A90004D915C91C701B6010E94300F6B017C0132
:101AA0000150110941F620E030E048E452E4C3015E
:101AB000B2010E940E106093F5027093F6028093BB
:101AC000F7029093F80220E030E048E452E4C501C8
:101AD000B4010E940E106093F9027093FA02809391
:101AE000FB029093FC0220E030E048E452E4C7019E
:101AF000B6010E940E106093FD027093FE02809367
:101B0000FF02909300038FB7F8944091F701509132
:101B1000F8016091F9017091FA018FBF8AEF90E0AE
:101B20000E9479098AEF90E00E948F090E94A40721
:101B3000FDCF8BEE92E00C94B506CF93DF93E2E4F9
:101B4000F2E01382128288EE93E0A0E0B0E084839A
:101B50009583A683B78326E131E03183208325EC8A
:101B600030E03587248724EC30E03787268720EC67
:101B700030E0318B208B21EC30E0338B228B22EC58
:101B800030E0358B248B26EC30E0378B268B118EA2
:101B9000128E138E148EEFEDF2E013821282848384
:101BA0009583A683B78388E291E091838083C6E022
:101BB000D3E082E08C8383E08D8360E082E00E944A
:101BC000DE0860E08D810E94DE0861E08C810E9469
:101BD000910861E08D810E949108188219821A8211
:101BE0001B82EBEEF2E08AE391E091838083138223
:101BF000128215821482118610868FEF9FEF9783D1
:101C00008683128A138A148A158A16861786108A82
:101C1000118A1286138614861586DF91CF91089556
:101C2000E89409C097FB3EF4909580957095619576
:101C30007F4F8F4F9F4F9923A9F0F92F96E9BB272C
:101C40009395F695879577956795B795F111F8CFA8
:101C5000FAF4BB0F11F460FF1BC06F5F7F4F8F4F13
:101C60009F4F16C0882311F096E911C0772321F009
:101C70009EE8872F762F05C0662371F096E8862FA1
:101C800070E060E02AF09A95660F771F881FDAF7F8
:101C9000880F9695879597F90895990F0008550F25
:101CA000AA0BE0E8FEEF16161706E807F907C0F0E2
:101CB00012161306E407F50798F0621B730B840BEA
:101CC000950B39F40A2661F0232B242B252B21F4C4
:101CD00008950A2609F4A140A6958FEF811D811D64
:101CE00008950E94840E0C94F50E0E94E70E38F0C1
:101CF0000E94EE0E20F0952311F00C94DE0E0C9451
:101D0000E40E11240C94290F0E94060F70F3959F86
:101D1000C1F3950F50E0551F629FF001729FBB27E2
:101D2000F00DB11D639FAA27F00DB11DAA1F649F7E
:101D30006627B00DA11D661F829F2227B00DA11D31
:101D4000621F739FB00DA11D621F839FA00D611DB7
:101D5000221F749F3327A00D611D231F849F600DD8
:101D6000211D822F762F6A2F11249F5750409AF001
:101D7000F1F088234AF0EE0FFF1FBB1F661F771F8D
:101D8000881F91505040A9F79E3F510580F00C9458
:101D9000DE0E0C94290F5F3FE4F3983ED4F3869552
:101DA00077956795B795F795E7959F5FC1F7FE2BF8
:101DB000880F911D9695879597F9089597F99F67D4
:101DC00080E870E060E008959FEF80EC08950024C3
:101DD0000A941616170618060906089500240A9490
:101DE00012161306140605060895092E0394000C16
:101DF00011F4882352F0BB0F40F4BF2B11F460FFA5
:101E000004C06F5F7F4F8F4F9F4F089557FD9058CD
:101E1000440F551F59F05F3F71F04795880F97FBAE
:101E2000991F61F09F3F79F0879508951216130668
:101E30001406551FF2CF4695F1DF08C01616170697
:101E40001806991FF1CF86957105610508940895CC
:101E5000E894BB2766277727CB0197F90895505858
:101E6000BB27AA270E94470F0C94F50E0E94E70E8D
:101E700038F00E94EE0E20F039F49F3F19F426F45A
:101E80000C94E40E0EF4E095E7FB0C94DE0EE92FC3
:101E90000E94060F58F3BA17620773078407950765
:101EA00020F079F4A6F50C94280F0EF4E0950B2E93
:101EB000BA2FA02D0B01B90190010C01CA01A0019C
:101EC0001124FF27591B99F0593F50F4503E68F1F7
:101ED0001A16F040A22F232F342F4427585FF3CF38
:101EE000469537952795A795F0405395C9F77EF409
:101EF0001F16BA0B620B730B840BBAF09150A1F052
:101F0000FF0FBB1F661F771F881FC2F70EC0BA0FD7
:101F1000621F731F841F48F4879577956795B7955F
:101F2000F7959E3F08F0B0CF9395880F08F099275A
:101F3000EE0F9795879508950E94E70E60F080E870
:101F400091E009F49EEF0E94EE0E28F040E851E087
:101F500071F45EEF0CC00C94E40E0C94280FE92F82
:101F6000E0780E94060F40F3092E052AB1F32617E8
:101F700037074807590738F00E2E07F8E02569F0B3
:101F8000E025E0640AC0EF6307F8009407FADB017C
:101F9000B9019D01DC01CA01AD01EF930E9425103A
:101FA0000E94F50E0E94DF0F5F91552339F02BED53
:101FB0003FE049E450FD49EC0C94300F0895DF9365
:101FC000DD27B92FBF7740E85FE3161617064807ED
:101FD0005B0718F4D92F0E94AC109F938F937F93C7
:101FE0006F930E94B410E8E6F0E00E9480100E9417
:101FF000F50E2F913F914F915F910E94840EDD234A
:1020000051F09058A2EA2AED3FE049EC5FE3D07826
:102010005D270E94470FDF910C94F50E0E9422105D
:102020000C94F50E0E94EE0E58F00E94E70E40F060
:1020300029F45F3F29F00C94DE0E51110C94290F06
:102040000C94E40E0E94060F68F39923B1F3552314
:1020500091F3951B550BBB27AA27621773078407BB
:1020600038F09F5F5F4F220F331F441FAA1FA9F351
:1020700035D00E2E3AF0E0E832D091505040E6953F
:10208000001CCAF72BD0FE2F29D0660F771F881FA0
:10209000BB1F261737074807AB07B0E809F0BB0B93
:1020A000802DBF01FF2793585F4F3AF09E3F5105A7
:1020B00078F00C94DE0E0C94290F5F3FE4F3983E09
:1020C000D4F3869577956795B795F7959F5FC9F790
:1020D000880F911D9695879597F90895E1E0660F11
:1020E000771F881FBB1F621773078407BA0720F08A
:1020F000621B730B840BBA0BEE1F88F7E0950895F3
:10210000DF93CF931F930F93FF92EF92DF927B01A8
:102110008C01689406C0DA2EEF010E94840EFE0145
:10212000E894A5912591359145915591A6F3EF013C
:102130000E94470FFE019701A801DA9469F7DF902A
:10214000EF90FF900F911F91CF91DF9108950E9422
:102150004D0E08F48FEF08959B01AC0160E070E034
:1021600080E89FE30C940E109B01AC010C94710E5F
:1021700097FB072E16F4009407D077FD09D00E9434
:10218000CC1007FC05D03EF4909581959F4F0895A3
:10219000709561957F4F0895AA1BBB1B51E107C045
:1021A000AA1FBB1FA617B70710F0A61BB70B881FE7
:1021B000991F5A95A9F780959095BC01CD01089576
:1021C000EE0FFF1F0590F491E02D09940F931F93DC
:1021D000CF93DF938230910510F482E090E0E0919C
:1021E0000E03F0910F0320E030E0A0E0B0E0309764
:1021F00019F1408151810281138148175907C8F0B4
:102200008417950769F4109731F012960C93129782
:1022100013961C9327C000930E0310930F0322C044
:102220002115310519F04217530718F49A01BD0121
:10223000EF01DF01F801DBCF21153105F9F0281B93
:10224000390B2430310580F48A819B816115710539
:1022500021F0FB019383828304C090930F0380934A
:102260000E03FE01329644C0FE01E20FF31F81937C
:10227000919322503109398328833AC020910C036D
:1022800030910D03232B41F4209102013091030181
:1022900030930D0320930C03209100013091010134
:1022A0002115310541F42DB73EB7409104015091FD
:1022B0000501241B350BE0910C03F0910D03E2178F
:1022C000F307A0F42E1B3F0B2817390778F0AC0159
:1022D0004E5F5F4F2417350748F04E0F5F1F509336
:1022E0000D0340930C038193919302C0E0E0F0E072
:1022F000CF01DF91CF911F910F910895CF93DF937D
:10230000009709F481C0FC01329713821282A091D8
:102310000E03B0910F03109781F420813181820F59
:10232000931F20910C0330910D032817390751F5A5
:10233000F0930D03E0930C0367C0ED0120E030E063
:10234000CE17DF0740F44A815B819E01411551059C
:10235000F1F0EA01F5CFD383C28340815181840F2C
:10236000951FC817D90759F488819981840F951F43
:102370000296918380838A819B8193838283211536
:10238000310529F4F0930F03E0930E033DC0E901FA
:10239000FB83EA8349915991C40FD51FEC17FD07C0
:1023A00061F480819181840F951F0296E9019983E0
:1023B0008883828193819B838A83E0E0F0E0129698
:1023C0008D919C911397009719F0FD01DC01F7CFD7
:1023D0008D919C9111979D012E5F3F4F820F931F0E
:1023E00020910C0330910D032817390769F43097B9
:1023F00029F410920F0310920E0302C0138212826E
:10240000B0930D03A0930C03DF91CF91089581E069
:1024100090E0F8940C940C1210E0C4E7D0E004C0F3
:10242000FE010E94E0102196C537D107C9F7F89444
:02243000FFCFDC
:102432000000100380000A000800090005000600E1
:102442000700000000002B079F00CC067807FD065E
:10245200DB06EF0600000000DF01B2017D01CB00C8
:10246200EF00DB00CC0000000000B506C206496E9A
:102472007369646520426567696E0046696E6973B7
:1024820068656420426567696E003D3D3D3D3D3DA6
:102492003D3D3D3D3D3D3D3D3D3D3D3D3D3D3D3D6A
:1024A2003D3D3D3D3D3D3D3D3D3D3D3D3D3D3D3D5A
:0624B2003D3D000D0A0093
:00000001FF
