:100000000C9475000C949D000C949D000C94530569
:100010000C9453050C9453050C949D000C949D0076
:100020000C949D000C949D000C949D000C949D00DC
:100030000C949D000C949D000C949D000C949D00CC
:100040000C94B3090C949D000C945F080C9439082F
:100050000C949D000C949D000C949D000C949D00AC
:100060000C945D050C949D00084AD73B3BCE016E75
:1000700084BCBFFDC12F3D6C74319ABD56833DDAFF
:100080003D00C77F11BED9E4BB4C3E916BAAAABE0E
:10009000000000803F0000000000240027002A002C
:1000A00000000000250028002B00040404040404C0
:1000B0000404020202020202030303030303010217
:1000C00004081020408001020408102001020408E6
:1000D00010200000000800020100000304070000D7
:1000E000000000000000950D910D11241FBECFEF00
:1000F000D8E0DEBFCDBF23E0AAE7B1E001C01D928A
:10010000A430B207E1F711E0A0E0B1E0E2EDF3E2E4
:1001100002C005900D92AA37B107D9F710E0C4E7E5
:10012000D0E004C02197FE010E94B010C337D10770
:10013000C9F70E94FD090C94DC110C94000008958D
:1001400008950895E091E6018091E501E81730F403
:10015000F0E0E151FE4F808190E008958FEF9FEF36
:1001600008959091E6018091E501981750F4E92FE8
:10017000F0E0E151FE4F208130E09F5F9093E60177
:1001800002C02FEF3FEFC90108958091E50190E093
:100190002091E601821B910908953091E7013132E7
:1001A00008F04AC0809135028111FCCF9091E9019D
:1001B00022E020933502609334022FEF2093330224
:1001C0001092320230933102EFEBF1E0AFE0B2E097
:1001D00020E0321721F041914D932F5FFACF10921A
:1001E000300220913002990F922B9093300290911F
:1001F0002F02913061F410922F029091300290936F
:10020000BB009091BC0093FDF8CF95EC01C095EE3A
:100210009093BC00909135029230E1F390913302BB
:100220009F3F79F080913302803241F08091330218
:10023000803331F084E005C081E003C082E001C07A
:1002400083E01092E8011092E7011092EA0108950C
:100250001F93CF93DF93EC01142F81E08093EA0189
:1002600089E68093E9011092E8011092E701888104
:100270009981DC01ED91FC910190F081E02D0995CF
:1002800088819981DC01ED91FC910190F081E02D54
:10029000612F099561E088819981DF91CF911F914C
:1002A0000C94CD00089580E090E0089585ED809352
:1002B000BC008091BC0084FDFCCF109235020895F3
:1002C00040919C01262F30E0240F311D2132310551
:1002D000DCF4209135022430C9F4FC0180E090E088
:1002E000861758F430919C012191DC01A458BE4F2F
:1002F000A30FB11D2C930196F3CF80919C01680F41
:1003000060939C0180E0089581E0089582E0089563
:10031000CF92DF92EF92FF920F931F93CF93DF93D1
:100320007C01CB018A012091EA01222389F0EB01B3
:100330006B01C40ED51ECC15DD0569F06991D7019E
:10034000ED91FC910190F081E02DC7010995F3CF6B
:10035000642F0E946001C801DF91CF911F910F911E
:10036000FF90EF90DF90CF900895CF93DF931F928F
:10037000CDB7DEB769832091EA012223D1F0209125
:10038000E701203240F021E030E0FC01338322839A
:1003900080E090E015C08091E801E82FF0E0E154A2
:1003A000FE4F998190838F5F8093E8018093E701EE
:1003B00005C061E0CE0101960E94600181E090E0FD
:1003C0000F90DF91CF9108952F923F924F925F92BD
:1003D0006F927F928F929F92AF92BF92CF92DF9255
:1003E000EF92FF920F931F93CF93DF93CDB7DEB7BA
:1003F0002C970FB6F894DEBF0FBECDBF9C878B87BE
:1004000081E08093EA0189E68093E9011092E80196
:100410001092E701AB85BC858D919C91DC01ED913B
:10042000FC910190F081E02D6BE3099560E0EB8594
:10043000FC85808191810E94CD0041E06EE089E6DB
:100440000E94D5071092E6018093E501AB85BC853B
:100450008D919C91DC01ED91FC910284F385E02D5E
:100460000995182FEB85FC8580819181DC01ED9148
:10047000FC910284F385E02D099520E030E0312FD6
:10048000822B932BEB85FC859383828380819181E2
:10049000DC01ED91FC910284F385E02D0995182F84
:1004A000EB85FC8580819181DC01ED91FC910284DA
:1004B000F385E02D099520E030E0312F822B932B3E
:1004C000EB85FC859583848380819181DC01ED91AE
:1004D000FC910284F385E02D0995182FEB85FC85AE
:1004E00080819181DC01ED91FC910284F385E02D06
:1004F000099520E030E0312F822B932BEB85FC8592
:100500009783868380819181DC01ED91FC91028447
:10051000F385E02D0995182FEB85FC85808191816D
:10052000DC01ED91FC910284F385E02D099520E03A
:1005300030E0312F822B932BEB85FC8591878087D0
:1005400080819181DC01ED91FC910284F385E02DA5
:100550000995182FEB85FC8580819181DC01ED9157
:10056000FC910284F385E02D099520E030E0312FE5
:10057000822B932BEB85FC859387828780819181E9
:10058000DC01ED91FC910284F385E02D0995182F93
:10059000EB85FC8580819181DC01ED91FC910284E9
:1005A000F385E02D099520E030E0312F822B932B4D
:1005B000EB85FC859587848780819181DC01ED91B5
:1005C000FC910284F385E02D0995182FEB85FC85BD
:1005D00080819181DC01ED91FC910284F385E02D15
:1005E000099520E030E0312F1901282A392AEB85BE
:1005F000FC853786268660857185072E000C880B62
:10060000990B0E940A0E20E030EF41E456E40E946C
:10061000280F20E030E04AEA53E40E940610AB8540
:10062000BC855C966D937D938D939C935F9712969A
:100630006D917C911397072E000C880B990B0E94EB
:100640000A0E20E030E040E858E30E94690E4B01BA
:100650005C01EB85FC8560A371A382A393A36481F5
:100660007581072E000C880B990B0E940A0E20E062
:1006700030E040E858E30E94690E6B017C01AB85D5
:10068000BC8594966D937D938D939C9397971696C6
:100690006D917C911797072E000C880B990B0E9487
:1006A0000A0E20E030E040E858E30E94690E2B017A
:1006B0003C01EB85FC8560A771A782A793A720E08A
:1006C00030E0A901C501B4010E949F10181624F062
:1006D000C501B401905802C0C501B401A301920143
:1006E0000E94280F9B01AC01C701B6010E94A70F11
:1006F0000B851C850C5B1F4F20E030E044EB53E47E
:100700000E94690E20E030E040E05FE30E94690E45
:100710002BED3FE049E450E40E940610D8016D93B0
:100720007D938D939C93139720E030E0A901C7013E
:10073000B6010E949F10181624F0F7FAF094F7F80B
:10074000F094A3019201C701B6010E94280F9B01FA
:10075000AC01C501B4010E94A70F0B851C85085B85
:100760001F4F20E030E044EB53E40E94690E20E08C
:1007700030E040E05FEB0E94690E2BED3FE049E482
:1007800050E40E940610F801608371838283938392
:10079000AB85BC851C966D917C911D97072E000C36
:1007A000880B990B0E940A0E20E030E043E852E4E7
:1007B0000E9406106B017C01EB85FC8562857385C8
:1007C000072E000C880B990B0E940A0E20E030E0E7
:1007D00043E852E40E940610AB85BC8550962D91EB
:1007E0003D914D915C9153970E94270FEB85FC85BD
:1007F00064A775A786A797A724893589468957894D
:10080000C701B6010E94270FAB85BC85D0966D93BA
:100810007D938D939C93D397B101330C880B990BE7
:100820000E940A0E20E030E043E852E40E940610E5
:10083000EB85FC85208D318D428D538D0E94270FD5
:10084000AB85BC85D4966D937D938D939C93D79700
:100850002FB7F8948091EB019091EC01A091ED01FC
:10086000B091EE012FBFEB85FC85E05AFF4FFE8370
:10087000ED83C080D180E280F380BC01CD016C1992
:100880007D098E099F090E94080E2FE632E143E898
:100890005AE30E94690E2B013C01EB85FC85E45A6A
:1008A000FF4F6083718382839383AB85BC859C9665
:1008B0002D913D914D915C919F970E94690E4B0146
:1008C0005C019B01AC01EB85FC8560AD71AD82AD37
:1008D00093AD0E94280FAB85BC85D8966D937D9310
:1008E0008D939C93DB97D0962D913D914D915C918A
:1008F000D397C301B2010E94690E6B017C019B0179
:10090000AC01EB85FC8564AD75AD86AD97AD0E94FD
:10091000280FAB85BC85DC966D937D938D939C935E
:10092000DF97D4962D913D914D915C91D797C3015E
:10093000B2010E94690E6B847C84B0E46B0E711C62
:10094000F30120813181428153810E94280F6F83FE
:10095000788789879A87D3016D937D938D939C9334
:100960001397EB85FC85E859FF4F408051806280EA
:100970007380EB85FC85EC59FF4F80819181A281CA
:10098000B38189839A83AB83BC832B843C8490E5B9
:10099000290E311CD1012D913D914D915C91C501E4
:1009A000B4010E94280FA30192010E94690E4B011D
:1009B0005C01EB85FC85EC5BFF4F2081318142813E
:1009C000538169817A818B819C810E94690E9B0190
:1009D000AC01C501B4010E94280FF101608371834D
:1009E00082839383AB84BC84F4E5AF0EB11CD50144
:1009F0002D913D914D915C91C701B6010E94280F48
:100A0000A30192010E94690E6B017C01F801208113
:100A100031814281538169817A818B819C810E94DD
:100A2000690E9B01AC01C701B6010E94280FD501D8
:100A30006D937D938D939C931397EB85FC85E85A7A
:100A4000FF4F8F819885A985BA8580839183A28382
:100A5000B3832FB7F8948091EB019091EC01A091B2
:100A6000ED01B091EE012FBFED81FE818083918376
:100A7000A283B3832C960FB6F894DEBF0FBECDBF12
:100A8000DF91CF911F910F91FF90EF90DF90CF906A
:100A9000BF90AF909F908F907F906F905F904F909E
:100AA0003F902F9008951F920F920FB60F9211242E
:100AB0000F900FBE0F901F9018951F920F920FB6B8
:100AC0000F9211242F933F934F935F936F937F93D4
:100AD0008F939F93AF93BF93EF93FF938091B90050
:100AE000887F803609F49CC068F5883209F45BC0C1
:100AF00090F4803109F454C038F4882309F4F6C026
:100B0000883009F44DC0F6C0883109F44CC08032F9
:100B100009F45DC0EFC0803409F468C048F4803344
:100B200009F455C0883309F0E5C080933302D8C07A
:100B3000803509F44FC0883509F45DC0883409F068
:100B4000D9C0D6C0883909F4C7C0A8F4883709F4D9
:100B500067C038F4883609F463C0803709F460C090
:100B6000C9C0883809F4B8C0803909F45FC080383A
:100B700009F0C0C05BC0803B09F486C038F4803AFD
:100B800009F466C0883A09F47FC0B4C0803C09F417
:100B9000A7C0883C09F4A4C0883B09F48AC0AAC055
:100BA0008091300210C090913202809131029817EA
:100BB00070F5E091320281E08E0F80933202F0E016
:100BC000E15FFD4F80818093BB0085EC86C0809300
:100BD00033028EC0E091320281E08E0F80933202A8
:100BE0008091BB00F0E0E15FFD4F80839091320285
:100BF000809131026EC0E091320281E08E0F8093CD
:100C000032028091BB00F0E0E15FFD4F8083809174
:100C1000340281116DC081E080932F0284EA61C0AB
:100C200083E0809335021092BE01CFCF8091BE0148
:100C3000803208F051C0E091BE0181E08E0F8093B8
:100C4000BE018091BB00F0E0E256FE4F8083BDCF35
:100C500085EC8093BC00109235028091BE018032F9
:100C600030F4E091BE01F0E0E256FE4F1082609158
:100C7000BE0170E0E091E101F091E2018EE991E0C6
:100C800009951092BE0136C084E08093350210921F
:100C90009D0110929C01E091E301F091E40109951E
:100CA00080919C01811105C081E080939C0110928C
:100CB0007C01E0919D0181E08E0F80939D01F0E029
:100CC000E458FE4F80818093BB0090919D018091FC
:100CD0009C01981708F479CF85E88093BC000AC07E
:100CE00085EC8093BC001092350204C01092330250
:100CF0000E945601FF91EF91BF91AF919F918F910B
:100D00007F916F915F914F913F912F910F900FBE07
:100D10000F901F901895CF93DF93EC018C819D81EC
:100D20000E944E118A819B81DF91CF910C944E11CC
:100D3000CF93DF93EC010E948B06CE01DF91CF9120
:100D40000C944E11FC01538D448D252F30E0842FDF
:100D500090E0821B930B541710F0CF9608950197E3
:100D60000895FC01918D828D981761F0828DDF01CD
:100D7000A80FB11D5D968C91928D9F5F9F73928F8E
:100D800090E008958FEF9FEF0895FC01918D828D83
:100D9000981731F0828DE80FF11D858D90E0089550
:100DA0008FEF9FEF0895FC01918D228D892F90E0A8
:100DB000805C9F4F821B91098F7399270895FC01D6
:100DC000848DDF01A80FB11DA35ABF4F2C91848DD4
:100DD00090E001968F739927848FA689B7892C9309
:100DE000A089B1898C91837080648C93938D848D5C
:100DF000981306C00288F389E02D80818F7D80835F
:100E00000895EF92FF920F931F93CF93DF93EC011E
:100E100081E0888F9B8D8C8D981305C0E889F989B6
:100E2000808185FD26C0F62E0B8D10E00F5F1F4FD1
:100E30000F731127E02E8C8DE8120CC00FB607FC43
:100E4000FACFE889F989808185FFF5CFCE010E942C
:100E5000DF06F1CF8B8DFE01E80FF11DE35AFF4F46
:100E6000F0829FB7F8940B8FEA89FB8980818062BA
:100E70000AC09FB7F894EE89FF896083E889F989F1
:100E800080818370806480839FBF81E090E0DF91E8
:100E9000CF911F910F91FF90EF900895CF93DF9323
:100EA000EC01888D8823C9F0EA89FB89808185FD62
:100EB00005C0A889B9898C9186FD0FC00FB607FCC3
:100EC000F5CF808185FFF2CFA889B9898C9185FF04
:100ED000EDCFCE010E94DF06E7CFDF91CF910895DD
:100EE00086E392E00E94D30621E0892B09F420E0FA
:100EF000822F089580E090E0892B29F00E947007EE
:100F000081110C94000008953FB7F8948091F60287
:100F10009091F702A091F802B091F90226B5A89B32
:100F200005C02F3F19F00196A11DB11D3FBFBA2F7B
:100F3000A92F982F8827820F911DA11DB11DBC01DB
:100F4000CD0142E0660F771F881F991F4A95D1F7A0
:100F50000895CF92DF92EF92FF920F931F93CF935A
:100F6000DF936C017A018B01C0E0D0E0CE15DF0584
:100F700081F0D8016D918D01D601ED91FC91019028
:100F8000F081E02DC6010995892B11F02196EECF55
:100F90007E01C701DF91CF911F910F91FF90EF90DC
:100FA000DF90CF9008950E94D71190913502911152
:100FB000FCCF91E090933502409334022FEF2093C1
:100FC000330210923202260F2093310290933002A6
:100FD00090913002880F892B8093300280912F02EC
:100FE000813061F410922F02809130028093BB0017
:100FF0008091BC0083FDF8CF85EC01C085EE809325
:10100000BC00809135028130E1F380913202861775
:1010100010F460913202AFE0B2E0EFEEF1E080E078
:10102000861721F09D9191938F5FFACF0895CF930A
:10103000DF93009779F0FC0101900020E9F73197E8
:10104000AF01481B590BBC0186E392E00E94A9073F
:10105000EC0102C0C0E0D0E042E050E067E771E0A0
:1010600086E392E00E94A9078C0F9D1FDF91CF912C
:1010700008951F920F920FB60F9211242F933F9352
:101080004F935F936F937F938F939F93AF93BF9390
:10109000EF93FF9386E392E00E94DF06FF91EF91CA
:1010A000BF91AF919F918F917F916F915F914F9180
:1010B0003F912F910F900FBE0F901F9018951F9288
:1010C0000F920FB60F9211242F938F939F93EF934C
:1010D000FF93E0914602F09147028081E0914C023B
:1010E000F0914D0282FD12C0908180914F028F5F7E
:1010F0008F7320915002821751F0E0914F02F0E07F
:10110000EA5CFD4F958F80934F0201C08081FF9173
:10111000EF919F918F912F910F900FBE0F901F9085
:10112000189590E0FC01EE52FF4F2491FC01E2542F
:10113000FF4F3491FC01E655FF4FE491EE2309F493
:101140003CC0222339F1233091F038F42130A9F04A
:10115000223001F584B58F7D12C0273091F0283000
:10116000A1F02430B9F4809180008F7D03C080917C
:1011700080008F77809380000DC084B58F7784BD09
:1011800009C08091B0008F7703C08091B0008F7D3F
:101190008093B000F0E0EE0FFF1FE056FF4FA591E7
:1011A000B4919FB7F894611104C08C9130953823A5
:1011B00002C0EC913E2B3C939FBF0895CF93DF93E9
:1011C00090E0FC01E254FF4F2491FC01E655FF4FF3
:1011D0008491882361F190E0880F991FFC01EA5601
:1011E000FF4FC591D491FC01E056FF4FA591B491FA
:1011F000611109C09FB7F894888120958223888364
:10120000EC912E230BC0623061F49FB7F894888173
:10121000322F309583238883EC912E2B2C939FBF04
:1012200006C08FB7F894E8812E2B28838FBFDF91FB
:10123000CF9108951F93CF93DF93182FEB0161E0B7
:101240000E94DE08209711F460E004C0CF3FD10572
:1012500039F461E0812FDF91CF911F910C949108B7
:10126000E12FF0E0EE52FF4FE491E330F9F048F463
:10127000E130B9F0E230A1F584B5806284BDC8BD2B
:1012800034C0E730E9F0E83019F1E43049F58091F5
:101290008000806280938000D0938B00C0938A008E
:1012A00024C084B5806884BDC7BD1FC08091800004
:1012B000806880938000D0938900C093880015C017
:1012C0008091B00080688093B000C093B3000DC0DF
:1012D0008091B00080628093B000C093B40005C0DC
:1012E000C038D1050CF0B5CFAFCFDF91CF911F91B2
:1012F00008958F929F92AF92BF92CF92DF92EF921A
:10130000FF926B017C010E9484074B015C01C114B8
:10131000D104E104F104F1F00E948407DC01CB0167
:1013200088199909AA09BB09883E9340A105B1050E
:1013300070F321E0C21AD108E108F10888EE880EA6
:1013400083E0981EA11CB11CC114D104E104F10476
:1013500019F7DDCFFF90EF90DF90CF90BF90AF9067
:101360009F908F9008951F920F920FB60F921124A5
:101370002F933F938F939F93AF93BF938091EB01F4
:101380009091EC01A091ED01B091EE013091F50248
:1013900023E0230F2D3720F40196A11DB11D05C0B8
:1013A00026E8230F0296A11DB11D2093F50280931C
:1013B000EB019093EC01A093ED01B093EE018091CD
:1013C000F6029091F702A091F802B091F90201960D
:1013D000A11DB11D8093F6029093F702A093F8022D
:1013E000B093F902BF91AF919F918F913F912F914F
:1013F0000F900FBE0F901F901895CF93DF93CDB72E
:10140000DEB72D970FB6F894DEBF0FBECDBF789430
:1014100084B5826084BD84B5816084BD85B58260F9
:1014200085BD85B5816085BD80916E0081608093AA
:101430006E00109281008091810082608093810013
:101440008091810081608093810080918000816023
:10145000809380008091B10084608093B10080917E
:10146000B00081608093B00080917A0084608093A6
:101470007A0080917A00826080937A0080917A006D
:10148000816080937A0080917A00806880937A00EE
:101490001092C10061E08AE00E94DE0861E085E010
:1014A0000E94DE0861E089E00E94DE0861E088E0D9
:1014B0000E94DE0861E087E00E94DE0861E086E0CD
:1014C0000E94DE0861E089E00E94910860E088E007
:1014D0000E94910860E070E08AE00E941A0961E0D1
:1014E00087E00E94910860E086E00E94910860E039
:1014F00070E085E00E941A09E0914602F0914702EF
:1015000082E08083E0914202F09143021082E091F8
:101510004402F091450280E1808310924E02E091F6
:101520004A02F0914B0286E08083E0914802F091FC
:101530004902808180618083E0914802F0914902F4
:10154000808188608083E0914802F0914902808127
:1015500080688083E0914802F091490280818F7D0C
:1015600080831092E6011092E5011092E80110923A
:10157000E7011092350281E08093340210922F022D
:1015800061E082E10E94910861E083E10E9491089C
:101590008091B9008E7F8093B9008091B9008D7FD2
:1015A0008093B90088E48093B80085E48093BC0000
:1015B0008FE990E09093E4018093E30180EA90E06A
:1015C0009093E2018093E1018CE08093B8008CE677
:1015D00090E00E94B61098878F8383ED92E0AF81F0
:1015E000B88511969C938E93FD01EC59FF4F8AE0CC
:1015F00097EDA3EABCE380839183A283B383EF8159
:10160000F885E859FF4F88E491EEAAE7BFE38083AD
:101610009183A283B383EF81F885F093E202E09394
:10162000E10288EC90E00E94B6109093E40280936F
:10163000E3021092E8021092E7028FEF9FEF90937F
:10164000E6028093E50282E391E00E94170840E001
:1016500069E18F8198850E94280140E06AE18F81CD
:1016600098850E94280148E06BE18F8198850E944F
:10167000280140E06CE18F8198850E94280141E0BB
:101680006BE68F8198850E9428018F8198850E9442
:10169000E401AF81B885D8961D921D921D921C92CF
:1016A000DB97FD0114AE15AE16AE17AEE05BFF4F33
:1016B000AC5BBF4F8D919D910D90BC91A02D80830F
:1016C0009183A283B383EF81F885EC5AFF4FAF81FA
:1016D000B885A85BBF4F8D919D910D90BC91A02DB9
:1016E00080839183A283B3832FB7F8948091EB0119
:1016F0009091EC01A091ED01B091EE012FBF2F81EF
:101700003885205A3F4FF90180839183A283B383A8
:101710008FE391E00E9417082091E1023091E202EC
:101720003D872C878EE491E00E94170868EE73E0F5
:1017300080E090E00E94790908EB1BE0C12CD12CDD
:101740007601460157012601370131E03093EA0165
:1017500089E68093E9011092E8011092E701AC85D7
:10176000BD858D919C91DC01ED91FC910190F08102
:10177000E02D6BE3099560E0EC85FD85808191812A
:101780000E94CD0041E06EE089E60E94D5071092EC
:10179000E6018093E501AC85BD858D919C91DC01CE
:1017A000ED91FC910284F385E02D0995EC85FD8592
:1017B00080819181DC01ED91FC910284F385E02D23
:1017C0000995EC85FD8580819181DC01ED91FC918D
:1017D0000284F385E02D0995EC85FD85808191815A
:1017E000DC01ED91FC910284F385E02D0995EC85F7
:1017F000FD8580819181DC01ED91FC910284F3856E
:10180000E02D0995EC85FD8580819181DC01ED91CC
:10181000FC910284F385E02D0995EC85FD8580819E
:101820009181DC01ED91FC910284F385E02D099515
:10183000EC85FD8580819181DC01ED91FC91028434
:10184000F385E02D0995EC85FD8580819181DC0192
:10185000ED91FC910284F385E02D0995382EEC85FD
:10186000FD8580819181DC01ED91FC910284F385FD
:10187000E02D09953A821982E981FA81E82BF92B4A
:10188000F887EF83AC85BD858D919C91DC01ED914E
:10189000FC910284F385E02D0995382EEC85FD85B9
:1018A00080819181DC01ED91FC910284F385E02D32
:1018B00009953C821B82EB81FC81E82BF92BFA878E
:1018C000E987AC85BD858D919C91DC01ED91FC9102
:1018D0000284F385E02D09958B87EC85FD85808159
:1018E0009181DC01ED91FC910284F385E02D099555
:1018F0001C01EF81F885BF01FF0F880B990B0E9437
:101900000A0E20E030E043E852E40E9406109B01FA
:10191000AC01C301B2010E94280F2B013C012985B3
:101920003A85B901330F880B990B0E940A0E20E00B
:1019300030E043E852E40E9406109B01AC01C5016F
:10194000B4010E94280F4B015C013B853E831D8240
:101950006D817E8162297329072E000C880B990BFB
:101960000E940A0E20E030E043E852E40E94061094
:101970009B01AC01C701B6010E94280F6B017C01DD
:101980000150110909F0E1CE20E030E84BE355E4C5
:10199000C301B2010E940610AC85BD8550966D93BF
:1019A0007D938D939C93539720E030E84BE355E46F
:1019B000C501B4010E940610EC85FD85648B758B12
:1019C000868B978B20E030E84BE355E4C701B601E6
:1019D0000E940610AC85BD8558966D937D938D93BE
:1019E0009C935B9764E670E080E090E00E94790948
:1019F00002E310E0C12CD12C7601460157012601EB
:101A000037018091E1029091E2020E94E401E091AD
:101A1000E102F091E202FA83E983E05BFF4F20816B
:101A2000318142815381C301B2010E94280F2B01F1
:101A30003C01E981FA81EC5AFF4F208131814281DA
:101A40005381C501B4010E94280F4B015C0129811B
:101A50003A81285A3F4FD9012D913D914D915C918A
:101A6000C701B6010E94280F6B017C0101501109CA
:101A700041F620E030E048E452E4C301B2010E94A4
:101A800006106093E9027093EA028093EB02909350
:101A9000EC0220E030E048E452E4C501B4010E94C9
:101AA00006106093ED027093EE028093EF02909324
:101AB000F00220E030E048E452E4C701B6010E94A1
:101AC00006106093F1027093F2028093F3029093F8
:101AD000F4028FB7F8944091EB015091EC016091C2
:101AE000ED017091EE018FBF60E087E00E949108E8
:101AF00061E086E00E9491086AEF70E085E00E9454
:101B00001A0960E089E00E94910861E088E00E9483
:101B1000910864E670E08AE00E941A090E947A0740
:101B2000FDCF8FED92E00C948B06CF93DF93E6E32D
:101B3000F2E01382128288EE93E0A0E0B0E08483AA
:101B40009583A683B7832AE031E03183208325EC97
:101B500030E03587248724EC30E03787268720EC77
:101B600030E0318B208B21EC30E0338B228B22EC68
:101B700030E0358B248B26EC30E0378B268B118EB2
:101B8000128E138E148EE3EDF2E0138212828483A0
:101B90009583A683B7838CE191E091838083CAEF1C
:101BA000D2E082E08C8383E08D8360E082E00E945B
:101BB000DE0860E08D810E94DE0861E08C810E9479
:101BC000910861E08D810E949108188219821A8221
:101BD0001B82EFEDF2E08EE291E09183808313822D
:101BE000128215821482118610868FEF9FEF9783E1
:101BF0008683128A138A148A158A16861786108A93
:101C0000118A1286138614861586DF91CF91089566
:101C1000E89409C097FB3EF4909580957095619586
:101C20007F4F8F4F9F4F9923A9F0F92F96E9BB273C
:101C30009395F695879577956795B795F111F8CFB8
:101C4000FAF4BB0F11F460FF1BC06F5F7F4F8F4F23
:101C50009F4F16C0882311F096E911C0772321F019
:101C60009EE8872F762F05C0662371F096E8862FB1
:101C700070E060E02AF09A95660F771F881FDAF708
:101C8000880F9695879597F90895990F0008550F35
:101C9000AA0BE0E8FEEF16161706E807F907C0F0F2
:101CA00012161306E407F50798F0621B730B840BFA
:101CB000950B39F40A2661F0232B242B252B21F4D4
:101CC00008950A2609F4A140A6958FEF811D811D74
:101CD00008950E947C0E0C94ED0E0E94DF0E38F0E9
:101CE0000E94E60E20F0952311F00C94D60E0C9471
:101CF000DC0E11240C94210F0E94FE0E70F3959FB0
:101D0000C1F3950F50E0551F629FF001729FBB27F2
:101D1000F00DB11D639FAA27F00DB11DAA1F649F8E
:101D20006627B00DA11D661F829F2227B00DA11D41
:101D3000621F739FB00DA11D621F839FA00D611DC7
:101D4000221F749F3327A00D611D231F849F600DE8
:101D5000211D822F762F6A2F11249F5750409AF011
:101D6000F1F088234AF0EE0FFF1FBB1F661F771F9D
:101D7000881F91505040A9F79E3F510580F00C9468
:101D8000D60E0C94210F5F3FE4F3983ED4F3869572
:101D900077956795B795F795E7959F5FC1F7FE2B08
:101DA000880F911D9695879597F9089597F99F67E4
:101DB00080E870E060E008959FEF80EC08950024D3
:101DC0000A941616170618060906089500240A94A0
:101DD00012161306140605060895092E0394000C26
:101DE00011F4882352F0BB0F40F4BF2B11F460FFB5
:101DF00004C06F5F7F4F8F4F9F4F089557FD9058DE
:101E0000440F551F59F05F3F71F04795880F97FBBE
:101E1000991F61F09F3F79F0879508951216130678
:101E20001406551FF2CF4695F1DF08C016161706A7
:101E30001806991FF1CF86957105610508940895DC
:101E4000E894BB2766277727CB0197F90895505868
:101E5000BB27AA270E943F0F0C94ED0E0E94DF0EB5
:101E600038F00E94E60E20F039F49F3F19F426F472
:101E70000C94DC0E0EF4E095E7FB0C94D60EE92FE3
:101E80000E94FE0E58F3BA1762077307840795077E
:101E900020F079F4A6F50C94200F0EF4E0950B2EAB
:101EA000BA2FA02D0B01B90190010C01CA01A001AC
:101EB0001124FF27591B99F0593F50F4503E68F107
:101EC0001A16F040A22F232F342F4427585FF3CF48
:101ED000469537952795A795F0405395C9F77EF419
:101EE0001F16BA0B620B730B840BBAF09150A1F062
:101EF000FF0FBB1F661F771F881FC2F70EC0BA0FE8
:101F0000621F731F841F48F4879577956795B7956F
:101F1000F7959E3F08F0B0CF9395880F08F099276A
:101F2000EE0F9795879508950E94DF0E60F080E888
:101F300091E009F49EEF0E94E60E28F040E851E09F
:101F400071F45EEF0CC00C94DC0E0C94200FE92FA2
:101F5000E0780E94FE0E40F3092E052AB1F3261701
:101F600037074807590738F00E2E07F8E02569F0C3
:101F7000E025E0640AC0EF6307F8009407FADB018C
:101F8000B9019D01DC01CA01AD01EF930E941D1052
:101F90000E94ED0E0E94D70F5F91552339F02BED73
:101FA0003FE049E450FD49EC0C94280F0895DF937D
:101FB000DD27B92FBF7740E85FE3161617064807FD
:101FC0005B0718F4D92F0E94A4109F938F937F93DF
:101FD0006F930E94AC10E8E6F0E00E9478100E9437
:101FE000ED0E2F913F914F915F910E947C0EDD236A
:101FF00051F09058A2EA2AED3FE049EC5FE3D07837
:102000005D270E943F0FDF910C94ED0E0E941A1085
:102010000C94ED0E0E94E60E58F00E94DF0E40F088
:1020200029F45F3F29F00C94D60E51110C94210F26
:102030000C94DC0E0E94FE0E68F39923B1F3552335
:1020400091F3951B550BBB27AA27621773078407CB
:1020500038F09F5F5F4F220F331F441FAA1FA9F361
:1020600035D00E2E3AF0E0E832D091505040E6954F
:10207000001CCAF72BD0FE2F29D0660F771F881FB0
:10208000BB1F261737074807AB07B0E809F0BB0BA3
:10209000802DBF01FF2793585F4F3AF09E3F5105B7
:1020A00078F00C94D60E0C94210F5F3FE4F3983E29
:1020B000D4F3869577956795B795F7959F5FC9F7A0
:1020C000880F911D9695879597F90895E1E0660F21
:1020D000771F881FBB1F621773078407BA0720F09A
:1020E000621B730B840BBA0BEE1F88F7E095089503
:1020F000DF93CF931F930F93FF92EF92DF927B01B9
:102100008C01689406C0DA2EEF010E947C0EFE015D
:10211000E894A5912591359145915591A6F3EF014C
:102120000E943F0FFE019701A801DA9469F7DF9042
:10213000EF90FF900F911F91CF91DF9108950E9432
:10214000450E08F48FEF08959B01AC0160E070E04C
:1021500080E89FE30C9406109B01AC010C94690E7F
:10216000EE0FFF1F0590F491E02D09940F931F933C
:10217000CF93DF938230910510F482E090E0E091FC
:102180000203F091030320E030E0A0E0B0E03097DC
:1021900019F1408151810281138148175907C8F014
:1021A0008417950769F4109731F012960C931297E3
:1021B00013961C9327C0009302031093030322C0BD
:1021C0002115310519F04217530718F49A01BD0182
:1021D000EF01DF01F801DBCF21153105F9F0281BF4
:1021E000390B2430310580F48A819B81611571059A
:1021F00021F0FB019383828304C0909303038093B7
:102200000203FE01329644C0FE01E20FF31F8193E8
:10221000919322503109398328833AC020910003D9
:1022200030910103232B41F42091020130910301ED
:1022300030930103209300032091000130910101AC
:102240002115310541F42DB73EB74091040150915D
:102250000501241B350BE0910003F0910103E21707
:10226000F307A0F42E1B3F0B2817390778F0AC01B9
:102270004E5F5F4F2417350748F04E0F5F1F509396
:102280000103409300038193919302C0E0E0F0E0EA
:10229000CF01DF91CF911F910F910895CF93DF93DD
:1022A000009709F481C0FC01329713821282A09139
:1022B0000203B0910303109781F420813181820FD2
:1022C000931F20910003309101032817390751F51E
:1022D000F0930103E093000367C0ED0120E030E0DC
:1022E000CE17DF0740F44A815B819E0141155105FD
:1022F000F1F0EA01F5CFD383C28340815181840F8D
:10230000951FC817D90759F488819981840F951FA3
:102310000296918380838A819B8193838283211596
:10232000310529F4F0930303E09302033DC0E90172
:10233000FB83EA8349915991C40FD51FEC17FD0720
:1023400061F480819181840F951F0296E901998340
:102350008883828193819B838A83E0E0F0E01296F8
:102360008D919C911397009719F0FD01DC01F7CF37
:102370008D919C9111979D012E5F3F4F820F931F6E
:1023800020910003309101032817390769F4309731
:1023900029F4109203031092020302C013821282E6
:1023A000B0930103A0930003DF91CF91089581E0E2
:1023B00090E0F8940C94DC1110E0C4E7D0E004C085
:1023C000FE010E94B0102196C537D107C9F7F894D5
:0223D000FFCF3D
:1023D200000004038000000000000107A907A20614
:1023E2004E07D306B106C50600000000B5018801FC
:1023F2005301A100C500B100A200000000008B063D
:102402009806496E7369646520426567696E004685
:10241200696E697368656420426567696E003D3D57
:102422003D3D3D3D3D3D3D3D3D3D3D3D3D3D3D3DDA
:102432003D3D3D3D3D3D3D3D3D3D3D3D3D3D3D3DCA
:0A2442003D3D3D3D3D3D000D0A000B
:00000001FF
