:100000000C945E000C9486000C9486000C9476038D
:100010000C9476030C9476030C9486000C94860062
:100020000C9486000C9486000C9486000C94860038
:100030000C9486000C9486000C9486000C94860028
:100040000C942C030C9486000C94FA020C94D402A9
:100050000C9486000C9486000C9486000C94860008
:100060000C9480030C9486000000000024002700FC
:100070002A0000000000250028002B0004040404CE
:100080000404040402020202020203030303030342
:10009000010204081020408001020408102001021F
:1000A00004081020000000080002010000030407FB
:1000B0000000000000000000AE04300611241FBE46
:1000C000CFEFD8E0DEBFCDBF22E0A2E3B1E001C0B8
:1000D0001D92A73BB207E1F711E0A0E0B1E0EAED25
:1000E000FEE002C005900D92A233B107D9F710E0EF
:1000F000CDE5D0E004C02197FE010E943406CC3546
:10010000D107C9F70E9411050C9460070C940000F8
:1001100090E0FC01EC55FF4F2491FC01E057FF4FAC
:100120003491FC01E458FF4FE491EE23B1F1222316
:1001300039F1233091F038F42130A9F0223001F563
:1001400084B58F7D12C0273091F02830A1F0243083
:10015000B9F4809180008F7D03C0809180008F77FB
:10016000809380000DC084B58F7784BD09C08091D5
:10017000B0008F7703C08091B0008F7D8093B00076
:10018000F0E0EE0FFF1FEE58FF4FA591B4918FB72F
:10019000F894EC91E32BEC938FBF0895FC01538D01
:1001A000448D252F30E0842F90E0821B930B541751
:1001B00010F0CF96089501970895FC01918D828DDE
:1001C000981761F0828DDF01A80FB11D5D968C91AB
:1001D000928D9F5F9F73928F90E008958FEF9FEFB6
:1001E0000895FC01918D828D981731F0828DE80F72
:1001F000F11D858D90E008958FEF9FEF0895FC012C
:10020000918D228D892F90E0805C9F4F821B9109F8
:100210008F7399270895FC01848DDF01A80FB11D0C
:10022000A35ABF4F2C91848D90E001968F7399272C
:10023000848FA689B7892C93A089B1898C9183700A
:1002400080648C93938D848D981306C00288F38903
:10025000E02D80818F7D80830895EF92FF920F9330
:100260001F93CF93DF93EC0181E0888F9B8D8C8D62
:10027000981305C0E889F989808185FD26C0F62E8E
:100280000B8D10E00F5F1F4F0F731127E02E8C8D29
:10029000E8120CC00FB607FCFACFE889F989808113
:1002A00085FFF5CFCE010E940B01F1CF8B8DFE01B2
:1002B000E80FF11DE35AFF4FF0829FB7F8940B8FC0
:1002C000EA89FB89808180620AC09FB7F894EE8931
:1002D000FF896083E889F9898081837080648083E5
:1002E0009FBF81E090E0DF91CF911F910F91FF9030
:1002F000EF900895CF93DF93EC01888D8823C9F0A8
:10030000EA89FB89808185FD05C0A889B9898C911E
:1003100086FD0FC00FB607FCF5CF808185FFF2CFB9
:10032000A889B9898C9185FFEDCFCE010E940B0180
:10033000E7CFDF91CF9108958FEC91E00E94FF000D
:1003400021E0892B09F420E0822F089580E090E0DD
:10035000892B29F00E949C0181110C9400000895C2
:10036000CF93DF9390E0FC01E057FF4F2491FC0115
:10037000E458FF4F8491882361F190E0880F991F22
:10038000FC01E859FF4FC591D491FC01EE58FF4F95
:10039000A591B491611109C09FB7F8948881209507
:1003A00082238883EC912E230BC0623061F49FB7C7
:1003B000F8948881322F309583238883EC912E2BFB
:1003C0002C939FBF06C08FB7F894E8812E2B28830B
:1003D0008FBFDF91CF9108953FB7F8948091CB0103
:1003E0009091CC01A091CD01B091CE0126B5A89BF2
:1003F00005C02F3F19F00196A11DB11D3FBFBA2FB7
:10040000A92F982F8827820F911DA11DB11DBC0116
:10041000CD0142E0660F771F881F991F4A95D1F7DB
:100420000895CF92DF92EF92FF920F931F93CF9395
:10043000DF936C017A018B01C0E0D0E0CE15DF05BF
:1004400081F0D8016D918D01D601ED91FC91019063
:10045000F081E02DC6010995892B11F02196EECF90
:100460007E01C701DF91CF911F910F91FF90EF9017
:10047000DF90CF900895089508950895E091C50103
:100480008091C401E81730F4F0E0E756FE4F808118
:1004900090E008958FEF9FEF08959091C5018091AE
:1004A000C401981750F4E92FF0E0E756FE4F208181
:1004B00030E09F5F9093C50102C02FEF3FEFC9016D
:1004C00008958091C40190E02091C501821B91099B
:1004D0000895089580E090E0089585ED8093BC0034
:1004E0008091BC0084FDFCCF1092C1010895409121
:1004F0005201262F30E0240F311D21323105DCF46A
:100500002091C1012430C9F4FC0180E090E08617FD
:1005100058F4309152012191DC01AE5CBE4FA30F23
:10052000B11D2C930196F3CF80915201680F609317
:10053000520180E0089581E0089582E00895CF930C
:10054000DF93CB01EA01642F0E947702CE01DF9195
:10055000CF910895CF93DF931F92CDB7DEB7698314
:1005600061E0CE0101960E94770281E090E00F9059
:10057000DF91CF9108950E945B07CF93DF93EC0149
:100580008C819D810E94D2068A819B81DF91CF91CF
:100590000C94D206CF93DF93EC010E94BD02CE01F2
:1005A000DF91CF910C94D2061F920F920FB60F924B
:1005B00011242F933F934F935F936F937F938F9368
:1005C0009F93AF93BF93EF93FF938FEC91E00E94C3
:1005D0000B01FF91EF91BF91AF919F918F917F910F
:1005E0006F915F914F913F912F910F900FBE0F90A0
:1005F0001F9018951F920F920FB60F9211242F93F0
:100600008F939F93EF93FF93E091DF01F091E001CF
:100610008081E091E501F091E60182FD12C09081B8
:100620008091E8018F5F8F732091E901821751F06B
:10063000E091E801F0E0E153FE4F958F8093E801EF
:1006400001C08081FF91EF919F918F912F910F9029
:100650000FBE0F901F9018951F920F920FB60F921A
:1006600011242F933F938F939F93AF93BF938091C8
:10067000C7019091C801A091C901B091CA01309100
:10068000C60123E0230F2D3720F40196A11DB11DD3
:1006900005C026E8230F0296A11DB11D2093C601B7
:1006A0008093C7019093C801A093C901B093CA0178
:1006B0008091CB019091CC01A091CD01B091CE0160
:1006C0000196A11DB11D8093CB019093CC01A09305
:1006D000CD01B093CE01BF91AF919F918F913F918A
:1006E0002F910F900FBE0F901F9018951F920F9291
:1006F0000FB60F9211240F900FBE0F901F901895F8
:100700001F920F920FB60F9211242F933F934F9386
:100710005F936F937F938F939F93AF93BF93EF9369
:10072000FF938091B900887F803609F49CC068F5FA
:10073000883209F45BC090F4803109F454C038F475
:10074000882309F4F6C0883009F44DC0F6C088311A
:1007500009F44CC0803209F45DC0EFC0803409F464
:1007600068C048F4803309F455C0883309F0E5C007
:1007700080937501D8C0803509F44FC0883509F4DD
:100780005DC0883409F0D9C0D6C0883909F4C7C023
:10079000A8F4883709F467C038F4883609F463C0D0
:1007A000803709F460C0C9C0883809F4B8C08039FE
:1007B00009F45FC0803809F0C0C05BC0803B09F419
:1007C00086C038F4803A09F466C0883A09F47FC0DC
:1007D000B4C0803C09F4A7C0883C09F4A4C0883B9D
:1007E00009F48AC0AAC08091980110C09091970125
:1007F00080919601981770F5E091970181E08E0F36
:1008000080939701F0E0EA58FE4F80818093BB000F
:1008100085EC86C0809375018EC0E091970181E0E0
:100820008E0F809397018091BB00F0E0EA58FE4F55
:10083000808390919701809196016EC0E09197011D
:1008400081E08E0F809397018091BB00F0E0EA5821
:10085000FE4F80838091C00181116DC081E0809343
:10086000BF0184EA61C083E08093C10110927401EA
:10087000CFCF80917401803208F051C0E0917401B3
:1008800081E08E0F809374018091BB00F0E0EC5A00
:10089000FE4F8083BDCF85EC8093BC001092C101D8
:1008A00080917401803230F4E0917401F0E0EC5AF0
:1008B000FE4F10826091740170E0E091BB01F091F5
:1008C000BC0184E591E009951092740136C084E082
:1008D0008093C1011092530110925201E091BD0129
:1008E000F091BE01099580915201811105C081E00E
:1008F0008093520110923201E091530181E08E0FFA
:1009000080935301F0E0EE5CFE4F80818093BB004A
:100910009091530180915201981708F479CF85E89E
:100920008093BC000AC085EC8093BC001092C1018A
:1009300004C0109275010E946D02FF91EF91BF916A
:10094000AF919F918F917F916F915F914F913F9167
:100950002F910F900FBE0F901F901895EFECF1E0C4
:100960001382128288EE93E0A0E0B0E08483958346
:10097000A683B7832AE031E03183208325EC30E081
:100980003587248724EC30E03787268720EC30E059
:10099000318B208B21EC30E0338B228B22EC30E04A
:1009A000358B248B26EC30E0378B268B118E128E04
:1009B000138E148EECE6F2E0138212828483958308
:1009C000A683B7838CE191E091838083EEE8F2E027
:1009D00089E2868B108E178A118E10A211A212A2A4
:1009E00083E090E094A383A3E8E7F2E08EE291E055
:1009F000918380831382128215821482118610865D
:100A00008FEF9FEF97838683128A138A148A158A41
:100A100016861786108A118A128613861486158602
:100A20000895789484B5826084BD84B5816084BD66
:100A300085B5826085BD85B5816085BD80916E007C
:100A4000816080936E0010928100809181008260AD
:100A500080938100809181008160809381008091EA
:100A600080008160809380008091B10084608093D9
:100A7000B1008091B00081608093B00080917A00D5
:100A8000846080937A0080917A00826080937A00FB
:100A900080917A00816080937A0080917A008068EA
:100AA00080937A001092C100E091DF01F091E001A3
:100AB000C2E0C083E091DB01F091DC011082E091A3
:100AC000DD01F091DE0180E180831092E701E09189
:100AD000E301F091E40186E08083E091E101F0918F
:100AE000E201808180618083E091E101F091E20187
:100AF000808188608083E091E101F091E201808152
:100B000080688083E091E101F091E20180818F7D36
:100B100080831092C5011092C4011092C3011092FB
:100B2000C2011092C10181E08093C0011092BF0107
:100B300082E10E94880083E10E9488008091B900D0
:100B40008E7F8093B9008091B9008D7F8093B9002A
:100B500088E48093B80085E48093BC008BE392E046
:100B60009093BE018093BD018CE392E09093BC0111
:100B70008093BB018CE08093B80086E090E00E94F7
:100B80003A06FC018AE0808387E0818398E8C92ED9
:100B900093E1D92EE12CF12CC282D382E482F5823A
:100BA00061E08AE00E94B00160E087E00E94B0014D
:100BB00086E090E00E943A06FC0184E08083C183D5
:100BC000C282D382E482F58261E00E94B00160E0DB
:100BD00082E00E94B0018FB7F8944091C701509114
:100BE000C8016091C9017091CA018FBF61E08CE0BA
:100BF0000E94B00161E089E00E94B00161E08DE0F7
:100C00000E94B00161E088E00E94B0010E94EC0106
:100C10004B015C0188EEC82E83E0D82EE12CF12C2C
:100C20000E94EC01DC01CB0188199909AA09BB09D2
:100C3000883E9340A105B10598F321E0C21AD1087E
:100C4000E108F10888EE880E83E0981EA11CB11C13
:100C5000C114D104E104F10419F70E94A601D6CF12
:100C600088E792E00C94BD02EE0FFF1F0590F4910F
:100C7000E02D09940F931F93CF93DF93823091055A
:100C800010F482E090E0E091B502F091B60220E02D
:100C900030E0A0E0B0E0309719F14081518102814D
:100CA000138148175907C8F08417950769F41097FE
:100CB00031F012960C93129713961C9327C0009351
:100CC000B5021093B60222C02115310519F0421762
:100CD000530718F49A01BD01EF01DF01F801DBCFE2
:100CE00021153105F9F0281B390B2430310580F42A
:100CF0008A819B816115710521F0FB0193838283B9
:100D000004C09093B6028093B502FE01329644C0AF
:100D1000FE01E20FF31F8193919322503109398331
:100D200028833AC02091B3023091B402232B41F4BE
:100D300020910201309103013093B4022093B30259
:100D400020910001309101012115310541F42DB7A9
:100D50003EB74091040150910501241B350BE091F1
:100D6000B302F091B402E217F307A0F42E1B3F0B7D
:100D70002817390778F0AC014E5F5F4F241735070D
:100D800048F04E0F5F1F5093B4024093B30281931B
:100D9000919302C0E0E0F0E0CF01DF91CF911F918D
:100DA0000F910895CF93DF93009709F481C0FC0160
:100DB000329713821282A091B502B091B6021097B9
:100DC00081F420813181820F931F2091B3023091F1
:100DD000B4022817390751F5F093B402E093B30237
:100DE00067C0ED0120E030E0CE17DF0740F44A8114
:100DF0005B819E0141155105F1F0EA01F5CFD383E6
:100E0000C28340815181840F951FC817D90759F4B7
:100E100088819981840F951F0296918380838A81AE
:100E20009B81938382832115310529F4F093B602C7
:100E3000E093B5023DC0E901FB83EA8349915991F2
:100E4000C40FD51FEC17FD0761F480819181840FD9
:100E5000951F0296E90199838883828193819B8300
:100E60008A83E0E0F0E012968D919C9113970097B1
:100E700019F0FD01DC01F7CF8D919C9111979D0137
:100E80002E5F3F4F820F931F2091B3023091B40227
:100E90002817390769F4309729F41092B602109296
:100EA000B50202C013821282B093B402A093B302BF
:100EB000DF91CF91089581E090E0F8940C94600761
:100EC00010E0CDE5D0E004C0FE010E94340621967A
:0A0ED000CE35D107C9F7F894FFCF23
:100EDA000000B7028000000000002D011102CE00C0
:100EEA007A01FF00DD00F10000000000AA029F0263
:100EFA006A023D0261024D023E0200000000BD028C
:020F0A00CA0219
:00000001FF
