:100000000C94E0000C9408010C9408010C949703E4
:100010000C9497030C9497030C9408010C9408011A
:100020000C9408010C9408010C9408010C9408012C
:100030000C9408010C9408010C9408010C9408011C
:100040000C9490020C9408010C9451060C942B060D
:100050000C9408010C9408010C9408010C940801FC
:100060000C94A1030C94080100407A10F35A00A0EC
:10007000724E18090010A5D4E80000E87648170071
:1000800000E40B54020000CA9A3B000000E1F505B1
:10009000000080969800000040420F000000A086FB
:1000A00001000000102700000000E803000000002D
:1000B0006400000000000A000000000001000000D1
:1000C00000002C76D888DC674F0823DFC1DFAE59EB
:1000D000E1B1B796E5E3E453C63AE651997696E87E
:1000E000E6C28426EB898C9B62ED407C6FFCEFBC02
:1000F0009C9F40F2BAA56FA5F490055A2AF75C932D
:100100006B6CF9676DC11BFCE0E40D47FEF520E662
:10011000B500D0ED902E0300943577050080841E45
:10012000080000204E0A000000C80C333333330FA0
:10013000986E12831141EF8D2114893BE65516CF3D
:10014000FEE6DB18D1844B381BF77C1D901DA4BB49
:10015000E424203284725E228100C9F124ECA1E5FE
:100160003D270000000023002600290000000000B9
:10017000240027002A0000000000250028002B0092
:10018000040404040404040402020202020203033D
:100190000303030301020408102040800102040845
:1001A00010200102040810200000000800020100D5
:1001B000000304070000000000000000BD0BB90BA5
:1001C00011241FBECFEFD8E0DEBFCDBF23E0A8EDE6
:1001D000B1E001C01D92A536B207E1F711E0A0E041
:1001E000B1E0E6EAF5E202C005900D92A83DB10744
:1001F000D9F710E0CFEDD0E004C02197FE010E94B6
:10020000C410CE3DD107C9F70E94EA070C94C6126C
:100210000C940000CF92DF92EF92FF920F931F9306
:10022000CF93DF936C017A018B01C0E0D0E0CE1553
:10023000DF0581F0D8016D918D01D601ED91FC9122
:100240000190F081E02DC6010995892B11F02196CE
:10025000EECF7E01C701DF91CF911F910F91FF90EB
:10026000EF90DF90CF900895089508950895E0915C
:100270006B0280916A02E81730F4F0E0E15CFD4F18
:10028000808190E008958FEF9FEF089590916B0229
:1002900080916A02981750F4E92FF0E0E15CFD4F7D
:1002A000208130E09F5F90936B0202C02FEF3FEF01
:1002B000C901089580916A0290E020916B02821B2F
:1002C00091090895089580E090E0089585ED809368
:1002D000BC008091BC0084FDFCCF109267020895A1
:1002E0004091F801262F30E0240F311D21323105D5
:1002F000DCF4209167022430C9F4FC0180E090E036
:10030000861758F43091F8012191DC01A852BE4FB4
:10031000A30FB11D2C930196F3CF8091F801680FC4
:100320006093F80180E0089581E0089582E00895E7
:10033000CF93DF93CB01EA01642F0E947001CE01BD
:10034000DF91CF910895CF93DF931F92CDB7DEB7A2
:10035000698361E0CE0101960E94700181E090E026
:100360000F90DF91CF9108950F931F93CF93DF9359
:10037000EC0188819981009729F02A813B81261719
:10038000370788F48B016F5F7F4F0E94EB11009756
:1003900061F0998388831B830A832C813D81232B01
:1003A00011F4FC01108281E001C080E0DF91CF9167
:1003B0001F910F9108950F931F93CF93DF93EC013B
:1003C00061E088810E94D00660E088810E948306F7
:1003D00083E090E00197F1F761E088810E94830655
:1003E00083E290E00197F1F760E088810E94830644
:1003F00060E089810E94D006898190E0FC01EC5682
:10040000FE4F6491FC01E058FE4FE491F0E0EE0FE6
:10041000FF1FEE59FE4F859194910A811B812C811B
:100420003D813F70462F0E94A5076115710581052A
:10043000910541F0AB01BC014F5F5F4F6F4F7F4FA4
:100440007F7003C040E050E0BA014115510531F022
:10045000CA0157FD01969595879502C080E090E00E
:10046000DF91CF911F910F910895CF93DF93EB010F
:10047000682F8CE00E94830660E089E00E9483067A
:10048000BE0183E0DF91CF910C940C0760E070E037
:1004900080E090E00E94350261E089E00C948306E0
:1004A000CF93DF93EB01682F8DE00E94830660E01D
:1004B00088E00E948306BE018BE0DF91CF910C940F
:1004C0000C0760E070E080E090E00E94500261E084
:1004D00088E00C9483063FB7F89480917302909162
:1004E0007402A0917502B091760226B5A89B05C052
:1004F0002F3F19F00196A11DB11D3FBFBA2FA92FA3
:10050000982F8827820F911DA11DB11DBC01CD011F
:1005100042E0660F771F881F991F4A95D1F708950B
:100520001F920F920FB60F9211242F933F938F9328
:100530009F93AF93BF9380916F0290917002A091AF
:100540007102B091720230916E0223E0230F2D37B9
:1005500020F40196A11DB11D05C026E8230F0296C7
:10056000A11DB11D20936E0280936F0290937002C3
:10057000A0937102B0937202809173029091740201
:10058000A0917502B09176020196A11DB11D8093D4
:10059000730290937402A0937502B0937602BF9198
:1005A000AF919F918F913F912F910F900FBE0F9020
:1005B0001F901895EF92FF920F931F93CF93DF93A5
:1005C0006115710511F480E01CC041155105C1F0A1
:1005D0007B01EC018C819D818A01080F191FB801F4
:1005E000CE010E94B401882371F3288139818C8166
:1005F0009D81B701820F931F0E94BF121D830C8340
:1006000081E0DF91CF911F910F91FF90EF900895BE
:10061000CF93DF93EC0188819981009711F00E94BC
:100620006211198218821D821C821B821A82DF913C
:10063000CF910895CF93DF93EC016115710561F0BF
:10064000FB0101900020E9F73197AF01461B570BE2
:100650000E94DA02811103C0CE010E940803CE017C
:10066000DF91CF910895EF92FF920F931F93CF9355
:10067000DF93EC017B018A01BA010E94B401811170
:1006800004C0CE010E94080307C01D830C83B7017C
:10069000888199810E94BF12CE01DF91CF911F9175
:1006A0000F91FF90EF900895CF93DF93EC016115C8
:1006B000710559F0FB0101900020E9F73197AF0176
:1006C000461B570B0E94330302C00E940803CE0151
:1006D000DF91CF910895CF93DF93EC01FB01861753
:1006E000970761F0608171816115710529F044817E
:1006F00055810E94330302C00E940803CE01DF919E
:10070000CF910895FC01118210821382128215820A
:1007100014826115710551F0FB0101900020E9F789
:100720003197AF01461B570B0C94330308951F926A
:100730000F920FB60F9211240F900FBE0F901F90C3
:1007400018951F920F920FB60F9211242F933F937B
:100750004F935F936F937F938F939F93AF93BF93C9
:10076000EF93FF938091B900887F803609F49CC095
:1007700068F5883209F45BC090F4803109F454C004
:1007800038F4882309F4F6C0883009F44DC0F6C067
:10079000883109F44CC0803209F45DC0EFC0803468
:1007A00009F468C048F4803309F455C0883309F06F
:1007B000E5C080931B02D8C0803509F44FC088354E
:1007C00009F45DC0883409F0D9C0D6C0883909F46D
:1007D000C7C0A8F4883709F467C038F4883609F42C
:1007E00063C0803709F460C0C9C0883809F4B8C054
:1007F000803909F45FC0803809F0C0C05BC0803B1D
:1008000009F486C038F4803A09F466C0883A09F4DD
:100810007FC0B4C0803C09F4A7C0883C09F4A4C0E0
:10082000883B09F48AC0AAC080913E0210C0909112
:100830003D0280913C02981770F5E0913D0281E005
:100840008E0F80933D02F0E0E45EFD4F8081809347
:10085000BB0085EC86C080931B028EC0E0913D02F8
:1008600081E08E0F80933D028091BB00F0E0E45E5A
:10087000FD4F808390913D0280913C026EC0E091DB
:100880003D0281E08E0F80933D028091BB00F0E03D
:10089000E45EFD4F80838091660281116DC081E02E
:1008A0008093650284EA61C083E0809367021092BE
:1008B0001A02CFCF80911A02803208F051C0E09125
:1008C0001A0281E08E0F80931A028091BB00F0E043
:1008D000E650FE4F8083BDCF85EC8093BC00109224
:1008E000670280911A02803230F4E0911A02F0E03F
:1008F000E650FE4F108260911A0270E0E0916102B2
:10090000F09162028AEF91E0099510921A0236C0C6
:1009100084E0809367021092F9011092F801E0914F
:100920006302F091640209958091F801811105C07C
:1009300081E08093F8011092D801E091F90181E003
:100940008E0F8093F901F0E0E852FE4F8081809392
:10095000BB009091F9018091F801981708F479CFC4
:1009600085E88093BC000AC085EC8093BC0010929F
:10097000670204C010921B020E946601FF91EF9172
:10098000BF91AF919F918F917F916F915F914F91A7
:100990003F912F910F900FBE0F901F901895CF93FE
:1009A000DF93EC018C819D810E9462118A819B8181
:1009B000DF91CF910C946211CF93DF93EC010E94F1
:1009C000CF04CE01DF91CF910C946211FC01538DC5
:1009D000448D252F30E0842F90E0821B930B541719
:1009E00010F0CF96089501970895FC01918D828DA6
:1009F000981761F0828DDF01A80FB11D5D968C9173
:100A0000928D9F5F9F73928F90E008958FEF9FEF7D
:100A10000895FC01918D828D981731F0828DE80F39
:100A2000F11D858D90E008958FEF9FEF0895FC01F3
:100A3000918D228D892F90E0805C9F4F821B9109C0
:100A40008F7399270895FC01848DDF01A80FB11DD4
:100A5000A35ABF4F2C91848D90E001968F739927F4
:100A6000848FA689B7892C93A089B1898C918370D2
:100A700080648C93938D848D981306C00288F389CB
:100A8000E02D80818F7D80830895EF92FF920F93F8
:100A90001F93CF93DF93EC0181E0888F9B8D8C8D2A
:100AA000981305C0E889F989808185FD26C0F62E56
:100AB0000B8D10E00F5F1F4F0F731127E02E8C8DF1
:100AC000E8120CC00FB607FCFACFE889F9898081DB
:100AD00085FFF5CFCE010E942305F1CF8B8DFE015E
:100AE000E80FF11DE35AFF4FF0829FB7F8940B8F88
:100AF000EA89FB89808180620AC09FB7F894EE89F9
:100B0000FF896083E889F9898081837080648083AC
:100B10009FBF81E090E0DF91CF911F910F91FF90F7
:100B2000EF900895CF93DF93EC01888D8823C9F06F
:100B3000EA89FB89808185FD05C0A889B9898C91E6
:100B400086FD0FC00FB607FCF5CF808185FFF2CF81
:100B5000A889B9898C9185FFEDCFCE010E9423052C
:100B6000E7CFDF91CF91089587E792E00E941705C4
:100B700021E0892B09F420E0822F089580E090E0A5
:100B8000892B29F00E94B40581110C94000008956E
:100B90000E94B112FC01808191810C946211CF936B
:100BA000DF93FC01448155816081718187E792E088
:100BB0000E940A01EC0142E050E064ED71E087E739
:100BC00092E00E940A018C0F9D1FDF91CF91089542
:100BD000CF93DF93EC01FB014481558160817181EA
:100BE0000E94DA02811103C0CE010E940803CE01E7
:100BF000DF91CF910895EF92FF920F931F93CF93C0
:100C0000DF93CDB7DEB7A1970FB6F894DEBF0FBE66
:100C1000CDBF7C01CB01BA01F70111821082138292
:100C20001282158214828E010F5F1F4F22E044E072
:100C30000E94A00CBC01C7010E945403A1960FB6EC
:100C4000F894DEBF0FBECDBFDF91CF911F910F9102
:100C5000FF90EF9008951F920F920FB60F921124FC
:100C60002F933F934F935F936F937F938F939F93B4
:100C7000AF93BF93EF93FF9387E792E00E94230522
:100C8000FF91EF91BF91AF919F918F917F916F9164
:100C90005F914F913F912F910F900FBE0F901F903A
:100CA00018951F920F920FB60F9211242F938F93C6
:100CB0009F93EF93FF93E0918702F09188028081E8
:100CC000E0918D02F0918E0282FD12C090818091A0
:100CD00090028F5F8F7320919102821751F0E09103
:100CE0009002F0E0E958FD4F958F8093900201C08B
:100CF0008081FF91EF919F918F912F910F900FBE67
:100D00000F901F90189590E0FC01E855FE4F24913C
:100D1000FC01EC56FE4F3491FC01E058FE4FE4918B
:100D2000EE2309F43CC0222339F1233091F038F44A
:100D30002130A9F0223001F584B58F7D12C0273013
:100D400091F02830A1F02430B9F4809180008F7D9B
:100D500003C0809180008F77809380000DC084B5A0
:100D60008F7784BD09C08091B0008F7703C08091D8
:100D7000B0008F7D8093B000F0E0EE0FFF1FEA58C7
:100D8000FE4FA591B4919FB7F894611104C08C9166
:100D90003095382302C0EC913E2B3C939FBF0895C1
:100DA000CF93DF9390E0FC01EC56FE4F2491FC01C1
:100DB000E058FE4F8491882361F190E0880F991FDD
:100DC000FC01E459FE4FC591D491FC01EA58FE4F55
:100DD000A591B491611109C09FB7F89488812095BD
:100DE00082238883EC912E230BC0623061F49FB77D
:100DF000F8948881322F309583238883EC912E2BB1
:100E00002C939FBF06C08FB7F894E8812E2B2883C0
:100E10008FBFDF91CF9108951F93CF93DF93182F4A
:100E2000EB0161E00E94D006209711F460E004C05D
:100E3000CF3FD10539F461E0812FDF91CF911F9130
:100E40000C948306E12FF0E0E855FE4FE491E33087
:100E5000F9F048F4E130B9F0E230A1F584B58062F0
:100E600084BDC8BD34C0E730E9F0E83019F1E430A2
:100E700049F580918000806280938000D0938B0040
:100E8000C0938A0024C084B5806884BDC7BD1FC0DC
:100E900080918000806880938000D0938900C09307
:100EA000880015C08091B00080688093B000C09326
:100EB000B3000DC08091B00080628093B000C093F9
:100EC000B40005C0C038D1050CF0B5CFAFCFDF916D
:100ED000CF911F9108958F929F92AF92BF92CF9220
:100EE000DF92EF92FF926B017C010E946B024B013B
:100EF0005C01C114D104E104F104F1F00E946B0221
:100F0000DC01CB0188199909AA09BB09883E9340E5
:100F1000A105B10570F321E0C21AD108E108F1087A
:100F200088EE880E83E0981EA11CB11CC114D10468
:100F3000E104F10419F7DDCFFF90EF90DF90CF903F
:100F4000BF90AF909F908F900895CF92DF92EF92D5
:100F5000FF920F931F93E82FF92F05C0015011093D
:100F60002109310961F1908196239417B9F305C0E5
:100F7000015011092109310911F19081962394132F
:100F8000F7CFC12CD12CE12CF12C0AC08FEFC81A5D
:100F9000D80AE80AF80A0C151D052E053F0579F058
:100FA00080818623841791F36C2D7D2D8E2D9F2DAE
:100FB0001F910F91FF90EF90DF90CF90089560E028
:100FC00070E080E090E01F910F91FF90EF90DF9034
:100FD000CF900895CF93DF93CDB7DEB7A8970FB624
:100FE000F894DEBF0FBECDBF789484B5826084BD17
:100FF00084B5816084BD85B5826085BD85B581601D
:1010000085BD80916E00816080936E00109281009A
:101010008091810082608093810080918100816055
:101020008093810080918000816080938000809116
:10103000B10084608093B1008091B00081608093A2
:10104000B00080917A00846080937A0080917A0069
:10105000826080937A0080917A00816080937A0028
:1010600080917A00806880937A001092C100E091AC
:101070008702F091880292E0F92EF082E0918302DB
:10108000F09184021082E0918502F091860280E165
:10109000808310928F02E0918B02F0918C0286E0A7
:1010A0008083E0918902F0918A028081806180834F
:1010B000E0918902F0918A02808188608083E091CA
:1010C0008902F0918A02808180688083E0918902A0
:1010D000F0918A0280818F7D808310926B02109242
:1010E0006A0210926902109268021092670281E00F
:1010F000809366021092650261E082E10E9483069D
:1011000061E083E10E9483068091B9008E7F809325
:10111000B9008091B9008D7F8093B90088E48093F5
:10112000B80085E48093BC0084E391E0909364026E
:101130008093630285E391E0909362028093610261
:101140008CE08093B80086E090E00E94CA108C0189
:1011500083E0F8018083F18288E893E1A0E0B0E0C9
:1011600082839383A483B58361E083E00E94D006E9
:1011700060E082E00E94D00610936D0200936C0242
:101180008FB7F89440916F02509170026091710294
:10119000709172028FBF61E08CE00E94D00661E026
:1011A00089E00E94D00661E08DE00E94D00661E0F7
:1011B00088E00E94D00662E371E0CE014F960E9463
:1011C0008203CE014F960E94CF0520906C02309092
:1011D0006D020E9461020E94460202E310E0812C2F
:1011E000912C5401C1010E94DB01BC01990F880BB5
:1011F000990B0E94F90E2DEC3CEC48EE51E40E9454
:101200004D109B01AC01C501B4010E94E10F4B01DF
:101210005C010150110931F720E030E048E452E46C
:101220000E944D102B013C016FEF70E081E090E0D7
:101230000E9450026FEF70E080E090E00E94350263
:1012400068EC70E080E090E00E946B070E94610211
:101250000E94460264E670E080E090E00E946B0726
:1012600002E310E0812C912C5401C1010E94DB01AA
:10127000BC01990F880B990B0E94F90E2DEC3CECE8
:1012800048EE51E40E944D109B01AC01C501B40130
:101290000E94E10F4B015C010150110931F720E080
:1012A00030E048E452E40E944D104B015C0164E6DA
:1012B00070E080E090E00E946B076FEF70E080E0EC
:1012C00090E00E9450026FEF70E081E090E00E9499
:1012D000350268EC70E080E090E00E946B070E94AD
:1012E00061020E94460264EF71E080E090E00E949B
:1012F0006B076FEF70E080E090E00E9450026FEFAC
:1013000070E081E090E00E94350268EC70E080E0DF
:1013100090E00E946B070E9461020E94460264E610
:1013200070E080E090E00E946B0702E310E0C12CC7
:10133000D12C7601C1010E94DB01BC01990F880B01
:10134000990B0E94F90E2DEC3CEC48EE51E40E9402
:101350004D109B01AC01C701B6010E94E10F6B016A
:101360007C010150110931F720E030E048E452E4FB
:101370000E944D107B018C01AB01BC01CE01019696
:101380000E94FB05B301A201CE0107960E94FB0556
:10139000B501A401CE010D960E94FB0563E471E046
:1013A000CE0143960E948203BE01635F7F4FCE0150
:1013B00043960E94E8056EE471E00E941A03BE01A4
:1013C000695F7F4F0E94E8056AE571E00E941A0399
:1013D000BE016F5F7F4F0E94E8051A8E198E1C8E2A
:1013E0001B8E1E8E1D8EBC01CE0149960E946B0382
:1013F000CE0143960E94CA05CE010D960E94CA05F1
:10140000CE0107960E94CA05CE0101960E94CA0528
:10141000CE0149960E94CF0520E030E040E050E444
:10142000C501B4010E94F20E87FD5DC020E030E0EE
:1014300040E050E4B701C8010E94F20E87FD53C09E
:1014400020E030E040E050E4C301B2010E94F20E1F
:1014500087FD2BC09701A801C501B4010E94E00FD0
:101460006DA37EA38FA398A720E030E0A9010E947E
:10147000BF1018166CF420E030E040E85FE36DA187
:101480007EA18FA198A50E94F20E87FF56C00DC0C5
:1014900020E030E040E85FEB6DA17EA18FA198A530
:1014A0000E94BF1018160CF048C020E030E040E069
:1014B00050E4C501B4010E94F20E87FD14C020E083
:1014C00030E040E050E4B701C8010E94F20E87FD11
:1014D0000AC020E030E040E050E4C301B2010E94C5
:1014E000F20E87FF03C067E671E002C065E771E0B6
:1014F000CE0149960E945403CE0149960E94CF0521
:1015000064EF71E080E090E00E946B076FEF70E0A5
:1015100081E090E00E9450026FEF70E080E090E088
:101520000E94350268EC70E080E090E00E946B075A
:101530000E9461020E9446020DC1A5019401C301EF
:10154000B2010E94F20E87FF0BC09701A801C301F0
:10155000B2010E94BF1018161CF465E871E02FC09C
:101560009701A801C501B4010E94BF101816ACF480
:101570009701A801C301B2010E94F20E87FF0DC0BE
:1015800060E971E0CE0149960E945403CE0149966C
:101590000E94CF05BB24B3942CC09701A801C501BC
:1015A000B4010E94F20E87FF13C0A5019401C3018C
:1015B000B2010E94F20E87FF13C060E971E0CE0114
:1015C00049960E945403CE0149960E94CF0510C04F
:1015D0009701A801C501B4010E94F20E87FF08C05F
:1015E0009701A801C301B2010E94F20E87FDC8CF86
:1015F000B12C64E670E080E090E00E946B076FEF32
:1016000070E0BB2049F081E090E00E9450026FEF53
:1016100070E080E090E008C080E090E00E9450021E
:101620006FEF70E081E090E00E9435025E01F9E129
:10163000AF0EB11C6AE971E0C5010E945403C501F7
:101640000E94CF05250166E970E080E090E00E94ED
:101650006B07612C712CA12CB12C82E3882E912C6C
:10166000C1010E94DB01BC01990F880B990B0E94FC
:10167000F90E2DEC3CEC48EE51E40E944D109B011C
:10168000AC01B301C5010E94E10F3B015C0181E0A7
:10169000881A910829F720E030E048E452E4B301C9
:1016A000C5010E944D103B015C0120E030E040E0AC
:1016B00050E40E94F20E87FDD0CFA301B501CE0108
:1016C00001960E94FB05A701B801CE0107960E9472
:1016D000FB0562EB71E0CE010D960E948203BE0114
:1016E000695F7F4FCE010D960E94E8056DEB71E0BA
:1016F0000E941A03BE016F5F7F4F0E94E805BC0184
:10170000C2010E946B03CE010D960E94CA05CE0154
:1017100007960E94CA05CE0101960E94CA05C20121
:101720000E94CF059701A801B301C5010E94E00FF7
:1017300020E030E0A9010E94F20E87FF03C0730190
:10174000850181CF69EC71E0C2010E945403C2019E
:101750000E94CF050E9461020E944602CE01499676
:101760000E94CA05CE014F960E94CA050E94BE057E
:10177000FDCF80E293E00C94CF04CF93E7E7F2E053
:101780001382128288EE93E0A0E0B0E08483958318
:10179000A683B7832AE031E03183208325EC30E053
:1017A0003587248724EC30E03787268720EC30E02B
:1017B000318B208B21EC30E0338B228B22EC30E01C
:1017C000358B248B26EC30E0378B268B118E128ED6
:1017D000138E148EE4E1F3E01382128284839583E6
:1017E000A683B7838CE191E091838083EBE3F3E000
:1017F00089E2868B108E178A118E10A211A212A276
:1018000083E090E094A383A3E0E2F3E08EE291E032
:10181000918380831382128215821482118610862E
:101820008FEF9FEF97838683128A138A148A158A13
:1018300016861786108A118A1286138614861586D4
:10184000E9E3F3E084E08083C2E0C18361E08CE0FF
:101850000E94D00661E087E00E94D00661E088E047
:101860000E94D00661E084E00E94D0061092360308
:101870000E94730C60E087E00E9483060E94730C54
:1018800084B5836284BD18BC61E085E00E94D00607
:10189000E7E3F3E083E08083C18361E08CE00E94B2
:1018A000D00661E087E00E94D00661E088E00E94F7
:1018B000D00661E084E00E94D006109236030E94B8
:1018C000730C60E087E00E9483060E94730C84B56D
:1018D000836884BD17BC61E086E00E94D006109248
:1018E0006003CF910895CF93DF9360E08CE00E9476
:1018F000830660E088E00E948306C7E0D0E060E0F5
:1019000084E00E9483068091360390E00C2E02C092
:10191000959587950A94E2F780FF02C061E001C0C7
:1019200060E088E00E94830661E084E00E94830614
:10193000219728F761E08CE0DF91CF910C9483062A
:10194000EF920F931F93CF93DF93E80147FD02C0FF
:1019500034E001C034E1042E000C550B57FF03C0E6
:10196000519541955109E32E022F242FAE010E947B
:10197000C00CCE01DF91CF911F910F91EF90089590
:10198000A9E0B0E0E6ECFCE00C94AF0F6A01122F86
:10199000B02E2BE3201720F0FF24F394F00E02C0AA
:1019A0002CE3F22E0F2D27E0AE014F5F5F4F0E9418
:1019B0001A0EBC014981842F8970813031F0E1FC1D
:1019C00006C0E0FE06C090E205C09DE203C09BE2B7
:1019D00001C090E05E2D507143FF3CC0911102C0E8
:1019E00083E001C084E0811718F4212F281B01C077
:1019F00020E051110BC0F601822F30E2882319F04C
:101A000031938150FBCFC20ED11C20E0992329F0E5
:101A1000D6019C93F60131966F01C6010396E2FE52
:101A20000AC03EE4D6013C9341E411964C931197D1
:101A300012963C9306C03EE6F601308341E64183B0
:101A40003283FC01322F40E2332309F442C0419338
:101A50003150FACF42FF44C0911102C083E001C06F
:101A600084E0811718F4212F281B01C020E05111B8
:101A70000BC0F601822F30E2882319F03193815098
:101A8000FBCFC20ED11C20E0992329F0D6019C93F4
:101A9000F60131966F01C6010396E2FE0BC039E4F0
:101AA000D6013C933EE411963C93119736E412968E
:101AB0003C9307C039E6F60130833EE6318336E6D3
:101AC0003283FC01322F40E2332319F0419331502D
:101AD000FBCFFC01E20FF11D10828EEF9FEFA6C03D
:101AE00021E030E0911102C020E030E01616170628
:101AF0001CF4FB01319602C0E1E0F0E02E0F3F1F25
:101B0000BB2021F0EB2DF0E0319602C0E0E0F0E0E8
:101B10002E0F3F1FE12FF0E02E173F071CF4121B82
:101B2000212F01C020E08E2D887159F4F601822FFB
:101B300030E2882319F031938150FBCFC20ED11CC3
:101B400020E0992329F0D6019C93F60131966F018C
:101B500051110BC0F601822F90E3882319F0919365
:101B60008150FBCFC20ED11C20E00F2D060F9A81B1
:101B7000342F307144FF03C0913309F40150101623
:101B800024F4093018F008E001C001E0AB0177FF50
:101B900002C040E050E0FB01E41BF50BA1E0B0E027
:101BA000AC0FBD1FEA0FFB1F8EE2A82E4B01801A5F
:101BB00091080B2D10E01195019511094F3FBFEFD2
:101BC0005B0721F4D601AC9211966D01641775077D
:101BD0002CF08416950614F4818101C080E34150F5
:101BE00051093196D60111967D014017510724F015
:101BF000D6018C936701E2CF6417750739F49633E9
:101C000020F4953319F4311101C081E3F60180838A
:101C1000F701822F90E2882319F091938150FBCF36
:101C2000F701E20FF11D108280E090E02996ECE0D0
:101C30000C94CB0F283008F027E03327DA01990FF6
:101C4000311D87FD916000966105710539F43260A0
:101C50002E5F3D9330E32A95E1F708959F3F30F0E2
:101C600080387105610509F03C5F3C5F3D93913020
:101C700008F08068911DDF93CF931F930F93FF921D
:101C8000EF92192F987F9695E92F96959695E90FE3
:101C9000FF27EE53FF4F99273327EE24FF24A70198
:101CA000E70105900894079428F4360FE71EF81E04
:101CB000491F511D660F771F881F991F0694A1F7B2
:101CC0000590079428F4E70EF81E491F561FC11D02
:101CD000770F881F991F661F0694A1F70590079438
:101CE00028F4F80E491F561FC71FD11D880F991FD2
:101CF000661F771F0694A1F70590079420F4490FFB
:101D0000561FC71FD81F990F661F771F881F06947D
:101D1000A9F784911095177041F0D695C7955795FE
:101D20004795F794E7941A95C1F7E8E6F0E06894D0
:101D30001590159135916591959105907FE2739578
:101D4000E118F10A430B560BC90BD009C0F7E10C9F
:101D5000F11E431F561FC91FD01D7EF4703311F4AE
:101D60008A95E6CFE894015030F0080F0AF4002776
:101D7000021708F4202F2395022F7A3328F079E3F5
:101D80007D932A95E9F710C07D932A9589F60694EC
:101D900097956795379517951794E118F10A430BB6
:101DA000560BC90BD00998F023957E9173957A3321
:101DB00008F070E37C932013B8F77E9170617D93F7
:101DC00030F0839571E37D9370E32A95E1F7112458
:101DD000EF90FF900F911F91CF91DF91992787FD91
:101DE000909508950E94340F08F481E00895E894D6
:101DF00009C097FB3EF490958095709561957F4F53
:101E00008F4F9F4F9923A9F0F92F96E9BB27939500
:101E1000F695879577956795B795F111F8CFFAF410
:101E2000BB0F11F460FF1BC06F5F7F4F8F4F9F4F41
:101E300016C0882311F096E911C0772321F09EE89F
:101E4000872F762F05C0662371F096E8862F70E005
:101E500060E02AF09A95660F771F881FDAF7880FDF
:101E60009695879597F90895990F0008550FAA0B35
:101E7000E0E8FEEF16161706E807F907C0F012169D
:101E80001306E407F50798F0621B730B840B950BA0
:101E900039F40A2661F0232B242B252B21F40895F5
:101EA0000A2609F4A140A6958FEF811D811D089592
:101EB00097F99F6780E870E060E008959FEF80ECFD
:101EC000089500240A9416161706180609060895A0
:101ED00000240A9412161306140605060895092E06
:101EE0000394000C11F4882352F0BB0F40F4BF2B75
:101EF00011F460FF04C06F5F7F4F8F4F9F4F0895B5
:101F000057FD9058440F551F59F05F3F71F04795AA
:101F1000880F97FB991F61F09F3F79F0879508958F
:101F2000121613061406551FF2CF4695F1DF08C0AE
:101F3000161617061806991FF1CF869571056105CB
:101F400008940895E894BB2766277727CB0197F973
:101F500008952F923F924F925F926F927F928F924D
:101F60009F92AF92BF92CF92DF92EF92FF920F9328
:101F70001F93CF93DF93CDB7DEB7CA1BDB0B0FB632
:101F8000F894DEBF0FBECDBF09942A8839884888EF
:101F90005F846E847D848C849B84AA84B984C88485
:101FA000DF80EE80FD800C811B81AA81B981CE0F7C
:101FB000D11D0FB6F894DEBF0FBECDBFED01089561
:101FC0005058BB27AA270E94F80F0C946F0F0E944D
:101FD000610F38F00E94680F20F039F49F3F19F428
:101FE00026F40C945E0F0EF4E095E7FB0C94580F6A
:101FF000E92F0E94800F58F3BA176207730784070E
:10200000950720F079F4A6F50C94A20F0EF4E09554
:102010000B2EBA2FA02D0B01B90190010C01CA01A2
:10202000A0011124FF27591B99F0593F50F4503E4D
:1020300068F11A16F040A22F232F342F4427585F3F
:10204000F3CF469537952795A795F0405395C9F757
:102050007EF41F16BA0B620B730B840BBAF091500F
:10206000A1F0FF0FBB1F661F771F881FC2F70EC0AE
:10207000BA0F621F731F841F48F487957795679581
:10208000B795F7959E3F08F0B0CF9395880F08F06D
:102090009927EE0F9795879508950E9461100C94EB
:1020A0006F0F0E94680F58F00E94610F40F029F4F2
:1020B0005F3F29F00C94580F51110C94A30F0C940E
:1020C0005E0F0E94800F68F39923B1F3552391F3BB
:1020D000951B550BBB27AA2762177307840738F097
:1020E0009F5F5F4F220F331F441FAA1FA9F335D0F4
:1020F0000E2E3AF0E0E832D091505040E695001CA8
:10210000CAF72BD0FE2F29D0660F771F881FBB1F61
:10211000261737074807AB07B0E809F0BB0B802D3F
:10212000BF01FF2793585F4F3AF09E3F510578F06B
:102130000C94580F0C94A30F5F3FE4F3983ED4F334
:10214000869577956795B795F7959F5FC9F7880F3F
:10215000911D9695879597F90895E1E0660F771F91
:10216000881FBB1F621773078407BA0720F0621B22
:10217000730B840BBA0BEE1F88F7E09508950E944D
:10218000340F08F48FEF0895EE0FFF1F0590F491C0
:10219000E02D09940F931F93CF93DF938230910525
:1021A00010F482E090E0E0916303F091640320E09A
:1021B00030E0A0E0B0E0309719F140815181028118
:1021C000138148175907C8F08417950769F41097C9
:1021D00031F012960C93129713961C9327C000931C
:1021E00063031093640322C02115310519F04217CF
:1021F000530718F49A01BD01EF01DF01F801DBCFAD
:1022000021153105F9F0281B390B2430310580F4F4
:102210008A819B816115710521F0FB019383828383
:1022200004C09093640380936303FE01329644C01C
:10223000FE01E20FF31F81939193225031093983FC
:1022400028833AC02091610330916203232B41F42B
:1022500020910201309103013093620320936103C6
:1022600020910001309101012115310541F42DB774
:102270003EB74091040150910501241B350BE091BC
:102280006103F0916203E217F307A0F42E1B3F0BEA
:102290002817390778F0AC014E5F5F4F24173507D8
:1022A00048F04E0F5F1F5093620340936103819388
:1022B000919302C0E0E0F0E0CF01DF91CF911F9158
:1022C0000F910895CF93DF93009709F481C0FC012B
:1022D000329713821282A0916303B0916403109726
:1022E00081F420813181820F931F2091610330910D
:1022F00062032817390751F5F0936203E0936103F5
:1023000067C0ED0120E030E0CE17DF0740F44A81DE
:102310005B819E0141155105F1F0EA01F5CFD383B0
:10232000C28340815181840F951FC817D90759F482
:1023300088819981840F951F0296918380838A8179
:102340009B81938382832115310529F4F0936403E3
:10235000E09363033DC0E901FB83EA83499159910E
:10236000C40FD51FEC17FD0761F480819181840FA4
:10237000951F0296E90199838883828193819B83CB
:102380008A83E0E0F0E012968D919C91139700977C
:1023900019F0FD01DC01F7CF8D919C9111979D0102
:1023A0002E5F3F4F820F931F209161033091620394
:1023B0002817390769F4309729F4109264031092B2
:1023C000630302C013821282B0936203A09361037D
:1023D000DF91CF910895A0E0B0E0E1EFF1E10C943E
:1023E000AD0FEC01009721F4CB010E94CA10B4C0DC
:1023F000FC01E60FF71F9C0122503109E217F30799
:1024000008F4A8C0D9010D911C9111970617170760
:10241000B0F00530110508F49BC0C8010497861779
:10242000970708F495C002501109061B170B01937A
:1024300011936D937C93CF010E94621189C05B015F
:10244000A01AB10A4C01800E911EA0916303B091B5
:102450006403612C712CE12CF12C109709F446C017
:102460008D919C911197A815B905B1F56C0142E0C9
:10247000C40ED11CCA14DB0478F14C018A189B08E5
:10248000640142E0C40ED11C1296BC9012971396C0
:10249000AC91B5E0CB16D10440F0B282A383918217
:1024A0008082D9016D937C9309C00E5F1F4F800F0E
:1024B000911FF90191838083EB2DFA2FE114F10430
:1024C00031F0D7011396FC93EE93129741C0F0932D
:1024D0006403E09363033CC06816790608F43C018A
:1024E0007D0112960D90BC91A02DB7CF8091610314
:1024F0009091620388169906E1F466167706C8F48F
:102500008091000190910101009741F48DB79EB731
:102510004091040150910501841B950BE817F907C0
:10252000C8F4F0936203E0936103F901718360835F
:102530000FC0CB010E94CA107C01009759F0A8017E
:10254000BE010E94B612CE010E946211C70104C0F2
:10255000CE0102C080E090E0CDB7DEB7EEE00C9493
:10256000C90F81E090E0F8940C94C612FB01DC01E5
:1025700002C001900D9241505040D8F70895FB01E0
:10258000DC0101900D920020E1F7089510E0CFEDFD
:10259000D0E004C0FE010E94C4102196C03ED107C5
:0625A000C9F7F894FFCF1B
:1025A6000000650380000000000045050A01E604FE
:1025B60092051705F504090500000000A30198011E
:1025C600630136015A014601370100000000CF04BD
:1025D600DC04416C69676E696E6720746F207761F1
:1025E6006C6C006C656674446973743A20002069EB
:1025F6006E6974446973743A20002072696768745E
:10260600446973743A2000756E6B6E6F776E207333
:102616007461746500416C69676E656420616C72F3
:1026260065616479005475726E205269676874003A
:102636005475726E204C65667400476F696E67202C
:10264600696E73696465207768696C65206C6F6F65
:10265600700050726576446973743A200020637581
:102666007272446973743A20004F75746F66206CF9
:082676006F6F70000D0A0000F7
:00000001FF
