:100000000C9475000C949D000C949D000C94BF0200
:100010000C94BF020C94BF020C949D000C949D00A4
:100020000C949D000C949D000C949D000C949D00DC
:100030000C949D000C949D000C949D000C949D00CC
:100040000C9475020C949D000C94350A0C940F0AC4
:100050000C949D000C949D000C949D000C949D00AC
:100060000C9425060C949D00084AD73B3BCE016EAC
:1000700084BCBFFDC12F3D6C74319ABD56833DDAFF
:100080003D00C77F11BED9E4BB4C3E916BAAAABE0E
:10009000000000803F0000000000240027002A002C
:1000A00000000000250028002B00040404040404C0
:1000B0000404020202020202030303030303010217
:1000C00004081020408001020408102001020408E6
:1000D00010200000000800020100000304070000D7
:1000E0000000000000001F0F1B0F11241FBECFEFE8
:1000F000D8E0DEBFCDBF23E0A6ECB1E001C01D9289
:10010000A135B207E1F711E0A0E0B1E0E0E5F9E2E6
:1001100002C005900D92A63CB107D9F710E0C4E7E4
:10012000D0E004C02197FE010E949912C337D10785
:10013000C9F70E94890B0C949B140C940000CF9279
:10014000DF92EF92FF920F931F93CF93DF936C0197
:100150007A018B01C0E0D0E0CE15DF0581F0D80137
:100160006D918D01D601ED91FC910190F081E02D12
:10017000C6010995892B11F02196EECF7E01C701AA
:10018000DF91CF911F910F91FF90EF90DF90CF9073
:100190000895089508950895E09132028091310202
:1001A000E81730F4F0E0EF5BFD4F808190E00895B8
:1001B0008FEF9FEF0895909132028091310298174E
:1001C00050F4E92FF0E0EF5BFD4F208130E09F5FBE
:1001D0009093320202C02FEF3FEFC9010895809142
:1001E000310290E020913202821B910908953091F2
:1001F0003302313208F04AC0809187028111FCCF6E
:100200009091350222E020938702609386022FEFBF
:10021000209385021092840230938302EBE0F2E097
:10022000A1E6B2E020E0321721F041914D932F5F1B
:10023000FACF1092820220918202990F922B909312
:10024000820290918102913061F41092810290912A
:1002500082029093BB009091BC0093FDF8CF95EC87
:1002600001C095EE9093BC00909187029230E1F32B
:10027000909185029F3F79F080918502803241F014
:1002800080918502803331F084E005C081E003C0B5
:1002900082E001C083E01092340210923302109287
:1002A000360208951F93CF93DF93EC01142F81E062
:1002B0008093360289E680933502109234021092C0
:1002C000330288819981DC01ED91FC910190F081EC
:1002D000E02D099588819981DC01ED91FC910190D7
:1002E000F081E02D612F099561E088819981DF918E
:1002F000CF911F910C94F700089580E090E008954D
:1003000085ED8093BC008091BC0084FDFCCF1092F1
:10031000870208954091E801262F30E0240F311D17
:1003200021323105DCF4209187022430C9F4FC012C
:1003300080E090E0861758F43091E8012191DC01CB
:10034000A853BE4FA30FB11D2C930196F3CF8091FC
:10035000E801680F6093E80180E0089581E0089566
:1003600082E00895CF92DF92EF92FF920F931F9356
:10037000CF93DF937C01CB018A01209136022223A7
:1003800089F0EB016B01C40ED51ECC15DD0569F0BB
:100390006991D701ED91FC910190F081E02DC701A9
:1003A0000995F3CF642F0E948A01C801DF91CF9194
:1003B0001F910F91FF90EF90DF90CF900895CF9312
:1003C000DF931F92CDB7DEB76983209136022223D7
:1003D000D1F020913302203240F021E030E0FC01E6
:1003E0003383228380E090E015C080913402E82FAF
:1003F000F0E0E55FFD4F998190838F5F8093340239
:100400008093330205C061E0CE0101960E948A010B
:1004100081E090E00F90DF91CF910895CF93DF932B
:10042000EB01682F8CE00E94670A60E089E00E947F
:10043000670ABE0183E0DF91CF910C94F00A60E07F
:1004400070E081E090E00E940E0261E089E00C948F
:10045000670ACF93DF93EB01682F8DE00E94670A54
:1004600060E088E00E94670ABE018BE0DF91CF91D7
:100470000C94F00A60E070E081E090E00E942902B4
:1004800061E088E00C94670A3FB7F89480913D02E0
:1004900090913E02A0913F02B091400226B5A89BE8
:1004A00005C02F3F19F00196A11DB11D3FBFBA2F06
:1004B000A92F982F8827820F911DA11DB11DBC0166
:1004C000CD0142E0660F771F881F991F4A95D1F72B
:1004D00008952FB7F8946091390270913A02809193
:1004E0003B0290913C022FBF08951F920F920FB6CE
:1004F0000F9211242F933F938F939F93AF93BF93AA
:100500008091390290913A02A0913B02B0913C0255
:100510003091380223E0230F2D3720F40196A11DDE
:10052000B11D05C026E8230F0296A11DB11D209321
:1005300038028093390290933A02A0933B02B09321
:100540003C0280913D0290913E02A0913F02B09109
:1005500040020196A11DB11D80933D0290933E0281
:10056000A0933F02B0934002BF91AF919F918F91B2
:100570003F912F910F900FBE0F901F9018951F92D3
:100580000F920FB60F9211240F900FBE0F901F9075
:1005900018952F923F924F925F926F927F928F9217
:1005A0009F92AF92BF92CF92DF92EF92FF920F9302
:1005B0001F93CF93DF93CDB7DEB72C970FB6F89488
:1005C000DEBF0FBECDBF9C878B8781E08093360254
:1005D00089E6809335021092340210923302AB8583
:1005E000BC858D919C91DC01ED91FC910190F08195
:1005F000E02D6BE3099560E0EB85FC8580819181BE
:100600000E94F70041E06EE089E60E944E081092D9
:10061000320280933102AB85BC858D919C91DC01C7
:10062000ED91FC910284F385E02D0995182FEB855F
:10063000FC8580819181DC01ED91FC910284F38540
:10064000E02D099520E030E0312F822B932BEB85B4
:10065000FC859383828380819181DC01ED91FC9103
:100660000284F385E02D0995182FEB85FC858081A8
:100670009181DC01ED91FC910284F385E02D0995D7
:1006800020E030E0312F822B932BEB85FC85958386
:10069000848380819181DC01ED91FC910284F3855A
:1006A000E02D0995182FEB85FC8580819181DC0177
:1006B000ED91FC910284F385E02D099520E030E076
:1006C000312F822B932BEB85FC859783868380814A
:1006D0009181DC01ED91FC910284F385E02D099577
:1006E000182FEB85FC8580819181DC01ED91FC91D7
:1006F0000284F385E02D099520E030E0312F822B34
:10070000932BEB85FC859187808780819181DC012B
:10071000ED91FC910284F385E02D0995182FEB856E
:10072000FC8580819181DC01ED91FC910284F3854F
:10073000E02D099520E030E0312F822B932BEB85C3
:10074000FC859387828780819181DC01ED91FC910A
:100750000284F385E02D0995182FEB85FC858081B7
:100760009181DC01ED91FC910284F385E02D0995E6
:1007700020E030E0312F822B932BEB85FC85958791
:10078000848780819181DC01ED91FC910284F38565
:10079000E02D0995182FEB85FC8580819181DC0186
:1007A000ED91FC910284F385E02D099520E030E085
:1007B000312F1901282A392AEB85FC8537862686B0
:1007C00060857185072E000C880B990B0E94940F91
:1007D00020E030EF41E456E40E94E91020E030E0F0
:1007E0004AEA53E40E94C711AB85BC855C966D93C1
:1007F0007D938D939C935F9712966D917C91139747
:10080000072E000C880B990B0E94940F20E030E01B
:1008100040E858E30E94F30F4B015C01EB85FC8537
:1008200060A371A382A393A364817581072E000C3A
:10083000880B990B0E94940F20E030E040E858E3C9
:100840000E94F30F6B017C01AB85BC8594966D9380
:100850007D938D939C93979716966D917C911797A6
:10086000072E000C880B990B0E94940F20E030E0BB
:1008700040E858E30E94F30F2B013C01EB85FC8517
:1008800060A771A782A793A720E030E0A901C50166
:10089000B4010E946012181624F0C501B4019058EA
:1008A00002C0C501B401A30192010E94E9109B019D
:1008B000AC01C701B6010E9468110B851C850C5B59
:1008C0001F4F20E030E044EB53E40E94F30F20E0A0
:1008D00030E040E05FE30E94F30F2BED3FE049E49E
:1008E00050E40E94C711D8016D937D938D939C9322
:1008F000139720E030E0A901C701B6010E94601201
:10090000181624F0F7FAF094F7F8F094A301920186
:10091000C701B6010E94E9109B01AC01C501B401F9
:100920000E9468110B851C85085B1F4F20E030E09A
:1009300044EB53E40E94F30F20E030E040E05FEB33
:100940000E94F30F2BED3FE049E450E40E94C711F1
:10095000F8016083718382839383AB85BC851C9689
:100960006D917C911D97072E000C880B990B0E94AE
:10097000940F20E030E043E852E40E94C7116B017D
:100980007C01EB85FC8562857385072E000C880B46
:10099000990B0E94940F20E030E043E852E40E945B
:1009A000C711AB85BC8550962D913D914D915C91C1
:1009B00053970E94E810EB85FC8564A775A786A76E
:1009C00097A72489358946895789C701B6010E94AE
:1009D000E810AB85BC85D0966D937D938D939C93E9
:1009E000D397B101330C880B990B0E94940F20E030
:1009F00030E043E852E40E94C711EB85FC85208D6E
:100A0000318D428D538D0E94E810AB85BC85D49604
:100A10006D937D938D939C93D7970E946902EB858C
:100A2000FC85E05AFF4FFE83ED83C080D180E280D9
:100A3000F3806C197D098E099F090E94920F2FE6A1
:100A400032E143E85AE30E94F30F2B013C01EB85AE
:100A5000FC85E45AFF4F6083718382839383AB8567
:100A6000BC859C962D913D914D915C919F970E94E4
:100A7000F30F4B015C019B01AC01EB85FC8560AD84
:100A800071AD82AD93AD0E94E910AB85BC85D8965F
:100A90006D937D938D939C93DB97D0962D913D9193
:100AA0004D915C91D397C301B2010E94F30F6B018A
:100AB0007C019B01AC01EB85FC8564AD75AD86AD19
:100AC00097AD0E94E910AB85BC85DC966D937D9354
:100AD0008D939C93DF97D4962D913D914D915C9190
:100AE000D797C301B2010E94F30F6B847C84B0E4FA
:100AF0006B0E711CF30120813181428153810E9470
:100B0000E9106F83788789879A87D3016D937D93E6
:100B10008D939C931397EB85FC85E859FF4F40809C
:100B2000518062807380EB85FC85EC59FF4F80819A
:100B30009181A281B38189839A83AB83BC832B8407
:100B40003C8490E5290E311CD1012D913D914D91B0
:100B50005C91C501B4010E94E910A30192010E94B9
:100B6000F30F4B015C01EB85FC85EC5BFF4F2081B3
:100B700031814281538169817A818B819C810E947C
:100B8000F30F9B01AC01C501B4010E94E910F10112
:100B90006083718382839383AB84BC84F4E5AF0E5E
:100BA000B11CD5012D913D914D915C91C701B601CC
:100BB0000E94E910A30192010E94F30F6B017C01D6
:100BC000F801208131814281538169817A818B8151
:100BD0009C810E94F30F9B01AC01C701B6010E94EA
:100BE000E910D5016D937D938D939C931397EB85BD
:100BF000FC85E85AFF4F8F819885A985BA85808347
:100C00009183A283B3830E946902AD81BE816D93FB
:100C10007D938D939C9313972C960FB6F894DEBF1B
:100C20000FBECDBFDF91CF911F910F91FF90EF903D
:100C3000DF90CF90BF90AF909F908F907F906F90FC
:100C40005F904F903F902F9008951F920F920FB694
:100C50000F9211242F933F934F935F936F937F9342
:100C60008F939F93AF93BF93EF93FF938091B900BE
:100C7000887F803609F49CC068F5883209F45BC02F
:100C800090F4803109F454C038F4882309F4F6C094
:100C9000883009F44DC0F6C0883109F44CC0803268
:100CA00009F45DC0EFC0803409F468C048F48033B3
:100CB00009F455C0883309F0E5C080938502D8C097
:100CC000803509F44FC0883509F45DC0883409F0D7
:100CD000D9C0D6C0883909F4C7C0A8F4883709F448
:100CE00067C038F4883609F463C0803709F460C0FF
:100CF000C9C0883809F4B8C0803909F45FC08038A9
:100D000009F0C0C05BC0803B09F486C038F4803A6B
:100D100009F466C0883A09F47FC0B4C0803C09F485
:100D2000A7C0883C09F4A4C0883B09F48AC0AAC0C3
:100D30008091820210C09091840280918302981762
:100D400070F5E091840281E08E0F80938402F0E0E0
:100D5000EF59FD4F80818093BB0085EC86C0809366
:100D600085028EC0E091840281E08E0F8093840220
:100D70008091BB00F0E0EF59FD4F80839091840299
:100D8000809183026EC0E091840281E08E0F809397
:100D900084028091BB00F0E0EF59FD4F8083809189
:100DA000860281116DC081E08093810284EA61C076
:100DB00083E08093870210920A02CFCF80910A02CB
:100DC000803208F051C0E0910A0281E08E0F8093DA
:100DD0000A028091BB00F0E0E651FE4F8083BDCF58
:100DE00085EC8093BC001092870280910A028032C9
:100DF00030F4E0910A02F0E0E651FE4F108260917B
:100E00000A0270E0E0912D02F0912E028AEE91E04C
:100E1000099510920A0236C084E0809387021092EE
:100E2000E9011092E801E0912F02F091300209955A
:100E30008091E801811105C081E08093E801109262
:100E4000C801E091E90181E08E0F8093E901F0E0B3
:100E5000E853FE4F80818093BB009091E90180911F
:100E6000E801981708F479CF85E88093BC000AC0A0
:100E700085EC8093BC001092870204C0109285021A
:100E80000E948001FF91EF91BF91AF919F918F914F
:100E90007F916F915F914F913F912F910F900FBE76
:100EA0000F901F901895CF93DF93EC018C819D815B
:100EB0000E9437138A819B81DF91CF910C94371365
:100EC000CF93DF93EC010E945307CE01DF91CF91C6
:100ED0000C943713FC01538D448D252F30E0842F63
:100EE00090E0821B930B541710F0CF960895019752
:100EF0000895FC01918D828D981761F0828DDF013C
:100F0000A80FB11D5D968C91928D9F5F9F73928FFC
:100F100090E008958FEF9FEF0895FC01918D828DF1
:100F2000981731F0828DE80FF11D858D90E00895BE
:100F30008FEF9FEF0895FC01918D228D892F90E016
:100F4000805C9F4F821B91098F7399270895FC0144
:100F5000848DDF01A80FB11DA35ABF4F2C91848D42
:100F600090E001968F739927848FA689B7892C9377
:100F7000A089B1898C91837080648C93938D848DCA
:100F8000981306C00288F389E02D80818F7D8083CD
:100F90000895EF92FF920F931F93CF93DF93EC018D
:100FA00081E0888F9B8D8C8D981305C0E889F98925
:100FB000808185FD26C0F62E0B8D10E00F5F1F4F40
:100FC0000F731127E02E8C8DE8120CC00FB607FCB2
:100FD000FACFE889F989808185FFF5CFCE010E949B
:100FE000A707F1CF8B8DFE01E80FF11DE35AFF4FEC
:100FF000F0829FB7F8940B8FEA89FB898081806229
:101000000AC09FB7F894EE89FF896083E889F9895F
:1010100080818370806480839FBF81E090E0DF9156
:10102000CF911F910F91FF90EF900895CF93DF9391
:10103000EC01888D8823C9F0EA89FB89808185FDD0
:1010400005C0A889B9898C9186FD0FC00FB607FC31
:10105000F5CF808185FFF2CFA889B9898C9185FF72
:10106000EDCFCE010E94A707E7CFDF91CF91089582
:1010700088E892E00E949B0721E0892B09F420E098
:10108000822F089580E090E0892B29F00E94380893
:1010900081110C94000008950E948614909187029B
:1010A0009111FCCF91E090938702409386022FEF3D
:1010B0002093850210928402260F2093830290933E
:1010C000820290918202880F892B80938202809104
:1010D0008102813061F410928102809182028093BA
:1010E000BB008091BC0083FDF8CF85EC01C085EE8C
:1010F0008093BC00809187028130E1F3809184026B
:10110000861710F460918402A1E6B2E0E1E4F2E017
:1011100080E0861721F09D9191938F5FFACF08951B
:10112000CF93DF93009779F0FC0101900020E9F75D
:101130003197AF01481B590BBC0188E892E00E942F
:101140009F00EC0102C0C0E0D0E042E050E06CEA59
:1011500071E088E892E00E949F008C0F9D1FDF9154
:10116000CF9108954F925F926F927F928F929F924C
:10117000AF92BF92CF92DF92EF92FF920F931F93A5
:10118000CF93DF938FEA91E00E94900802E310E092
:10119000C12CD12C760146015701260137018091DF
:1011A0003303909134030E94C902C0913303D0915C
:1011B0003403FE01E05BFF4F208131814281538186
:1011C000C301B2010E94E9102B013C01FE01EC5A5F
:1011D000FF4F2081318142815381C501B4010E94BA
:1011E000E9104B015C01C85ADF4F288139814A81DF
:1011F0005B81C701B6010E94E9106B017C010150BF
:10120000110969F620E030E048E452E4C301B2017C
:101210000E94C71160933B0370933C0380933D038E
:1012200090933E0320E030E048E452E4C501B4016D
:101230000E94C71160933F03709340038093410362
:101240009093420320E030E048E452E4C701B60145
:101250000E94C71160934303709344038093450336
:1012600090934603DF91CF911F910F91FF90EF90E4
:10127000DF90CF90BF90AF909F908F907F906F90B6
:101280005F904F900895CF92DF92FF920F931F933C
:10129000CF93DF936C0180913303909134030E94CC
:1012A000C9028091370390913803019665E070E0A0
:1012B0000E94711290933803809337032091390371
:1012C00030913A032530310534F42F5F3F4F30938E
:1012D0003A032093390328E2F22EF89E9001F99EFA
:1012E000300D1124C0913503D0913603C20FD31FA6
:1012F0000E946902688379838A839B8320913703E4
:1013000030913803F29EC001F39E900D1124C091DC
:101310003503D0913603C80FD91F009133031091C4
:101320003403F80180A191A1A2A1B3A18C839D8374
:10133000AE83BF8384A195A1A6A1B7A18887998711
:10134000AA87BB8780A591A5A2A5B3A58C879D87F9
:10135000AE87BF8784A595A5A6A5B7A5888B998BD1
:10136000AA8BBB8B80A991A9A2A9B3A98C8B9D8BB9
:10137000AE8BBF8B84A995A9A6A9B7A9888F998F91
:10138000AA8FBB8FE05BFF4F20913B0330913C0362
:1013900040913D0350913E03608171818281938130
:1013A0000E94E8106C8F7D8F8E8F9F8FF801EC5A12
:1013B000FF4F20913F0330914003409141035091F2
:1013C000420360817181828193810E94E81068A349
:1013D00079A38AA39BA3F801E85AFF4F2091430306
:1013E00030914403409145035091460360817181DF
:1013F000828193810E94E8106CA37DA38EA39FA39A
:10140000FE01D60101900D92FA94E1F7C601DF9139
:10141000CF911F910F91FF90DF90CF9008951F9271
:101420000F920FB60F9211242F933F934F935F9318
:101430006F937F938F939F93AF93BF93EF93FF939C
:1014400088E892E00E94A707FF91EF91BF91AF91CA
:101450009F918F917F916F915F914F913F912F91CC
:101460000F900FBE0F901F9018951F920F920FB6FE
:101470000F9211242F938F939F93EF93FF93E091FB
:101480009802F09199028081E0919E02F0919F0272
:1014900082FD12C090818091A1028F5F8F73209195
:1014A000A202821751F0E091A102F0E0E857FD4F4F
:1014B000958F8093A10201C08081FF91EF919F9150
:1014C0008F912F910F900FBE0F901F90189590E065
:1014D000FC01EE52FF4F2491FC01E254FF4F349186
:1014E000FC01E655FF4FE491EE2309F43CC02223B2
:1014F00039F1233091F038F42130A9F0223001F590
:1015000084B58F7D12C0273091F02830A1F02430AF
:10151000B9F4809180008F7D03C0809180008F7727
:10152000809380000DC084B58F7784BD09C0809101
:10153000B0008F7703C08091B0008F7D8093B000A2
:10154000F0E0EE0FFF1FE056FF4FA591B4919FB75B
:10155000F894611104C08C913095382302C0EC914D
:101560003E2B3C939FBF0895CF93DF9390E0FC0107
:10157000E254FF4F2491FC01E655FF4F84918823EC
:1015800061F190E0880F991FFC01EA56FF4FC59169
:10159000D491FC01E056FF4FA591B491611109C0AF
:1015A0009FB7F8948881209582238883EC912E231D
:1015B0000BC0623061F49FB7F8948881322F309568
:1015C00083238883EC912E2B2C939FBF06C08FB76B
:1015D000F894E8812E2B28838FBFDF91CF91089557
:1015E0001F93CF93DF93182FEB0161E00E94B40AA1
:1015F000209711F460E004C0CF3FD10539F461E0D9
:10160000812FDF91CF911F910C94670AE12FF0E0B9
:10161000EE52FF4FE491E330F9F048F4E130B9F0D5
:10162000E230A1F584B5806284BDC8BD34C0E73026
:10163000E9F0E83019F1E43049F5809180008062EA
:1016400080938000D0938B00C0938A0024C084B51F
:10165000806884BDC7BD1FC0809180008068809372
:101660008000D0938900C093880015C08091B0009D
:1016700080688093B000C093B3000DC08091B0002B
:1016800080628093B000C093B40005C0C038D1051B
:101690000CF0B5CFAFCFDF91CF911F9108958F920E
:1016A0009F92AF92BF92CF92DF92EF92FF926B0127
:1016B0007C010E9444024B015C01C114D104E1048D
:1016C000F104F1F00E944402DC01CB018819990970
:1016D000AA09BB09883E9340A105B10570F321E03A
:1016E000C21AD108E108F10888EE880E83E0981E3E
:1016F000A11CB11CC114D104E104F10419F7DDCF20
:10170000FF90EF90DF90CF90BF90AF909F908F9021
:101710000895CF93DF93CDB7DEB7E5970FB6F89472
:10172000DEBF0FBECDBF789484B5826084BD84B522
:10173000816084BD85B5826085BD85B5816085BDCC
:1017400080916E00816080936E0010928100809184
:10175000810082608093810080918100816080930C
:101760008100809180008160809380008091B10031
:1017700084608093B1008091B00081608093B0005C
:1017800080917A00846080937A0080917A008260F0
:1017900080937A0080917A00816080937A008091B2
:1017A0007A00806880937A001092C100E0919802DC
:1017B000F091990282E08083E0919402F091950289
:1017C0001082E0919602F091970280E1808310925E
:1017D000A002E0919C02F0919D0286E08083E0915E
:1017E0009A02F0919B02808180618083E0919A024D
:1017F000F0919B02808188608083E0919A02F09151
:101800009B02808180688083E0919A02F0919B0224
:1018100080818F7D8083109232021092310210926B
:101820003402109233021092870281E08093860284
:101830001092810261E082E10E94670A61E083E127
:101840000E94670A8091B9008E7F8093B9008091D1
:10185000B9008D7F8093B90088E48093B80085E457
:101860008093BC0089EC90E09093300280932F022B
:101870008AEC90E090932E0280932D028CE080936E
:10188000B80082E391E00E9490088CE690E00E940C
:101890009F128C0185E293E0D8018D939C93F8010F
:1018A000EC59FF4F8AE097EDA3EABCE38083918374
:1018B000A283B383349688E491EEAAE7BFE38083E2
:1018C0009183A283B383109334030093330388EC92
:1018D00090E00E949F1290933603809335031092FC
:1018E0003A03109239038FEF9FEF90933803809360
:1018F00037038CE491E00E94900840E069E1C80160
:101900000E94520140E06AE1C8010E94520148E091
:101910006BE1C8010E94520140E06CE1C8010E94E5
:10192000520141E06BE6C8010E945201C8010E94C9
:10193000C902F80110AE11AE12AE13AED80114AE4A
:1019400015AE16AE17AEE05BFF4FAC5BBF4F8D918F
:101950009D910D90BC91A02D80839183A283B38330
:101960003496D801A85BBF4F8D919D910D90BC918D
:10197000A02D80839183A283B3830E946902F80122
:10198000E05AFF4F608371838283938389E591E0FE
:101990000E949008009133031091340388E691E08F
:1019A0000E94900868EE73E080E090E00E944F0B88
:1019B000E8EBFBE0FAA7E9A7C12CD12C76014601A0
:1019C000570126013701F1E0F093360229E6209312
:1019D00035021092340210923302D8018D919C91FD
:1019E000DC01ED91FC910190F081E02D6BE3099514
:1019F00060E0F801808191810E94F70041E06EE093
:101A000089E60E944E081092320280933102D8017A
:101A10008D919C91DC01ED91FC910284F385E02D88
:101A20000995F80180819181DC01ED91FC9102849E
:101A3000F385E02D0995F80180819181DC01ED911C
:101A4000FC910284F385E02D0995F8018081918154
:101A5000DC01ED91FC910284F385E02D0995F801FC
:101A600080819181DC01ED91FC910284F385E02D70
:101A70000995F80180819181DC01ED91FC9102844E
:101A8000F385E02D0995F80180819181DC01ED91CC
:101A9000FC910284F385E02D0995F8018081918104
:101AA000DC01ED91FC910284F385E02D0995F801AC
:101AB00080819181DC01ED91FC910284F385E02D20
:101AC0000995382EF80180819181DC01ED91FC911E
:101AD0000284F385E02D09953CA61BA6EBA5FCA589
:101AE000E82BF92BFAABE9ABD8018D919C91DC0185
:101AF000ED91FC910284F385E02D0995382EF801D3
:101B000080819181DC01ED91FC910284F385E02DCF
:101B100009953EA61DA6EDA5FEA5E82BF92BFCAB6D
:101B2000EBABD8018D919C91DC01ED91FC9102848D
:101B3000F385E02D09958DABF80180819181DC0161
:101B4000ED91FC910284F385E02D09951C01E9A932
:101B5000FAA9BF01FF0F880B990B0E94940F20E098
:101B600030E043E852E40E94C7119B01AC01C3017D
:101B7000B2010E94E9102B013C012BA93CA9B9013B
:101B8000330F880B990B0E94940F20E030E043E85C
:101B900052E40E94C7119B01AC01C501B4010E942F
:101BA000E9104B015C013DA938AB1FA66FA578A9D0
:101BB00062297329072E000C880B990B0E94940F41
:101BC00020E030E043E852E40E94C7119B01AC01E1
:101BD000C701B6010E94E9106B017C0189A59AA595
:101BE00001979AA789A7892B09F0EDCE20E030E86C
:101BF0004BE355E4C301B2010E94C711D8015096CE
:101C00006D937D938D939C93539720E030E84BE345
:101C100055E4C501B4010E94C711F801648B758BAE
:101C2000868B978B20E030E84BE355E4C701B60183
:101C30000E94C711D80158966D937D938D939C9304
:101C40005B9764E670E080E090E00E944F0B0E949A
:101C5000B2080E94690261E08CE00E94B40A61E06F
:101C600089E00E94B40A0E941F0261E08DE00E9498
:101C7000B40A61E088E00E94B40A0E943A02332468
:101C8000339464EF71E080E090E00E944F0B0E947B
:101C9000B208A09037020E943A020E941F02AA20B6
:101CA00051F081E991E00E9490080AE010E0C12C17
:101CB000D12C760103C08EE991E0F5CFCE010196DB
:101CC0000E9443092DA13EA14FA158A5C701B6010D
:101CD0000E94E9106B017C010150110979F720E0A5
:101CE00030E040E251E40E94C7112B013C016FEF4C
:101CF00070E0AA2049F080E090E00E9429026FEF96
:101D000070E081E090E008C081E090E00E9429024C
:101D10006FEF70E080E090E00E940E0261E070E002
:101D200080E090E00E94C0138C01009731F0FC012C
:101D300010826EEA71E00E94941460E070E0CB01C2
:101D4000A30192010E94E8106B017C0120E030E0C9
:101D5000A9010E9460121816D4F420E030E044EB90
:101D600052E4C701B6010E94E81020E030E0A9016A
:101D70000E94601218164CF520E030E044EB52E46B
:101D8000C701B6010E94E8106B017C012CC046011E
:101D90005701B7FAB094B7F8B09420E030E044EBC4
:101DA00052E4C501B4010E94E8106B017C0120E0FF
:101DB00030E0A9010E9460121816ACF020E030E07B
:101DC00044EB52E4C501B40106C020E030E044EB2E
:101DD00052E4C701B6010E94E8106B017C01F7FADA
:101DE000F094F7F8F09420E030E040E050E4C701D0
:101DF000B6010E94601218167CF46CE271E080E07B
:101E000090E00E944F0BCE0101960E9443096DA104
:101E10007EA18FA198A594CF0E943A020E941F0232
:101E2000C8010E94371380913702832580933702BF
:101E30000E94420826CF81E393E00C945307CF938E
:101E4000DF93E8E8F2E01382128288EE93E0A0E0EC
:101E5000B0E084839583A683B7832AE031E03183A1
:101E6000208325EC30E03587248724EC30E0378769
:101E7000268720EC30E0318B208B21EC30E0338B57
:101E8000228B22EC30E0358B248B26EC30E0378B34
:101E9000268B118E128E138E148EE5E2F3E01382E0
:101EA000128284839583A683B7838CE191E091832A
:101EB0008083C7E4D3E082E08C8383E08D8360E09D
:101EC00082E00E94B40A60E08D810E94B40A61E061
:101ED0008C810E94670A61E08D810E94670A1882E6
:101EE00019821A821B82E1E3F3E08EE291E0918392
:101EF00080831382128215821482118610868FEFDE
:101F00009FEF97838683128A138A148A158A16860E
:101F10001786108A118A1286138614861586DF9119
:101F2000CF910895E89409C097FB3EF49095809571
:101F3000709561957F4F8F4F9F4F9923A9F0F92F8F
:101F400096E9BB279395F695879577956795B7950D
:101F5000F111F8CFFAF4BB0F11F460FF1BC06F5FF3
:101F60007F4F8F4F9F4F16C0882311F096E911C005
:101F7000772321F09EE8872F762F05C0662371F026
:101F800096E8862F70E060E02AF09A95660F771F3A
:101F9000881FDAF7880F9695879597F90895990F16
:101FA0000008550FAA0BE0E8FEEF16161706E80723
:101FB000F907C0F012161306E407F50798F0621B44
:101FC000730B840B950B39F40A2661F0232B242B19
:101FD000252B21F408950A2609F4A140A6958FEF38
:101FE000811D811D08950E9406100C9477100E9497
:101FF000691038F00E94701020F0952311F00C94B5
:1020000060100C94661011240C94AB100E94881080
:1020100070F3959FC1F3950F50E0551F629FF0013B
:10202000729FBB27F00DB11D639FAA27F00DB11D54
:10203000AA1F649F6627B00DA11D661F829F2227DD
:10204000B00DA11D621F739FB00DA11D621F839F64
:10205000A00D611D221F749F3327A00D611D231F3A
:10206000849F600D211D822F762F6A2F11249F5788
:1020700050409AF0F1F088234AF0EE0FFF1FBB1F8B
:10208000661F771F881F91505040A9F79E3F51054A
:1020900080F00C9460100C94AB105F3FE4F3983E1A
:1020A000D4F3869577956795B795F795E7959F5FF4
:1020B000C1F7FE2B880F911D9695879597F9089586
:1020C00097F99F6780E870E060E008959FEF80ECEB
:1020D000089500240A94161617061806090608958E
:1020E00000240A9412161306140605060895092EF4
:1020F0000394000C11F4882352F0BB0F40F4BF2B63
:1021000011F460FF04C06F5F7F4F8F4F9F4F0895A2
:1021100057FD9058440F551F59F05F3F71F0479598
:10212000880F97FB991F61F09F3F79F0879508957D
:10213000121613061406551FF2CF4695F1DF08C09C
:10214000161617061806991FF1CF869571056105B9
:1021500008940895E894BB2766277727CB0197F961
:1021600008952F923F924F925F926F927F928F923B
:102170009F92AF92BF92CF92DF92EF92FF920F9316
:102180001F93CF93DF93CDB7DEB7CA1BDB0B0FB620
:10219000F894DEBF0FBECDBF09942A8839884888DD
:1021A0005F846E847D848C849B84AA84B984C88473
:1021B000DF80EE80FD800C811B81AA81B981CE0F6A
:1021C000D11D0FB6F894DEBF0FBECDBFED0108954F
:1021D0005058BB27AA270E9400110C9477100E9428
:1021E000691038F00E94701020F039F49F3F19F404
:1021F00026F40C9466100EF4E095E7FB0C94601046
:10220000E92F0E94881058F3BA17620773078407F2
:10221000950720F079F4A6F50C94AA100EF4E09539
:102220000B2EBA2FA02D0B01B90190010C01CA0190
:10223000A0011124FF27591B99F0593F50F4503E3B
:1022400068F11A16F040A22F232F342F4427585F2D
:10225000F3CF469537952795A795F0405395C9F745
:102260007EF41F16BA0B620B730B840BBAF09150FD
:10227000A1F0FF0FBB1F661F771F881FC2F70EC09C
:10228000BA0F621F731F841F48F48795779567956F
:10229000B795F7959E3F08F0B0CF9395880F08F05B
:1022A0009927EE0F9795879508950E94691060F021
:1022B00080E891E009F49EEF0E94701028F040E859
:1022C00051E071F45EEF0CC00C9466100C94AA10EF
:1022D000E92FE0780E94881040F3092E052AB1F317
:1022E000261737074807590738F00E2E07F8E0255C
:1022F00069F0E025E0640AC0EF6307F8009407FA8C
:10230000DB01B9019D01DC01CA01AD01EF930E941F
:10231000DE110E9477100E9498115F91552339F0C9
:102320002BED3FE049E450FD49EC0C94E910089591
:10233000DF93DD27B92FBF7740E85FE31616170656
:1023400048075B0718F4D92F0E9465129F938F935B
:102350007F936F930E946D12E8E6F0E00E943912BD
:102360000E9477102F913F914F915F910E9406102C
:10237000DD2351F09058A2EA2AED3FE049EC5FE3FB
:10238000D0785D270E940011DF910C9477100E9495
:10239000DB110C9477100E94701058F00E946910A5
:1023A00040F029F45F3F29F00C94601051110C9417
:1023B000AB100C9466100E94881068F39923B1F357
:1023C000552391F3951B550BBB27AA27621773075B
:1023D000840738F09F5F5F4F220F331F441FAA1FEF
:1023E000A9F335D00E2E3AF0E0E832D091505040AB
:1023F000E695001CCAF72BD0FE2F29D0660F771F59
:10240000881FBB1F261737074807AB07B0E809F03E
:10241000BB0B802DBF01FF2793585F4F3AF09E3FC3
:10242000510578F00C9460100C94AB105F3FE4F30E
:10243000983ED4F3869577956795B795F7959F5F06
:10244000C9F7880F911D9695879597F90895E1E052
:10245000660F771F881FBB1F621773078407BA07B1
:1024600020F0621B730B840BBA0BEE1F88F7E0950C
:102470000895DF93CF931F930F93FF92EF92DF9214
:102480007B018C01689406C0DA2EEF010E940610D1
:10249000FE01E894A5912591359145915591A6F3BA
:1024A000EF010E940011FE019701A801DA9469F77B
:1024B000DF90EF90FF900F911F91CF91DF910895E2
:1024C0000E94CF0F08F48FEF08959B01AC0160E0EC
:1024D00070E080E89FE30C94C7119B01AC010C9461
:1024E000F30F97FB072E16F4009407D077FD09D061
:1024F0000E94851207FC05D03EF4909581959F4F70
:102500000895709561957F4F0895AA1BBB1B51E1FB
:1025100007C0AA1FBB1FA617B70710F0A61BB70B53
:10252000881F991F5A95A9F780959095BC01CD01F8
:102530000895EE0FFF1F0590F491E02D09940F937D
:102540001F93CF93DF938230910510F482E090E0E7
:10255000E0914F03F091500320E030E0A0E0B0E0C4
:10256000309719F140815181028113814817590731
:10257000C8F08417950769F4109731F012960C9300
:10258000129713961C9327C000934F031093500388
:1025900022C02115310519F04217530718F49A018A
:1025A000BD01EF01DF01F801DBCF21153105F9F0A5
:1025B000281B390B2430310580F48A819B816115F9
:1025C000710521F0FB019383828304C09093500333
:1025D00080934F03FE01329644C0FE01E20FF31FC9
:1025E0008193919322503109398328833AC02091F5
:1025F0004D0330914E03232B41F420910201309181
:10260000030130934E0320934D032091000130913C
:1026100001012115310541F42DB73EB74091040168
:1026200050910501241B350BE0914D03F0914E03B1
:10263000E217F307A0F42E1B3F0B2817390778F099
:10264000AC014E5F5F4F2417350748F04E0F5F1FF8
:1026500050934E0340934D038193919302C0E0E069
:10266000F0E0CF01DF91CF911F910F910895CF93AB
:10267000DF93009709F481C0FC0132971382128224
:10268000A0914F03B0915003109781F420813181C4
:10269000820F931F20914D0330914E032817390765
:1026A00051F5F0934E03E0934D0367C0ED0120E038
:1026B00030E0CE17DF0740F44A815B819E0141156F
:1026C0005105F1F0EA01F5CFD383C28340815181F6
:1026D000840F951FC817D90759F488819981840FF1
:1026E000951F0296918380838A819B819383828345
:1026F0002115310529F4F0935003E0934F033DC0B9
:10270000E901FB83EA8349915991C40FD51FEC1766
:10271000FD0761F480819181840F951F0296E90184
:1027200099838883828193819B838A83E0E0F0E0B0
:1027300012968D919C911397009719F0FD01DC0181
:10274000F7CF8D919C9111979D012E5F3F4F820F86
:10275000931F20914D0330914E032817390769F4D8
:10276000309729F41092500310924F0302C0138245
:102770001282B0934E03A0934D03DF91CF91089541
:10278000A0E0B0E0E6ECF3E10C94B510EC010097AA
:1027900021F4CB010E949F12B4C0FC01E60FF71F89
:1027A0009C0122503109E217F30708F4A8C0D901AF
:1027B0000D911C91119706171707B0F00530110500
:1027C00008F49BC0C80104978617970708F495C0C2
:1027D00002501109061B170B019311936D937C9303
:1027E000CF010E94371389C05B01A01AB10A4C01C6
:1027F000800E911EA0914F03B0915003612C712C5B
:10280000E12CF12C109709F446C08D919C91119701
:10281000A815B905B1F56C0142E0C40ED11CCA146B
:10282000DB0478F14C018A189B08640142E0C40E75
:10283000D11C1296BC9012971396AC91B5E0CB16B2
:10284000D10440F0B282A38391828082D9016D933A
:102850007C9309C00E5F1F4F800F911FF901918378
:102860008083EB2DFA2FE114F10431F0D701139698
:10287000FC93EE93129741C0F0935003E0934F0303
:102880003CC06816790608F43C017D0112960D9053
:10289000BC91A02DB7CF80914D0390914E03881627
:1028A0009906E1F466167706C8F4809100019091CC
:1028B0000101009741F48DB79EB7409104015091FA
:1028C0000501841B950BE817F907C8F4F0934E0334
:1028D000E0934D03F901718360830FC0CB010E9427
:1028E0009F127C01009759F0A801BE010E948B1431
:1028F000CE010E943713C70104C0CE0102C080E0A0
:1029000090E0CDB7DEB7EEE00C94D11081E090E01E
:10291000F8940C949B14FB01DC0102C001900D9211
:1029200041505040D8F70895FB01DC0101900D9211
:102930000020E1F7089510E0C4E7D0E004C0FE01F4
:102940000E9499122196C537D107C9F7F894FFCF95
:1029500000005103800000000000C9079F006A07C3
:1029600016089B0779078D0700000000DF01B20100
:102970007D01CB00EF00DB00CC000000000053071E
:102980006007494D552057616C6C204F7269656E28
:10299000746174696F6E205465737400496E736955
:1029A000646520426567696E0046696E6973686593
:1029B0006420426567696E003D3D3D3D3D3D3D3DC6
:1029C0003D3D3D3D3D3D3D3D3D3D3D3D3D3D3D3D37
:1029D0003D3D3D3D3D3D3D3D3D3D3D3D3D3D3D3D27
:1029E000005475726E696E67204C6566740054758C
:1029F000726E696E67205269676874000D0A005232
:102A00006563616C63756C6174696E67206F66667F
:062A100073657473000001
:00000001FF
