:100000000C94F2000C941A010C941A010C947D02C9
:100010000C947D020C947D020C941A010C941A012C
:100020000C941A010C941A010C941A010C941A01E4
:100030000C941A010C941A010C941A010C941A01D4
:100040000C94C2090C941A010C94FB080C94D5086A
:100050000C941A010C941A010C941A010C941A01B4
:100060000C94FD060C941A01084AD73B3BCE016E56
:1000700084BCBFFDC12F3D6C74319ABD56833DDAFF
:100080003D00C77F11BED9E4BB4C3E916BAAAABE0E
:10009000000000803F0000407A10F35A00A0724E2A
:1000A00018090010A5D4E80000E87648170000E41D
:1000B0000B54020000CA9A3B000000E1F505000065
:1000C00080969800000040420F000000A0860100CA
:1000D0000000102700000000E8030000000064009A
:1000E000000000000A000000000001000000000005
:1000F0002C76D888DC674F0823DFC1DFAE59E1B129
:10010000B796E5E3E453C63AE651997696E8E6C237
:100110008426EB898C9B62ED407C6FFCEFBC9C9F3E
:1001200040F2BAA56FA5F490055A2AF75C936B6C60
:10013000F9676DC11BFCE0E40D47FEF520E6B50054
:10014000D0ED902E0300943577050080841E0800C2
:1001500000204E0A000000C80C333333330F986E72
:1001600012831141EF8D2114893BE65516CFFEE62F
:10017000DB18D1844B381BF77C1D901DA4BBE424F5
:10018000203284725E228100C9F124ECA1E53D2772
:1001900000000000240027002A00000000002500C5
:1001A00028002B00040404040404040402020202D4
:1001B000020203030303030301020408102040802A
:1001C00001020408102001020408102000000008A9
:1001D000000201000003040700000000000000000E
:1001E0002A12D50C11241FBECFEFD8E0DEBFCDBF41
:1001F00024E0AAE4B2E001C01D92A330B207E1F707
:1002000012E0A0E0B1E0ECEAF5E302C005900D9247
:10021000AA34B107D9F710E0C1EFD0E004C02197AC
:10022000FE010E94C718C03FD107C9F70E94D90C30
:100230000C94C91A0C940000089508950895E09153
:10024000B4028091B302E81730F4F0E0E253FD4FBE
:10025000808190E008958FEF9FEF08959091B40210
:100260008091B302981750F4E92FF0E0E253FD4F6C
:10027000208130E09F5F9093B40202C02FEF3FEFE8
:10028000C90108958091B30290E02091B402821BCD
:1002900091090895089580E090E0089585ED809398
:1002A000BC008091BC0084FDFCCF10921403089523
:1002B00040916A02262F30E0240F311D2132310592
:1002C000DCF4209114032430C9F4FC0180E090E0B8
:1002D000861758F430916A022191DC01A65BBD4F6C
:1002E000A30FB11D2C930196F3CF80916A02680F82
:1002F00060936A0280E0089581E0089582E00895A5
:10030000CF92DF92EF92FF920F931F93CF93DF93E1
:100310007C01CB018A012091B802222389F0EB01F4
:100320006B01C40ED51ECC15DD0569F06991D701AE
:10033000ED91FC910190F081E02DC7010995F3CF7B
:10034000642F0E945801C801DF91CF911F910F9136
:10035000FF90EF90DF90CF900895CF93DF931F929F
:10036000CDB7DEB769832091B8022223D1F0209166
:10037000B502203240F021E030E0FC0133832283DB
:1003800080E090E015C08091B602E82FF0E0E357DE
:10039000FD4F998190838F5F8093B6028093B50261
:1003A00005C061E0CE0101960E94580181E090E015
:1003B0000F90DF91CF9108950F931F93CF93DF9309
:1003C000EC0188819981009729F02A813B812617C9
:1003D000370788F48B016F5F7F4F0E94EE190097FB
:1003E00061F0998388831B830A832C813D81232BB1
:1003F00011F4FC01108281E001C080E0DF91CF9117
:100400001F910F910895EF92FF920F931F93CF9337
:10041000DF936115710511F480E01CC04115510591
:10042000C1F07B01EC018C819D818A01080F191FAD
:10043000B801CE010E94DC01882371F32881398143
:100440008C819D81B701820F931F0E94C21A1D8368
:100450000C8381E0DF91CF911F910F91FF90EF907E
:100460000895CF93DF93EC0188819981009711F073
:100470000E946519198218821D821C821B821A82B1
:10048000DF91CF910895CF93DF93EC016115710552
:1004900061F0FB0101900020E9F73197AF01461BA5
:1004A000570B0E940302811103C0CE010E9431024A
:1004B000CE01DF91CF910895EF92FF920F931F939A
:1004C000CF93DF93EC017B018A01BA010E94DC012A
:1004D000811104C0CE010E94310207C01D830C832C
:1004E000B701888199810E94C21ACE01DF91CF9114
:1004F0001F910F91FF90EF9008951F920F920FB6EA
:100500000F9211240F900FBE0F901F9018953091ED
:10051000B502313208F04AC0809114038111FCCF3A
:100520009091B70222E020931403609313032FEFFE
:10053000209312031092110330931003EDE8F2E0C0
:10054000AEEEB2E020E0321721F041914D932F5FE3
:10055000FACF10920F0320910F03990F922B9093D3
:100560000F0390910E03913061F410920E0390915D
:100570000F039093BB009091BC0093FDF8CF95ECD6
:1005800001C095EE9093BC00909114039230E1F37A
:10059000909112039F3F79F080911203803241F0D5
:1005A00080911203803331F084E005C081E003C004
:1005B00082E001C083E01092B6021092B502109260
:1005C000B80208952F923F924F925F926F927F925E
:1005D0008F929F92AF92BF92CF92DF92EF92FF9253
:1005E0000F931F93CF93DF93CDB7DEB7C254D109DA
:1005F0000FB6F894DEBF0FBECDBF1C0181E0809323
:10060000B80289E68093B7021092B6021092B50242
:10061000D1018D919C91DC01ED91FC910190F081D3
:10062000E02D6BE3099560E0F101808191810E94EA
:10063000870241E06EE089E60E94D40A1092B4027B
:100640008093B302D1018D919C91DC01ED91FC91DD
:100650000284F385E02D0995182FF10180819181A5
:10066000DC01ED91FC910284F385E02D099520E0F9
:1006700030E0312F822B932BF10193838283808191
:100680009181DC01ED91FC910284F385E02D0995C7
:10069000182FF10180819181DC01ED91FC910284A0
:1006A000F385E02D099520E030E0312F822B932B4C
:1006B000F1019583848380819181DC01ED91FC912E
:1006C0000284F385E02D0995182FF1018081918135
:1006D000DC01ED91FC910284F385E02D099520E089
:1006E00030E0312F822B932BF10197838683808119
:1006F0009181DC01ED91FC910284F385E02D099557
:10070000182FF10180819181DC01ED91FC9102842F
:10071000F385E02D099520E030E0312F822B932BDB
:10072000F1019187808780819181DC01ED91FC91BD
:100730000284F385E02D0995182FF10180819181C4
:10074000DC01ED91FC910284F385E02D099520E018
:1007500030E0312F822B932BF101938782878081A8
:100760009181DC01ED91FC910284F385E02D0995E6
:10077000182FF10180819181DC01ED91FC910284BF
:10078000F385E02D099520E030E0312F822B932B6B
:10079000F1019587848780819181DC01ED91FC9145
:1007A0000284F385E02D0995F82EF1018081918175
:1007B000DC01ED91FC910284F385E02D099500E0C8
:1007C00010E01F2D082B192BF10117870687608574
:1007D0007185072E000C880B990B0E946C1520E088
:1007E00030EF41E456E40E94C11620E030E04AEACE
:1007F00053E40E949F17D1015C966D937D938D9376
:100800009C935F9712966D917C911397072E000C25
:10081000880B990B0E946C1520E030E040E858E30B
:100820000E94CB154B015C01F10160A371A382A36F
:1008300093A364817581072E000C880B990B0E948D
:100840006C1520E030E040E858E30E94CB156B01C6
:100850007C01D10194966D937D938D939C93979792
:1008600016966D917C911797072E000C880B990BAB
:100870000E946C1520E030E040E858E30E94CB1560
:100880002B013C01F10160A771A782A793A720E08B
:1008900030E0A901C501B4010E946718181624F0C0
:1008A000C501B401905802C0C501B401A301920171
:1008B0000E94C1169B01AC01C701B6010E944017FE
:1008C00091012C5B3F4F3CAB2BAB20E030E044EB85
:1008D00053E40E94CB1520E030E040E05FE30E944B
:1008E000CB152BED3FE049E450E40E949F17ABA9E4
:1008F000BCA96D937D938D939C93139720E030E07A
:10090000A901C701B6010E946718181624F0F7FA6A
:10091000F094F7F8F094A3019201C701B6010E9488
:10092000C1169B01AC01C501B4010E944017F10141
:10093000E85BFF4F2196FFAFEEAF219720E030E05C
:1009400044EB53E40E94CB1520E030E040E05FEB45
:100950000E94CB152BED3FE049E450E40E949F1725
:100960002196AEADBFAD21976D937D938D939C93F2
:100970001397F10164857585072E000C880B990B80
:100980000E946C1520E030E043E852E40E949F177B
:100990006B017C01D1011A966D917C911B97072EFA
:1009A000000C880B990B0E946C1520E030E043E8A6
:1009B00052E40E949F17F1012089318942895389AD
:1009C0000E94C016D1019C966D937D938D939C934C
:1009D0009F9754962D913D914D915C915797C701EA
:1009E000B6010E94C016F10160AB71AB82AB93AB54
:1009F000B801110F880B990B0E946C1520E030E0B4
:100A000043E852E40E949F17D10158962D913D91E1
:100A10004D915C915B970E94C016F10164AB75AB80
:100A200086AB97AB0E94B6099101205A3F4F23969F
:100A30003FAF2EAF2397D9010D911D912D913C9180
:100A4000601B710B820B930B0E946A152FE632E13B
:100A500043E85AE30E94CB156B017C01F101E45A93
:100A6000FF4F6083718382839383F10124A535A5B1
:100A700046A557A50E94CB152B013C019B01AC015B
:100A8000D101D8966D917D918D919C91DB970E94BB
:100A9000C116F10160AF71AF82AF93AF20A931A948
:100AA00042A953A9C701B6010E94CB154B015C01B5
:100AB0009B01AC01D101DC966D917D918D919C9152
:100AC000DF970E94C116F10164AF75AF86AF97AF93
:100AD00024A935A946A957A9C701B6010E94CB157B
:100AE0008101005C1F4FD8012D913D914D915C918A
:100AF0000E94C1166BAB7CAB8DAB9EABF8016083E3
:100B0000718382839383B89680819181A281B3811E
:100B10008FAB98AFA9AFBAAF349780819181A28192
:100B2000B3818BAF9CAFADAFBEAF005F1F4FD8019D
:100B30002D913D914D915C91C301B2010E94C1166E
:100B40002FA938AD49AD5AAD0E94CB152B013C0100
:100B5000F101EC5BFF4F20813181428153816BAD0C
:100B60007CAD8DAD9EAD0E94CB159B01AC01C30148
:100B7000B2010E94C116F80160837183828393835E
:100B80000C5F1F4FD8012D913D914D915C91C50196
:100B9000B4010E94C1162FA938AD49AD5AAD0E94CB
:100BA000CB154B015C012196EEADFFAD2197208165
:100BB0003181428153816BAD7CAD8DAD9EAD0E9484
:100BC000CB159B01AC01C501B4010E94C116D8012F
:100BD0006D937D938D939C931397F101E85AFF4F8A
:100BE0008BA99CA9ADA9BEA980839183A283B3835D
:100BF000AC01BD01CE018D960E94960AD101589696
:100C00004D915D916D917C915B97CE0187960E948D
:100C1000960AF10144A955A966A977A9CE01819642
:100C20000E94960AD1011E968D919C911F971C8E51
:100C30001B8E1E8E1D8E18A21F8E4AE0FE0131965D
:100C40005F01BF010E94FE12F50101900020E9F74B
:100C50003197AF014A195B09B501CE014B960E944D
:100C60005C021E8A1D8A188E1F8A1A8E198E4AE00F
:100C700050E062E371E0CE0145960E945C02BE0145
:100C8000655E7F4FCE0145960E94830A6DE371E059
:100C90000E944302BE016F5D7F4F0E94830A66E49B
:100CA00071E00E944302BE01695D7F4F0E94830A8A
:100CB00065E571E00E944302BE01635D7F4F0E94C3
:100CC000830A63E671E00E9443024C01850122E041
:100CD00044E0C701B6010E94DE12FC010190002031
:100CE000E9F73197AF01481B590BBC01C4010E94C1
:100CF0000302811103C0C4010E9431021A821982C9
:100D00001C821B821E821D82A814B90471F0D401BA
:100D10006D917C9111976115710539F014964D9183
:100D20005C911597C5010E945C02CE0145960E9418
:100D3000670ACE014B960E94670ACE0181960E94F7
:100D4000670ACE0187960E94670ACE018D960E949F
:100D5000670AC5010E94700A0E94B6092396EEAD8B
:100D6000FFAD23976083718382839383C5010E94C3
:100D7000670ACE5BDF4F0FB6F894DEBF0FBECDBF64
:100D8000DF91CF911F910F91FF90EF90DF90CF9067
:100D9000BF90AF909F908F907F906F905F904F909B
:100DA0003F902F9008951F93CF93DF93EC01142F62
:100DB00081E08093B80289E68093B7021092B60270
:100DC0001092B50288819981DC01ED91FC9101902E
:100DD000F081E02D099588819981DC01ED91FC91EC
:100DE0000190F081E02D612F099561E08881998162
:100DF000DF91CF911F910C9487021F920F920FB633
:100E00000F9211242F933F934F935F936F937F9390
:100E10008F939F93AF93BF93EF93FF938091B9000C
:100E2000887F803609F49CC068F5883209F45BC07D
:100E300090F4803109F454C038F4882309F4F6C0E2
:100E4000883009F44DC0F6C0883109F44CC08032B6
:100E500009F45DC0EFC0803409F468C048F4803301
:100E600009F455C0883309F0E5C080931203D8C057
:100E7000803509F44FC0883509F45DC0883409F025
:100E8000D9C0D6C0883909F4C7C0A8F4883709F496
:100E900067C038F4883609F463C0803709F460C04D
:100EA000C9C0883809F4B8C0803909F45FC08038F7
:100EB00009F0C0C05BC0803B09F486C038F4803ABA
:100EC00009F466C0883A09F47FC0B4C0803C09F4D4
:100ED000A7C0883C09F4A4C0883B09F48AC0AAC012
:100EE00080910F0310C09091110380911003981707
:100EF00070F5E091110381E08E0F80931103F0E013
:100F0000E251FD4F80818093BB0085EC86C08093C9
:100F100012038EC0E091110381E08E0F80931103C4
:100F20008091BB00F0E0E251FD4F8083909111036E
:100F3000809110036EC0E091110381E08E0F8093C9
:100F400011038091BB00F0E0E251FD4F808380915E
:100F5000130381116DC081E080930E0384EA61C0A8
:100F600083E08093140310928C02CFCF80918C0287
:100F7000803208F051C0E0918C0281E08E0F8093A6
:100F80008C028091BB00F0E0E459FD4F8083BDCF1F
:100F900085EC8093BC001092140380918C02803207
:100FA00030F4E0918C02F0E0E459FD4F1082609142
:100FB0008C0270E0E091AF02F091B0028CE692E01A
:100FC000099510928C0236C084E08093140310922D
:100FD0006B0210926A02E091B102F091B20209959F
:100FE00080916A02811105C081E080936A021092AB
:100FF0004A02E0916B0281E08E0F80936B02F0E079
:10100000E65BFD4F80818093BB0090916B028091E5
:101010006A02981708F479CF85E88093BC000AC06B
:1010200085EC8093BC001092140304C0109212034C
:101030000E944E01FF91EF91BF91AF919F918F91CF
:101040007F916F915F914F913F912F910F900FBEC4
:101050000F901F901895CF93DF93EC018C819D81A9
:101060000E9465198A819B81DF91CF910C9465194B
:10107000CF93DF93EC010E942B08CE01DF91CF913B
:101080000C9465193FB7F8948091CA029091CB02F5
:10109000A091CC02B091CD0226B5A89B05C02F3FF0
:1010A00019F00196A11DB11D3FBFBA2FA92F982F8E
:1010B0008827820F911DA11DB11DBC01CD0142E009
:1010C000660F771F881F991F4A95D1F708958F9251
:1010D0009F92AF92BF92CF92DF92EF92FF926B01FD
:1010E0007C010E9442084B015C01C114D104E1045F
:1010F000F104F1F00E944208DC01CB018819990942
:10110000AA09BB09883E9340A105B10570F321E00F
:10111000C21AD108E108F10888EE880E83E0981E13
:10112000A11CB11CC114D104E104F10419F7DDCFF5
:10113000FF90EF90DF90CF90BF90AF909F908F90F7
:101140000895CF92DF92EF92FF920F931F93CF9368
:10115000DF936C017A018B01C0E0D0E0CE15DF0592
:1011600081F0D8016D918D01D601ED91FC91019036
:10117000F081E02DC6010995892B11F02196EECF63
:101180007E01C701DF91CF911F910F91FF90EF90EA
:10119000DF90CF90089585E193E00E943D0A21E021
:1011A000892B09F420E0822F08951F920F920FB629
:1011B0000F9211242F933F934F935F936F937F93DD
:1011C0008F939F93AF93BF93EF93FF9385E193E04A
:1011D0000E94650BFF91EF91BF91AF919F918F910D
:1011E0007F916F915F914F913F912F910F900FBE23
:1011F0000F901F9018951F920F920FB60F92112407
:101200002F938F939F93EF93FF93E0912503F0919A
:1012100026038081E0912B03F0912C0382FD12C004
:10122000908180912E038F5F8F7320912F038217FF
:1012300051F0E0912E03F0E0EB5EFC4F958F809330
:101240002E0301C08081FF91EF919F918F912F918B
:101250000F900FBE0F901F90189590E0FC01E45383
:10126000FE4F2491FC01E854FE4F3491FC01EC55F3
:10127000FE4FE491EE2309F43CC0222339F12330E0
:1012800091F038F42130A9F0223001F584B58F7D3A
:1012900012C0273091F02830A1F02430B9F48091A9
:1012A00080008F7D03C0809180008F7780938000C5
:1012B0000DC084B58F7784BD09C08091B0008F7751
:1012C00003C08091B0008F7D8093B000F0E0EE0FFE
:1012D000FF1FE656FE4FA591B4919FB7F894611198
:1012E00004C08C913095382302C0EC913E2B3C9386
:1012F0009FBF0895CF93DF9390E0FC01E854FE4F29
:101300002491FC01EC55FE4F8491882361F190E01B
:10131000880F991FFC01E057FE4FC591D491FC0145
:10132000E656FE4FA591B491611109C09FB7F8949C
:101330008881209582238883EC912E230BC0623014
:1013400061F49FB7F8948881322F30958323888386
:10135000EC912E2B2C939FBF06C08FB7F894E88199
:101360002E2B28838FBFDF91CF9108952FB7F8944C
:101370006091C6027091C7028091C8029091C90223
:101380002FBF08951F920F920FB60F9211242F9323
:101390003F938F939F93AF93BF938091C602909199
:1013A000C702A091C802B091C9023091C50223E0E2
:1013B000230F2D3720F40196A11DB11D05C026E88D
:1013C000230F0296A11DB11D2093C5028093C60272
:1013D0009093C702A093C802B093C9028091CA0239
:1013E0009091CB02A091CC02B091CD020196A11DAB
:1013F000B11D8093CA029093CB02A093CC02B0930C
:10140000CD02BF91AF919F918F913F912F910F90FE
:101410000FBE0F901F901895FC01538D448D252F02
:1014200030E0842F90E0821B930B541710F0CF967E
:10143000089501970895FC01918D828D981761F0B0
:10144000828DDF01A80FB11D5D968C91928D9F5FFB
:101450009F73928F90E008958FEF9FEF0895FC01A6
:10146000918D828D981731F0828DE80FF11D858D59
:1014700090E008958FEF9FEF0895FC01918D228DEC
:10148000892F90E0805C9F4F821B91098F73992771
:10149000089580E090E0892B29F00E94CB0881110B
:1014A0000C9400000895009769F0FC010190002061
:1014B000E9F73197AF01481B590BBC0185E193E077
:1014C0000C94A10880E090E008950E94B41AFC01F9
:1014D000808191810C9465198AE392E00C94530AFF
:1014E000CF93DF93FC01448155816081718185E157
:1014F00093E00E94A108EC010E946C0A8C0F9D1FD2
:10150000DF91CF910895CF93DF93EC01FB014481EC
:101510005581608171810E940302811103C0CE0157
:101520000E943102CE01DF91CF910895EF92FF9298
:101530000F931F93CF93DF93CDB7DEB7A1970FB66D
:10154000F894DEBF0FBECDBF7C01CB01BA01F7011D
:101550001182108213821282158214828E010F5F13
:101560001F4F22E044E00E94DE12009769F0FC0168
:1015700001900020E9F73197AF01481B590BBC01DE
:10158000C7010E945C0203C0C7010E943102A196FC
:101590000FB6F894DEBF0FBECDBFDF91CF911F9184
:1015A0000F91FF90EF900895909114039111FCCF4B
:1015B00091E090931403409313032FEF20931203B1
:1015C00010921103260F2093100390930F03909114
:1015D0000F03880F892B80930F0380910E038130B6
:1015E00061F410920E0380910F038093BB008091F1
:1015F000BC0083FDF8CF85EC01C085EE8093BC0074
:10160000809114038130E1F380911103861710F467
:1016100060911103AEEEB2E0EEECF2E080E08617EE
:1016200021F09D9191938F5FFACF08958F929F92B1
:10163000AF92BF920F931F93CF93DF93CDB7DEB7D7
:10164000A1970FB6F894DEBF0FBECDBF19A24230EE
:1016500008F44AE08E010F5D1F4F842E912CA12CBF
:10166000B12CA50194010E949118E62FB901CA017D
:1016700001501109EA3014F4E05D01C0E95CD801C1
:10168000EC93232B242B252B61F7C8010E94530ACE
:10169000A1960FB6F894DEBF0FBECDBFDF91CF91FC
:1016A0001F910F91BF90AF909F908F9008950C94D1
:1016B000530ACF93DF930E94530AEC010E946C0AF5
:1016C0008C0F9D1FDF91CF910895FC01848DDF0168
:1016D000A80FB11DA35ABF4F2C91848D90E00196A5
:1016E0008F739927848FA689B7892C93A089B18994
:1016F0008C91837080648C93938D848D981306C035
:101700000288F389E02D80818F7D80830895EF9298
:10171000FF920F931F93CF93DF93EC0181E0888FAB
:101720009B8D8C8D981305C0E889F989808185FD92
:1017300026C0F62E0B8D10E00F5F1F4F0F73112781
:10174000E02E8C8DE8120CC00FB607FCFACFE889AA
:10175000F989808185FFF5CFCE010E94650BF1CF1D
:101760008B8DFE01E80FF11DE35AFF4FF0829FB70A
:10177000F8940B8FEA89FB89808180620AC09FB749
:10178000F894EE89FF896083E889F9898081837004
:10179000806480839FBF81E090E0DF91CF911F91B3
:1017A0000F91FF90EF9008958F929F92AF92BF920A
:1017B000CF92DF92EF92FF920F931F93CF93DF931D
:1017C0006B017C01142F9B01AC010E9478188823C7
:1017D00019F08DE392E027C046015701E894B7F86D
:1017E0002FEF3FEF4FE75FE7C501B4010E94781884
:1017F00081110DC02FEF3FEF4FE75FE7C501B40147
:101800000E94651518161CF481E492E00CC02FEFBD
:101810003FEF4FE75FE4C701B6010E946718181653
:1018200084F485E492E0DF91CF911F910F91FF90B6
:10183000EF90DF90CF90BF90AF909F908F900C94DF
:10184000530A2FEF3FEF4FE75FECC701B6010E944D
:10185000651587FDE6CF20E030E0A901C701B6019C
:101860000E94651587FF0BC06DE285E193E00E9441
:10187000870BEC01F7FAF094F7F8F09402C0C0E09F
:10188000D0E000E060E070E080E09FE3101741F0FE
:1018900020E030E040E251E40E949F170F5FF6CF56
:1018A000A70196010E94C1166B017C010E941118CC
:1018B0004B015C014AE00E94160BC80FD91F11238F
:1018C000B9F1C501B4010E946A159B01AC01C701C1
:1018D000B6010E94C0166B017C016EE285E193E0C7
:1018E0000E94870BC80FD91F20E030E040E251E48E
:1018F000C701B6010E94CB154B015C010E94111873
:101900006B01E12CF12C4AE0C701B6010E94160BD5
:10191000C80FD91FC701B6010E946A159B01AC010F
:10192000C501B4010E94C0166B017C011150E1F6A3
:10193000CE01DF91CF911F910F91FF90EF90DF903B
:10194000CF90BF90AF909F908F900895CF93DF93EB
:1019500042E00E94D40BEC010E946C0A8C0F9D1F88
:10196000DF91CF910895CF93DF93EC01888D882389
:10197000C9F0EA89FB89808185FD05C0A889B989FC
:101980008C9186FD0FC00FB607FCF5CF808185FFD7
:10199000F2CFA889B9898C9185FFEDCFCE010E9445
:1019A000650BE7CFDF91CF9108958EEB93E00C9418
:1019B0002B08CF93DF93CDB7DEB7A2970FB6F8947D
:1019C000DEBF0FBECDBF789484B5826084BD84B580
:1019D000816084BD85B5826085BD85B5816085BD2A
:1019E00080916E00816080936E00109281008091E2
:1019F000810082608093810080918100816080936A
:101A00008100809180008160809380008091B1008E
:101A100084608093B1008091B00081608093B000B9
:101A200080917A00846080937A0080917A0082604D
:101A300080937A0080917A00816080937A0080910F
:101A40007A00806880937A001092C100E0912503AB
:101A5000F091260382E08083E0912103F09122033C
:101A60001082E0912303F091240380E1808310929F
:101A70002D03E0912903F0912A0386E08083E09111
:101A80002703F0912803808180618083E091270300
:101A9000F0912803808188608083E0912703F09192
:101AA0002803808180688083E0912703F0912803D8
:101AB00080818F7D80831092B4021092B3021092C5
:101AC000B6021092B5021092140381E080931303C2
:101AD00010920E0361E082E10E942D0961E083E132
:101AE0000E942D098091B9008E7F8093B90080916A
:101AF000B9008D7F8093B90088E48093B80085E4B5
:101B00008093BC008CE191E09093B2028093B1028B
:101B10008DE191E09093B0028093AF028CE08093CE
:101B2000B8008FE691E00E94590B8CE690E00E948D
:101B3000CD188C0182EB93E0D8018D939C93F80132
:101B4000EC59FF4F8AE097EDA3EABCE380839183D1
:101B5000A283B383349688E491EEAAE7BFE380833F
:101B60009183A283B3831093C1030093C00388ECD5
:101B700090E00E94CD189093C3038093C20310920B
:101B8000C7031092C6031092C5031092C4038FE7D7
:101B900091E00E94590B40E069E1C8010E94D30620
:101BA00040E06AE1C8010E94D30648E06BE1C80149
:101BB0000E94D30640E06CE1C8010E94D30641E0D8
:101BC0006BE6C8010E94D306C8010E94E202F80138
:101BD00010AE11AE12AE13AED80114AE15AE16AEE5
:101BE00017AEE05BFF4FAC5BBF4F8D919D910D90A9
:101BF000BC91A02D80839183A283B3833496D801B6
:101C0000A85BBF4F8D919D910D90BC91A02D8083BD
:101C10009183A283B3830E94B609F801E05AFF4F73
:101C200060837183828393838CE891E00E94590BD7
:101C30000091C0031091C1038BE991E00E94590B00
:101C400068EE73E080E090E00E9467080E946C0AF2
:101C50008BE991E00E94590B84EC91E00E94590BB2
:101C60008BED91E00E94570BC12CD12C76014601DF
:101C7000570126013701212C312CC10168EE73E098
:101C80000E947D18892B21F481EF91E00E94570B6F
:101C9000B1E0B093B802E9E6E093B7021092B60261
:101CA0001092B502D8018D919C91DC01ED91FC91CF
:101CB0000190F081E02D6BE3099560E0F8018081EF
:101CC00091810E94870241E06EE089E60E94D40A79
:101CD0001092B4028093B302D8018D919C91DC01E3
:101CE000ED91FC910284F385E02D0995F801808146
:101CF0009181DC01ED91FC910284F385E02D099541
:101D0000F80180819181DC01ED91FC910284F385E1
:101D1000E02D0995F80180819181DC01ED91FC9124
:101D20000284F385E02D0995F80180819181DC0121
:101D3000ED91FC910284F385E02D0995F8018081F5
:101D40009181DC01ED91FC910284F385E02D0995F0
:101D5000F80180819181DC01ED91FC910284F38591
:101D6000E02D0995F80180819181DC01ED91FC91D4
:101D70000284F385E02D0995F80180819181DC01D1
:101D8000ED91FC910284F385E02D09958F83F80194
:101D900080819181DC01ED91FC910284F385E02D3D
:101DA0000995BF81B88B1F86EF85F889E82BF92B41
:101DB000F887EF83D8018D919C91DC01ED91FC9126
:101DC0000284F385E02D09958B87F801808191814C
:101DD000DC01ED91FC910284F385E02D0995BB8532
:101DE000BC8B1B8AEB89FC89E82BF92BFC87EB87E2
:101DF000D8018D919C91DC01ED91FC910284F385D9
:101E0000E02D09958F8FF80180819181DC01ED91A2
:101E1000FC910284F385E02D09959C8F8B8FEF81D7
:101E2000F885BF01FF0F880B990B0E946C1520E00D
:101E300030E043E852E40E949F179B01AC01C301CC
:101E4000B2010E94C1162B013C012B853C85B901D2
:101E5000330F880B990B0E946C1520E030E043E8AB
:101E600052E40E949F179B01AC01C501B4010E947E
:101E7000C1164B015C013F8D388F1F8A6F89788DA9
:101E80004B8D5C8D642B752B072E000C880B990BEA
:101E90000E946C1520E030E043E852E40E949F1756
:101EA0009B01AC01C701B6010E94C1166B017C0108
:101EB0005FEF251A350A88EB28168BE0380609F003
:101EC000DCCE20E030E84BE355E4C301B2010E94D0
:101ED0009F17D80150966D937D938D939C93539744
:101EE00020E030E84BE355E4C501B4010E949F17A0
:101EF000F801648B758B868B978B20E030E84BE381
:101F000055E4C701B6010E949F17D80158966D93FA
:101F10007D938D939C935B970E946C0A83EF91E075
:101F20000E94590B8BEF91E00E94570BF8016089DA
:101F30007189828993890E94A60C80E092E00E94B8
:101F4000570BD80154966D917D918D919C91579727
:101F50000E94A60C85E092E00E94570BF801608D6C
:101F6000718D828D938D0E94A60C8AE092E00E9472
:101F7000590B8BE991E00E94570B68EB7BE080E006
:101F800090E00E94670892E3292E312CC12CD12CBD
:101F9000760146015701260137018091C0039091D7
:101FA000C1030E94E2020091C0031091C103F80135
:101FB000E05BFF4F2081318142815381C301B20137
:101FC0000E94C1162B013C01F801EC5AFF4F208101
:101FD000318142815381C501B4010E94C1164B0178
:101FE0005C01F801E85AFF4F208131814281538121
:101FF000C701B6010E94C1166B017C01F1E02F1AE6
:10200000310859F620E030E048E452E4C301B2015F
:102010000E949F176093C8037093C9038093CA03FB
:102020009093CB0320E030E048E452E4C501B401D2
:102030000E949F176093CC037093CD038093CE03CF
:102040009093CF0320E030E048E452E4C701B601AA
:102050000E949F176093D0037093D1038093D203A3
:102060009093D30386E090E00E94CD18FC0183E0BA
:10207000808382E0818388E893E1A0E0B0E08283FE
:102080009383A483B58361E083E00E947A0960E0D2
:1020900082E00E947A090E94B6096093BD027093A3
:1020A000BE028093BF029093C00285E0282E312C9F
:1020B0000E94B6096093C1027093C2028093C3026A
:1020C0009093C4020091B9021091BA022091BB0210
:1020D0003091BC02DC01CB01801B910BA20BB30B36
:1020E0008B3F9105A105B10508F484C18091C0031F
:1020F0009091C1030E94E2020E94B6096F87788B1B
:10210000898B9A8B0091C0031091C103D8019096DE
:102110002D913D914D915C9193972B8B3C8B4D8BE9
:102120005E8B94962D913D914D915C9197972F8B5D
:10213000388F498F5A8F98962D913D914D915C9192
:102140009B972F83388749875A879C962D913D917D
:102150004D915C919F972B873C874D875E87D096EA
:102160002D913D914D915C91D3972B8F3C8F4D8F4D
:102170005E8FD4962D913D914D915C91D7972F8F85
:1021800038A349A35AA3F801E05BFF4F2091C8038D
:102190003091C9034091CA035091CB036081718192
:1021A000828193810E94C0162B013C01F801EC5AF8
:1021B000FF4F2091CC033091CD034091CE0350913D
:1021C000CF0360817181828193810E94C0164B018F
:1021D0005C01F801E85AFF4F2091D0033091D10300
:1021E0004091D2035091D3036081718182819381A8
:1021F0000E94C0166B017C018091C4039091C503BD
:10220000B8E2B89F9001B99F300D1124E091C2034C
:10221000F091C303E20FF31F2F85388949895A894A
:1022200020833183428353832B893C894D895E8986
:1022300024833583468357832F89388D498D5A8D62
:1022400020873187428753872F81388549855A8572
:1022500024873587468757872B853C854D855E8546
:10226000208B318B428B538B2B8D3C8D4D8D5E8D16
:10227000248B358B468B578B2F8D38A149A15AA1C2
:10228000208F318F428F538F448E558E668E778E7E
:1022900080A291A2A2A2B3A2C4A2D5A2E6A2F7A252
:1022A0000196B1010E947D189093C5038093C403E9
:1022B000BC01635D7D4F1A8219821C821B821E82C3
:1022C0001D826115710561F0FB0101900020E9F7A5
:1022D0003197AF01461B570BCE0101960E945C025D
:1022E000CE0101960E94700A8091C6039091C703A7
:1022F000853091052CF401969093C7038093C60313
:10230000CE0101960E94670A42E06B897C898D8923
:102310009E890E94D40B87E392E00E94570B42E013
:102320006F89788D898D9A8D0E94D40B87E392E016
:102330000E94570B42E06F81788589859A850E94BB
:10234000D40B87E392E00E94570B42E06B857C85BB
:102350008D859E850E94D40B87E392E00E94570BE7
:1023600042E06B8D7C8D8D8D9E8D0E94D40B87E31A
:1023700092E00E94570B42E06F8D78A189A19AA14B
:102380000E94D40B87E392E00E94570B42E0C30106
:10239000B2010E94D40B87E392E00E94570B42E007
:1023A000C501B4010E94D40B87E392E00E94570B51
:1023B00042E0C701B6010E94D40B87E392E00E947D
:1023C000570B4AE06F85788989899A890E94160B94
:1023D0000E946C0A8091C1029091C202A091C30236
:1023E000B091C4028093B9029093BA02A093BB0249
:1023F000B093BC020E94490A5BCECF93DF9360E0AA
:102400008CE00E942D0960E088E00E942D09C7E061
:10241000D0E060E084E00E942D098091D40390E038
:102420000C2E02C0959587950A94E2F780FF02C0B2
:1024300061E001C060E088E00E942D0961E084E075
:102440000E942D09219728F761E08CE0DF91CF9160
:102450000C942D09CF93E5E1F3E01382128288EE0C
:1024600093E0A0E0B0E084839583A683B7832AE05D
:1024700031E03183208325EC30E03587248724EC5C
:1024800030E03787268720EC30E0318B208B21EC41
:1024900030E0338B228B22EC30E0358B248B26EC22
:1024A00030E0378B268B118E128E138E148EE2EB5A
:1024B000F3E01382128284839583A683B7838CE131
:1024C00091E091838083E9EDF3E089E2868B108EC1
:1024D000178A118E10A211A212A283E090E094A399
:1024E00083A3EEEBF3E08EE291E091838083178289
:1024F0001682118610861382128215821482128A25
:10250000138A148A158A16861786108A118A1286EB
:10251000138614861586E7EDF3E084E08083C2E03D
:10252000C18361E08CE00E947A0961E087E00E944B
:102530007A0961E088E00E947A0961E084E00E9403
:102540007A091092D4030E94FD1160E087E00E9496
:102550002D090E94FD1184B5836284BD18BC61E021
:1025600085E00E947A09E5EDF3E083E08083C18392
:1025700061E08CE00E947A0961E087E00E947A09BC
:1025800061E088E00E947A0961E084E00E947A09B3
:102590001092D4030E94FD1160E087E00E942D0993
:1025A0000E94FD1184B5836884BD17BC61E086E09C
:1025B0000E947A091092FE03CF910895EF920F9333
:1025C0001F93CF93DF93E80147FD02C034E001C0C1
:1025D00034E1042E000C550B57FF03C05195419573
:1025E0005109E32E022F242FAE010E942313CE01A6
:1025F000DF91CF911F910F91EF900895BB274A3043
:1026000031F4992322F4BDE2909581959F4F0C946B
:102610000A13BB27FB015527AA27880F991FAA1F5A
:10262000A41710F0A41B83955051B9F7A05DAA33ED
:1026300008F0A95DA193009779F7B111B1931192B8
:10264000CB010C945515A9E0B0E0E9E2F3E10C945C
:102650008F166A01122FB02E2BE3201720F0FF24D3
:10266000F394F00E02C02CE3F22E0F2D27E0AE0102
:102670004F5F5F4F0E947D14BC014981842F897098
:10268000813031F0E1FC06C0E0FE06C090E205C0FA
:102690009DE203C09BE201C090E05E2D507143FFBC
:1026A0003CC0911102C083E001C084E0811718F49E
:1026B000212F281B01C020E051110BC0F601822FF1
:1026C00030E2882319F031938150FBCFC20ED11C28
:1026D00020E0992329F0D6019C93F60131966F01F1
:1026E000C6010396E2FE0AC03EE4D6013C9341E4F3
:1026F00011964C93119712963C9306C03EE6F60154
:10270000308341E641833283FC01322F40E23323A0
:1027100009F442C041933150FACF42FF44C09111B5
:1027200002C083E001C084E0811718F4212F281B28
:1027300001C020E051110BC0F601822F30E2882346
:1027400019F031938150FBCFC20ED11C20E09923A8
:1027500029F0D6019C93F60131966F01C6010396CC
:10276000E2FE0BC039E4D6013C933EE411963C9363
:10277000119736E412963C9307C039E6F601308390
:102780003EE6318336E63283FC01322F40E23323CA
:1027900019F041933150FBCFFC01E20FF11D108283
:1027A0008EEF9FEFA6C021E030E0911102C020E043
:1027B00030E0161617061CF4FB01319602C0E1E06A
:1027C000F0E02E0F3F1FBB2021F0EB2DF0E0319603
:1027D00002C0E0E0F0E02E0F3F1FE12FF0E02E17E7
:1027E0003F071CF4121B212F01C020E08E2D8871A1
:1027F00059F4F601822F30E2882319F03193815089
:10280000FBCFC20ED11C20E0992329F0D6019C9366
:10281000F60131966F0151110BC0F601822F90E342
:10282000882319F091938150FBCFC20ED11C20E078
:102830000F2D060F9A81342F307144FF03C091335E
:1028400009F40150101624F4093018F008E001C012
:1028500001E0AB0177FF02C040E050E0FB01E41B68
:10286000F50BA1E0B0E0AC0FBD1FEA0FFB1F8EE23D
:10287000A82E4B01801A91080B2D10E0119501959F
:1028800011094F3FBFEF5B0721F4D601AC921196BF
:102890006D01641775072CF08416950614F4818178
:1028A00001C080E3415051093196D60111967D0156
:1028B0004017510724F0D6018C936701E2CF6417CB
:1028C000750739F4963320F4953319F4311101C0AA
:1028D00081E3F6018083F701822F90E2882319F0CB
:1028E00091938150FBCFF701E20FF11D108280E040
:1028F00090E02996ECE00C94AB16283008F027E025
:102900003327DA01990F311D87FD9160009661052B
:10291000710539F432602E5F3D9330E32A95E1F77B
:1029200008959F3F30F080387105610509F03C5FE4
:102930003C5F3D93913008F08068911DDF93CF9309
:102940001F930F93FF92EF92192F987F9695E92F7F
:1029500096959695E90FFF27E051FF4F992733276A
:10296000EE24FF24A701E70105900894079428F4BA
:10297000360FE71EF81E491F511D660F771F881F6F
:10298000991F0694A1F70590079428F4E70EF81E06
:10299000491F561FC11D770F881F991F661F069478
:1029A000A1F70590079428F4F80E491F561FC71F7A
:1029B000D11D880F991F661F771F0694A1F70590F8
:1029C000079420F4490F561FC71FD81F990F661F81
:1029D000771F881F0694A9F784911095177041F00E
:1029E000D695C79557954795F794E7941A95C1F7EB
:1029F000E6E9F0E06894159015913591659195910F
:102A000005907FE27395E118F10A430B560BC90B51
:102A1000D009C0F7E10CF11E431F561FC91FD01D7E
:102A20007EF4703311F48A95E6CFE894015030F0CB
:102A3000080F0AF40027021708F4202F2395022F0D
:102A40007A3328F079E37D932A95E9F710C07D93D6
:102A50002A9589F606949795679537951795179453
:102A6000E118F10A430B560BC90BD00998F02395D6
:102A70007E9173957A3308F070E37C932013B8F756
:102A80007E9170617D9330F0839571E37D9370E367
:102A90002A95E1F71124EF90FF900F911F91CF91AC
:102AA000DF91992787FD90950895DC01FC01672F40
:102AB00071917723E1F7329704C07C916D93708315
:102AC0006291AE17BF07C8F308950E94A71508F4D6
:102AD00081E00895E89409C097FB3EF490958095B5
:102AE000709561957F4F8F4F9F4F9923A9F0F92FD4
:102AF00096E9BB279395F695879577956795B79552
:102B0000F111F8CFFAF4BB0F11F460FF1BC06F5F37
:102B10007F4F8F4F9F4F16C0882311F096E911C049
:102B2000772321F09EE8872F762F05C0662371F06A
:102B300096E8862F70E060E02AF09A95660F771F7E
:102B4000881FDAF7880F9695879597F90895990F5A
:102B50000008550FAA0BE0E8FEEF16161706E80767
:102B6000F907C0F012161306E407F50798F0621B88
:102B7000730B840B950B39F40A2661F0232B242B5D
:102B8000252B21F408950A2609F4A140A6958FEF7C
:102B9000811D811D08950E94DE150C944F160E9420
:102BA000411638F00E94481620F0952311F00C943D
:102BB00038160C943E1611240C9483160E9460164D
:102BC00070F3959FC1F3950F50E0551F629FF00180
:102BD000729FBB27F00DB11D639FAA27F00DB11D99
:102BE000AA1F649F6627B00DA11D661F829F222722
:102BF000B00DA11D621F739FB00DA11D621F839FA9
:102C0000A00D611D221F749F3327A00D611D231F7E
:102C1000849F600D211D822F762F6A2F11249F57CC
:102C200050409AF0F1F088234AF0EE0FFF1FBB1FCF
:102C3000661F771F881F91505040A9F79E3F51058E
:102C400080F00C9438160C9483165F3FE4F3983EA2
:102C5000D4F3869577956795B795F795E7959F5F38
:102C6000C1F7FE2B880F911D9695879597F90895CA
:102C700097F99F6780E870E060E008959FEF80EC2F
:102C8000089500240A9416161706180609060895D2
:102C900000240A9412161306140605060895092E38
:102CA0000394000C11F4882352F0BB0F40F4BF2BA7
:102CB00011F460FF04C06F5F7F4F8F4F9F4F0895E7
:102CC00057FD9058440F551F59F05F3F71F04795DD
:102CD000880F97FB991F61F09F3F79F087950895C2
:102CE000121613061406551FF2CF4695F1DF08C0E1
:102CF000161617061806991FF1CF869571056105FE
:102D000008940895E894BB2766277727CB0197F9A5
:102D100008952F923F924F925F926F927F928F927F
:102D20009F92AF92BF92CF92DF92EF92FF920F935A
:102D30001F93CF93DF93CDB7DEB7CA1BDB0B0FB664
:102D4000F894DEBF0FBECDBF09942A883988488821
:102D50005F846E847D848C849B84AA84B984C884B7
:102D6000DF80EE80FD800C811B81AA81B981CE0FAE
:102D7000D11D0FB6F894DEBF0FBECDBFED01089593
:102D80005058BB27AA270E94D8160C944F160E94B1
:102D9000411638F00E94481620F039F49F3F19F48C
:102DA00026F40C943E160EF4E095E7FB0C943816CE
:102DB000E92F0E94601658F3BA1762077307840759
:102DC000950720F079F4A6F50C9482160EF4E095A0
:102DD0000B2EBA2FA02D0B01B90190010C01CA01D5
:102DE000A0011124FF27591B99F0593F50F4503E80
:102DF00068F11A16F040A22F232F342F4427585F72
:102E0000F3CF469537952795A795F0405395C9F789
:102E10007EF41F16BA0B620B730B840BBAF0915041
:102E2000A1F0FF0FBB1F661F771F881FC2F70EC0E0
:102E3000BA0F621F731F841F48F4879577956795B3
:102E4000B795F7959E3F08F0B0CF9395880F08F09F
:102E50009927EE0F9795879508950E94411660F087
:102E600080E891E009F49EEF0E94481628F040E8BF
:102E700051E071F45EEF0CC00C943E160C94821677
:102E8000E92FE0780E94601640F3092E052AB1F37D
:102E9000261737074807590738F00E2E07F8E025A0
:102EA00069F0E025E0640AC0EF6307F8009407FAD0
:102EB000DB01B9019D01DC01CA01AD01EF930E9464
:102EC000B6170E944F160E9470175F91552339F074
:102ED0002BED3FE049E450FD49EC0C94C1160895F8
:102EE000DF93DD27B92FBF7740E85FE3161617069B
:102EF00048075B0718F4D92F0E946C189F938F9393
:102F00007F936F930E947418E8E6F0E00E944018E7
:102F10000E944F162F913F914F915F910E94DE15B5
:102F2000DD2351F09058A2EA2AED3FE049EC5FE33F
:102F3000D0785D270E94D816DF910C944F160E941E
:102F4000B3170C944F160E94481658F00E94411671
:102F500040F029F45F3F29F00C94381651110C947D
:102F600083160C943E160E94601668F39923B1F301
:102F7000552391F3951B550BBB27AA27621773079F
:102F8000840738F09F5F5F4F220F331F441FAA1F33
:102F9000A9F335D00E2E3AF0E0E832D091505040EF
:102FA000E695001CCAF72BD0FE2F29D0660F771F9D
:102FB000881FBB1F261737074807AB07B0E809F083
:102FC000BB0B802DBF01FF2793585F4F3AF09E3F08
:102FD000510578F00C9438160C9483165F3FE4F397
:102FE000983ED4F3869577956795B795F7959F5F4B
:102FF000C9F7880F911D9695879597F90895E1E097
:10300000660F771F881FBB1F621773078407BA07F5
:1030100020F0621B730B840BBA0BEE1F88F7E09550
:1030200008950E94681688F09F5798F0B92F992745
:10303000B751B0F0E1F0660F771F881F991F1AF0A3
:10304000BA95C9F714C0B13091F00E948216B1E070
:1030500008950C948216672F782F8827B85F39F06F
:10306000B93FCCF3869577956795B395D9F73EF43C
:1030700090958095709561957F4F8F4F9F4F0895E4
:10308000DF93CF931F930F93FF92EF92DF927B0119
:103090008C01689406C0DA2EEF010E94DE15FE0155
:1030A000E894A5912591359145915591A6F3EF01AD
:1030B0000E94D816FE019701A801DA9469F7DF9003
:1030C000EF90FF900F911F91CF91DF9108950E9493
:1030D000A71508F48FEF08959B01AC0160E070E044
:1030E00080E89FE30C949F179B01AC010C94CB15D7
:1030F0000E94A715880B990B089597FB072E16F4CD
:10310000009407D077FD09D00E94B31807FC05D0C2
:103110003EF4909581959F4F0895709561957F4FEE
:103120000895A1E21A2EAA1BBB1BFD010DC0AA1F08
:10313000BB1FEE1FFF1FA217B307E407F50720F020
:10314000A21BB30BE40BF50B661F771F881F991F9B
:103150001A9469F760957095809590959B01AC01E4
:10316000BD01CF010895AA1BBB1B51E107C0AA1FD7
:10317000BB1FA617B70710F0A61BB70B881F991F18
:103180005A95A9F780959095BC01CD010895EE0F51
:10319000FF1F0590F491E02D09940F931F93CF9397
:1031A000DF938230910510F482E090E0E091010419
:1031B000F091020420E030E0A0E0B0E0309719F197
:1031C000408151810281138148175907C8F0841743
:1031D000950769F4109731F012960C931297139695
:1031E0001C9327C0009301041093020422C02115F0
:1031F000310519F04217530718F49A01BD01EF0188
:10320000DF01F801DBCF21153105F9F0281B390B5F
:103210002430310580F48A819B816115710521F08C
:10322000FB019383828304C0909302048093010482
:10323000FE01329644C0FE01E20FF31F8193919389
:1032400022503109398328833AC02091FF033091FD
:103250000004232B41F420910201309103013093AB
:1032600000042093FF0320910001309101012115FA
:10327000310541F42DB73EB740910401509105014D
:10328000241B350BE091FF03F0910004E217F307D4
:10329000A0F42E1B3F0B2817390778F0AC014E5FC6
:1032A0005F4F2417350748F04E0F5F1F50930004FF
:1032B0004093FF038193919302C0E0E0F0E0CF01DF
:1032C000DF91CF911F910F910895CF93DF930097D6
:1032D00009F481C0FC01329713821282A09101048B
:1032E000B0910204109781F420813181820F931FE5
:1032F0002091FF03309100042817390751F5F0930E
:103300000004E093FF0367C0ED0120E030E0CE173A
:10331000DF0740F44A815B819E0141155105F1F0C0
:10332000EA01F5CFD383C28340815181840F951F79
:10333000C817D90759F488819981840F951F02967F
:10334000918380838A819B819383828321153105B8
:1033500029F4F0930204E09301043DC0E901FB83EA
:10336000EA8349915991C40FD51FEC17FD0761F409
:1033700080819181840F951F0296E901998388834A
:10338000828193819B838A83E0E0F0E012968D91A5
:103390009C911397009719F0FD01DC01F7CF8D91F7
:1033A0009C9111979D012E5F3F4F820F931F20919B
:1033B000FF03309100042817390769F4309729F486
:1033C000109202041092010402C013821282B09380
:1033D0000004A093FF03DF91CF910895A0E0B0E037
:1033E000E4EFF9E10C948D16EC01009721F4CB0188
:1033F0000E94CD18B4C0FC01E60FF71F9C012250BB
:103400003109E217F30708F4A8C0D9010D911C9106
:10341000119706171707B0F00530110508F49BC087
:10342000C80104978617970708F495C00250110940
:10343000061B170B019311936D937C93CF010E9490
:10344000651989C05B01A01AB10A4C01800E911E5A
:10345000A0910104B0910204612C712CE12CF12C9B
:10346000109709F446C08D919C911197A815B90544
:10347000B1F56C0142E0C40ED11CCA14DB0478F132
:103480004C018A189B08640142E0C40ED11C1296BC
:10349000BC9012971396AC91B5E0CB16D10440F0D6
:1034A000B282A38391828082D9016D937C9309C0FB
:1034B0000E5F1F4F800F911FF90191838083EB2DC9
:1034C000FA2FE114F10431F0D7011396FC93EE9337
:1034D000129741C0F0930204E09301043CC06816C7
:1034E000790608F43C017D0112960D90BC91A02D47
:1034F000B7CF8091FF039091000488169906E1F4FC
:1035000066167706C8F4809100019091010100973A
:1035100041F48DB79EB74091040150910501841B81
:10352000950BE817F907C8F4F0930004E093FF0344
:10353000F901718360830FC0CB010E94CD187C011B
:10354000009759F0A801BE010E94B91ACE010E944D
:103550006519C70104C0CE0102C080E090E0CDB77C
:10356000DEB7EEE00C94A91681E090E0F8940C949C
:10357000C91AFB01DC0102C001900D92415050407C
:10358000D8F70895FB01DC0101900D920020E1F7CE
:10359000089510E0C1EFD0E004C0FE010E94C718FA
:0C35A0002196C23FD107C9F7F894FFCF75
:1035AC0000000304800000000000870BA1080C0A37
:1035BC00B30C3D0A1B0A2F0A00000000AD0180016C
:1035CC004B011E0142012E011F01000000002B08BF
:1035DC0038087261774779726F5A3A200020677900
:1035EC00726F5A3A2000206779726F5A6F66667351
:1035FC0065743A200020616E676C654779726F5A6A
:10360C003A200020696E74657276616C3A2000492C
:10361C004D55204F626A656374205465737400497C
:10362C006E7369646520426567696E0046696E69F0
:10363C007368656420426567696E003D3D3D3D3DA4
:10364C003D3D3D3D3D3D3D3D3D3D3D3D3D3D3D3D9E
:10365C003D3D3D3D3D3D3D3D3D3D3D3D3D3D3D3D8E
:10366C003D3D3D0063616C63756C617465206779E9
:10367C00726F206F66667365747300444F204E4FF3
:10368C0054204D4F56452041204D50553630353045
:10369C00002E00446F6E652121210058203A200035
:1036AC0059203A20005A203A200050726F677261FC
:1036BC006D2077696C6C2073746172742061667410
:1036CC0065722033207365636F6E647300436F758E
:1036DC006E7465723A20002C20000D0A006E616E2B
:0A36EC0000696E66006F766600004C
:00000001FF
