:100000000C9463000C943F050C9418050C94C301E8
:100010000C94C3010C94C3010C948B000C948B00C2
:100020000C948B000C948B000C948B000C948B0024
:100030000C948B000C948B000C948B000C948B0014
:100040000C94CB060C948B000C948C050C946605D8
:100050000C948B000C948B000C948B000C948B00F4
:100060000C94CD010C948B000000000024002700AC
:100070002A0000000000250028002B0000000000DE
:1000800023002600290004040404040404040202DA
:100090000202020203030303030301020408102007
:1000A0004080010204081020010204081020000012
:1000B0000008000201000003040700000000000027
:1000C00000002B09270911241FBECFEFD8E0DEBFA7
:1000D000CDBF22E0A8E4B1E001C01D92A03DB2076F
:1000E000E1F711E0A0E0B1E0EAEBF5E102C0059034
:1000F0000D92A834B107D9F710E0C2E6D0E004C0F1
:100100002197FE010E94A409C136D107C9F70E94B8
:1001100015070C94D00A0C940000CF92DF92EF9256
:10012000FF920F931F93CF93DF936C017A018B01A2
:10013000C0E0D0E0CE15DF0581F0D8016D918D01D2
:10014000D601ED91FC910190F081E02DC601099559
:10015000892B11F02196EECF7E01C701DF91CF915F
:100160001F910F91FF90EF90DF90CF900895089529
:1001700008950895E091940180919301E81730F477
:10018000F0E0E354FE4F808190E008958FEF9FEF01
:1001900008959091940180919301981750F4E92F5C
:1001A000F0E0E354FE4F208130E09F5F9093940194
:1001B00002C02FEF3FEFC90108958091930190E0B5
:1001C00020919401821B91090895089580E090E0A8
:1001D000089585ED8093BC008091BC0084FDFCCF28
:1001E00010920302089540916A01262F30E0240FF7
:1001F000311D21323105DCF4209103022430C9F491
:10020000FC0180E090E0861758F430916A0121915A
:10021000DC01A65BBE4FA30FB11D2C930196F3CF5B
:1002200080916A01680F60936A0180E0089581E01F
:10023000089582E00895CF92DF92EF92FF920F939C
:100240001F93CF93DF937C01CB018A012091990109
:10025000222389F0EB016B01C40ED51ECC15DD0500
:1002600069F06991D701ED91FC910190F081E02D49
:10027000C7010995F3CF642F0E94F300C801DF91F5
:10028000CF911F910F91FF90EF90DF90CF90089545
:10029000CF93DF931F92CDB7DEB769832091990189
:1002A0002223D1F02091BC01203240F021E030E047
:1002B000FC013383228380E090E015C080919A0195
:1002C000E82FF0E0E556FE4F998190838F5F809391
:1002D0009A018093BC0105C061E0CE0101960E94A5
:1002E000F30081E090E00F90DF91CF91089582E0DC
:1002F0000E94BE05019731F483E00E94BE05892B60
:1003000061F405C083E00E94BE05019731F480913D
:10031000480190914901019605C080914801909152
:1003200049010197909349018093480160914801E8
:100330007091490180E090E04AE00E94320486E337
:1003400091E00C94200483E00E94BE05019731F4F3
:1003500082E00E94BE05019761F405C082E00E9420
:10036000BE05892B31F48091480190914901019695
:1003700005C08091480190914901019790934901EE
:100380008093480108951F920F920FB60F92112487
:100390000F900FBE0F901F9018951F920F920FB6DF
:1003A0000F9211242F933F934F935F936F937F93FB
:1003B0008F939F93AF93BF93EF93FF938091B90077
:1003C000887F803609F49CC068F5883209F45BC0E8
:1003D00090F4803109F454C038F4882309F4F6C04D
:1003E000883009F44DC0F6C0883109F44CC0803221
:1003F00009F45DC0EFC0803409F468C048F480336C
:1004000009F455C0883309F0E5C080930102D8C0D3
:10041000803509F44FC0883509F45DC0883409F08F
:10042000D9C0D6C0883909F4C7C0A8F4883709F400
:1004300067C038F4883609F463C0803709F460C0B7
:10044000C9C0883809F4B8C0803909F45FC0803861
:1004500009F0C0C05BC0803B09F486C038F4803A24
:1004600009F466C0883A09F47FC0B4C0803C09F43E
:10047000A7C0883C09F4A4C0883B09F48AC0AAC07C
:100480008091FE0110C0909100028091FF019817A9
:1004900070F5E091000281E08E0F80930002F0E0A1
:1004A000E352FE4F80818093BB0085EC86C0809331
:1004B00001028EC0E091000281E08E0F8093000265
:1004C0008091BB00F0E0E352FE4F808390910002E8
:1004D0008091FF016EC0E091000281E08E0F809359
:1004E00000028091BB00F0E0E352FE4F80838091D8
:1004F000020281116DC081E08093FD0184EA61C038
:1005000083E08093030210928C01CFCF80918C0105
:10051000803208F051C0E0918C0181E08E0F809311
:100520008C018091BB00F0E0E459FE4F8083BDCF89
:1005300085EC8093BC001092030280918C01803284
:1005400030F4E0918C01F0E0E459FE4F10826091AC
:100550008C0170E0E0918F01F09190018CE691E0C8
:10056000099510928C0136C084E0809303021092AA
:100570006B0110926A01E0919101F091920109954D
:1005800080916A01811105C081E080936A01109217
:100590004A01E0916B0181E08E0F80936B01F0E0E6
:1005A000E65BFE4F80818093BB0090916B01809150
:1005B0006A01981708F479CF85E88093BC000AC0D7
:1005C00085EC8093BC001092030204C010920102DB
:1005D0000E94E900FF91EF91BF91AF919F918F91A0
:1005E0007F916F915F914F913F912F910F900FBE2F
:1005F0000F901F901895CF93DF93EC018C819D8114
:100600000E94420A8A819B81DF91CF910C94420A19
:10061000CF93DF93EC010E94FB02CE01DF91CF91DB
:100620000C94420A0895FC01538D448D252F30E02F
:10063000842F90E0821B930B541710F0CF960895EF
:1006400001970895FC01918D828D981761F0828D3C
:10065000DF01A80FB11D5D968C91928D9F5F9F73F6
:10066000928F90E008958FEF9FEF0895FC01918D98
:10067000828D981731F0828DE80FF11D858D90E005
:1006800008958FEF9FEF0895FC01918D228D892FA2
:1006900090E0805C9F4F821B91098F73992708958A
:1006A000FC01848DDF01A80FB11DA35ABF4F2C910F
:1006B000848D90E001968F739927848FA689B789DE
:1006C0002C93A089B1898C91837080648C93938DD5
:1006D000848D981306C00288F389E02D80818F7D78
:1006E00080830895EF92FF920F931F93CF93DF9330
:1006F000EC0181E0888F9B8D8C8D981305C0E88973
:10070000F989808185FD26C0F62E0B8D10E00F5FE4
:100710001F4F0F731127E02E8C8DE8120CC00FB6FF
:1007200007FCFACFE889F989808185FFF5CFCE01F2
:100730000E945003F1CF8B8DFE01E80FF11DE35AAB
:10074000FF4FF0829FB7F8940B8FEA89FB89808175
:1007500080620AC09FB7F894EE89FF896083E889B8
:10076000F98980818370806480839FBF81E090E0FD
:10077000DF91CF911F910F91FF90EF900895CF934C
:10078000DF93EC01888D8823C9F0EA89FB89808199
:1007900085FD05C0A889B9898C9186FD0FC00FB66B
:1007A00007FCF5CF808185FFF2CFA889B9898C91AC
:1007B00085FFEDCFCE010E945003E7CFDF91CF91AF
:1007C000089584E092E00E94440321E0892B09F41B
:1007D00020E0822F089580E090E0892B29F00E948C
:1007E000E10381110C9400000895833081F028F416
:1007F000813099F08230A1F008958730A9F08830D7
:10080000B9F08430D1F4809180008F7D03C0809155
:1008100080008F7780938000089584B58F7702C021
:1008200084B58F7D84BD08958091B0008F7703C01B
:100830008091B0008F7D8093B00008950E94CB0A14
:10084000009769F0FC0101900020E9F73197AF01B2
:10085000481B590BBC0184E092E00C948D0080E0B1
:1008600090E008958F929F92AF92BF920F931F9343
:10087000CF93DF93CDB7DEB7A1970FB6F894DEBF65
:100880000FBECDBF19A2423008F44AE08E010F5DC1
:100890001F4F842E912CA12CB12CA50194010E94F4
:1008A0008209E62FB901CA0101501109EA3014F496
:1008B000E05D01C0E95CD801EC93232B242B252BB0
:1008C00061F7C8010E942004A1960FB6F894DEBF1C
:1008D0000FBECDBFDF91CF911F910F91BF90AF9011
:1008E0009F908F900895909103029111FCCF91E019
:1008F00090930302909302022FEF20930102109233
:100900000002260F2093FF019093FE019091FE01BB
:10091000880F892B8093FE018091FD01813061F465
:100920001092FD018091FE018093BB008091BC007C
:1009300083FDF8CF85EC01C085EE8093BC008091EB
:1009400003028130E1F380910002861710F4609178
:100950000002ADEDB1E0EDEBF1E080E0861721F0B3
:100960009D9191938F5FFACF0895282F3091BC010C
:10097000313208F04AC0809103028111FCCF90917E
:10098000BB0142E040930302209302022FEF209329
:100990000102109200023093FF01EBE9F1E0ADEDAE
:1009A000B1E020E0321721F041914D932F5FFACF53
:1009B0001092FE012091FE01990F922B9093FE015F
:1009C0009091FD01913061F41092FD019091FE0132
:1009D0009093BB009091BC0093FDF8CF95EC01C0C3
:1009E00095EE9093BC00909103029230E1F39091C8
:1009F00001029F3F79F080910102803241F08091A5
:100A00000102803331F084E005C081E003C082E060
:100A100001C083E010929A011092BC0110929901DA
:100A20000895DC01ED91FC910190F081E02D099495
:100A30001F920F920FB60F9211242F933F934F9353
:100A40005F936F937F938F939F93AF93BF93EF9336
:100A5000FF93E0910201F09103010995FF91EF915D
:100A6000BF91AF919F918F917F916F915F914F91C6
:100A70003F912F910F900FBE0F901F9018951F92CE
:100A80000F920FB60F9211242F933F934F935F93C2
:100A90006F937F938F939F93AF93BF93EF93FF9346
:100AA000E0910001F09101010995FF91EF91BF9153
:100AB000AF919F918F917F916F915F914F913F91F6
:100AC0002F910F900FBE0F901F9018951F920F92AD
:100AD0000FB60F9211242F933F934F935F936F9311
:100AE0007F938F939F93AF93BF93EF93FF9384E094
:100AF00092E00E945003FF91EF91BF91AF919F91BF
:100B00008F917F916F915F914F913F912F910F90B6
:100B10000FBE0F901F9018951F920F920FB60F9255
:100B200011242F938F939F93EF93FF93E0911402DF
:100B3000F09115028081E0911A02F0911B0282FD72
:100B400012C0908180911D028F5F8F7320911E02D1
:100B5000821751F0E0911D02F0E0EC5FFD4F958FA0
:100B600080931D0201C08081FF91EF919F918F9131
:100B70002F910F900FBE0F901F901895CF93DF937A
:100B8000282F30E0F901E255FF4F8491F901E65634
:100B9000FF4FD491F901EA57FF4FC491CC2391F054
:100BA00081110E94F503EC2FF0E0EE0FFF1FE458D7
:100BB000FF4FA591B491EC91ED2381E090E021F4F9
:100BC00080E002C080E090E0DF91CF9108951F9314
:100BD000CF93DF93282F30E0F901E255FF4F849146
:100BE000F901E656FF4FD491F901EA57FF4FC4913E
:100BF000CC23C1F0162F81110E94F503EC2FF0E0F9
:100C0000EE0FFF1FEE58FF4FA591B4919FB7F894D8
:100C1000111104C08C91D095D82302C0EC91DE2B29
:100C2000DC939FBFDF91CF911F910895CF93DF9306
:100C300090E0FC01E656FF4F2491FC01EA57FF4F7C
:100C40008491882361F190E0880F991FFC01E85995
:100C5000FF4FC591D491FC01EE58FF4FA591B4917F
:100C6000611109C09FB7F8948881209582238883F9
:100C7000EC912E230BC0623061F49FB7F894888109
:100C8000322F309583238883EC912E2B2C939FBF9A
:100C900006C08FB7F894E8812E2B28838FBFDF9191
:100CA000CF910895CF93C82F61E00E941606EC2FD4
:100CB000F0E0E255FF4FE491E33019F150F4E130F8
:100CC000D1F0E230E1F584B5806284BD88EC88BD66
:100CD0003BC0E73011F1E83049F1E43081F5809113
:100CE000800080628093800088EC90E090938B007D
:100CF00080938A0029C084B5806884BD88EC87BD54
:100D000023C08091800080688093800088EC90E010
:100D1000909389008093880017C08091B00080680C
:100D20008093B00088EC8093B3000EC08091B00037
:100D300080628093B00088EC8093B40005C061E0CD
:100D40008C2FCF910C94E705CF9108953FB7F8947D
:100D50008091C8029091C902A091CA02B091CB02C1
:100D600026B5A89B05C02F3F19F00196A11DB11D06
:100D70003FBFBA2FA92F982F8827820F911DA11D41
:100D8000B11DBC01CD0142E0660F771F881F991F7E
:100D90004A95D1F708951F920F920FB60F92112422
:100DA0002F933F938F939F93AF93BF938091950120
:100DB00090919601A0919701B09198013091C7024E
:100DC00023E0230F2D3720F40196A11DB11D05C08E
:100DD00026E8230F0296A11DB11D2093C702809320
:100DE000950190939601A0939701B09398018091FB
:100DF000C8029091C902A091CA02B091CB0201969B
:100E0000A11DB11D8093C8029093C902A093CA028C
:100E1000B093CB02BF91AF919F918F913F912F9152
:100E20000F900FBE0F901F901895789484B5826034
:100E300084BD84B5816084BD85B5826085BD85B57E
:100E4000816085BD80916E00816080936E001092FC
:100E50008100809181008260809381008091810077
:100E60008160809381008091800081608093800008
:100E70008091B10084608093B1008091B000816066
:100E80008093B00080917A00846080937A00809192
:100E90007A00826080937A0080917A0081608093EA
:100EA0007A0080917A00806880937A001092C10065
:100EB000E0911402F091150202E00083E09110022B
:100EC000F09111021082E0911202F091130280E180
:100ED000808310921C02E0911802F091190216E032
:100EE0001083E0911602F091170280818061808367
:100EF000E0911602F0911702808188608083E09172
:100F00001602F0911702808180688083E0911602BA
:100F1000F091170280818F7D80831092940110924E
:100F2000930110929A011092BC011092030281E089
:100F3000809302021092FD0161E082E10E94E705C8
:100F400061E083E10E94E7058091B9008E7F809384
:100F5000B9008091B9008D7F8093B90088E48093B7
:100F6000B80085E48093BC0087EB90E090939201F9
:100F70008093910188EB90E09093900180938F0192
:100F80008CE08093B8008FB7F89440919501509110
:100F9000960160919701709198018FBF61E08CE09C
:100FA0000E94160661E089E00E94160661E08DE06D
:100FB0000E94160661E088E00E94160661E08DE05E
:100FC0000E94E70560E088E00E94E7058BE00E9450
:100FD000520661E08CE00E94E70560E089E00E9433
:100FE000E70583E00E94520660E082E00E94160658
:100FF00060E083E00E94160687E791E0909301018C
:1010000080930001809169008C7F816080936900EA
:10101000E89A83EA91E09093030180930201809122
:101020006900837F846080936900E99AE0911402EB
:10103000F09115020083E0911002F09111021082EC
:10104000E0911202F09113028FEC808310921C0247
:10105000E0911802F09119021083E0911602F091CC
:101060001702808180618083E0911602F09117025F
:10107000808188608083E0911602F0911702808160
:1010800080688083E0911602F091170280818F7D45
:10109000808311E08091C502109399018093BB0178
:1010A00010929A011092BC0160E070E08091C3023E
:1010B0009091C4020E94110561E370E08091C30227
:1010C0009091C4020E94110581E00E94B504811133
:1010D0004AC061E08091C5020E947304109294019D
:1010E000809393018091C3029091C402DC01ED9141
:1010F000FC910084F185E02D0995892BA1F1809167
:10110000C3029091C402DC01ED91FC910284F3854D
:10111000E02D0995833039F50E94A6064B015C014C
:1011200085E0C82ED12CE12CF12C0E94A606DC0112
:10113000CB0188199909AA09BB09883E9340A105EA
:10114000B10598F3B1E0CB1AD108E108F10828EE17
:10115000820E23E0921EA11CB11CC114D104E10433
:10116000F10419F797CF8091C502109399018093EC
:10117000BB0110929A011092BC0160E070E0809176
:10118000C3029091C4020E94110566E970E080914B
:10119000C3029091C4020E94110581E00E94B5042F
:1011A000882319F0C12CD12C32C062E08091C50295
:1011B0000E94730410929401809393018091C30262
:1011C0009091C402DC01ED91FC910084F185E02D49
:1011D0000995892B39F38091C3029091C402DC01F7
:1011E000ED91FC910284F385E02D0995082F809103
:1011F000C3029091C402DC01ED91FC910284F3855D
:10120000E02D0995D02FB0E0CB2F6E01C82A89E3DD
:1012100091E00E9420040D2C000CEE08FF08F7FE60
:101220000EC06DE284E092E00E9472036627772789
:10123000CB016C197D098E099F094AE003C04AE081
:10124000C701B6010E9432040E94EB0323CF8DEA4E
:1012500092E00C94FB02E4E0F2E01382128288EE4A
:1012600093E0A0E0B0E084839583A683B7832EE06B
:1012700031E03183208325EC30E03587248724EC6E
:1012800030E03787268720EC30E0318B208B21EC53
:1012900030E0338B228B22EC30E0358B248B26EC34
:1012A00030E0378B268B118E128E138E148EE1EA6E
:1012B000F2E01382128284839583A683B78380E24F
:1012C00091E0918380831092C602EDEAF2E082E31E
:1012D00091E0918380831382128215821482118699
:1012E00010868FEF9FEF97838683128A138A148A62
:1012F000158A16861786108A118A12861386148616
:1013000015860895A1E21A2EAA1BBB1BFD010DC074
:10131000AA1FBB1FEE1FFF1FA217B307E407F507A5
:1013200020F0A21BB30BE40BF50B661F771F881F81
:10133000991F1A9469F760957095809590959B0117
:10134000AC01BD01CF010895EE0FFF1F0590F49190
:10135000E02D09940F931F93CF93DF938230910573
:1013600010F482E090E0E091CE02F091CF0220E014
:1013700030E0A0E0B0E0309719F140815181028166
:10138000138148175907C8F08417950769F4109717
:1013900031F012960C93129713961C9327C000936A
:1013A000CE021093CF0222C02115310519F0421749
:1013B000530718F49A01BD01EF01DF01F801DBCFFB
:1013C00021153105F9F0281B390B2430310580F443
:1013D0008A819B816115710521F0FB0193838283D2
:1013E00004C09093CF028093CE02FE01329644C097
:1013F000FE01E20FF31F819391932250310939834B
:1014000028833AC02091CC023091CD02232B41F4A5
:1014100020910601309107013093CD022093CC0238
:1014200020910401309105012115310541F42DB7BA
:101430003EB74091080150910901241B350BE09102
:10144000CC02F091CD02E217F307A0F42E1B3F0B64
:101450002817390778F0AC014E5F5F4F2417350726
:1014600048F04E0F5F1F5093CD024093CC02819302
:10147000919302C0E0E0F0E0CF01DF91CF911F91A6
:101480000F910895CF93DF93009709F481C0FC0179
:10149000329713821282A091CE02B091CF021097A0
:1014A00081F420813181820F931F2091CC023091F1
:1014B000CD022817390751F5F093CD02E093CC0205
:1014C00067C0ED0120E030E0CE17DF0740F44A812D
:1014D0005B819E0141155105F1F0EA01F5CFD383FF
:1014E000C28340815181840F951FC817D90759F4D1
:1014F00088819981840F951F0296918380838A81C8
:101500009B81938382832115310529F4F093CF02C7
:10151000E093CE023DC0E901FB83EA8349915991F2
:10152000C40FD51FEC17FD0761F480819181840FF2
:10153000951F0296E90199838883828193819B8319
:101540008A83E0E0F0E012968D919C9113970097CA
:1015500019F0FD01DC01F7CF8D919C9111979D0150
:101560002E5F3F4F820F931F2091CC023091CD020E
:101570002817390769F4309729F41092CF02109296
:10158000CE0202C013821282B093CD02A093CC028D
:10159000DF91CF91089581E090E0F8940C94D00A07
:1015A00010E0C2E6D0E004C0FE010E94A40921962A
:0A15B000C336D107C9F7F894FFCF46
:1015BA00120312030000D002800000000000720330
:1015CA008D001303BF034403220336030000000007
:1015DA0048011B01E600B900DD00C900BA0000009D
:1015EA000000FB0208030D0A0044697374616E630C
:0815FA0065286D6D293A2000FF
:00000001FF
