:100000000C94E0000C9408010C9408010C94280650
:100010000C9428060C9428060C9408010C940801F2
:100020000C9408010C9408010C9408010C9408012C
:100030000C9408010C9408010C9408010C9408011C
:100040000C9445030C9408010C9409020C94E301F0
:100050000C9408010C9408010C9408010C940801FC
:100060000C9432060C94080100407A10F35A00A058
:10007000724E18090010A5D4E80000E87648170071
:1000800000E40B54020000CA9A3B000000E1F505B1
:10009000000080969800000040420F000000A086FB
:1000A00001000000102700000000E803000000002D
:1000B0006400000000000A000000000001000000D1
:1000C00000002C76D888DC674F0823DFC1DFAE59EB
:1000D000E1B1B796E5E3E453C63AE651997696E87E
:1000E000E6C28426EB898C9B62ED407C6FFCEFBC02
:1000F0009C9F40F2BAA56FA5F490055A2AF75C932D
:100100006B6CF9676DC11BFCE0E40D47FEF520E662
:10011000B500D0ED902E0300943577050080841E45
:10012000080000204E0A000000C80C333333330FA0
:10013000986E12831141EF8D2114893BE65516CF3D
:10014000FEE6DB18D1844B381BF77C1D901DA4BB49
:10015000E424203284725E228100C9F124ECA1E5FE
:100160003D2700000000240027002A0000000000B6
:10017000250028002B0000000008000201000003F9
:100180000407000000000000000000000000230041
:1001900026002900040404040404040402020202E8
:1001A000020203030303030301020408102040803A
:1001B0000102040810200102040810205A0B290B28
:1001C00011241FBECFEFD8E0DEBFCDBF23E0AEE9E4
:1001D000B1E001C01D92AD32B207E1F711E0A0E03D
:1001E000B1E0E6EEF4E202C005900D92AE39B1073F
:1001F000D9F710E0CFEDD0E004C02197FE010E94B6
:100200006410CE3DD107C9F70E94D4090C94661240
:100210000C9400003FB7F89480913B0290913C020F
:10022000A0913D02B0913E0226B5A89B05C02F3F8C
:1002300019F00196A11DB11D3FBFBA2FA92F982F0C
:100240008827820F911DA11DB11DBC01CD0142E087
:10025000660F771F881F991F4A95D1F70895CF928F
:10026000DF92EF92FF920F931F93CF93DF936C0176
:100270007A018B01C0E0D0E0CE15DF0581F0D80116
:100280006D918D01D601ED91FC910190F081E02DF1
:10029000C6010995892B11F02196EECF7E01C70189
:1002A000DF91CF911F910F91FF90EF90DF90CF9052
:1002B00008950895089508950895E0913102809178
:1002C0003002E81730F4F0E0EB5FFD4F808190E002
:1002D00008958FEF9FEF0895909131028091300241
:1002E000981750F4E92FF0E0EB5FFD4F208130E0EC
:1002F0009F5F9093310202C02FEF3FEFC901089535
:100300008091300290E020913102821B9109089582
:1003100080E090E0089585ED8093BC008091BC0062
:1003200084FDFCCF10922D0208954091BE01262F2E
:1003300030E0240F311D21323105DCF420912D02F3
:100340002430C9F4FC0180E090E0861758F4309125
:10035000BE012191DC01A256BE4FA30FB11D2C930B
:100360000196F3CF8091BE01680F6093BE0180E0DB
:10037000089581E0089582E00895CF93DF93CB0143
:10038000EA01642F0E949501CE01DF91CF9108957B
:10039000CF93DF931F92CDB7DEB7698361E0CE01C3
:1003A00001960E94950181E090E00F90DF91CF913E
:1003B00008958FE392E00E94A80721E0892B09F4B9
:1003C00020E0822F08951F920F920FB60F921124F2
:1003D0002F933F934F935F936F937F938F939F934D
:1003E000AF93BF93EF93FF938FE392E00E94FE08D9
:1003F000FF91EF91BF91AF919F918F917F916F91FD
:100400005F914F913F912F910F900FBE0F901F90D2
:1004100018951F920F920FB60F9211242F938F935E
:100420009F93EF93FF93E0914F02F09150028081F0
:10043000E0915502F091560282FD12C090818091A8
:1004400058028F5F8F7320915902821751F0E0910B
:100450005802F0E0E15CFD4F958F8093580201C097
:100460008081FF91EF919F918F912F910F900FBEFF
:100470000F901F90189590E0FC01EA58FE4F2491D0
:10048000FC01E855FE4F3491FC01EC56FE4FE4911F
:10049000EE2309F43CC0222339F1233091F038F4E3
:1004A0002130A9F0223001F584B58F7D12C02730AC
:1004B00091F02830A1F02430B9F4809180008F7D34
:1004C00003C0809180008F77809380000DC084B539
:1004D0008F7784BD09C08091B0008F7703C0809171
:1004E000B0008F7D8093B000F0E0EE0FFF1FE45965
:1004F000FE4FA591B4919FB7F894611104C08C91FF
:100500003095382302C0EC913E2B3C939FBF089559
:10051000CF93DF9390E0FC01E855FE4F2491FC015E
:10052000EC56FE4F8491882361F190E0880F991F6B
:10053000FC01EE59FE4FC591D491FC01E459FE4FE8
:10054000A591B491611109C09FB7F8948881209555
:1005500082238883EC912E230BC0623061F49FB715
:10056000F8948881322F309583238883EC912E2B49
:100570002C939FBF06C08FB7F894E8812E2B288359
:100580008FBFDF91CF9108951F93CF93DF93182FE3
:10059000EB0161E00E948802209711F460E004C042
:1005A000CF3FD10539F461E0812FDF91CF911F91C9
:1005B0000C943B02E12FF0E0EA58FE4FE491E33067
:1005C000F9F048F4E130B9F0E230A1F584B5806289
:1005D00084BDC8BD34C0E730E9F0E83019F1E4303B
:1005E00049F580918000806280938000D0938B00D9
:1005F000C0938A0024C084B5806884BDC7BD1FC075
:1006000080918000806880938000D0938900C0939F
:10061000880015C08091B00080688093B000C093BE
:10062000B3000DC08091B00080628093B000C09391
:10063000B40005C0C038D1050CF0B5CFAFCFDF9105
:10064000CF911F910895CF93DF93EB01682F8CE03A
:100650000E943B0260E089E00E943B02BE0183E011
:10066000DF91CF910C94C402CF93DF93EB01682FFD
:100670008DE00E943B0260E088E00E943B02BE01E8
:100680008BE0DF91CF910C94C4021F920F920FB6B2
:100690000F9211242F933F938F939F93AF93BF9308
:1006A0008091370290913802A0913902B0913A02BC
:1006B0003091360223E0230F2D3720F40196A11D3F
:1006C000B11D05C026E8230F0296A11DB11D209380
:1006D00036028093370290933802A0933902B09388
:1006E0003A0280913B0290913C02A0913D02B09170
:1006F0003E020196A11DB11D80933B0290933C02E6
:10070000A0933D02B0933E02BF91AF919F918F9114
:100710003F912F910F900FBE0F901F9018950F9340
:100720001F93CF93DF93EC0188819981009729F083
:100730002A813B812617370788F48B016F5F7F4F33
:100740000E948B11009761F0998388831B830A8331
:100750002C813D81232B11F4FC01108281E001C02A
:1007600080E0DF91CF911F910F910895CF93DF9398
:10077000EC0188819981009711F00E940211198281
:1007800018821D821C821B821A82DF91CF910895EC
:10079000EF92FF920F931F93CF93DF93EC017B01B6
:1007A0008A01BA010E948F03811104C0CE010E9408
:1007B000B60307C01D830C83B701888199810E940D
:1007C0005F12CE01DF91CF911F910F91FF90EF90BB
:1007D0000895CF93DF93EC016115710559F0FB018A
:1007E00001900020E9F73197AF01461B570B0E949B
:1007F000C80302C00E94B603CE01DF91CF910895D5
:10080000CF93DF93EC01FB018617970761F06081BE
:1008100071816115710529F0448155810E94C803D9
:1008200002C00E94B603CE01DF91CF910895FC0172
:100830001182108213821282158214826115710551
:1008400051F0FB0101900020E9F73197AF01461B01
:10085000570B0C94C80308952F923F924F925F92CA
:100860006F927F928F929F92AF92BF92CF92DF92C0
:10087000EF92FF920F931F93CF93DF93CDB7DEB725
:10088000AC970FB6F894DEBF0FBECDBF8C011B0135
:1008900060E070E081E090E00E94340361E088E075
:1008A0000E943B0260E070E081E090E00E94230340
:1008B00061E089E00E943B02C8010E94C0074B0131
:1008C0005C01C1010E94C0072B013C01AB01BC01CE
:1008D000CE0149960E94CE08B501A401CE014396EF
:1008E0000E94CE0862E371E0CE0101960E941704D7
:1008F000BE016D5E7F4FCE0101960E9477080E9477
:10090000AA08BE01675E7F4F0E9477081EA21DA243
:1009100018A61FA21AA619A6BC01CE0185960E9490
:100920000004CE0101960E945908CE0143960E9410
:100930005908CE0149960E945908CE0185960E9419
:100940005E08A3019201C501B4010E94800F6B01F2
:100950007C0120E030E0A9010E945F10B701A601F0
:1009600018160CF07058CE0143960E94CE086DE325
:1009700071E0CE0101960E941704BE016D5E7F4FAB
:10098000CE0101960E947708BC01CE0185960E9497
:100990000004CE0101960E945908CE0143960E94A0
:1009A0005908CE0185960E945E0820E030E0A9013A
:1009B000C701B6010E945F10181624F0C701B601E6
:1009C000905802C0C701B6011C8A1B8A1E8A1D8A64
:1009D000188E1F8A20E030E040E05FE30E94800F25
:1009E00021E030E03CA72BA720E030E0A9010E94E5
:1009F0005F10181614F01CA61BA64AE0BE016F5F1C
:100A00007F4F8BA59CA50E94300CBE016F5F7F4F6E
:100A1000CE0143960E94E9038DA19EA1009741F06B
:100A20006B897C896115710509F003C10E9402116F
:100A30008B899C899EA38DA38D899E8998A78FA35E
:100A40008F89988D9AA789A71C8A1B8A1E8A1D8A5E
:100A5000188E1F8ACE0143960E945908CE018596B2
:100A60000E945E0820E030E0A901C701B6010E94A3
:100A70005F10181624F0F7FAF094F7F8F09420E0DD
:100A800030E040E05FE3C701B6010E94800F20E044
:100A900030E0A9010E945F1018160CF093C0A3016A
:100AA0009201C501B4010E945F106CE370E018165A
:100AB0006CF480E090E00E9434036CE370E081E02D
:100AC00090E00E94230369E571E00CC081E090E0B2
:100AD0000E9434036CE370E080E090E00E94230306
:100AE00064E671E0CE0185960E94E903CE01859609
:100AF0000E945E08C8010E94C0076B017C01C10111
:100B00000E94C0074B015C01AB01BC01CE014F96B6
:100B10000E94CE08B701A601CE0149960E94CE08D8
:100B200062E371E0CE0143960E941704BE01675E46
:100B30007F4FCE0143960E9477080E94AA08BE010B
:100B4000615E7F4F0E9477081A8219821C821B8285
:100B50001E821D82BC01CE0101960E940004CE01BE
:100B600043960E945908CE0149960E945908CE0129
:100B70004F960E945908CE0101960E945E08CE0150
:100B800001960E945908A5019401C701B6010E946F
:100B9000800F6B017C0120E030E0A9010E945F1012
:100BA000181624F0F7FAF094F7F8F09420E030E00B
:100BB00040E05FE3C701B6010E945F1018160CF415
:100BC00099CF1AC06EE671E0CE0101960E9417041B
:100BD000CE0101960E945E086CE370E081E090E037
:100BE0000E9434036CE370E081E090E00E942303F4
:100BF000CE0101960E945908CE0185960E9459089F
:100C0000AC960FB6F894DEBF0FBECDBFDF91CF918B
:100C10001F910F91FF90EF90DF90CF90BF90AF901A
:100C20009F908F907F906F905F904F903F902F900C
:100C300008954FA158A52F89388D4217530708F4FE
:100C4000F5CE0E945F128F89988D9AA789A700CF51
:100C50001F920F920FB60F9211240F900FBE0F909C
:100C60001F9018951F920F920FB60F9211242F9379
:100C70003F934F935F936F937F938F939F93AF9324
:100C8000BF93EF93FF938091B900887F803609F47A
:100C90009CC068F5883209F45BC090F4803109F497
:100CA00054C038F4882309F4F6C0883009F44DC0E4
:100CB000F6C0883109F44CC0803209F45DC0EFC041
:100CC000803409F468C048F4803309F455C088338F
:100CD00009F0E5C08093E101D8C0803509F44FC028
:100CE000883509F45DC0883409F0D9C0D6C0883988
:100CF00009F4C7C0A8F4883709F467C038F4883607
:100D000009F463C0803709F460C0C9C0883809F4A9
:100D1000B8C0803909F45FC0803809F0C0C05BC03A
:100D2000803B09F486C038F4803A09F466C0883AFA
:100D300009F47FC0B4C0803C09F4A7C0883C09F422
:100D4000A4C0883B09F48AC0AAC08091040210C0E4
:100D50009091030280910202981770F5E0910302CE
:100D600081E08E0F80930302F0E0EE51FE4F808110
:100D70008093BB0085EC86C08093E1018EC0E0913A
:100D8000030281E08E0F809303028091BB00F0E0AC
:100D9000EE51FE4F808390910302809102026EC05B
:100DA000E091030281E08E0F809303028091BB00EB
:100DB000F0E0EE51FE4F808380912C0281116DC0D6
:100DC00081E080932B0284EA61C083E080932D024E
:100DD0001092E001CFCF8091E001803208F051C045
:100DE000E091E00181E08E0F8093E0018091BB00F3
:100DF000F0E0E054FE4F8083BDCF85EC8093BC00D3
:100E000010922D028091E001803230F4E091E001F7
:100E1000F0E0E054FE4F10826091E00170E0E0915C
:100E20002702F091280280EC91E009951092E001F0
:100E300036C084E080932D021092BF011092BE0153
:100E4000E0912902F0912A0209958091BE01811159
:100E500005C081E08093BE0110929E01E091BF0128
:100E600081E08E0F8093BF01F0E0E256FE4F80815B
:100E70008093BB009091BF018091BE01981708F448
:100E800079CF85E88093BC000AC085EC8093BC00D4
:100E900010922D0204C01092E1010E948B01FF917B
:100EA000EF91BF91AF919F918F917F916F915F91E2
:100EB0004F913F912F910F900FBE0F901F9018955B
:100EC000CF93DF93EC018C819D810E9402118A8176
:100ED0009B81DF91CF910C940211CF93DF93EC01B2
:100EE0000E946007CE01DF91CF910C940211FC01AA
:100EF000538D448D252F30E0842F90E0821B930B7F
:100F0000541710F0CF96089501970895FC01918D24
:100F1000828D981761F0828DDF01A80FB11D5D965B
:100F20008C91928D9F5F9F73928F90E008958FEFC9
:100F30009FEF0895FC01918D828D981731F0828D7D
:100F4000E80FF11D858D90E008958FEF9FEF0895D4
:100F5000FC01918D228D892F90E0805C9F4F821B38
:100F600091098F739927089580E090E0892B29F0EB
:100F70000E94D90181110C94000008950E94511221
:100F80004F925F926F927F92AF92BF92CF92DF9219
:100F9000EF92FF920F931F93CF93DF93EC012AE020
:100FA000E22EF12C412C512C320133E0C32ED12CF6
:100FB00043E2A42EB12C61E088810E94880260E0A7
:100FC00088810E943B02C6010197F1F761E08881A8
:100FD0000E943B02C5010197F1F760E088810E9401
:100FE0003B0260E089810E948802898190E0FC01D7
:100FF000E855FE4F6491FC01EC56FE4FE491F0E0A1
:10100000EE0FFF1FE657FE4F859194910A811B81D9
:101010002C813D813F70462F0E948F09611571051B
:101020008105910539F0DC01CB010196A11DB11DAF
:10103000BF7003C080E090E0DC01009741F0BC018C
:1010400097FF02C06F5F7F4F7595679502C060E0A4
:1010500070E0072E000C880B990B0E94990E2DEC66
:101060003CEC48EE51E40E94ED0F9B01AC01C30142
:10107000B2010E94810F2B013C0181E0E81AF108C6
:1010800009F099CF20E030E040E251E4C301B20121
:101090000E94ED0FDF91CF911F910F91FF90EF9084
:1010A000DF90CF90BF90AF907F906F905F904F9008
:1010B0000895FC01808191810C940211CF93DF93FC
:1010C000FC0144815581608171818FE392E00E942F
:1010D0002F01EC0142E050E06FE871E08FE392E015
:1010E0000E942F018C0F9D1FDF91CF910895EF92E9
:1010F000FF920F931F93CF93DF93EC01FB010481C9
:101100001581E080F180E114F104C9F001151105A9
:10111000C9F08C819D81080F191FB801CE010E9472
:101120008F03882361F0288139818C819D81B701EB
:10113000820F931F0E945F121D830C8303C0CE0198
:101140000E94B603CE01DF91CF911F910F91FF90C6
:10115000EF9008950F931F93CF93DF93EC010C81D1
:101160001D81055F1F4FB8010E948F03882369F01E
:10117000288139818C819D8162E971E0820F931F02
:101180000E945F121D830C8303C0CE010E94B60330
:10119000CE01DF91CF911F910F910895EF92FF92B1
:1011A0000F931F93CF93DF93CDB7DEB7A1970FB601
:1011B000F894DEBF0FBECDBF7C01CB01BA01F701B1
:1011C0001182108213821282158214828E010F5FA7
:1011D0001F4F22E044E00E94100CBC01C7010E9496
:1011E000E903A1960FB6F894DEBF0FBECDBFDF9125
:1011F000CF911F910F91FF90EF900895FC01848D86
:10120000DF01A80FB11DA35ABF4F2C91848D90E030
:1012100001968F739927848FA689B7892C93A0890B
:10122000B1898C91837080648C93938D848D981395
:1012300006C00288F389E02D80818F7D8083089528
:10124000EF92FF920F931F93CF93DF93EC0181E016
:10125000888F9B8D8C8D981305C0E889F9898081D2
:1012600085FD26C0F62E0B8D10E00F5F1F4F0F730C
:101270001127E02E8C8DE8120CC00FB607FCFACFB8
:10128000E889F989808185FFF5CFCE010E94FE08AB
:10129000F1CF8B8DFE01E80FF11DE35AFF4FF08275
:1012A0009FB7F8940B8FEA89FB89808180620AC01E
:1012B0009FB7F894EE89FF896083E889F989808176
:1012C0008370806480839FBF81E090E0DF91CF9145
:1012D0001F910F91FF90EF900895CF93DF93EC0152
:1012E000888D8823C9F0EA89FB89808185FD05C046
:1012F000A889B9898C9186FD0FC00FB607FCF5CF80
:10130000808185FFF2CFA889B9898C9185FFEDCFC7
:10131000CE010E94FE08E7CFDF91CF910895CF92D2
:10132000DF92EF92FF920F931F93E82FF92F05C0E2
:10133000015011092109310961F190819623941717
:10134000B9F305C0015011092109310911F190814A
:1013500096239413F7CFC12CD12CE12CF12C0AC089
:101360008FEFC81AD80AE80AF80A0C151D052E05D1
:101370003F0579F080818623841791F36C2D7D2DB4
:101380008E2D9F2D1F910F91FF90EF90DF90CF90AA
:10139000089560E070E080E090E01F910F91FF9071
:1013A000EF90DF90CF900895CF93DF9300D000D0DF
:1013B00000D0CDB7DEB7789484B5826084BD84B5A3
:1013C000816084BD85B5826085BD85B5816085BD40
:1013D00080916E00816080936E00109281008091F8
:1013E0008100826080938100809181008160809380
:1013F0008100809180008160809380008091B100A5
:1014000084608093B1008091B00081608093B000CF
:1014100080917A00846080937A0080917A00826063
:1014200080937A0080917A00816080937A00809125
:101430007A00806880937A001092C100E0914F0298
:10144000F091500292E0F92EF082E0914B02F0917F
:101450004C021082E0914D02F0914E0280E18083B7
:1014600010925702E0915302F091540286E080837B
:10147000E0915102F0915202808180618083E0917D
:101480005102F0915202808188608083E091510284
:10149000F0915202808180688083E0915102F09146
:1014A000520280818F7D808310923102109230022F
:1014B00010922F0210922E0210922D0281E0809342
:1014C0002C0210922B0261E082E10E943B0261E05B
:1014D00083E10E943B028091B9008E7F8093B90026
:1014E0008091B9008D7F8093B90088E48093B80023
:1014F00085E48093BC0089E591E090932A02809373
:1015000029028AE591E090932802809327028CE0DB
:101510008093B80086E090E00E946A108C018AE017
:10152000F801808387E0818328E8822E23E1922ED0
:10153000A12CB12C82829382A482B58261E08AE0E0
:101540000E94880260E087E00E94880210933302C4
:101550000093320286E090E00E946A108C0184E0E1
:10156000F8018083F18282829382A482B58261E055
:101570000E94880260E082E00E9488021093350297
:10158000009334028FB7F89440913702509138029B
:101590006091390270913A028FBF61E08CE00E9445
:1015A000880261E089E00E94880261E08DE00E948B
:1015B000880261E088E00E9488026EE771E0CE0157
:1015C00001960E941704CE0101960E945E08609168
:1015D00034027091350280913202909133020E9460
:1015E0002C04CE0101960E9459080E940A014B0169
:1015F0005C0188EEC82E83E0D82EE12CF12C0E94ED
:101600000A01DC01CB0188199909AA09BB09883EA6
:101610009340A105B10598F3F1E0CF1AD108E10894
:10162000F10828EE820E23E0921EA11CB11CC11409
:10163000D104E104F10419F760913402709135028C
:1016400080913202909133020E942C040E94B407D0
:10165000CCCF88EE92E00C946007CF93DF9360E0EC
:101660008CE00E943B0260E088E00E943B02C7E001
:10167000D0E060E084E00E943B028091FE0290E0B6
:101680000C2E02C0959587950A94E2F780FF02C060
:1016900061E001C060E088E00E943B0261E084E01C
:1016A0000E943B02219728F761E08CE0DF91CF9107
:1016B0000C943B02CF93EFE3F2E01382128288EEA8
:1016C00093E0A0E0B0E084839583A683B7832AE00B
:1016D00031E03183208325EC30E03587248724EC0A
:1016E00030E03787268720EC30E0318B208B21ECEF
:1016F00030E0338B228B22EC30E0358B248B26ECD0
:1017000030E0378B268B118E128E138E148EECEDFB
:10171000F2E01382128284839583A683B7838CE1DF
:1017200091E091838083E3E0F3E089E2868B108E81
:10173000178A118E10A211A212A283E090E094A346
:1017400083A3E8EEF2E08EE291E09183808313823E
:10175000128215821482118610868FEF9FEF978375
:101760008683128A138A148A158A16861786108A27
:10177000118A1286138614861586E1E0F3E084E070
:101780008083C2E0C18361E08CE00E94880261E056
:1017900087E00E94880261E088E00E94880261E0A0
:1017A00084E00E9488021092FE020E942D0B60E0ED
:1017B00087E00E943B020E942D0B84B5836284BDAA
:1017C00018BC61E085E00E948802EFEFF2E083E060
:1017D0008083C18361E08CE00E94880261E087E041
:1017E0000E94880261E088E00E94880261E084E053
:1017F0000E9488021092FE020E942D0B60E087E09A
:101800000E943B020E942D0B84B5836884BD17BCE7
:1018100061E086E00E94880210922803CF9108952B
:10182000EF920F931F93CF93DF93E80147FD02C020
:1018300034E001C034E1042E000C550B57FF03C007
:10184000519541955109E32E022F242FAE010E949C
:10185000550CCE01DF91CF911F910F91EF9008951C
:10186000BB274A3031F4992322F4BDE2909581954B
:101870009F4F0C943C0CBB27FB015527AA27880FD0
:10188000991FAA1FA41710F0A41B83955051B9F7F4
:10189000A05DAA3308F0A95DA193009779F7B11173
:1018A000B1931192CB010C94870EA9E0B0E0EBE567
:1018B000FCE00C944F0F6A01122FB02E2BE320177F
:1018C00020F0FF24F394F00E02C02CE3F22E0F2D33
:1018D00027E0AE014F5F5F4F0E94AF0DBC01498111
:1018E000842F8970813031F0E1FC06C0E0FE06C033
:1018F00090E205C09DE203C09BE201C090E05E2D36
:10190000507143FF3CC0911102C083E001C084E0EC
:10191000811718F4212F281B01C020E051110BC0A2
:10192000F601822F30E2882319F031938150FBCFEA
:10193000C20ED11C20E0992329F0D6019C93F60118
:1019400031966F01C6010396E2FE0AC03EE4D6015D
:101950003C9341E411964C93119712963C9306C028
:101960003EE6F601308341E641833283FC01322FAB
:1019700040E2332309F442C041933150FACF42FF91
:1019800044C0911102C083E001C084E0811718F4C3
:10199000212F281B01C020E051110BC0F601822F1E
:1019A00030E2882319F031938150FBCFC20ED11C55
:1019B00020E0992329F0D6019C93F60131966F011E
:1019C000C6010396E2FE0BC039E4D6013C933EE427
:1019D00011963C93119736E412963C9307C039E672
:1019E000F60130833EE6318336E63283FC01322F46
:1019F00040E2332319F041933150FBCFFC01E20F59
:101A0000F11D10828EEF9FEFA6C021E030E0911112
:101A100002C020E030E0161617061CF4FB013196D8
:101A200002C0E1E0F0E02E0F3F1FBB2021F0EB2DC4
:101A3000F0E0319602C0E0E0F0E02E0F3F1FE12F12
:101A4000F0E02E173F071CF4121B212F01C020E0ED
:101A50008E2D887159F4F601822F30E2882319F017
:101A600031938150FBCFC20ED11C20E0992329F085
:101A7000D6019C93F60131966F0151110BC0F6010E
:101A8000822F90E3882319F091938150FBCFC20EEF
:101A9000D11C20E00F2D060F9A81342F307144FFA6
:101AA00003C0913309F40150101624F4093018F0E2
:101AB00008E001C001E0AB0177FF02C040E050E068
:101AC000FB01E41BF50BA1E0B0E0AC0FBD1FEA0F7A
:101AD000FB1F8EE2A82E4B01801A91080B2D10E0FF
:101AE0001195019511094F3FBFEF5B0721F4D60116
:101AF000AC9211966D01641775072CF0841695064B
:101B000014F4818101C080E3415051093196D6011E
:101B100011967D014017510724F0D6018C9367017F
:101B2000E2CF6417750739F4963320F4953319F42E
:101B3000311101C081E3F6018083F701822F90E229
:101B4000882319F091938150FBCFF701E20FF11D2B
:101B5000108280E090E02996ECE00C946B0F283026
:101B600008F027E03327DA01990F311D87FD9160D6
:101B700000966105710539F432602E5F3D9330E3C4
:101B80002A95E1F708959F3F30F08038710561058F
:101B900009F03C5F3C5F3D93913008F08068911DF7
:101BA000DF93CF931F930F93FF92EF92192F987F9C
:101BB0009695E92F96959695E90FFF27EE53FF4FDF
:101BC00099273327EE24FF24A701E7010590089405
:101BD000079428F4360FE71EF81E491F511D660FA3
:101BE000771F881F991F0694A1F70590079428F482
:101BF000E70EF81E491F561FC11D770F881F991F3A
:101C0000661F0694A1F70590079428F4F80E491F63
:101C1000561FC71FD11D880F991F661F771F069477
:101C2000A1F70590079420F4490F561FC71FD81F2E
:101C3000990F661F771F881F0694A9F78491109546
:101C4000177041F0D695C79557954795F794E79447
:101C50001A95C1F7E8E6F0E0689415901591359172
:101C60006591959105907FE27395E118F10A430B18
:101C7000560BC90BD009C0F7E10CF11E431F561FCC
:101C8000C91FD01D7EF4703311F48A95E6CFE89415
:101C9000015030F0080F0AF40027021708F4202F33
:101CA0002395022F7A3328F079E37D932A95E9F77B
:101CB00010C07D932A9589F6069497956795379578
:101CC00017951794E118F10A430B560BC90BD0096D
:101CD00098F023957E9173957A3308F070E37C93A6
:101CE0002013B8F77E9170617D9330F0839571E396
:101CF0007D9370E32A95E1F71124EF90FF900F9107
:101D00001F91CF91DF91992787FD90950895DC0170
:101D1000FC01672F71917723E1F7329704C07C9122
:101D20006D9370836291AE17BF07C8F30895E8946E
:101D300009C097FB3EF490958095709561957F4F13
:101D40008F4F9F4F9923A9F0F92F96E9BB279395C1
:101D5000F695879577956795B795F111F8CFFAF4D1
:101D6000BB0F11F460FF1BC06F5F7F4F8F4F9F4F02
:101D700016C0882311F096E911C0772321F09EE860
:101D8000872F762F05C0662371F096E8862F70E0C6
:101D900060E02AF09A95660F771F881FDAF7880FA0
:101DA0009695879597F90895990F0008550FAA0BF6
:101DB000E0E8FEEF16161706E807F907C0F012165E
:101DC0001306E407F50798F0621B730B840B950B61
:101DD00039F40A2661F0232B242B252B21F40895B6
:101DE0000A2609F4A140A6958FEF811D811D089553
:101DF00097F99F6780E870E060E008959FEF80ECBE
:101E0000089500240A941616170618060906089560
:101E100000240A9412161306140605060895092EC6
:101E20000394000C11F4882352F0BB0F40F4BF2B35
:101E300011F460FF04C06F5F7F4F8F4F9F4F089575
:101E400057FD9058440F551F59F05F3F71F047956B
:101E5000880F97FB991F61F09F3F79F08795089550
:101E6000121613061406551FF2CF4695F1DF08C06F
:101E7000161617061806991FF1CF8695710561058C
:101E800008940895E894BB2766277727CB0197F934
:101E900008952F923F924F925F926F927F928F920E
:101EA0009F92AF92BF92CF92DF92EF92FF920F93E9
:101EB0001F93CF93DF93CDB7DEB7CA1BDB0B0FB6F3
:101EC000F894DEBF0FBECDBF09942A8839884888B0
:101ED0005F846E847D848C849B84AA84B984C88446
:101EE000DF80EE80FD800C811B81AA81B981CE0F3D
:101EF000D11D0FB6F894DEBF0FBECDBFED01089522
:101F00005058BB27AA270E94980F0C940F0F0E94CD
:101F1000010F38F00E94080F20F039F49F3F19F4A8
:101F200026F40C94FE0E0EF4E095E7FB0C94F80EEC
:101F3000E92F0E94200F58F3BA176207730784072E
:101F4000950720F079F4A6F50C94420F0EF4E09575
:101F50000B2EBA2FA02D0B01B90190010C01CA0163
:101F6000A0011124FF27591B99F0593F50F4503E0E
:101F700068F11A16F040A22F232F342F4427585F00
:101F8000F3CF469537952795A795F0405395C9F718
:101F90007EF41F16BA0B620B730B840BBAF09150D0
:101FA000A1F0FF0FBB1F661F771F881FC2F70EC06F
:101FB000BA0F621F731F841F48F487957795679542
:101FC000B795F7959E3F08F0B0CF9395880F08F02E
:101FD0009927EE0F9795879508950E9401100C940C
:101FE0000F0F0E94080F58F00E94010F40F029F4D3
:101FF0005F3F29F00C94F80E51110C94430F0C9490
:10200000FE0E0E94200F68F39923B1F3552391F33C
:10201000951B550BBB27AA2762177307840738F057
:102020009F5F5F4F220F331F441FAA1FA9F335D0B4
:102030000E2E3AF0E0E832D091505040E695001C68
:10204000CAF72BD0FE2F29D0660F771F881FBB1F22
:10205000261737074807AB07B0E809F0BB0B802D00
:10206000BF01FF2793585F4F3AF09E3F510578F02C
:102070000C94F80E0C94430F5F3FE4F3983ED4F3B6
:10208000869577956795B795F7959F5FC9F7880F00
:10209000911D9695879597F90895E1E0660F771F52
:1020A000881FBB1F621773078407BA0720F0621BE3
:1020B000730B840BBA0BEE1F88F7E09508950E940E
:1020C000D40E08F48FEF0895EE0FFF1F0590F491E2
:1020D000E02D09940F931F93CF93DF9382309105E6
:1020E00010F482E090E0E0912B03F0912C0320E0CB
:1020F00030E0A0E0B0E0309719F1408151810281D9
:10210000138148175907C8F08417950769F4109789
:1021100031F012960C93129713961C9327C00093DC
:102120002B0310932C0322C02115310519F04217FF
:10213000530718F49A01BD01EF01DF01F801DBCF6D
:1021400021153105F9F0281B390B2430310580F4B5
:102150008A819B816115710521F0FB019383828344
:1021600004C090932C0380932B03FE01329644C04D
:10217000FE01E20FF31F81939193225031093983BD
:1021800028833AC02091290330912A03232B41F45C
:10219000209102013091030130932A0320932903F7
:1021A00020910001309101012115310541F42DB735
:1021B0003EB74091040150910501241B350BE0917D
:1021C0002903F0912A03E217F307A0F42E1B3F0B1B
:1021D0002817390778F0AC014E5F5F4F2417350799
:1021E00048F04E0F5F1F50932A03409329038193B9
:1021F000919302C0E0E0F0E0CF01DF91CF911F9119
:102200000F910895CF93DF93009709F481C0FC01EB
:10221000329713821282A0912B03B0912C03109756
:1022200081F420813181820F931F20912903309105
:102230002A032817390751F5F0932A03E09329035D
:1022400067C0ED0120E030E0CE17DF0740F44A819F
:102250005B819E0141155105F1F0EA01F5CFD38371
:10226000C28340815181840F951FC817D90759F443
:1022700088819981840F951F0296918380838A813A
:102280009B81938382832115310529F4F0932C03DC
:10229000E0932B033DC0E901FB83EA834991599107
:1022A000C40FD51FEC17FD0761F480819181840F65
:1022B000951F0296E90199838883828193819B838C
:1022C0008A83E0E0F0E012968D919C91139700973D
:1022D00019F0FD01DC01F7CF8D919C9111979D01C3
:1022E0002E5F3F4F820F931F2091290330912A03C5
:1022F0002817390769F4309729F410922C031092AB
:102300002B0302C013821282B0932A03A0932903E5
:10231000DF91CF910895A0E0B0E0E1E9F1E10C9404
:102320004D0FEC01009721F4CB010E946A10B4C05C
:10233000FC01E60FF71F9C0122503109E217F30759
:1023400008F4A8C0D9010D911C9111970617170721
:10235000B0F00530110508F49BC0C801049786173A
:10236000970708F495C002501109061B170B01933B
:1023700011936D937C93CF010E94021189C05B0180
:10238000A01AB10A4C01800E911EA0912B03B091AE
:102390002C03612C712CE12CF12C109709F446C010
:1023A0008D919C911197A815B905B1F56C0142E08A
:1023B000C40ED11CCA14DB0478F14C018A189B08A6
:1023C000640142E0C40ED11C1296BC901297139681
:1023D000AC91B5E0CB16D10440F0B282A3839182D8
:1023E0008082D9016D937C9309C00E5F1F4F800FCF
:1023F000911FF90191838083EB2DFA2FE114F104F1
:1024000031F0D7011396FC93EE93129741C0F093ED
:102410002C03E0932B033CC06816790608F43C01BA
:102420007D0112960D90BC91A02DB7CF809129030C
:1024300090912A0388169906E1F466167706C8F487
:102440008091000190910101009741F48DB79EB7F2
:102450004091040150910501841B950BE817F90781
:10246000C8F4F0932A03E0932903F9017183608390
:102470000FC0CB010E946A107C01009759F0A8019F
:10248000BE010E945612CE010E940211C70104C073
:10249000CE0102C080E090E0CDB7DEB7EEE00C9454
:1024A000690F81E090E0F8940C946612FB01DC0166
:1024B00002C001900D9241505040D8F70895FB01A1
:1024C000DC0101900D920020E1F7089510E0CFEDBE
:1024D000D0E004C0FE010E9464102196C03ED107E6
:0624E000C9F7F894FFCFDC
:1024E60000002D0380000000000020092F0177075F
:1024F6006D09A80786079A0700000000C801BD01FC
:1025060088015C0180016C015D010000000060072C
:102516006D076C656674446973743A200061627372
:10252600286C65667444697374202D207269676827
:102536007444697374293A20005475726E20726966
:10254600676874005475726E206C65667400416C21
:10255600726561647920616C69676E656400416CBF
:1025660069676E696E6720746F2077616C6C000D09
:0E2576000A007269676874446973743A200041
:00000001FF
