:100000000C9475000C949D000C949D000C94B90206
:100010000C94B9020C94B9020C949D000C949D00B0
:100020000C949D000C949D000C949D000C949D00DC
:100030000C949D000C949D000C949D000C949D00CC
:100040000C946F020C949D000C94E80A0C94C20A64
:100050000C949D000C949D000C949D000C949D00AC
:100060000C9432060C949D00084AD73B3BCE016E9F
:1000700084BCBFFDC12F3D6C74319ABD56833DDAFF
:100080003D00C77F11BED9E4BB4C3E916BAAAABE0E
:10009000000000803F000000000800020100000393
:1000A0000407000000000000000000000000250020
:1000B00028002B0000000000240027002A00040470
:1000C0000404040404040202020202020303030300
:1000D00003030102040810204080010204081020DC
:1000E0000102040810202910251011241FBECFEF93
:1000F000D8E0DEBFCDBF23E0A2EFB1E001C01D928A
:10010000A437B207E1F711E0A0E0B1E0EEEDFBE2C9
:1001100002C005900D92A23FB107D9F710E0C4E7E5
:10012000D0E004C02197FE010E94E013C337D1073D
:10013000C9F70E94FF0B0C94E2150C940000CF92BB
:10014000DF92EF92FF920F931F93CF93DF936C0197
:100150007A018B01C0E0D0E0CE15DF0581F0D80137
:100160006D918D01D601ED91FC910190F081E02D12
:10017000C6010995892B11F02196EECF7E01C701AA
:10018000DF91CF911F910F91FF90EF90DF90CF9073
:100190000895089508950895E0915C0280915B02AE
:1001A000E81730F4F0E0E659FD4F808190E00895C3
:1001B0008FEF9FEF089590915C0280915B029817FA
:1001C00050F4E92FF0E0E659FD4F208130E09F5FC9
:1001D00090935C0202C02FEF3FEFC9010895809118
:1001E0005B0290E020915C02821B9109089530919E
:1001F0005D02313208F04AC08091B0028111FCCF1B
:1002000090915F0222E02093B0026093AF022FEF43
:100210002093AE021092AD023093AC02E5E3F2E01F
:10022000AAE8B2E020E0321721F041914D932F5F10
:10023000FACF1092AB022091AB02990F922B9093C0
:10024000AB029091AA02913061F41092AA029091AF
:10025000AB029093BB009091BC0093FDF8CF95EC5E
:1002600001C095EE9093BC009091B0029230E1F302
:100270009091AE029F3F79F08091AE02803241F0C2
:100280008091AE02803331F084E005C081E003C08C
:1002900082E001C083E010925E0210925D02109233
:1002A000600208951F93CF93DF93EC01142F81E038
:1002B0008093600289E680935F0210925E02109242
:1002C0005D0288819981DC01ED91FC910190F081C2
:1002D000E02D099588819981DC01ED91FC910190D7
:1002E000F081E02D612F099561E088819981DF918E
:1002F000CF911F910C94F700089580E090E008954D
:1003000085ED8093BC008091BC0084FDFCCF1092F1
:10031000B002089540911202262F30E0240F311DC3
:1003200021323105DCF42091B0022430C9F4FC0103
:1003300080E090E0861758F4309112022191DC01A0
:10034000AE50BE4FA30FB11D2C930196F3CF8091F9
:100350001202680F6093120280E0089581E0089510
:1003600082E00895CF92DF92EF92FF920F931F9356
:10037000CF93DF937C01CB018A012091600222237D
:1003800089F0EB016B01C40ED51ECC15DD0569F0BB
:100390006991D701ED91FC910190F081E02DC701A9
:1003A0000995F3CF642F0E948A01C801DF91CF9194
:1003B0001F910F91FF90EF90DF90CF900895CF9312
:1003C000DF931F92CDB7DEB76983209160022223AD
:1003D000D1F020915D02203240F021E030E0FC01BC
:1003E0003383228380E090E015C080915E02E82F85
:1003F000F0E0EB5CFD4F998190838F5F80935E020C
:1004000080935D0205C061E0CE0101960E948A01E1
:1004100081E090E00F90DF91CF910895CF93DF932B
:10042000EB01892B31F460E089E00E941A0B61E056
:1004300005C061E089E00E941A0B60E088E00E943C
:100440001A0BCE0160E071E00E949613BC018AE0B5
:10045000DF91CF910C94670BCF93DF93EB01892B46
:1004600031F460E087E00E941A0B61E005C061E0B2
:1004700087E00E941A0B60E086E00E941A0BCE0112
:1004800060E071E00E949613BC018BE0DF91CF9198
:100490000C94670B3FB7F8948091620290916302CD
:1004A000A0916402B091650226B5A89B05C02F3FBC
:1004B00019F00196A11DB11D3FBFBA2FA92F982F8A
:1004C0008827820F911DA11DB11DBC01CD0142E005
:1004D000660F771F881F991F4A95D1F708951F92BD
:1004E0000F920FB60F9211242F933F938F939F93E8
:1004F000AF93BF938091660290916702A0916802CA
:10050000B09169023091610223E0230F2D3720F46E
:100510000196A11DB11D05C026E8230F0296A11D5D
:10052000B11D209361028093660290936702A093AD
:100530006802B09369028091620290916302A09177
:100540006402B09165020196A11DB11D8093620203
:1005500090936302A0936402B0936502BF91AF9140
:100560009F918F913F912F910F900FBE0F901F90F1
:1005700018951F920F920FB60F9211240F900FBE75
:100580000F901F9018952F923F924F925F926F920B
:100590007F928F929F92AF92BF92CF92DF92EF9213
:1005A000FF920F931F93CF93DF93CDB7DEB72C97B6
:1005B0000FB6F894DEBF0FBECDBF9C878B8781E05E
:1005C0008093600289E680935F0210925E0210922F
:1005D0005D02AB85BC858D919C91DC01ED91FC9118
:1005E0000190F081E02D6BE3099560E0EB85FC85DF
:1005F000808191810E94F70041E06EE089E60E94CF
:10060000AB0910925C0280935B02AB85BC858D9137
:100610009C91DC01ED91FC910284F385E02D09951C
:10062000182FEB85FC8580819181DC01ED91FC9197
:100630000284F385E02D099520E030E0312F822BF4
:10064000932BEB85FC859383828380819181DC01F0
:10065000ED91FC910284F385E02D0995182FEB852F
:10066000FC8580819181DC01ED91FC910284F38510
:10067000E02D099520E030E0312F822B932BEB8584
:10068000FC859583848380819181DC01ED91FC91CF
:100690000284F385E02D0995182FEB85FC85808178
:1006A0009181DC01ED91FC910284F385E02D0995A7
:1006B00020E030E0312F822B932BEB85FC85978354
:1006C000868380819181DC01ED91FC910284F38528
:1006D000E02D0995182FEB85FC8580819181DC0147
:1006E000ED91FC910284F385E02D099520E030E046
:1006F000312F822B932BEB85FC859187808780811E
:100700009181DC01ED91FC910284F385E02D099546
:10071000182FEB85FC8580819181DC01ED91FC91A6
:100720000284F385E02D099520E030E0312F822B03
:10073000932BEB85FC859387828780819181DC01F7
:10074000ED91FC910284F385E02D0995182FEB853E
:10075000FC8580819181DC01ED91FC910284F3851F
:10076000E02D099520E030E0312F822B932BEB8593
:10077000FC859587848780819181DC01ED91FC91D6
:100780000284F385E02D0995182FEB85FC85808187
:100790009181DC01ED91FC910284F385E02D0995B6
:1007A00020E030E0312F1901282A392AEB85FC8519
:1007B0003786268660857185072E000C880B990B7D
:1007C0000E94851020E030EF41E456E40E94DA11E7
:1007D00020E030E04AEA53E40E94B812AB85BC85C1
:1007E0005C966D937D938D939C935F9712966D911C
:1007F0007C911397072E000C880B990B0E94851093
:1008000020E030E040E858E30E94E4104B015C0136
:10081000EB85FC8560A371A382A393A3648175819A
:10082000072E000C880B990B0E94851020E030E009
:1008300040E858E30E94E4106B017C01AB85BC8565
:1008400094966D937D938D939C93979716966D9147
:100850007C911797072E000C880B990B0E9485102E
:1008600020E030E040E858E30E94E4102B013C0116
:10087000EB85FC8560A771A782A793A720E030E0F5
:10088000A901C501B4010E948013181624F0C50106
:10089000B401905802C0C501B401A30192010E94A5
:1008A000DA119B01AC01C701B6010E9459120B85F8
:1008B0001C850C5B1F4F20E030E044EB53E40E94AA
:1008C000E41020E030E040E05FE30E94E4102BED14
:1008D0003FE049E450E40E94B812D8016D937D9343
:1008E0008D939C93139720E030E0A901C701B601D6
:1008F0000E948013181624F0F7FAF094F7F8F09499
:10090000A3019201C701B6010E94DA119B01AC015B
:10091000C501B4010E9459120B851C85085B1F4F4D
:1009200020E030E044EB53E40E94E41020E030E0AB
:1009300040E05FEB0E94E4102BED3FE049E450E41F
:100940000E94B812F8016083718382839383AB8520
:10095000BC851C966D917C911D97072E000C880B11
:10096000990B0E94851020E030E043E852E40E9499
:10097000B8126B017C01EB85FC8562857385072EBF
:10098000000C880B990B0E94851020E030E043E8B2
:1009900052E40E94B812AB85BC8550962D913D91D2
:1009A0004D915C9153970E94D911EB85FC8564A70A
:1009B00075A786A797A72489358946895789C701CE
:1009C000B6010E94D911AB85BC85D0966D937D93FD
:1009D0008D939C93D397B101330C880B990B0E9494
:1009E000851020E030E043E852E40E94B812EB8525
:1009F000FC85208D318D428D538D0E94D911AB85A0
:100A0000BC85D4966D937D938D939C93D7972FB788
:100A1000F8948091660290916702A0916802B0916B
:100A200069022FBFEB85FC85E05AFF4FFE83ED8303
:100A3000C080D180E280F380BC01CD016C197D09BA
:100A40008E099F090E9483102FE632E143E85AE3A2
:100A50000E94E4102B013C01EB85FC85E45AFF4F1A
:100A60006083718382839383AB85BC859C962D9133
:100A70003D914D915C919F970E94E4104B015C0168
:100A80009B01AC01EB85FC8560AD71AD82AD93AD92
:100A90000E94DA11AB85BC85D8966D937D938D93BA
:100AA0009C93DB97D0962D913D914D915C91D3977E
:100AB000C301B2010E94E4106B017C019B01AC01F7
:100AC000EB85FC8564AD75AD86AD97AD0E94DA11FE
:100AD000AB85BC85DC966D937D938D939C93DF975E
:100AE000D4962D913D914D915C91D797C301B20160
:100AF0000E94E4106B847C84B0E46B0E711CF301E3
:100B000020813181428153810E94DA116F8378877D
:100B100089879A87D3016D937D938D939C931397C7
:100B2000EB85FC85E859FF4F4080518062807380DF
:100B3000EB85FC85EC59FF4F80819181A281B381C7
:100B400089839A83AB83BC832B843C8490E5290EF4
:100B5000311CD1012D913D914D915C91C501B401A4
:100B60000E94DA11A30192010E94E4104B015C0182
:100B7000EB85FC85EC5BFF4F208131814281538105
:100B800069817A818B819C810E94E4109B01AC0178
:100B9000C501B4010E94DA11F1016083718382837F
:100BA0009383AB84BC84F4E5AF0EB11CD5012D91C9
:100BB0003D914D915C91C701B6010E94DA11A301EC
:100BC00092010E94E4106B017C01F80120813181C7
:100BD0004281538169817A818B819C810E94E410DA
:100BE0009B01AC01C701B6010E94DA11D5016D93DA
:100BF0007D938D939C931397EB85FC85E85AFF4F6B
:100C00008F819885A985BA8580839183A283B383D8
:100C10002FB7F8948091660290916702A0916802C4
:100C2000B09169022FBFED81FE8180839183A28301
:100C3000B3832C960FB6F894DEBF0FBECDBFDF9105
:100C4000CF911F910F91FF90EF90DF90CF90BF90C9
:100C5000AF909F908F907F906F905F904F903F905C
:100C60002F9008951F920F920FB60F9211242F9379
:100C70003F934F935F936F937F938F939F93AF9324
:100C8000BF93EF93FF938091B900887F803609F47A
:100C90009CC068F5883209F45BC090F4803109F497
:100CA00054C038F4882309F4F6C0883009F44DC0E4
:100CB000F6C0883109F44CC0803209F45DC0EFC041
:100CC000803409F468C048F4803309F455C088338F
:100CD00009F0E5C08093AE02D8C0803509F44FC05A
:100CE000883509F45DC0883409F0D9C0D6C0883988
:100CF00009F4C7C0A8F4883709F467C038F4883607
:100D000009F463C0803709F460C0C9C0883809F4A9
:100D1000B8C0803909F45FC0803809F0C0C05BC03A
:100D2000803B09F486C038F4803A09F466C0883AFA
:100D300009F47FC0B4C0803C09F4A7C0883C09F422
:100D4000A4C0883B09F48AC0AAC08091AB0210C03D
:100D50009091AD028091AC02981770F5E091AD02D0
:100D600081E08E0F8093AD02F0E0E657FD4F808169
:100D70008093BB0085EC86C08093AE028EC0E0916C
:100D8000AD0281E08E0F8093AD028091BB00F0E058
:100D9000E657FD4F80839091AD028091AC026EC00A
:100DA000E091AD0281E08E0F8093AD028091BB0097
:100DB000F0E0E657FD4F80838091AF0281116DC056
:100DC00081E08093AA0284EA61C083E08093B0024C
:100DD00010923402CFCF80913402803208F051C09B
:100DE000E091340281E08E0F809334028091BB0049
:100DF000F0E0EC5EFD4F8083BDCF85EC8093BC00BE
:100E00001092B00280913402803230F4E0913402CA
:100E1000F0E0EC5EFD4F10826091340270E0E091F2
:100E20005702F091580284E192E009951092340241
:100E300036C084E08093B002109213021092120226
:100E4000E0915902F0915A020995809112028111A4
:100E500005C081E0809312021092F201E09113022A
:100E600081E08E0F80931302F0E0EE50FE4F808100
:100E70008093BB009091130280911202981708F49E
:100E800079CF85E88093BC000AC085EC8093BC00D4
:100E90001092B00204C01092AE020E948001FF9135
:100EA000EF91BF91AF919F918F917F916F915F91E2
:100EB0004F913F912F910F900FBE0F901F9018955B
:100EC000CF93DF93EC018C819D810E947E148A81F7
:100ED0009B81DF91CF910C947E14CF93DF93EC0133
:100EE0000E946007CE01DF91CF910C947E14FC012B
:100EF000538D448D252F30E0842F90E0821B930B7F
:100F0000541710F0CF96089501970895FC01918D24
:100F1000828D981761F0828DDF01A80FB11D5D965B
:100F20008C91928D9F5F9F73928F90E008958FEFC9
:100F30009FEF0895FC01918D828D981731F0828D7D
:100F4000E80FF11D858D90E008958FEF9FEF0895D4
:100F5000FC01918D228D892F90E0805C9F4F821B38
:100F600091098F7399270895FC01848DDF01A80FE3
:100F7000B11DA35ABF4F2C91848D90E001968F73C1
:100F80009927848FA689B7892C93A089B1898C91E0
:100F9000837080648C93938D848D981306C002882F
:100FA000F389E02D80818F7D80830895EF92FF92F9
:100FB0000F931F93CF93DF93EC0181E0888F9B8D7C
:100FC0008C8D981305C0E889F989808185FD26C03C
:100FD000F62E0B8D10E00F5F1F4F0F731127E02EC1
:100FE0008C8DE8120CC00FB607FCFACFE889F9899E
:100FF000808185FFF5CFCE010E94B407F1CF8B8DA4
:10100000FE01E80FF11DE35AFF4FF0829FB7F894FD
:101010000B8FEA89FB89808180620AC09FB7F894B0
:10102000EE89FF896083E889F98980818370806413
:1010300080839FBF81E090E0DF91CF911F910F915E
:10104000FF90EF900895CF93DF93EC01888D882374
:10105000C9F0EA89FB89808185FD05C0A889B98925
:101060008C9186FD0FC00FB607FCF5CF808185FF00
:10107000F2CFA889B9898C9185FFEDCFCE010E946E
:10108000B407E7CFDF91CF91089581EB92E00E9402
:10109000A80721E0892B09F420E0822F089580E041
:1010A00090E0892B29F00E94450881110C940000E2
:1010B00008950E94CD1590E0FC01EE52FF4F24915F
:1010C000FC01E254FF4F8491882399F090E0880F4F
:1010D000991FFC01EC54FF4FA591B491FC01E6551A
:1010E000FF4F859194918FB7F894EC91E22BEC939C
:1010F0008FBF0895009769F0FC0101900020E9F787
:101100003197AF01481B590BBC0181EB92E00C9465
:101110009F0080E090E00895CF93DF930E947A08CB
:10112000EC018BE591E00E947A088C0F9D1FDF9106
:10113000CF9108952F923F924F925F926F927F923C
:101140008F929F92AF92BF92CF92DF92EF92FF92D7
:101150000F931F93CF93DF93CDB7DEB7A4970FB64E
:10116000F894DEBF0FBECDBF4B015C019B01AC010B
:101170000E949113882319F085EE91E01AC0750141
:101180006401E894F7F82FEF3FEF4FE75FE7C701FF
:10119000B6010E949113811110C02FEF3FEF4FE76E
:1011A0005FE7C701B6010E947E10181634F489EE7D
:1011B00091E00E947A088C01AFC02FEF3FEF4FE71C
:1011C0005FE4C501B4010E94801318161CF48DEE73
:1011D00091E0EFCF2FEF3FEF4FE75FECC501B40198
:1011E0000E947E1087FDF3CF20E030E0A901C50109
:1011F000B4010E947E1087FF0BC06DE281EB92E08C
:101200000E94D6076C01B7FAB094B7F8B09402C048
:10121000C12CD12C2AE037ED43EA5BE3C501B401D0
:101220000E94DA114B015C010E942A132B013C0140
:101230000E9483109B01AC01C501B4010E94D91129
:101240004B015C0119A27E0181E2E80EF11CEAA2C9
:10125000FBA2C301B2012AE030E040E050E00E946E
:10126000AA1329013A01605DF70162937F01232BE4
:10127000242B252B71F7CF010E947A088C016EE296
:1012800081EB92E00E94D607800F911F8C010C0D1C
:101290001D1D83E0F82E9AE0292E312C412C512C73
:1012A000FA94FF20C9F120E030E040E251E4C501AA
:1012B000B4010E94E4104B015C010E942A139B01BF
:1012C00040E050E019A26AA07BA06CA3C32ED42EEC
:1012D000E52ECA01B901A20191010E94AA13605D25
:1012E000F30162933F01211531054105510589F74D
:1012F000CF010E947A08080F191F6CA17C2D8D2D3B
:101300009E2D0E9483109B01AC01C501B4010E9477
:10131000D9114B015C01C4CF8BE591E00E947A08A2
:10132000800F911FA4960FB6F894DEBF0FBECDBFFD
:10133000DF91CF911F910F91FF90EF90DF90CF90B1
:10134000BF90AF909F908F907F906F905F904F90E5
:101350003F902F9008959091B0029111FCCF91E0B1
:101360009093B0024093AF022FEF2093AE02109201
:10137000AD02260F2093AC029093AB029091AB028A
:10138000880F892B8093AB028091AA02813061F48F
:101390001092AA028091AB028093BB008091BC00A6
:1013A00083FDF8CF85EC01C085EE8093BC00809171
:1013B000B0028130E1F38091AD02861710F46091A4
:1013C000AD02AAE8B2E0EAE6F2E080E0861721F09A
:1013D0009D9191938F5FFACF0895CF92DF92FF9204
:1013E0000F931F93CF93DF936C0180915C039091D7
:1013F0005D030E94C3028091600390916103019696
:1014000065E070E00E9496139093610380936003FF
:1014100020916203309163032530310534F42F5F4E
:101420003F4F309363032093620328E2F22EF89E2D
:101430009001F99E300D1124E0915E03F0915F035D
:10144000E20FF31F2FB7F894809166029091670224
:10145000A0916802B09169022FBF80839183A2831B
:10146000B3832091600330916103F29EC001F39E2B
:10147000900D1124C0915E03D0915F03C80FD91F56
:1014800000915C0310915D03F80180A191A1A2A1DC
:10149000B3A18C839D83AE83BF8384A195A1A6A1B4
:1014A000B7A188879987AA87BB8780A591A5A2A5A0
:1014B000B3A58C879D87AE87BF8784A595A5A6A574
:1014C000B7A5888B998BAA8BBB8B80A991A9A2A960
:1014D000B3A98C8B9D8BAE8BBF8B84A995A9A6A934
:1014E000B7A9888F998FAA8FBB8FE05BFF4F2091A0
:1014F00064033091650340916603509167036081F6
:101500007181828193810E94D9116C8F7D8F8E8F22
:101510009F8FF801EC5AFF4F2091680330916903C7
:1015200040916A0350916B03608171818281938144
:101530000E94D91168A379A38AA39BA3F801E85A52
:10154000FF4F20916C0330916D0340916E035091D9
:101550006F0360817181828193810E94D9116CA394
:101560007DA38EA39FA3FE01D60101900D92FA9454
:10157000E1F7C601DF91CF911F910F91FF90DF90AE
:10158000CF9008951F920F920FB60F9211242F93B0
:101590003F934F935F936F937F938F939F93AF93FB
:1015A000BF93EF93FF9381EB92E00E94B407FF910A
:1015B000EF91BF91AF919F918F917F916F915F91CB
:1015C0004F913F912F910F900FBE0F901F90189544
:1015D0001F920F920FB60F9211242F938F939F9308
:1015E000EF93FF93E091C102F091C2028081E091FC
:1015F000C702F091C80282FD12C090818091CA0298
:101600008F5F8F732091CB02821751F0E091CA0255
:10161000F0E0EF54FD4F958F8093CA0201C08081A6
:10162000FF91EF919F918F912F910F900FBE0F908F
:101630001F90189590E0FC01EA56FF4F2491FC01A1
:10164000EE52FF4F3491FC01E254FF4FE491EE2340
:1016500009F43CC0222339F1233091F038F42130D1
:10166000A9F0223001F584B58F7D12C0273091F0AA
:101670002830A1F02430B9F4809180008F7D03C020
:10168000809180008F77809380000DC084B58F7724
:1016900084BD09C08091B0008F7703C08091B000F5
:1016A0008F7D8093B000F0E0EE0FFF1FE655FF4FF7
:1016B000A591B4919FB7F894611104C08C913095B5
:1016C000382302C0EC913E2B3C939FBF08951F939B
:1016D000CF93DF93182FEB010E945B08209711F442
:1016E00060E004C0CF3FD10539F461E0812FDF9184
:1016F000CF911F910C941A0BE12FF0E0EA56FF4FA7
:10170000E491E330F9F048F4E130B9F0E230A1F5CA
:1017100084B5806284BDC8BD34C0E730E9F0E830EC
:1017200019F1E43049F58091800080628093800057
:10173000D0938B00C0938A0024C084B5806884BD98
:10174000C7BD1FC080918000806880938000D093C7
:101750008900C093880015C08091B0008068809394
:10176000B000C093B3000DC08091B0008062809340
:10177000B000C093B40005C0C038D1050CF0B5CF9F
:10178000AFCFDF91CF911F9108958F929F92AF922B
:10179000BF92CF92DF92EF92FF926B017C010E9489
:1017A0004A024B015C01C114D104E104F104F1F0DF
:1017B0000E944A02DC01CB0188199909AA09BB09D8
:1017C000883E9340A105B10570F321E0C21AD1080B
:1017D000E108F10888EE880E83E0981EA11CB11C78
:1017E000C114D104E104F10419F7DDCFFF90EF90AB
:1017F000DF90CF90BF90AF909F908F900895CF9340
:10180000DF93CDB7DEB7E5970FB6F894DEBF0FBE16
:10181000CDBF789484B5826084BD84B5816084BD79
:1018200085B5826085BD85B5816085BD80916E007E
:10183000816080936E0010928100809181008260AF
:1018400080938100809181008160809381008091EC
:1018500080008160809380008091B10084608093DB
:10186000B1008091B00081608093B00080917A00D7
:10187000846080937A0080917A00826080937A00FD
:1018800080917A00816080937A0080917A008068EC
:1018900080937A001092C1008AE00E945B088BE07E
:1018A0000E945B0889E00E945B0888E00E945B0858
:1018B00087E00E945B0886E00E945B0860E070E0C1
:1018C00081E090E00E942C0260E070E081E090E016
:1018D0000E940E02E091C102F091C20282E0808378
:1018E000E091BD02F091BE021082E091BF02F09142
:1018F000C00280E180831092C902E091C502F0919C
:10190000C60286E08083E091C302F091C402808128
:1019100080618083E091C302F091C402808188607D
:101920008083E091C302F091C4028081806880834B
:10193000E091C302F091C40280818F7D8083109278
:101940005C0210925B0210925E0210925D02109295
:10195000B00281E08093AF021092AA0261E082E1BE
:101960000E941A0B61E083E10E941A0B8091B9007A
:101970008E7F8093B9008091B9008D7F8093B900EC
:1019800088E48093B80085E48093BC0089EC90E003
:1019900090935A02809359028AEC90E090935802F7
:1019A000809357028CE08093B8008CE690E00E9410
:1019B000E6138C018EE493E0D8018D939C93F8019B
:1019C000EC59FF4F8AE097EDA3EABCE38083918353
:1019D000A283B383349688E491EEAAE7BFE38083C1
:1019E0009183A283B38310935D0300935C0388EC1F
:1019F00090E00E94E61390935F0380935E03109241
:101A00006303109262038FEF9FEF909361038093C3
:101A1000600340E069E1C8010E94520140E06AE1D0
:101A2000C8010E94520148E06BE1C8010E945201C6
:101A300040E06CE1C8010E94520141E06BE6C80140
:101A40000E945201C8010E94C302F80110AE11AEFB
:101A500012AE13AED80114AE15AE16AE17AEE05BE3
:101A6000FF4FAC5BBF4F8D919D910D90BC91A02D10
:101A700080839183A283B3833496D801A85BBF4F40
:101A80008D919D910D90BC91A02D80839183A28317
:101A9000B3832FB7F8948091660290916702A0916A
:101AA0006802B09169022FBF3C9680839183A28324
:101AB000B38300915C0310915D0382E391E00E9487
:101AC0008C0868EE73E080E090E00E94C50B8BE527
:101AD00091E00E947A0882E391E00E948C088EE5F2
:101AE00091E00E948C0885E791E00E947A08C12C61
:101AF000D12C76014601570126013701212C312CCA
:101B0000C10168EE73E00E949613892B21F48BE8E3
:101B100091E00E947A08B1E0B0936002E9E6E093B8
:101B20005F0210925E0210925D02D8018D919C912D
:101B3000DC01ED91FC910190F081E02D6BE30995C2
:101B400060E0F801808191810E94F70041E06EE041
:101B500089E60E94AB0910925C0280935B02D80177
:101B60008D919C91DC01ED91FC910284F385E02D37
:101B70000995F80180819181DC01ED91FC9102844D
:101B8000F385E02D0995F80180819181DC01ED91CB
:101B9000FC910284F385E02D0995F8018081918103
:101BA000DC01ED91FC910284F385E02D0995F801AB
:101BB00080819181DC01ED91FC910284F385E02D1F
:101BC0000995F80180819181DC01ED91FC910284FD
:101BD000F385E02D0995F80180819181DC01ED917B
:101BE000FC910284F385E02D0995F80180819181B3
:101BF000DC01ED91FC910284F385E02D0995F8015B
:101C000080819181DC01ED91FC910284F385E02DCE
:101C1000099589A7F80180819181DC01ED91FC9102
:101C20000284F385E02D0995B9A5BEA71DA6EDA5F3
:101C3000FEA5E82BF92BFAA7E9A7D8018D919C9175
:101C4000DC01ED91FC910284F385E02D09958BA7D1
:101C5000F80180819181DC01ED91FC910284F38592
:101C6000E02D0995BBA5B8AB1FA6EFA5F8A9E82BF9
:101C7000F92BFCA7EBA7D8018D919C91DC01ED918C
:101C8000FC910284F385E02D09958DABF8018081EC
:101C90009181DC01ED91FC910284F385E02D0995A1
:101CA0009CAB8BABE9A5FAA5BF01FF0F880B990B85
:101CB0000E94851020E030E043E852E40E94B81210
:101CC0009B01AC01C301B2010E94DA112B013C015E
:101CD0002BA53CA5B901330F880B990B0E948510E9
:101CE00020E030E043E852E40E94B8129B01AC01CE
:101CF000C501B4010E94DA114B015C013DA93AAB68
:101D000019AA69A97AA98BA99CA9682B792B072EF6
:101D1000000C880B990B0E94851020E030E043E80E
:101D200052E40E94B8129B01AC01C701B6010E94A7
:101D3000DA116B017C019FEF291A390AA8EB2A16E8
:101D4000ABE03A0609F0DCCE20E030E84BE355E4A6
:101D5000C301B2010E94B812F801608B718B828BB3
:101D6000938B20E030E84BE355E4C501B4010E94B9
:101D7000B812D80154966D937D938D939C93579789
:101D800020E030E84BE355E4C701B6010E94B812E9
:101D9000F801608F718F828F938F8BE591E00E94A5
:101DA0007A088DE891E00E948C0885E991E00E9414
:101DB0007A08D80150966D917D918D919C915397A1
:101DC0000E949A088AE991E00E947A08F8016489E1
:101DD0007589868997890E949A088FE991E00E9407
:101DE0007A08D80158966D917D918D919C915B9761
:101DF0000E949A0884EA91E00E948C0882E391E0B4
:101E00000E947A0868EB7BE080E090E00E94C50BBE
:101E100064E670E080E090E00E94C50B82E3282E2B
:101E2000312CC12CD12C76014601570126013701F6
:101E300080915C0390915D030E94C30200915C035A
:101E400010915D03F801E05BFF4F208131814281F9
:101E50005381C301B2010E94DA112B013C01F80148
:101E6000EC5AFF4F2081318142815381C501B40179
:101E70000E94DA114B015C01F801E85AFF4F208102
:101E8000318142815381C701B6010E94DA116B0191
:101E90007C01B1E02B1A310859F620E030E048E42B
:101EA00052E4C301B2010E94B812609364037093BC
:101EB0006503809366039093670320E030E048E475
:101EC00052E4C501B4010E94B81260936803709394
:101ED000690380936A0390936B0320E030E048E449
:101EE00052E4C701B6010E94B81260936C0370936C
:101EF0006D0380936E0390936F0360E070E081E068
:101F000090E00E942C0260E070E081E090E00E948E
:101F10000E0268EC70E080E090E00E94C50B87EC58
:101F200091E00E948C080AE010E0C12CD12C7601CF
:101F3000CE0101960E94ED092DA13EA14FA158A509
:101F4000C701B6010E94DA116B017C010150110931
:101F500079F720E030E040E251E40E94B8124B01F2
:101F60005C016CE370E080E090E00E942C026CE386
:101F700070E081E090E00E940E0261E070E080E09D
:101F800090E00E9407158C01009731F0FC0110824F
:101F90006DE571E00E94DB15C12CD12C7601A50105
:101FA0009401C701B6010E94D9116B017C0120E0A8
:101FB00030E0A9010E94801318163CF420E030E0C4
:101FC00040EA52E4C701B60107C0C701B601905804
:101FD00020E030E040EA52E40E94D91120E030E0F5
:101FE00040E050E40E947E1087FF13C068EC70E070
:101FF00080E090E00E94C50BCE0101960E94ED09A1
:10200000CDA0DEA0EFA0F8A4C701B6010E949A08F7
:10201000C6CF60E070E081E090E00E942C0260E0BA
:1020200070E081E090E00E940E0284ED91E00E9459
:102030008C08C8010E947E1460E177E280E090E0A5
:102040000E94C50B0E944F08F7CF8AE593E00C94DD
:102050006007E1EBF2E01382128288EE93E0A0E0E9
:10206000B0E084839583A683B7832AE031E031838F
:10207000208325EC30E03587248724EC30E0378757
:10208000268720EC30E0318B208B21EC30E0338B45
:10209000228B22EC30E0358B248B26EC30E0378B22
:1020A000268B118E128E138E148EEEE4F3E01382C3
:1020B000128284839583A683B7838CE191E0918318
:1020C0008083EAE5F3E08EE291E0918380831382DE
:1020D000128215821482118610868FEF9FEF9783EC
:1020E0008683128A138A148A158A16861786108A9E
:1020F000118A128613861486158608950E94C010D0
:1021000008F481E00895E89409C097FB3EF49095A7
:102110008095709561957F4F8F4F9F4F9923A9F0C0
:10212000F92F96E9BB279395F6958795779567954F
:10213000B795F111F8CFFAF4BB0F11F460FF1BC093
:102140006F5F7F4F8F4F9F4F16C0882311F096E926
:1021500011C0772321F09EE8872F762F05C06623D4
:1021600071F096E8862F70E060E02AF09A95660F8D
:10217000771F881FDAF7880F9695879597F9089546
:10218000990F0008550FAA0BE0E8FEEF1616170688
:10219000E807F907C0F012161306E407F50798F0F0
:1021A000621B730B840B950B39F40A2661F0232B09
:1021B000242B252B21F408950A2609F4A140A69585
:1021C0008FEF811D811D08950E94F7100C946811F6
:1021D0000E945A1138F00E94611120F0952311F0ED
:1021E0000C9451110C94571111240C949C110E94C1
:1021F000791170F3959FC1F3950F50E0551F629FC1
:10220000F001729FBB27F00DB11D639FAA27F00D4F
:10221000B11DAA1F649F6627B00DA11D661F829F76
:102220002227B00DA11D621F739FB00DA11D621F5B
:10223000839FA00D611D221F749F3327A00D611D78
:10224000231F849F600D211D822F762F6A2F11245A
:102250009F5750409AF0F1F088234AF0EE0FFF1F8D
:10226000BB1F661F771F881F91505040A9F79E3FE4
:10227000510580F00C9451110C949C115F3FE4F3D4
:10228000983ED4F3869577956795B795F795E7953A
:102290009F5FC1F7FE2B880F911D9695879597F943
:1022A000089597F99F6780E870E060E008959FEFD8
:1022B00080EC089500240A941616170618060906DD
:1022C000089500240A9412161306140605060895AC
:1022D000092E0394000C11F4882352F0BB0F40F434
:1022E000BF2B11F460FF04C06F5F7F4F8F4F9F4F74
:1022F000089557FD9058440F551F59F05F3F71F0F6
:102300004795880F97FB991F61F09F3F79F087955C
:102310000895121613061406551FF2CF4695F1DFE5
:1023200008C0161617061806991FF1CF8695710575
:10233000610508940895E894BB2766277727CB01A9
:1023400097F908952F923F924F925F926F927F92EA
:102350008F929F92AF92BF92CF92DF92EF92FF92B5
:102360000F931F93CF93DF93CDB7DEB7CA1BDB0B61
:102370000FB6F894DEBF0FBECDBF09942A88398806
:1023800048885F846E847D848C849B84AA84B9840D
:10239000C884DF80EE80FD800C811B81AA81B98119
:1023A000CE0FD11D0FB6F894DEBF0FBECDBFED012D
:1023B00008955058BB27AA270E94F1110C94681168
:1023C0000E945A1138F00E94611120F039F49F3FA9
:1023D00019F426F40C9457110EF4E095E7FB0C94D5
:1023E0005111E92F0E94791158F3BA176207730748
:1023F0008407950720F079F4A6F50C949B110EF450
:10240000E0950B2EBA2FA02D0B01B90190010C0104
:10241000CA01A0011124FF27591B99F0593F50F41C
:10242000503E68F11A16F040A22F232F342F442774
:10243000585FF3CF469537952795A795F04053956C
:10244000C9F77EF41F16BA0B620B730B840BBAF03C
:102450009150A1F0FF0FBB1F661F771F881FC2F7A7
:102460000EC0BA0F621F731F841F48F487957795BB
:102470006795B795F7959E3F08F0B0CF9395880F75
:1024800008F09927EE0F9795879508950E945A11A5
:1024900060F080E891E009F49EEF0E94611128F05D
:1024A00040E851E071F45EEF0CC00C9457110C94AD
:1024B0009B11E92FE0780E94791140F3092E052A3B
:1024C000B1F3261737074807590738F00E2E07F8DB
:1024D000E02569F0E025E0640AC0EF6307F80094A6
:1024E00007FADB01B9019D01DC01CA01AD01EF93DF
:1024F0000E94CF120E9468110E9489125F91552399
:1025000039F02BED3FE049E450FD49EC0C94DA1131
:102510000895DF93DD27B92FBF7740E85FE31616F4
:10252000170648075B0718F4D92F0E9485139F935D
:102530008F937F936F930E948D13E8E6F0E00E94E3
:1025400059130E9468112F913F914F915F910E9402
:10255000F710DD2351F09058A2EA2AED3FE049EC54
:102560005FE3D0785D270E94F111DF910C94681130
:102570000E94CC120C9468110E94611158F00E94C4
:102580005A1140F029F45F3F29F00C945111511178
:102590000C949C110C9457110E94791168F39923A3
:1025A000B1F3552391F3951B550BBB27AA2762174F
:1025B0007307840738F09F5F5F4F220F331F441F5C
:1025C000AA1FA9F335D00E2E3AF0E0E832D0915090
:1025D0005040E695001CCAF72BD0FE2F29D0660F7D
:1025E000771F881FBB1F261737074807AB07B0E8C0
:1025F00009F0BB0B802DBF01FF2793585F4F3AF0C6
:102600009E3F510578F00C9451110C949C115F3F42
:10261000E4F3983ED4F3869577956795B795F7954B
:102620009F5FC9F7880F911D9695879597F9089533
:10263000E1E0660F771F881FBB1F621773078407CF
:10264000BA0720F0621B730B840BBA0BEE1F88F7DE
:10265000E09508950E94811188F09F5798F0B92F56
:102660009927B751B0F0E1F0660F771F881F991FC7
:102670001AF0BA95C9F714C0B13091F00E949B11BD
:10268000B1E008950C949B11672F782F8827B85FCD
:1026900039F0B93FCCF3869577956795B395D9F71F
:1026A0003EF490958095709561957F4F8F4F9F4F29
:1026B0000895DF93CF931F930F93FF92EF92DF92D2
:1026C0007B018C01689406C0DA2EEF010E94F7109E
:1026D000FE01E894A5912591359145915591A6F378
:1026E000EF010E94F111FE019701A801DA9469F748
:1026F000DF90EF90FF900F911F91CF91DF910895A0
:102700000E94C01008F48FEF08959B01AC0160E0B7
:1027100070E080E89FE30C94B8129B01AC010C942C
:10272000E4100E94C010880B990B089597FB072EA8
:1027300016F4009407D077FD09D00E94CC1307FC53
:1027400005D03EF4909581959F4F089570956195C1
:102750007F4F0895A1E21A2EAA1BBB1BFD010DC0DD
:10276000AA1FBB1FEE1FFF1FA217B307E407F50741
:1027700020F0A21BB30BE40BF50B661F771F881F1D
:10278000991F1A9469F760957095809590959B01B3
:10279000AC01BD01CF010895AA1BBB1B51E107C0CD
:1027A000AA1FBB1FA617B70710F0A61BB70B881FE1
:1027B000991F5A95A9F780959095BC01CD01089570
:1027C000EE0FFF1F0590F491E02D09940F931F93D6
:1027D000CF93DF938230910510F482E090E0E09196
:1027E0007203F091730320E030E0A0E0B0E0309796
:1027F00019F1408151810281138148175907C8F0AE
:102800008417950769F4109731F012960C9312977C
:1028100013961C9327C0009372031093730322C076
:102820002115310519F04217530718F49A01BD011B
:10283000EF01DF01F801DBCF21153105F9F0281B8D
:10284000390B2430310580F48A819B816115710533
:1028500021F0FB019383828304C0909373038093E0
:102860007203FE01329644C0FE01E20FF31F819312
:10287000919322503109398328833AC02091700303
:1028800030917103232B41F4209102013091030117
:102890003093710320937003209100013091010166
:1028A0002115310541F42DB73EB7409104015091F7
:1028B0000501241B350BE0917003F0917103E217C1
:1028C000F307A0F42E1B3F0B2817390778F0AC0153
:1028D0004E5F5F4F2417350748F04E0F5F1F509330
:1028E0007103409370038193919302C0E0E0F0E0A4
:1028F000CF01DF91CF911F910F910895CF93DF9377
:10290000009709F481C0FC01329713821282A091D2
:102910007203B0917303109781F420813181820F8B
:10292000931F20917003309171032817390751F5D7
:10293000F0937103E093700367C0ED0120E030E095
:10294000CE17DF0740F44A815B819E014115510596
:10295000F1F0EA01F5CFD383C28340815181840F26
:10296000951FC817D90759F488819981840F951F3D
:102970000296918380838A819B8193838283211530
:10298000310529F4F0937303E09372033DC0E9012C
:10299000FB83EA8349915991C40FD51FEC17FD07BA
:1029A00061F480819181840F951F0296E9019983DA
:1029B0008883828193819B838A83E0E0F0E0129692
:1029C0008D919C911397009719F0FD01DC01F7CFD1
:1029D0008D919C9111979D012E5F3F4F820F931F08
:1029E00020917003309171032817390769F43097EB
:1029F00029F4109273031092720302C013821282A0
:102A0000B0937103A0937003DF91CF910895A0E07C
:102A1000B0E0EDE0F5E10C94A611EC01009721F493
:102A2000CB010E94E613B4C0FC01E60FF71F9C0126
:102A300022503109E217F30708F4A8C0D9010D911B
:102A40001C91119706171707B0F00530110508F40F
:102A50009BC0C80104978617970708F495C00250D9
:102A60001109061B170B019311936D937C93CF01F2
:102A70000E947E1489C05B01A01AB10A4C01800E2D
:102A8000911EA0917203B0917303612C712CE12C03
:102A9000F12C109709F446C08D919C911197A815BF
:102AA000B905B1F56C0142E0C40ED11CCA14DB04B7
:102AB00078F14C018A189B08640142E0C40ED11CD5
:102AC0001296BC9012971396AC91B5E0CB16D10438
:102AD00040F0B282A38391828082D9016D937C936E
:102AE00009C00E5F1F4F800F911FF90191838083F2
:102AF000EB2DFA2FE114F10431F0D7011396FC937A
:102B0000EE93129741C0F0937303E09372033CC0BD
:102B10006816790608F43C017D0112960D90BC916F
:102B2000A02DB7CF809170039091710388169906FC
:102B3000E1F466167706C8F48091000190910101D6
:102B4000009741F48DB79EB7409104015091050163
:102B5000841B950BE817F907C8F4F0937103E09311
:102B60007003F901718360830FC0CB010E94E613EB
:102B70007C01009759F0A801BE010E94D215CE0138
:102B80000E947E14C70104C0CE0102C080E090E024
:102B9000CDB7DEB7EEE00C94C21181E090E0F8947E
:102BA0000C94E215FB01DC0102C001900D92415032
:102BB0005040D8F70895FB01DC0101900D920020F0
:102BC000E1F7089510E0C4E7D0E004C0FE010E94E0
:0E2BD000E0132196C537D107C9F7F894FFCF5F
:102BDE0000007403800000000000D6079F007707F6
:102BEE002308A80786079A0700000000DF01B2013C
:102BFE007D01CB00EF00DB00CC0000000000600781
:102C0E006D073D3D3D3D3D3D3D3D3D3D3D3D3D3DEC
:102C1E003D3D3D3D3D3D3D3D3D3D3D3D3D3D3D3DD6
:102C2E003D3D3D3D3D3D3D3D3D3D000D0A00636159
:102C3E006C63756C617465206779726F206F666660
:102C4E007365747300444F204E4F54204D4F5645BC
:102C5E002041204D505536303530002E00446F6ED9
:102C6E00652121210058203A200059203A20005A8F
:102C7E00203A200050726F6772616D2077696C6C1C
:102C8E0020737461727420616674657220332073D0
:102C9E0065636F6E6473005475726E696E67204C57
:102CAE006566740046696E69736865642074757232
:102CBE006E696E67006E616E00696E66006F766695
:022CCE00000004
:00000001FF
