:100000000C94E7010C9418020C9418020C9418023A
:100010000C9418020C9418020C9418020C941802F8
:100020000C9418020C9413030C9413030C941303F4
:100030000C9418020C9418020C9418020C941802D8
:100040000C9418020C9418020C9418020C941802C8
:100050000C9418020C9418020C9418020C949A0D2B
:100060000C9418020C94640C0C943A0C0C94180226
:100070000C9418020C9418020C9418020C94180298
:100080000C9418020C9418020C9418020C94180288
:100090000C9418020C9418020C9418020C9450073B
:1000A0000C9418020C9418020C9418020C94180268
:1000B0000C9418020C9418020C9418020C94180258
:1000C0000C9418020C9418020C9418020C94180248
:1000D0000C9418020C9418020C9418020C94180238
:1000E0000C941802C90CCC0CBB0CBF0CC30C030D38
:1000F000D00CD40CDA0CDE0CE20CE80CEC0CF00C9E
:10010000030DF60CFA0CFE0C084AD73B3BCE016EF1
:1001100084BCBFFDC12F3D6C74319ABD56833DDA5E
:100120003D00C77F11BED9E4BB4C3E916BAAAABE6D
:10013000000000803F000C9401090C9424090C94E9
:10014000F00C0C94D00C0C94030D0C94FE0C0C943D
:10015000CC0C0C94F60C0C94E20C0C94BF0C0C948C
:100160002C020C94E40D0C9410090C94D40C0C94F7
:1001700032090C9462130C94C30C0C948F080C94E9
:10018000BF0B0C94DA0C0C941C020C94DE0C0C9437
:10019000EC0C0C94E80C0C941D020C9440020C9492
:1001A000FA0C0C9449020C94930A0C9482080C9457
:1001B000C90C0C941B020C94AB020C94060C0C940E
:1001C0007E020C941A020C94BB0C00407A10F35A75
:1001D00000A0724E18090010A5D4E80000E8764887
:1001E000170000E40B54020000CA9A3B000000E133
:1001F000F505000080969800000040420F000000C6
:10020000A08601000000102700000000E8030000A5
:1002100000006400000000000A000000000001006F
:10022000000000002C76D888DC674F0823DFC1DF90
:10023000AE59E1B1B796E5E3E453C63AE651997693
:1002400096E8E6C28426EB898C9B62ED407C6FFCCD
:10025000EFBC9C9F40F2BAA56FA5F490055A2AF70F
:100260005C936B6CF9676DC11BFCE0E40D47FEF518
:1002700020E6B500D0ED902E030094357705008080
:10028000841E080000204E0A000000C80C333333DF
:10029000330F986E12831141EF8D2114893BE6557F
:1002A00016CFFEE6DB18D1844B381BF77C1D901D62
:1002B000A4BBE424203284725E228100C9F124ECC4
:1002C000A1E53D2700002100240027002A002D0081
:1002D0003000330001010000040107010A010000A1
:1002E0002200250028002B002E00310034000201DE
:1002F0000000050108010B010505050507050808B3
:100300000808020202020A0A08080404040401019F
:1003100001010101010103030303030303030407B4
:1003200007070C0C0C0C0C0C0C0C0202020206064B
:100330000606060606060B0B0B0B0B0B0B0B01023E
:1003400010202008081020401020408002010201E7
:10035000080402010102040810204080804020109F
:1003600008040201800402018040201008040201F8
:100370000804020101020408102040800102040860
:100380001020408000000A0B02090C0D0E08070324
:100390000401000000000000000000000000000058
:1003A000000000000000000000000000000000004D
:1003B000121110000000000000000000000000000A
:1003C000000000000000000000006213E40D112492
:1003D0001FBECFEFD1E2DEBFCDBF00E00CBF25E0F6
:1003E000AAE4B3E001C01D92A330B207E1F713E025
:1003F000A0E0B2E0E2E5F8E300E00BBF02C0079046
:100400000D92AA34B107D9F711E0C6EED1E000E0B1
:1004100006C021970109802FFE010E94E019C53E08
:10042000D10780E00807A9F70E94E80D0C94171C7B
:100430000C940000089508950895E091B40380910C
:10044000B303E81730F4F0E0EF52FC4F808190E006
:1004500008958FEF9FEF08959091B4038091B303B7
:10046000981750F4E92FF0E0EF52FC4F208130E074
:100470009F5F9093B40302C02FEF3FEFC90108952F
:100480008091B30390E02091B403821B91090895F9
:10049000089580E090E0089585ED8093BC00809100
:1004A000BC0084FDFCCF10921704089540916A03AC
:1004B000262F30E0240F311D21323105DCF420914C
:1004C00017042430C9F4FC0180E090E0861758F44A
:1004D00030916A032191DC01A65BBC4FA30FB11DD3
:1004E0002C930196F3CF80916A03680F60936A039F
:1004F00080E0089581E0089582E00895CF92DF9230
:10050000EF92FF920F931F93CF93DF937C01CB0168
:100510008A012091B803222389F0EB016B01C40EFC
:10052000D51ECC15DD0569F06991D701ED91FC91DF
:100530000190F081E02DC7011995F3CF642F0E943F
:100540005602C801DF91CF911F910F91FF90EF905C
:10055000DF90CF900895CF93DF931F92CDB7DEB792
:1005600069832091B8032223D1F02091B503203272
:1005700040F021E030E0FC013383228380E090E012
:1005800015C08091B603E82FF0E0E357FC4F998146
:1005900090838F5F8093B6038093B50305C061E0BD
:1005A000CE0101960E94560281E090E00F90DF910B
:1005B000CF9108950F931F93CF93DF93EC01888120
:1005C0009981009729F02A813B812617370788F403
:1005D0008B016F5F7F4F0E941D1B009761F0998315
:1005E00088831B830A832C813D81232B11F4FC011A
:1005F000108281E001C080E0DF91CF911F910F91C7
:100600000895CF93DF93EC0188819981009711F0D1
:100610000E94941A198218821D821C821B821A82DF
:10062000DF91CF9108951F920F920FB60F92112470
:100630000F900FBE0F901F9018953091B503313277
:1006400008F04AC0809117048111FCCF9091B70344
:1006500022E020931704609316042FEF20931504D3
:100660001092140430931304EDE8F3E0A1EFB3E02B
:1006700020E0321721F041914D932F5FFACF109275
:10068000120420911204990F922B909312049091CE
:100690001104913061F4109211049091120490931E
:1006A000BB009091BC0093FDF8CF95EC01C095EE96
:1006B0009093BC00909117049230E1F3909115044F
:1006C0009F3F79F080911504803241F080911504AC
:1006D000803331F084E005C081E003C082E001C0D6
:1006E00083E01092B6031092B5031092B8030895F8
:1006F0002F923F924F925F926F927F928F929F9232
:10070000AF92BF92CF92DF92EF92FF920F931F931F
:10071000CF93DF93CDB7DEB7E6970FB6F894DEBF81
:100720000FBECDBF1C0181E08093B80389E68093A2
:10073000B7031092B6031092B503D1018D919C912D
:10074000DC01ED91FC910190F081E02D6BE31995B6
:1007500060E0F101808191810E941D0341E06EE023
:1007600089E60E94E0091092B4038093B303D1019B
:100770008D919C91DC01ED91FC910284F385E02D3B
:100780001995182FF10180819181DC01ED91FC9187
:100790000284F385E02D199520E030E0312F822B83
:1007A000932BF1019383828380819181DC01ED9110
:1007B000FC910284F385E02D1995182FF1018081B9
:1007C0009181DC01ED91FC910284F385E02D199576
:1007D00020E030E0312F822B932BF101958384832D
:1007E00080819181DC01ED91FC910284F385E02D03
:1007F0001995182FF10180819181DC01ED91FC9117
:100800000284F385E02D199520E030E0312F822B12
:10081000932BF1019783868380819181DC01ED9197
:10082000FC910284F385E02D1995182FF101808148
:100830009181DC01ED91FC910284F385E02D199505
:1008400020E030E0312F822B932BF10191878087BC
:1008500080819181DC01ED91FC910284F385E02D92
:100860001995182FF10180819181DC01ED91FC91A6
:100870000284F385E02D199520E030E0312F822BA2
:10088000932BF1019387828780819181DC01ED9127
:10089000FC910284F385E02D1995182FF1018081D8
:1008A0009181DC01ED91FC910284F385E02D199595
:1008B00020E030E0312F822B932BF1019587848744
:1008C00080819181DC01ED91FC910284F385E02D22
:1008D0001995F82EF10180819181DC01ED91FC9157
:1008E0000284F385E02D199500E010E01F2D082B00
:1008F000192BF1011787068760857185072E000C7B
:10090000880B990B0E94D01620E030EF41E456E4AA
:100910000E94EE1720E030E04AEA53E40E94CC182F
:10092000D1015C966D937D938D939C935F97129606
:100930006D917C911397072E000C880B990B0E94E8
:10094000D01620E030E040E858E30E942F174B011A
:100950005C01F10160A371A382A393A364817581FB
:10096000072E000C880B990B0E94D01620E030E077
:1009700040E858E30E942F176B017C01D101949647
:100980006D937D938D939C93979716966D917C9123
:100990001797072E000C880B990B0E94D01620E0A9
:1009A00030E040E858E30E942F172B013C01F10191
:1009B00060A771A782A793A720E030E0A901C50135
:1009C000B4010E949419181624F0C501B40190587E
:1009D00002C0C501B401A30192010E94EE179B0160
:1009E000AC01C701B6010E946D1891012C5B3F4F0D
:1009F0003CA72BA720E030E044EB53E40E942F17E4
:100A000020E030E040E05FE30E942F172BED3FE055
:100A100049E450E40E94CC18ABA5BCA56D937D932E
:100A20008D939C93139720E030E0A901C701B60194
:100A30000E949419181624F0F7FAF094F7F8F0943D
:100A4000A3019201C701B6010E94EE179B01AC0100
:100A5000C501B4010E946D18F101E85BFF4FFCABCA
:100A6000EBAB20E030E044EB53E40E942F1720E092
:100A700030E040E05FEB0E942F172BED3FE049E4B0
:100A800050E40E94CC18ABA9BCA96D937D938D93C3
:100A90009C931397F10164857585072E000C880BD4
:100AA000990B0E94D01620E030E043E852E40E9407
:100AB000CC186B017C01D1011A966D917C911B972A
:100AC000072E000C880B990B0E94D01620E030E016
:100AD00043E852E40E94CC18F1012089318942890F
:100AE00053890E94ED17D1019C966D937D938D9350
:100AF0009C939F9754962D913D914D915C91579762
:100B0000C701B6010E94ED17F10160AB71AB82AB7A
:100B100093ABB801110F880B990B0E94D01620E0FF
:100B200030E043E852E40E94CC18D10158962D9150
:100B30003D914D915C915B970E94ED17F10164AB83
:100B400075AB86AB97AB0E948E0D9101205A3F4F3B
:100B50003EAB2DABD9010D911D912D913C91601BA8
:100B6000710B820B930B0E94CE162FE632E143E805
:100B70005AE30E942F172B013C01F101E45AFF4F69
:100B80006083718382839383F10124A535A546A5F3
:100B900057A50E942F174B015C019B01AC01D101AD
:100BA000D8966D917D918D919C91DB970E94EE1767
:100BB000F10160AF71AF82AF93AF20A931A942A913
:100BC00053A9C301B2010E942F176B017C019B0145
:100BD000AC01D101DC966D917D918D919C91DF9757
:100BE0000E94EE17F10164AF75AF86AF97AF24A9ED
:100BF00035A946A957A9C301B2010E942F17810147
:100C0000005C1F4FD8012D913D914D915C910E9448
:100C1000EE172B013C01F80160837183828393837B
:100C2000B89680819181A281B3818BA79CA7ADA743
:100C3000BEA7349780819181A281B3818FA798ABA1
:100C4000A9ABBAAB005F1F4FD8012D913D914D91DB
:100C50005C91C501B4010E94EE172BA53CA54DA5E2
:100C60005EA50E942F174B015C01F101EC5BFF4F69
:100C700020813181428153816FA578A989A99AA9E0
:100C80000E942F179B01AC01C501B4010E94EE1711
:100C9000F80160837183828393830C5F1F4FD801B7
:100CA0002D913D914D915C91C701B6010E94EE17C7
:100CB0002BA53CA54DA55EA50E942F176B017C01BD
:100CC000EBA9FCA920813181428153816FA578A9CC
:100CD00089A99AA90E942F179B01AC01C701B601EF
:100CE0000E94EE17D8016D937D938D939C9313977B
:100CF000F101E85AFF4F4082518262827382B30150
:100D0000A201CE014F960E94A209F10144A955A962
:100D100066A977A9CE0149960E94A209D1011E9623
:100D20008D919C911F971C8A1B8A1E8A1D8A188E82
:100D30001F8A4AE08E010F5F1F4FB8010E944514C1
:100D4000F80101900020E9F73197AF01401B510BEA
:100D5000B801CE0143960E94E0081A8219821C82D3
:100D60001B821E821D824AE050E062E372E0C801ED
:100D70000E94E008BE016D5E7F4FC8010E948F098E
:100D80006DE372E00E94C708BE01675E7F4F0E945C
:100D90008F0966E472E00E94C708BE01615E7F4F62
:100DA0000E948F09FC011EA21DA218A61FA21AA64E
:100DB00019A6CE018596E817F90749F0608171817F
:100DC0006115710521F0448155810E94E0088981F7
:100DD0009A810E94941A8B899C890E94941A898D09
:100DE0009A8D0E94941A8F8D98A10E94941A49A5F9
:100DF0005AA56DA17EA184E294E00E94060C0E9497
:100E00008B090E948E0DEDA9FEA9608371838283F8
:100E100093838DA19EA10E94941AE6960FB6F89432
:100E2000DEBF0FBECDBFDF91CF911F910F91FF901D
:100E3000EF90DF90CF90BF90AF909F908F907F907A
:100E40006F905F904F903F902F9008951F93CF9396
:100E5000DF93EC01142F81E08093B80389E680933F
:100E6000B7031092B6031092B50388819981DC0113
:100E7000ED91FC910190F081E02D19958881998187
:100E8000DC01ED91FC910190F081E02D612F19952D
:100E900061E088819981DF91CF911F910C941D03AE
:100EA0001F920F920FB60F9211240BB60F922F9331
:100EB0003F934F935F936F937F938F939F93AF93E2
:100EC000BF93EF93FF938091B900887F803609F438
:100ED0009CC068F5883209F45BC090F4803109F455
:100EE00054C038F4882309F4F6C0883009F44DC0A2
:100EF000F6C0883109F44CC0803209F45DC0EFC0FF
:100F0000803409F468C048F4803309F455C088334C
:100F100009F0E5C080931504D8C0803509F44FC0AE
:100F2000883509F45DC0883409F0D9C0D6C0883945
:100F300009F4C7C0A8F4883709F467C038F48836C4
:100F400009F463C0803709F460C0C9C0883809F467
:100F5000B8C0803909F45FC0803809F0C0C05BC0F8
:100F6000803B09F486C038F4803A09F466C0883AB8
:100F700009F47FC0B4C0803C09F4A7C0883C09F4E0
:100F8000A4C0883B09F48AC0AAC08091120410C092
:100F90009091140480911304981770F5E091140453
:100FA00081E08E0F80931404F0E0EF50FC4F8081BD
:100FB0008093BB0085EC86C0809315048EC0E091C1
:100FC000140481E08E0F809314048091BB00F0E044
:100FD000EF50FC4F808390911404809113046EC0F5
:100FE000E091140481E08E0F809314048091BB0083
:100FF000F0E0EF50FC4F80838091160481116DC0AA
:1010000081E08093110484EA61C083E08093170437
:1010100010928C03CFCF80918C03803208F051C0A6
:10102000E0918C0381E08E0F80938C038091BB0054
:10103000F0E0E459FC4F8083BDCF85EC8093BC0089
:101040001092170480918C03803230F4E0918C036D
:10105000F0E0E459FC4F108260918C0370E0E09165
:10106000AF03F091B0038CE693E0199510928C03D6
:1010700036C084E08093170410926B0310926A03C9
:10108000E091B103F091B203199580916A03811147
:1010900005C081E080936A0310924A03E0916B03DC
:1010A00081E08E0F80936B03F0E0E65BFC4F808164
:1010B0008093BB0090916B0380916A03981708F4AA
:1010C00079CF85E88093BC000AC085EC8093BC0092
:1010D0001092170404C0109215040E944C02FF9154
:1010E000EF91BF91AF919F918F917F916F915F91A0
:1010F0004F913F912F910F900BBE0F900FBE0F900D
:101100001F901895CF93DF93EC018C819D810E94F5
:10111000941A8A819B81DF91CF910C94941ACF937A
:10112000DF93EC010E948208CE01DF91CF910C94F5
:10113000941AEF92FF920F931F93CF93DF93611551
:10114000710511F480E01CC041155105C1F07B010F
:10115000EC018C819D818A01080F191FB801CE0115
:101160000E94DA02882371F3288139818C819D8164
:10117000B701820F931F0E94101C1D830C8381E016
:10118000DF91CF911F910F91FF90EF900895CF9332
:10119000DF93EC016115710561F0FB010190002006
:1011A000E9F73197AF01461B570B0E94990881114F
:1011B00003C0CE010E940103CE01DF91CF910895BB
:1011C000EF92FF920F931F93CF93DF93EC017B017C
:1011D0008A01BA010E94DA02811104C0CE010E9484
:1011E000010307C01D830C83B701888199810E9488
:1011F000101CCE01DF91CF911F910F91FF90EF90C6
:101200000895FC01538D448D252F30E0842F90E00C
:10121000821B930B541710F0CF96089501970895F1
:10122000FC01918D828D981761F0828DDF01A80FEE
:10123000B11D5D968C91928D9F5F9F73928F90E010
:1012400008958FEF9FEF0895FC01918D828D98177F
:1012500031F0828DE80FF11D858D90E008958FEFBC
:101260009FEF0895FC01918D228D892F90E0805C85
:101270009F4F821B91098F739927089580E090E01A
:10128000892B21F00E94300C811125C080E090E074
:10129000892B41F080E090E0892B21F00E94000032
:1012A00081111CC080E090E0892B41F080E090E04B
:1012B000892B21F00E940000811113C080E090E092
:1012C000892BA1F080E090E0892B81F00E94000042
:1012D00081110AC008950E940000D8CF0E9400002A
:1012E000E1CF0E940000EACF0C940000089500971F
:1012F00069F0FC0101900020E9F73197AF01481B2C
:10130000590BBC0184E294E00C94060C80E090E060
:1013100008950E94021C8BE393E00C947709CF930D
:10132000DF93EC01FB0144815581608171810E9452
:101330009908811103C0CE010E940103CE01DF9103
:10134000CF910895EF92FF920F931F93CF93DF9366
:10135000CDB7DEB7A1970FB6F894DEBF0FBECDBFF5
:101360007C01CB01BA01F701118210821382128233
:10137000158214828E010F5F1F4F22E044E00E940D
:101380002514009769F0FC0101900020E9F73197DE
:10139000AF01481B590BBC01C7010E94E00803C004
:1013A000C7010E940103A1960FB6F894DEBF0FBEDD
:1013B000CDBFDF91CF911F910F91FF90EF900895D6
:1013C000909117049111FCCF91E0909317044093F2
:1013D00016042FEF2093150410921404260F209367
:1013E00013049093120490911204880F892B809318
:1013F000120480911104813061F4109211048091E3
:1014000012048093BB008091BC0083FDF8CF85EC73
:1014100001C085EE8093BC00809117048130E1F318
:1014200080911404861710F460911404A1EFB3E0C6
:10143000E1EDF3E080E0861721F09D9191938F5FBD
:10144000FACF08958F929F92AF92BF920F931F93FE
:10145000CF93DF93CDB7DEB7A1970FB6F894DEBF79
:101460000FBECDBF19A2423008F44AE08E010F5DD5
:101470001F4F842E912CA12CB12CA50194010E9408
:10148000BE19E62FB901CA0101501109EA3014F45E
:10149000E05D01C0E95CD801EC93232B242B252BC4
:1014A00061F7C8010E947709A1960FB6F894DEBFD4
:1014B0000FBECDBFDF91CF911F910F91BF90AF9025
:1014C0009F908F9008950C947709CF93DF930E949B
:1014D0007709EC010E948B098C0F9D1FDF91CF9142
:1014E0000895FC01848DDF01A80FB11DA35ABF4FE1
:1014F0002C91848D90E001968F739927848FA68913
:10150000B7892C93A089B1898C91837080648C9366
:10151000938D848D981306C00288F389E02D808115
:101520008F7D80830895EF92FF920F931F93CF9347
:10153000DF93EC0181E0888F9B8D8C8D981305C023
:10154000E889F989808185FD26C0F62E0B8D10E093
:101550000F5F1F4F0F731127E02E8C8DE8120CC008
:101560000FB607FCFACFE889F989808185FFF5CFAE
:10157000CE010E94710AF1CF8B8DFE01E80FF11DA3
:10158000E35AFF4FF0829FB7F8940B8FEA89FB89EB
:10159000808180620AC09FB7F894EE89FF896083DA
:1015A000E889F98980818370806480839FBF81E0AE
:1015B00090E0DF91CF911F910F91FF90EF900895F0
:1015C0008F929F92AF92BF92CF92DF92EF92FF9253
:1015D0000F931F93CF93DF936B017C01142F9B011B
:1015E000AC010E94A519882319F08EE393E027C06F
:1015F00046015701E894B7F82FEF3FEF4FE75FE759
:10160000C501B4010E94A51981110DC02FEF3FEF54
:101610004FE75FE7C501B4010E94C91618161CF414
:1016200082E493E00CC02FEF3FEF4FE75FE4C70188
:10163000B6010E949419181684F486E493E0DF91B1
:10164000CF911F910F91FF90EF90DF90CF90BF90BF
:10165000AF909F908F900C9477092FEF3FEF4FE75B
:101660005FECC701B6010E94C91687FDE6CF20E0F6
:1016700030E0A901C701B6010E94C91687FF0BC05F
:101680006DE284E294E00E94930AEC01F7FAF09490
:10169000F7F8F09402C0C0E0D0E000E060E070E055
:1016A00080E09FE3101741F020E030E040E251E499
:1016B0000E94CC180F5FF6CFA70196010E94EE178B
:1016C0006B017C010E943E194B015C014AE00E94C3
:1016D000220AC80FD91F1123B9F1C501B4010E9414
:1016E000CE169B01AC01C701B6010E94ED176B013C
:1016F0007C016EE284E294E00E94930AC80FD91F35
:1017000020E030E040E251E4C701B6010E942F170B
:101710004B015C010E943E196B01E12CF12C4AE067
:10172000C701B6010E94220AC80FD91FC701B6011E
:101730000E94CE169B01AC01C501B4010E94ED17B9
:101740006B017C011150E1F6CE01DF91CF911F9129
:101750000F91FF90EF90DF90CF90BF90AF909F9050
:101760008F900895CF93DF9342E00E94E00AEC014E
:101770000E948B098C0F9D1FDF91CF910895CF930D
:10178000DF93EC01888D8823C9F0EA89FB89808189
:1017900085FD05C0A889B9898C9186FD0FC00FB65B
:1017A00007FCF5CF808185FFF2CFA889B9898C919C
:1017B00085FFEDCFCE010E94710AE7CFDF91CF9177
:1017C00008953FB7F8948091FB049091FC04A09198
:1017D000FD04B091FE0426B5A89B05C02F3F19F06B
:1017E0000196A11DB11D3FBFBA2FA92F982F8827A1
:1017F000820F911DA11DB11DBC01CD0142E0660FFC
:10180000771F881F991F4A95D1F70895CF92DF92CD
:10181000EF92FF920F931F93CF93DF936C017A01A6
:101820008B01C0E0D0E0CE15DF0581F0D8016D91CD
:101830008D01D601ED91FC910190F081E02DC60162
:101840001995892B11F02196EECF7E01C701DF910A
:10185000CF911F910F91FF90EF90DF90CF9008955F
:1018600084E294E00E94320921E0892B09F420E00F
:10187000822F08951F920F920FB60F9211240BB66C
:101880000F922F933F934F935F936F937F938F9319
:101890009F93AF93BF93EF93FF9384E294E00E94F2
:1018A000710AFF91EF91BF91AF919F918F917F91BD
:1018B0006F915F914F913F912F910F900BBE0F90C1
:1018C0000FBE0F901F9018951F920F920FB60F9298
:1018D00011240BB60F922F938F939F93EF93FF9347
:1018E000E0913404F09135048081E0913A04F09164
:1018F0003B0482FD12C0908180913D048F5F8F7305
:1019000020913E04821751F0E0913D04F0E0EC5D3F
:10191000FB4F958F80933D0401C08081FF91EF9133
:101920009F918F912F910F900BBE0F900FBE0F9034
:101930001F901895362F90E0FC01EC57FC4F449116
:10194000FC01E25CFC4F2491FC01E850FD4F9491B6
:10195000992309F46CC0442309F455C050E0FA01FE
:101960003197E231F10508F04EC08827EE58FF4F5D
:101970008F4F0C94E019809180008F7707C0809181
:1019800080008F7D03C080918000877F80938000DE
:101990003AC084B58F7702C084B58F7D84BD33C0D3
:1019A0008091B0008F7703C08091B0008F7D8093CD
:1019B000B00029C0809190008F7707C0809190007F
:1019C0008F7D03C080919000877F809390001BC023
:1019D0008091A0008F7707C08091A0008F7D03C009
:1019E0008091A000877F8093A0000DC0809120018E
:1019F0008F7707C0809120018F7D03C080912001E7
:101A0000877F80932001E92FF0E0EE0FFF1FE25265
:101A1000FD4FA591B4919FB7F894311104C08C91FA
:101A20002095282302C0EC912E2B2C939FBF089564
:101A3000CF93DF9390E0FC01E25CFC4F2491FC012A
:101A4000E850FD4F8491882361F190E0880F991F41
:101A5000FC01EC53FD4FC591D491FC01E252FD4FC6
:101A6000A591B491611109C09FB7F8948881209520
:101A700082238883EC912E230BC0623061F49FB7E0
:101A8000F8948881322F309583238883EC912E2B14
:101A90002C939FBF06C08FB7F894E8812E2B288324
:101AA0008FBFDF91CF9108958F929F92AF92BF9297
:101AB000CF92DF92EF92FF926B017C010E94E10BCB
:101AC0004B015C01C114D104E104F104F1F00E9466
:101AD000E10BDC01CB0188199909AA09BB09883EF1
:101AE0009340A105B10570F321E0C21AD108E108C5
:101AF000F10888EE880E83E0981EA11CB11CC11469
:101B0000D104E104F10419F7DDCFFF90EF90DF90ED
:101B1000CF90BF90AF909F908F9008952FB7F8947B
:101B20006091F7047091F8048091F9049091FA049F
:101B30002FBF08951F920F920FB60F9211242F936B
:101B40003F938F939F93AF93BF938091F7049091AE
:101B5000F804A091F904B091FA043091F60423E05E
:101B6000230F2D3720F40196A11DB11D05C026E8D5
:101B7000230F0296A11DB11D2093F6048093F70454
:101B80009093F804A093F904B093FA048091FB04B5
:101B90009091FC04A091FD04B091FE040196A11D5A
:101BA000B11D8093FB049093FC04A093FD04B093BB
:101BB000FE04BF91AF919F918F913F912F910F9014
:101BC0000FBE0F901F90189581EC94E00C94820842
:101BD000CF93DF93CDB7DEB76A970FB6F894DEBF29
:101BE0000FBECDBF789484B5826084BD84B581601A
:101BF00084BD85B5826085BD85B5816085BD8091D8
:101C00006E00816080936E0010928100809181004F
:101C10008260809381008091810081608093810047
:101C2000809180008160809380008091B100846009
:101C30008093B1008091B00081608093B00080916A
:101C400091008260809391008091910081608093E7
:101C50009100809190008160809390008091A1001C
:101C600082608093A1008091A10081608093A10097
:101C70008091A00081608093A0008091210182600A
:101C800080932101809121018160809321018091C5
:101C9000200181608093200180917A00846080938C
:101CA0007A0080917A00826080937A0080917A0035
:101CB000816080937A0080917A00806880937A00B6
:101CC0001092C100E0913404F091350482E08083E9
:101CD000E0913004F09131041082E0913204F091EF
:101CE000330480E1808310923C04E0913804F09149
:101CF000390486E08083E0913604F09137048081D6
:101D000080618083E0913604F0913704808188609F
:101D10008083E0913604F09137048081806880836D
:101D2000E0913604F091370480818F7D808310929A
:101D3000B4031092B3031092B6031092B50310923D
:101D4000170481E0809316041092110461E084E18D
:101D50000E949A0C61E085E10E949A0C8091B90082
:101D60008E7F8093B9008091B9008D7F8093B900F8
:101D700088E48093B80085E48093BC008AE192E017
:101D80009093B2038093B1038BE192E09093B00300
:101D90008093AF038CE08093B80082E592E00E94CC
:101DA000650A8CE690E00E94FC199E878D8788E189
:101DB00094E0AD85BE8511969C938E93FD01EC5900
:101DC000FF4F8AE097EDA3EABCE380839183A2836F
:101DD000B383ED85FE85E859FF4F88E491EEAAE7CD
:101DE000BFE380839183A283B383ED85FE85F09367
:101DF000C404E093C30488EC90E00E94FC19909323
:101E0000C6048093C5041092CA041092C9041092AB
:101E1000C8041092C70482E692E00E94650A40E07E
:101E200069E18D859E850E94260740E06AE18D85E7
:101E30009E850E94260748E06BE18D859E850E9465
:101E4000260740E06CE18D859E850E94260741E0D3
:101E50006BE68D859E850E9426078D859E850E9456
:101E60007803AD85BE85D8961D921D921D921C9259
:101E7000DB97FD0114AE15AE16AE17AEE05BFF4F5B
:101E8000AC5BBF4F8D919D910D90BC91A02D808337
:101E90009183A283B383ED85FE85EC5AFF4FAD8518
:101EA000BE85A85BBF4F8D919D910D90BC91A02DDB
:101EB00080839183A283B3830E948E0D2D853E85FE
:101EC000205A3F4FD9016D937D938D939C93139727
:101ED0008FE692E00E94650AE091C304F091C40489
:101EE000FA8FE98F8EE792E00E94650A68EE73E050
:101EF00080E090E00E94540D0E948B098EE792E0F2
:101F00000E94650A87EA92E00E94650A8EEB92E0E1
:101F10000E94630AC12CD12C76014601570126018B
:101F20003701212C312CC10168EE73E00E94AA19FF
:101F3000892B21F484ED92E00E94630AF1E0F09392
:101F4000B80329E62093B7031092B6031092B503A5
:101F5000A98DBA8D8D919C91DC01ED91FC91019040
:101F6000F081E02D6BE3199560E0E98DFA8D8081B9
:101F700091810E941D0341E06EE089E60E94E00924
:101F80001092B4038093B303A98DBA8D8D919C9167
:101F9000DC01ED91FC910284F385E02D1995E98D2A
:101FA000FA8D80819181DC01ED91FC910284F385B1
:101FB000E02D1995E98DFA8D80819181DC01ED91FB
:101FC000FC910284F385E02D1995E98DFA8D8081CD
:101FD0009181DC01ED91FC910284F385E02D19954E
:101FE000E98DFA8D80819181DC01ED91FC91028473
:101FF000F385E02D1995E98DFA8D80819181DC01C1
:10200000ED91FC910284F385E02D1995E98DFA8D0F
:1020100080819181DC01ED91FC910284F385E02DBA
:102020001995E98DFA8D80819181DC01ED91FC910A
:102030000284F385E02D1995E98DFA8D80819181D7
:10204000DC01ED91FC910284F385E02D1995182FA8
:10205000E98DFA8D80819181DC01ED91FC91028402
:10206000F385E02D19951A831982E981FA81E82B0D
:10207000F92BFE87ED87A98DBA8D8D919C91DC019E
:10208000ED91FC910284F385E02D1995182FE98DCF
:10209000FA8D80819181DC01ED91FC910284F385C0
:1020A000E02D19951E831D82ED81FE81E82BF92B11
:1020B000FA8BE98BA98DBA8D8D919C91DC01ED9104
:1020C000FC910284F385E02D19958D8BE98DFA8DB5
:1020D00080819181DC01ED91FC910284F385E02DFA
:1020E00019958C01ED85FE85BF01FF0F880B990BBB
:1020F0000E94D01620E030E043E852E40E94CC1861
:102100009B01AC01C301B2010E94EE172B013C01FF
:1021100029893A89B901330F880B990B0E94D0168F
:1021200020E030E043E852E40E94CC189B01AC016F
:10213000C501B4010E94EE174B015C013D893A874D
:10214000198669857A85602B712B072E000C880B08
:10215000990B0E94D01620E030E043E852E40E9440
:10216000CC189B01AC01C701B6010E94EE176B01B0
:102170007C014FEF241A340A58EB25165BE0350634
:1021800009F0D1CE20E030E84BE355E4C301B201C1
:102190000E94CC18A98DBA8D50966D937D938D9326
:1021A0009C93539720E030E84BE355E4C501B4011C
:1021B0000E94CC18E98DFA8D648B758B868B978B7A
:1021C00020E030E84BE355E4C701B6010E94CC188B
:1021D000A98DBA8D58966D937D938D939C935B9743
:1021E0000E948B0986ED92E00E94650A8EED92E0D6
:1021F0000E94630AE98DFA8D6089718982899389C9
:102200000E94B20B83EE92E00E94630AA98DBA8D00
:1022100054966D917D918D919C9157970E94B20B30
:1022200088EE92E00E94630AE98DFA8D608D718DCF
:10223000828D938D0E94B20B8DEE92E00E94650A12
:102240008EE792E00E94630A68EB7BE080E090E01A
:102250000E94540D86E090E00E94FC19FC0188E287
:1022600080838AE2818388E893E1A0E0B0E0828302
:102270009383A483B58361E088E20E94180D60E037
:102280008AE20E94180D02E310E08091C30490914D
:10229000C4040E9478032091C3043091C4043A839B
:1022A0002983F901E05BFF4F2091C1033091C20304
:1022B0004091C3035091C4036081718182819381F5
:1022C0000E94EE174B015C016093C1037093C2033F
:1022D0008093C3039093C403E981FA81EC5AFF4FC2
:1022E0002091BD033091BE034091BF035091C003C4
:1022F00060817181828193810E94EE176B017C0164
:102300006093BD037093BE038093BF039093C0039B
:1023100049815A81485A5F4F5A8349832091B903B2
:102320003091BA034091BB035091BC03A981BA819B
:102330006D917D918D919C910E94EE172B013C0136
:102340006093B9037093BA038093BB039093BC036B
:102350000150110909F099CF20E030E048E452E43F
:10236000C501B4010E94CC186093C1037093C203ED
:102370008093C3039093C40320E030E048E452E428
:10238000C701B6010E94CC186093BD037093BE03D1
:102390008093BF039093C00320E030E048E452E410
:1023A000C301B2010E94CC186093B9037093BA03C1
:1023B0008093BB039093BC030E948E0D6093C9036E
:1023C0007093CA038093CB039093CC0385E0282EAF
:1023D000312C0E948E0D6093CD037093CE038093B9
:1023E000CF039093D0030091C5031091C6032091B1
:1023F000C7033091C803DC01CB01801B910BA20BFA
:10240000B30B8B3F9105A105B10508F42BC1809159
:10241000C3049091C4040E9478030E948E0D6B0146
:102420007C01E091C304F091C40400A111A122A198
:1024300033A144A055A066A077A080A491A4A2A433
:10244000B3A444A555A566A577A549835A836B8394
:102450007C8360A971A982A993A96D837E838F83F0
:10246000988784A995A9A6A9B7A989879A87AB87D0
:10247000BC87DF01A05BBF4F4D915D916D917C9159
:1024800013974D875E876F87788B14966D917D913A
:102490008D919C91698B7A8B8B8B9C8BE85AFF4F2B
:1024A00080819181A281B3818D8B9E8BAF8BB88F00
:1024B0006091C7047091C804A8E2A69FC001A79FBD
:1024C000900D11244091C5045091C604FA01E80F03
:1024D000F91FC082D182E282F382048315832683AE
:1024E0003783408651866286738684869586A68663
:1024F000B78689819A81AB81BC81808B918BA28BBD
:10250000B38B8D819E81AF81B885848B958BA68B93
:10251000B78B89859A85AB85BC85808F918FA28F7B
:10252000B38F8D859E85AF85B889848F958FA68F53
:10253000B78F89899A89AB89BC8980A391A3A2A30B
:10254000B3A38D899E89AF89B88D84A395A3A6A3D3
:10255000B7A3CB010196B1010E94AA199093C804B8
:102560008093C7048091C9049091CA048530910575
:102570002CF401969093CA048093C90442E0C901E7
:10258000B8010E94E00A80E193E00E94630A42E001
:10259000C301B2010E94E00A80E193E00E94630A55
:1025A00042E0C501B4010E94E00A80E193E00E948C
:1025B000630A42E069817A818B819C810E94E00AF2
:1025C00080E193E00E94630A42E06D817E818F8109
:1025D00098850E94E00A80E193E00E94630A42E04D
:1025E00069857A858B859C850E94E00A80E193E06D
:1025F0000E94630A42E06D857E858F8598890E94DE
:10260000E00A80E193E00E94630A42E069897A89E6
:102610008B899C890E94E00A80E193E00E94630A12
:1026200042E06D897E898F89988D0E94E00A80E161
:1026300093E00E94630A4AE0C701B6010E94220AA1
:102640000E948B098091CD039091CE03A091CF037E
:10265000B091D0038093C5039093C603A093C703A2
:10266000B093C8030E943E09B4CECF93DF9360E0DD
:102670008CE00E949A0C60E088E00E949A0CC7E00F
:10268000D0E060E084E00E949A0C8091CB0490E05E
:102690000C2E02C0959587950A94E2F780FF02C040
:1026A00061E001C060E088E00E949A0C61E084E093
:1026B0000E949A0C219728F761E08CE0DF91CF917E
:1026C0000C949A0CCF93DF93E4E2F4E0138212822D
:1026D00088EE93E0A0E0B0E084839583A683B7837F
:1026E0002AE032E03183208325EC30E035872487EF
:1026F00024EC30E03787268720EC30E0318B208BCC
:1027000021EC30E0338B228B22EC30E0358B248BB4
:1027100026EC30E0378B268B118E128E138E148EA2
:10272000E8E1F4E01382128284839583A683B78361
:102730008CE192E091838083E0EDF4E089E2868B86
:10274000108E178A118E10A211A212A283E090E0BF
:1027500094A383A3C1ECD4E08EE292E099838883B2
:102760001F821E821986188683E193E00E94650A03
:102770001B821A821D821C821986188686E293E0CB
:102780000E94650AEEECF4E084E08083D2E0D1831D
:1027900061E08CE00E94180D61E087E00E94180D56
:1027A00061E088E00E94180D61E084E00E94180D4D
:1027B0001092CB040E94351360E087E00E949A0CCF
:1027C0000E943513E0E9F0E0808181688083CAE0EF
:1027D000C0939100109299001092980061E085E0FA
:1027E0000E94180DECECF4E083E08083D18361E07B
:1027F0008CE00E94180D61E087E00E94180D61E0F6
:1028000088E00E94180D61E084E00E94180D10928B
:10281000CB040E94351360E087E00E949A0C0E946E
:102820003513E0EAF0E0808181688083C093A100E5
:102830001092A9001092A80061E086E00E94180D95
:102840001092F504DF91CF910895EF920F931F93AB
:10285000CF93DF93E80147FD02C034E001C034E1CB
:10286000042E000C550B57FF03C05195419551099B
:10287000E32E022F242FAE010E946A14CE01DF91B5
:10288000CF911F910F91EF900895BB274A3031F4FB
:10289000992322F4BDE2909581959F4F0C94511499
:1028A000BB27FB015527AA27880F991FAA1FA4172A
:1028B00010F0A41B83955051B9F7A05DAA3308F01E
:1028C000A95DA193009779F7B111B1931192CB0152
:1028D0000C94B9168F929F92AF92BF92CF92DF92D3
:1028E000EF92FF920F931F93CF93DF93CDB7DEB795
:1028F00029970FB6F894DEBF0FBECDBF6A01122F25
:10290000B02E2BE3201720F0FF24F394F00E02C02A
:102910002CE3F22E0F2D27E0AE014F5F5F4F0E9498
:10292000E115BC014981842F8970813031F0E1FCCF
:1029300006C0E0FE06C090E205C09DE203C09BE237
:1029400001C090E05E2D507143FF3CC0911102C068
:1029500083E001C084E0811718F4212F281B01C0F7
:1029600020E051110BC0F601822F30E2882319F0CC
:1029700031938150FBCFC20ED11C20E0992329F066
:10298000D6019C93F60131966F01C6010396E2FED3
:102990000AC03EE4D6013C9341E411964C93119752
:1029A00012963C9306C03EE6F601308341E6418331
:1029B0003283FC01322F40E2332309F442C04193B9
:1029C0003150FACF42FF44C0911102C083E001C0F0
:1029D00084E0811718F4212F281B01C020E0511139
:1029E0000BC0F601822F30E2882319F03193815019
:1029F000FBCFC20ED11C20E0992329F0D6019C9375
:102A0000F60131966F01C6010396E2FE0BC039E470
:102A1000D6013C933EE411963C93119736E412960E
:102A20003C9307C039E6F60130833EE6318336E653
:102A30003283FC01322F40E2332319F041933150AD
:102A4000FBCFFC01E20FF11D10828EEF9FEFA6C0BD
:102A500021E030E0911102C020E030E016161706A8
:102A60001CF4FB01319602C0E1E0F0E02E0F3F1FA5
:102A7000BB2021F0EB2DF0E0319602C0E0E0F0E069
:102A80002E0F3F1FE12FF0E02E173F071CF4121B03
:102A9000212F01C020E08E2D887159F4F601822F7C
:102AA00030E2882319F031938150FBCFC20ED11C44
:102AB00020E0992329F0D6019C93F60131966F010D
:102AC00051110BC0F601822F90E3882319F09193E6
:102AD0008150FBCFC20ED11C20E00F2D060F9A8132
:102AE000342F307144FF03C0913309F401501016A4
:102AF00024F4093018F008E001C001E0AB0177FFD1
:102B000002C040E050E0FB01E41BF50BA1E0B0E0A7
:102B1000AC0FBD1FEA0FFB1F8EE2A82E4B01801ADF
:102B200091080B2D10E01195019511094F3FBFEF52
:102B30005B0721F4D601AC9211966D0164177507FD
:102B40002CF08416950614F4818101C080E3415075
:102B500051093196D60111967D014017510724F095
:102B6000D6018C936701E2CF6417750739F4963369
:102B700020F4953319F4311101C081E3F60180830B
:102B8000F701822F90E2882319F091938150FBCFB7
:102B9000F701E20FF11D108280E090E029960FB658
:102BA000F894DEBF0FBECDBFDF91CF911F910F9183
:102BB000FF90EF90DF90CF90BF90AF909F908F905D
:102BC0000895283008F027E03327DA01990F311DE6
:102BD00087FD916000966105710539F432602E5FC2
:102BE0003D9330E32A95E1F708959F3F30F0803818
:102BF0007105610509F03C5F3C5F3D93913008F041
:102C00008068911DDF93CF931F930F93FF92EF92F4
:102C1000192F987F9695E92F96959695E90FFF279E
:102C2000EC5DFD4F99273327EE24FF24A701E70130
:102C300005900894079428F4360FE71EF81E491FE4
:102C4000511D660F771F881F991F0694A1F70590E5
:102C5000079428F4E70EF81E491F561FC11D770F71
:102C6000881F991F661F0694A1F70590079428F402
:102C7000F80E491F561FC71FD11D880F991F661FC9
:102C8000771F0694A1F70590079420F4490F561F6B
:102C9000C71FD81F990F661F771F881F0694A9F7B3
:102CA00084911095177041F0D695C7955795479523
:102CB000F794E7941A95C1F7EAECF1E0689415905F
:102CC000159135916591959105907FE27395E11885
:102CD000F10A430B560BC90BD009C0F7E10CF11EEA
:102CE000431F561FC91FD01D7EF4703311F48A95FF
:102CF000E6CFE894015030F0080F0AF400270217DD
:102D000008F4202F2395022F7A3328F079E37D935E
:102D10002A95E9F710C07D932A9589F60694979530
:102D20006795379517951794E118F10A430B560BE1
:102D3000C90BD00998F023957E9173957A3308F0EA
:102D400070E37C932013B8F77E9170617D9330F02F
:102D5000839571E37D9370E32A95E1F71124EF9059
:102D6000FF900F911F91CF91DF91992787FD90954B
:102D70000895DC01FC01672F71917723E1F7329709
:102D800004C07C916D9370836291AE17BF07C8F346
:102D900008950E940B1708F481E00895E89409C093
:102DA00097FB3EF490958095709561957F4F8F4F7E
:102DB0009F4F9923A9F0F92F96E9BB279395F69594
:102DC000879577956795B795F111F8CFFAF4BB0F12
:102DD00011F460FF1BC06F5F7F4F8F4F9F4F16C076
:102DE000882311F096E911C0772321F09EE8872F00
:102DF000762F05C0662371F096E8862F70E060E0BC
:102E00002AF09A95660F771F881FDAF7880F969534
:102E1000879597F90895990F0008550FAA0BE0E8D8
:102E2000FEEF16161706E807F907C0F0121613068C
:102E3000E407F50798F0621B730B840B950B39F4CC
:102E40000A2661F0232B242B252B21F408950A2632
:102E500009F4A140A6958FEF811D811D08950E9460
:102E600042170C94B3170E94A51738F00E94AC17B4
:102E700020F0952311F00C949C170C94A2171124A8
:102E80000C94E7170E94C41770F3959FC1F3950F38
:102E900050E0551F629FF001729FBB27F00DB11DDE
:102EA000639FAA27F00DB11DAA1F649F6627B00D6E
:102EB000A11D661F829F2227B00DA11D621F739F57
:102EC000B00DA11D621F839FA00D611D221F749F65
:102ED0003327A00D611D231F849F600D211D822FAC
:102EE000762F6A2F11249F5750409AF0F1F08823D3
:102EF0004AF0EE0FFF1FBB1F661F771F881F915000
:102F00005040A9F79E3F510580F00C949C170C94FB
:102F1000E7175F3FE4F3983ED4F38695779567957E
:102F2000B795F795E7959F5FC1F7FE2B880F911D29
:102F30009695879597F9089597F99F6780E870E0CF
:102F400060E008959FEF80EC089500240A9416161F
:102F5000170618060906089500240A941216130687
:102F6000140605060895092E0394000C11F4882315
:102F700052F0BB0F40F4BF2B11F460FF04C06F5F31
:102F80007F4F8F4F9F4F089557FD9058440F551F07
:102F900059F05F3F71F04795880F97FB991F61F0DB
:102FA0009F3F79F087950895121613061406551F52
:102FB000F2CF4695F1DF08C0161617061806991FBE
:102FC000F1CF86957105610508940895E894BB27B3
:102FD00066277727CB0197F908955058BB27AA2772
:102FE0000E9405180C94B3170E94A51738F00E9490
:102FF000AC1720F039F49F3F19F426F40C94A21773
:103000000EF4E095E7FB0C949C17E92F0E94C4177F
:1030100058F3BA17620773078407950720F079F40D
:10302000A6F50C94E6170EF4E0950B2EBA2FA02D02
:103030000B01B90190010C01CA01A0011124FF2765
:10304000591B99F0593F50F4503E68F11A16F04060
:10305000A22F232F342F4427585FF3CF469537955F
:103060002795A795F0405395C9F77EF41F16BA0B24
:10307000620B730B840BBAF09150A1F0FF0FBB1FD2
:10308000661F771F881FC2F70EC0BA0F621F731F1B
:10309000841F48F4879577956795B795F7959E3F78
:1030A00008F0B0CF9395880F08F09927EE0F979509
:1030B000879508950E94A51760F080E891E009F4D3
:1030C0009EEF0E94AC1728F040E851E071F45EEFEB
:1030D0000CC00C94A2170C94E617E92FE0780E941C
:1030E000C41740F3092E052AB1F3261737074807FE
:1030F000590738F00E2E07F8E02569F0E025E06466
:103100000AC0EF6307F8009407FADB01B9019D01DB
:10311000DC01CA01AD01EF930E94E3180E94B317CE
:103120000E949D185F91552339F02BED3FE049E453
:1031300050FD49EC0C94EE170895DF93DD27B92F6D
:10314000BF7740E85FE31616170648075B0718F4D9
:10315000D92F0E9499199F938F937F936F930E9409
:10316000A119E8E0F1E00E946D190E94B3172F91B8
:103170003F914F915F910E944217DD2351F090588B
:10318000A2EA2AED3FE049EC5FE3D0785D270E9498
:103190000518DF910C94B3170E94E0180C94B31734
:1031A0000E94AC1758F00E94A51740F029F45F3F29
:1031B00029F00C949C1751110C94E7170C94A2174A
:1031C0000E94C41768F39923B1F3552391F3951B1B
:1031D000550BBB27AA2762177307840738F09F5F38
:1031E0005F4F220F331F441FAA1FA9F335D00E2EA5
:1031F0003AF0E0E832D091505040E695001CCAF712
:103200002BD0FE2F29D0660F771F881FBB1F2617D4
:1032100037074807AB07B0E809F0BB0B802DBF01AB
:10322000FF2793585F4F3AF09E3F510578F00C947A
:103230009C170C94E7175F3FE4F3983ED4F3869510
:1032400077956795B795F7959F5FC9F7880F911D9B
:103250009695879597F90895E1E0660F771F881F87
:10326000BB1F621773078407BA0720F0621B730B3A
:10327000840BBA0BEE1F88F7E09508950E94CC17D7
:1032800088F09F5798F0B92F9927B751B0F0E1F027
:10329000660F771F881F991F1AF0BA95C9F714C0D7
:1032A000B13091F00E94E617B1E008950C94E61752
:1032B000672F782F8827B85F39F0B93FCCF3869510
:1032C00077956795B395D9F73EF49095809570956D
:1032D00061957F4F8F4F9F4F0895DF93CF931F933B
:1032E0000F93FF92EF92DF927B018C01689406C0EE
:1032F000DA2EEF010E944217FE01E894A591259174
:10330000359145915591A6F3EF010E940518FE01F4
:103310009701A801DA9469F7DF90EF90FF900F9181
:103320001F91CF91DF9108950E940B1708F48FEF42
:1033300008959B01AC0160E070E080E89FE30C948D
:10334000CC189B01AC010C942F170E940B17880B13
:10335000990B089597FB072E16F4009407D077FD7C
:1033600009D00E94E81907FC05D03EF4909581959C
:103370009F4F0895709561957F4F0895A1E21A2E91
:10338000AA1BBB1BFD010DC0AA1FBB1FEE1FFF1F09
:10339000A217B307E407F50720F0A21BB30BE40B59
:1033A000F50B661F771F881F991F1A9469F76095A0
:1033B0007095809590959B01AC01BD01CF0108955A
:1033C000EE0FFF1F881F8BBF0790F691E02D199419
:1033D000AA1BBB1B51E107C0AA1FBB1FA617B7073B
:1033E00010F0A61BB70B881F991F5A95A9F7809557
:1033F0009095BC01CD0108950F931F93CF93DF9358
:103400008230910510F482E090E0E0910105F091A6
:10341000020520E030E0A0E0B0E0309719F14081F3
:1034200051810281138148175907C8F08417950705
:1034300069F4109731F012960C93129713961C931F
:1034400027C0009301051093020522C02115310504
:1034500019F04217530718F49A01BD01EF01DF017B
:10346000F801DBCF21153105F9F0281B390B243089
:10347000310580F48A819B816115710521F0FB0182
:103480009383828304C09093020580930105FE011B
:10349000329644C0FE01E20FF31F819391932250B4
:1034A0003109398328833AC02091FF043091000507
:1034B000232B41F420910202309103023093000546
:1034C0002093FF0420910002309101022115310563
:1034D00041F42DB73EB74091040250910502241BE0
:1034E000350BE091FF04F0910005E217F307A0F41B
:1034F0002E1B3F0B2817390778F0AC014E5F5F4F4A
:103500002417350748F04E0F5F1F50930005409376
:10351000FF048193919302C0E0E0F0E0CF01DF91DE
:10352000CF911F910F910895CF93DF93009709F4E6
:1035300081C0FC01329713821282A0910105B091E3
:103540000205109781F420813181820F931F209111
:10355000FF04309100052817390751F5F093000555
:10356000E093FF0467C0ED0120E030E0CE17DF07F5
:1035700040F44A815B819E0141155105F1F0EA0159
:10358000F5CFD383C28340815181840F951FC81723
:10359000D90759F488819981840F951F02969183E8
:1035A00080838A819B81938382832115310529F44D
:1035B000F0930205E09301053DC0E901FB83EA8336
:1035C00049915991C40FD51FEC17FD0761F4808113
:1035D0009181840F951F0296E901998388838281E6
:1035E00093819B838A83E0E0F0E012968D919C9119
:1035F0001397009719F0FD01DC01F7CF8D919C9195
:1036000011979D012E5F3F4F820F931F2091FF0462
:10361000309100052817390769F4309729F4109282
:1036200002051092010502C013821282B0930005B8
:10363000A093FF04DF91CF9108956F927F928F92B4
:103640009F92AF92BF92CF92DF92EF92FF920F9331
:103650001F93CF93DF93009789F4CB01DF91CF9134
:103660001F910F91FF90EF90DF90CF90BF90AF90A0
:103670009F908F907F906F900C94FC19FC01E60F47
:10368000F71F9C0122503109E217F30708F4A9C083
:10369000EC01D9010D911C91119706171707B0F095
:1036A0000530110508F49BC0C801049786179707D9
:1036B00008F495C002501109061B170B01931193D2
:1036C0006D937C93CF010E94941A89C05B01A01A6C
:1036D000B10A4C01800E911EA0910105B091020526
:1036E000612C712CE12CF12C109709F446C08D91BE
:1036F0009C911197A815B905B1F56C0142E0C40E73
:10370000D11CCA14DB0478F14C018A189B086401AF
:1037100042E0C40ED11C1296BC9012971396AC9145
:10372000B5E0CB16D10440F0B282A38391828082AF
:10373000D9016D937C9309C00E5F1F4F800F911FBD
:10374000F90191838083EB2DFA2FE114F10431F01C
:10375000D7011396FC93EE93129741C0F0930205A4
:10376000E09301053CC06816790608F43C017D0130
:1037700012960D90BC91A02DB7CF8091FF0490912F
:10378000000588169906E1F466167706C8F480915C
:10379000000290910102009741F48DB79EB74091CD
:1037A000040250910502841B950BE817F907C8F431
:1037B000F0930005E093FF04F901718360830FC06B
:1037C000CB010E94FC197C01009759F0A801BE01B1
:1037D0000E94071CCE010E94941AC70104C0CE01AA
:1037E00002C080E090E0DF91CF911F910F91FF9098
:1037F000EF90DF90CF90BF90AF909F908F907F9091
:103800006F90089581E090E0F8940C94171CFB01F0
:10381000DC0102C001900D9241505040D8F708954C
:10382000FB01DC0101900D920020E1F7089511E009
:10383000C6EED1E000E006C0802FFE010E94E01934
:103840002196011DC73ED10780E00807A9F7F8942B
:02385000FFCFA8
:1038520000000305800000000000930A060C010925
:10386200BF0B32091009240900000000AB027E02DE
:1038720049021C0240022C021D02000000008208C4
:103882008F087261774779726F5A3A200020677900
:10389200726F5A3A200020616E676C654779726FC9
:1038A2005A00494D55204F626A656374205465730E
:1038B2007400496E7369646520426567696E0046EB
:1038C200696E697368656420426567696E003D3D93
:1038D2003D3D3D3D3D3D3D3D3D3D3D3D3D3D3D3D16
:1038E2003D3D3D3D3D3D3D3D3D3D3D3D3D3D3D3D06
:1038F2003D3D3D3D3D3D0063616C63756C617465AA
:10390200206779726F206F66667365747300444F27
:10391200204E4F54204D4F56452041204D50553694
:10392200303530002E00446F6E6521212100582071
:103932003A200059203A20005A203A200050726F53
:103942006772616D2077696C6C2073746172742088
:1039520061667465722033207365636F6E647300F1
:103962002C2000496E7369646520436F6E73747214
:103972007563746F720046696E697368656420438B
:103982006F6E7374727563746F72000D0A006E61EC
:0A3992006E00696E66006F76660035
:00000001FF
