:100000000C9453010C9484010C9484010C9484018D
:100010000C9484010C9484010C9484010C9484014C
:100020000C9484010C94C6040C94C6040C94C6046D
:100030000C9484010C9484010C9484010C9484012C
:100040000C9484010C9484010C9484010C9484011C
:100050000C9484010C9484010C9484010C947C0411
:100060000C9484010C9446040C941C040C9484019C
:100070000C9484010C9484010C9484010C948401EC
:100080000C9484010C9484010C9484010C948401DC
:100090000C9484010C9484010C9484010C94D0047D
:1000A0000C9484010C9484010C9484010C948401BC
:1000B0000C9484010C9484010C9484010C948401AC
:1000C0000C9484010C9484010C9484010C9484019C
:1000D0000C9484010C9484010C9484010C9484018C
:1000E0000C948401E502E802D702DB02DF021F0361
:1000F000EC02F002F602FA02FE02040308030C030B
:100100001F03120316031A030C94D7020C94DF0288
:100110000C94A9030C942F060C94F0020C94080381
:100120000C94F2030C94E5020C94D6010C94120486
:100130000C9416030C9404020C9483030C94B401E5
:100140000C9404030C94E7030C9459030C94A5013C
:100150000C9495030C940C030C9405040C941A0352
:100160000C94C8010C941F030C9412030C94840388
:100170000C94F6020C94DB020C94B2030C94510222
:100180000C94FE020C94FA020C9486030C94E80280
:100190000C944B080C9485030C94EC0200000A0BA1
:1001A00002090C0D0E080703040100000000000006
:1001B000000000000000000000000000000000003F
:1001C00000000000000000001211100000000000FC
:1001D000000000000000000000000000000000001F
:1001E000000000002200250028002B002E00310016
:1001F000340002010000050108010B01000021008C
:10020000240027002A002D003000330001010000E7
:10021000040107010A010505050507050808080886
:10022000020202020A0A080804040404010101018E
:100230000101010103030303030303030407070789
:100240000C0C0C0C0C0C0C0C02020202060606062E
:10025000060606060B0B0B0B0B0B0B0B01021020FB
:1002600020080810204010204080020102010804EC
:100270000201010204081020408080402010080480
:1002800002018004020180402010080402010804D9
:10029000020101020408102040800102040810201D
:1002A00040802F064B0811241FBECFEFD1E2DEBFE6
:1002B000CDBF00E00CBF23E0A2E3B2E001C01D927D
:1002C000AD3BB207E1F712E0A0E0B2E0EEE1F3E10E
:1002D00000E00BBF02C007900D92A233B107D9F71F
:1002E00011E0C2E5D1E000E006C021970109802FAE
:1002F000FE010E944F08C135D10780E00807A9F729
:100300000E94EC060C947D090C94000090E0FC0126
:10031000E45AFD4F2491FC01EA5EFD4F849188234D
:1003200099F090E0880F991FFC01E450FE4FA591D1
:10033000B491FC01EE51FE4F859194918FB7F894E2
:10034000EC91E22BEC938FBF0895FC01538D448D0B
:10035000252F30E0842F90E0821B930B541710F070
:10036000CF96089501970895FC01918D828D98177D
:1003700061F0828DDF01A80FB11D5D968C91928D89
:100380009F5F9F73928F90E008958FEF9FEF089586
:10039000FC01918D828D981731F0828DE80FF11D4F
:1003A000858D90E008958FEF9FEF0895FC01918D6A
:1003B000228D892F90E0805C9F4F821B91098F7363
:1003C00099270895FC01848DDF01A80FB11DA35A60
:1003D000BF4F2C91848D90E001968F739927848F65
:1003E000A689B7892C93A089B1898C918370806488
:1003F0008C93938D848D981306C00288F389E02D29
:1004000080818F7D80830895EF92FF920F931F93D9
:10041000CF93DF93EC0181E0888F9B8D8C8D9813B7
:1004200005C0E889F989808185FD26C0F62E0B8DEF
:1004300010E00F5F1F4F0F731127E02E8C8DE81215
:100440000CC00FB607FCFACFE889F989808185FFD7
:10045000F5CFCE010E94E201F1CF8B8DFE01E80FB6
:10046000F11DE35AFF4FF0829FB7F8940B8FEA8992
:10047000FB89808180620AC09FB7F894EE89FF896A
:100480006083E889F98980818370806480839FBF5D
:1004900081E090E0DF91CF911F910F91FF90EF905D
:1004A0000895CF93DF93EC01888D8823C9F0EA8902
:1004B000FB89808185FD05C0A889B9898C9186FD5D
:1004C0000FC00FB607FCF5CF808185FFF2CFA8895A
:1004D000B9898C9185FFEDCFCE010E94E201E7CF73
:1004E000DF91CF9108958FEC92E00E94D60121E038
:1004F000892B09F420E0822F089580E090E0892B79
:1005000021F00E947302811125C080E090E0892BC8
:1005100041F080E090E0892B21F00E9400008111E1
:100520001CC080E090E0892B41F080E090E0892BB6
:1005300021F00E940000811113C080E090E0892B1F
:10054000A1F080E090E0892B81F00E9400008111F1
:100550000AC008950E940000D8CF0E940000E1CF99
:100560000E940000EACF0C9400000895362F90E01E
:10057000FC01E456FE4F4491FC01E45AFD4F2491E6
:10058000FC01EA5EFD4F9491992309F46CC0442369
:1005900009F455C050E0FA013197E231F10508F055
:1005A0004EC08827EE58FF4F8F4F0C944F08809114
:1005B00080008F7707C0809180008F7D03C080917D
:1005C0008000877F809380003AC084B58F7702C017
:1005D00084B58F7D84BD33C08091B0008F7703C018
:1005E0008091B0008F7D8093B00029C080919000F1
:1005F0008F7707C0809190008F7D03C0809190001D
:10060000877F809390001BC08091A0008F7707C0E8
:100610008091A0008F7D03C08091A000877F809390
:10062000A0000DC0809120018F7707C0809120012C
:100630008F7D03C080912001877F80932001E92F67
:10064000F0E0EE0FFF1FEE51FE4FA591B4919FB762
:10065000F894311104C08C912095282302C0EC91AC
:100660002E2B2C939FBF08953FB7F8948091CB0217
:100670009091CC02A091CD02B091CE0226B5A89B5C
:1006800005C02F3F19F00196A11DB11D3FBFBA2F24
:10069000A92F982F8827820F911DA11DB11DBC0184
:1006A000CD0142E0660F771F881F991F4A95D1F749
:1006B0000895CF92DF92EF92FF920F931F93CF9303
:1006C000DF936C017A018B01C0E0D0E0CE15DF052D
:1006D00081F0D8016D918D01D601ED91FC910190D1
:1006E000F081E02DC6011995892B11F02196EECFEE
:1006F0007E01C701DF91CF911F910F91FF90EF9085
:10070000DF90CF900895089508950895E091C5026F
:100710008091C402E81730F4F0E0E756FD4F808185
:1007200090E008958FEF9FEF08959091C50280911A
:10073000C402981750F4E92FF0E0E756FD4F2081EE
:1007400030E09F5F9093C50202C02FEF3FEFC901D9
:1007500008958091C40290E02091C502821B910906
:100760000895089580E090E0089585ED8093BC00A1
:100770008091BC0084FDFCCF1092C102089540918D
:100780005202262F30E0240F311D21323105DCF4D6
:100790002091C1022430C9F4FC0180E090E086176A
:1007A00058F4309152022191DC01AE5CBD4FA30F91
:1007B000B11D2C930196F3CF80915202680F609384
:1007C000520280E0089581E0089582E00895CF9379
:1007D000DF93CB01EA01642F0E94BF03CE01DF91BA
:1007E000CF910895CF93DF931F92CDB7DEB7698382
:1007F00061E0CE0101960E94BF0381E090E00F907E
:10080000DF91CF9108950E947809CF93DF93EC0197
:100810008C819D810E94EF088A819B81DF91CF911D
:100820000C94EF08CF93DF93EC010E940504CE01F6
:10083000DF91CF910C94EF081F920F920FB60F9299
:1008400011240BB60F922F933F934F935F936F93A7
:100850007F938F939F93AF93BF93EF93FF938FEC0F
:1008600092E00E94E201FF91EF91BF91AF919F91C1
:100870008F917F916F915F914F913F912F910F9049
:100880000BBE0F900FBE0F901F9018951F920F92E6
:100890000FB60F9211240BB60F922F938F939F9345
:1008A000EF93FF93E091DF02F091E0028081E0910D
:1008B000E502F091E60282FD12C090818091E8028B
:1008C0008F5F8F732091E902821751F0E091E80267
:1008D000F0E0E153FD4F958F8093E80201C08081E5
:1008E000FF91EF919F918F912F910F900BBE0F90E1
:1008F0000FBE0F901F9018951F920F920FB60F9278
:1009000011242F933F938F939F93AF93BF93809125
:10091000C7029091C802A091C902B091CA02309159
:10092000C60223E0230F2D3720F40196A11DB11D2F
:1009300005C026E8230F0296A11DB11D2093C60213
:100940008093C7029093C802A093C902B093CA02D1
:100950008091CB029091CC02A091CD02B091CE02B9
:100960000196A11DB11D8093CB029093CC02A09360
:10097000CD02B093CE02BF91AF919F918F913F91E5
:100980002F910F900FBE0F901F9018951F920F92EE
:100990000FB60F9211240F900FBE0F901F90189555
:1009A0001F920F920FB60F9211240BB60F922F9336
:1009B0003F934F935F936F937F938F939F93AF93E7
:1009C000BF93EF93FF938091B900887F803609F43D
:1009D0009CC068F5883209F45BC090F4803109F45A
:1009E00054C038F4882309F4F6C0883009F44DC0A7
:1009F000F6C0883109F44CC0803209F45DC0EFC004
:100A0000803409F468C048F4803309F455C0883351
:100A100009F0E5C080937502D8C0803509F44FC055
:100A2000883509F45DC0883409F0D9C0D6C088394A
:100A300009F4C7C0A8F4883709F467C038F48836C9
:100A400009F463C0803709F460C0C9C0883809F46C
:100A5000B8C0803909F45FC0803809F0C0C05BC0FD
:100A6000803B09F486C038F4803A09F466C0883ABD
:100A700009F47FC0B4C0803C09F4A7C0883C09F4E5
:100A8000A4C0883B09F48AC0AAC08091980210C013
:100A90009091970280919602981770F5E0919702D5
:100AA00081E08E0F80939702F0E0EA58FD4F80813D
:100AB0008093BB0085EC86C0809375028EC0E09168
:100AC000970281E08E0F809397028091BB00F0E047
:100AD000EA58FD4F808390919702809196026EC0F4
:100AE000E091970281E08E0F809397028091BB0086
:100AF000F0E0EA58FD4F80838091C00281116DC003
:100B000081E08093BF0284EA61C083E08093C102E8
:100B100010927402CFCF80917402803208F051C0DD
:100B2000E091740281E08E0F809374028091BB008B
:100B3000F0E0EC5AFD4F8083BDCF85EC8093BC0084
:100B40001092C10280917402803230F4E0917402FC
:100B5000F0E0EC5AFD4F10826091740270E0E09179
:100B6000BB02F091BC0284E592E0199510927402E8
:100B700036C084E08093C102109253021092520258
:100B8000E091BD02F091BE0219958091520281114F
:100B900005C081E08093520210923202E09153022C
:100BA00081E08E0F80935302F0E0EE5CFD4F808178
:100BB0008093BB009091530280915202981708F4E1
:100BC00079CF85E88093BC000AC085EC8093BC0097
:100BD0001092C10204C0109275020E94B503FF91E9
:100BE000EF91BF91AF919F918F917F916F915F91A5
:100BF0004F913F912F910F900BBE0F900FBE0F9012
:100C00001F901895CF93DF9360E08CE00E94B602AE
:100C100060E088E00E94B602C7E0D0E060E084E0D7
:100C20000E94B6028091780390E00C2E02C0959548
:100C300087950A94E2F780FF02C061E001C060E09E
:100C400088E00E94B60261E084E00E94B60221972B
:100C500028F761E08CE0DF91CF910C94B602CF933E
:100C6000DF93EFECF2E01382128288EE93E0A0E0D3
:100C7000B0E084839583A683B7832AE032E0318392
:100C8000208325EC30E03587248724EC30E037875B
:100C9000268720EC30E0318B208B21EC30E0338B49
:100CA000228B22EC30E0358B248B26EC30E0378B26
:100CB000268B118E128E138E148EECE6F3E01382C7
:100CC000128284839583A683B7838CE192E091831B
:100CD0008083E3E9F3E089E2868B108E178A118E18
:100CE00010A211A212A283E090E094A383A3EDE7E7
:100CF000F3E08EE292E09183808313821282158268
:100D00001482118610868FEF9FEF97838683128A55
:100D1000138A148A158A16861786108A118A1286F3
:100D2000138614861586EBE7F3E084E08083D2E037
:100D3000D1838CE00E94860187E00E94860188E0D2
:100D40000E94860184E00E948601109278030E942E
:100D5000020660E087E00E94B6020E940206E0E917
:100D6000F0E0808181688083CAE0C0939100109296
:100D700099001092980085E00E948601E9E7F3E06F
:100D800083E08083D1838CE00E94860187E00E940B
:100D9000860188E00E94860184E00E94860110920C
:100DA00078030E94020660E087E00E94B6020E947B
:100DB0000206E0EAF0E0808181688083C093A100B0
:100DC0001092A9001092A80086E00E94860110925D
:100DD000B803DF91CF910895789484B5826084BD83
:100DE00084B5816084BD85B5826085BD85B581602F
:100DF00085BD80916E00816080936E0010928100AD
:100E00008091810082608093810080918100816067
:100E10008093810080918000816080938000809128
:100E2000B10084608093B1008091B00081608093B4
:100E3000B000809191008260809391008091910038
:100E400081608093910080919000816080939000F8
:100E50008091A10082608093A1008091A1008160B7
:100E60008093A1008091A00081608093A000809178
:100E70002101826080932101809121018160809312
:100E800021018091200181608093200180917A006E
:100E9000846080937A0080917A00826080937A00E7
:100EA00080917A00816080937A0080917A008068D6
:100EB00080937A001092C100E091DF02F091E0028D
:100EC00082E08083E091DB02F091DC021082E0910D
:100ED000DD02F091DE0280E180831092E702E09172
:100EE000E302F091E40286E08083E091E102F09178
:100EF000E202808180618083E091E102F091E20270
:100F0000808188608083E091E102F091E20280813B
:100F100080688083E091E102F091E20280818F7D20
:100F200080831092C5021092C4021092C3021092E4
:100F3000C2021092C10281E08093C0021092BF02EF
:100F400061E084E10E94B60261E085E10E94B602A0
:100F50008091B9008E7F8093B9008091B9008D7F18
:100F60008093B90088E48093B80085E48093BC0046
:100F700083E893E09093BE028093BD0284E893E0FF
:100F80009093BC028093BB028CE08093B8008AE00F
:100F90000E94860185E00E94860189E00E94860108
:100FA00088E00E94860187E00E94860186E00E9418
:100FB00086018DE00E9486018CE00E9486018BE014
:100FC0000E94860184E00E94860183E00E948601DF
:100FD00082E00E94860161E08DE00E94B60261E03D
:100FE0008CE00E94B60261E08BE00E94B60261E0F4
:100FF00084E00E94B60261E083E00E94B60261E0F4
:1010000082E00E94B60260E089E00E94B60261E0E0
:1010100088E00E94B6028AE00E94860161E08AE0D0
:101020000E94B60261E087E00E94B60261E086E0BD
:101030000E94B60285E00E94860161E085E00E9480
:10104000B6020E9434036B017C0188EE882E83E097
:10105000982EA12CB12C0E943403DC01CB018C19F9
:101060009D09AE09BF09883E9340A105B10598F3DB
:1010700021E0821A9108A108B10888EEC80E83E029
:10108000D81EE11CF11C81149104A104B10419F7CC
:101090000E947D02D6CF8DE793E00C940504EE0FFD
:1010A000FF1F881F8BBF0790F691E02D19940F93B7
:1010B0001F93CF93DF938230910510F482E090E08C
:1010C000E091BB03F091BC0320E030E0A0E0B0E091
:1010D000309719F1408151810281138148175907D6
:1010E000C8F08417950769F4109731F012960C93A5
:1010F000129713961C9327C00093BB031093BC0355
:1011000022C02115310519F04217530718F49A012E
:10111000BD01EF01DF01F801DBCF21153105F9F049
:10112000281B390B2430310580F48A819B8161159D
:10113000710521F0FB019383828304C09093BC036B
:101140008093BB03FE01329644C0FE01E20FF31F01
:101150008193919322503109398328833AC0209199
:10116000B9033091BA03232B41F42091020230914C
:1011700003023093BA032093B90320910002309107
:1011800001022115310541F42DB73EB7409104020B
:1011900050910502241B350BE091B903F091BA037D
:1011A000E217F307A0F42E1B3F0B2817390778F03E
:1011B000AC014E5F5F4F2417350748F04E0F5F1F9D
:1011C0005093BA034093B9038193919302C0E0E036
:1011D000F0E0CF01DF91CF911F910F910895CF9350
:1011E000DF93009709F481C0FC01329713821282C9
:1011F000A091BB03B091BC03109781F42081318191
:10120000820F931F2091B9033091BA032817390731
:1012100051F5F093BA03E093B90367C0ED0120E004
:1012200030E0CE17DF0740F44A815B819E01411513
:101230005105F1F0EA01F5CFD383C283408151819A
:10124000840F951FC817D90759F488819981840F95
:10125000951F0296918380838A819B8193838283E9
:101260002115310529F4F093BC03E093BB033DC085
:10127000E901FB83EA8349915991C40FD51FEC170B
:10128000FD0761F480819181840F951F0296E90129
:1012900099838883828193819B838A83E0E0F0E055
:1012A00012968D919C911397009719F0FD01DC0126
:1012B000F7CF8D919C9111979D012E5F3F4F820F2B
:1012C000931F2091B9033091BA032817390769F4A5
:1012D000309729F41092BC031092BB0302C0138212
:1012E0001282B093BA03A093B903DF91CF9108950E
:1012F00081E090E0F8940C947D0911E0C2E5D1E022
:1013000000E006C0802FFE010E944F082196011DBB
:0E131000C335D10780E00807A9F7F894FFCF96
:10131E000000BD0380000000000004025903A50177
:10132E005102D601B401C80100000000F203E70328
:10133E00B2038503A903950386030000000005048C
:02134E00120487
:00000001FF
