:100000000C9477010C94A8010C94A8010C94A801FD
:100010000C94A8010C94A8010C94A8010C94A801BC
:100020000C94A8010C9443080C9443080C944308C6
:100030000C94A8010C94A8010C94A8010C94A8019C
:100040000C94A8010C94A8010C94A8010C94A8018C
:100050000C94A8010C94A8010C94A8010C94F90725
:100060000C94A8010C948A060C9460060C94A801C8
:100070000C94A8010C94A8010C94A8010C94A8015C
:100080000C94A8010C94A8010C94A8010C94A8014C
:100090000C94A8010C94A8010C94A8010C949F083E
:1000A0000C94A8010C94A8010C94A8010C94A8012C
:1000B0000C94A8010C94A8010C94A8010C94A8011C
:1000C0000C94A8010C94A8010C94A8010C94A8010C
:1000D0000C94A8010C94A8010C94A8010C94A801FC
:1000E0000C94A801EF06F206E106E506E9062907E9
:1000F000F606FA060007040708070E071207160798
:1001000029071C0720072407084AD73B3BCE016E6E
:1001100084BCBFFDC12F3D6C74319ABD56833DDA5E
:100120003D00C77F11BED9E4BB4C3E916BAAAABE6D
:10013000000000803F000C940B0A0C94E8090C941A
:10014000F6060C94F6020C94F2010C94E1010C9466
:10015000190A0C94CA0B0C94DE090C94E1060C9459
:1001600004070C94E2010C94C9020C94170C0C9433
:1001700000070C94B6010C9416070C9420070C94FD
:10018000E9060C9412070C94030F0C94FA060C94D5
:10019000EF060C94E0010C940E070C9408070C94E5
:1001A00024070C9406020C94F7090C9429070C946C
:1001B00094020C94F2060C94E5060C94070F0C9430
:1001C000E3010C94D1090C941C07000020002300CB
:1001D000260029002C002F0032000001000003013E
:1001E0000601090100002100240027002A002D003B
:1001F0003000330001010000040107010A01000082
:100200002200250028002B002E00310034000201BE
:100210000000050108010B01050505050705080893
:100220000808020202020A0A080804040404010180
:100230000101010101010303030303030303040795
:1002400007070C0C0C0C0C0C0C0C0202020206062C
:100250000606060606060B0B0B0B0B0B0B0B01021F
:1002600010202008081020401020408002010201C8
:100270000804020101020408102040808040201080
:1002800008040201800402018040201008040201D9
:100290000804020101020408102040800102040841
:1002A0001020408000000A0B02090C0D0E08070305
:1002B0000401000000000000000000000000000039
:1002C000000000000000000000000000000000002E
:1002D00012111000000000000000000000000000EB
:1002E00000000000000000000000070F030F1124B1
:1002F0001FBECFEFD1E2DEBFCDBF00E00CBF12E0EA
:10030000A0E0B2E0E8E3F8E200E00BBF02C0079033
:100310000D92AC38B107D9F724E0ACE8B2E001C0E7
:100320001D92A432B207E1F711E0C6E7D1E000E088
:1003300006C021970109802FFE010E94C812C5370F
:10034000D10780E00807A9F70E947E0C0C940A14DC
:100350000C9400002FB7F8946091540370915503EA
:1003600080915603909157032FBF0895CF92DF924B
:10037000EF92FF920F931F93CF93DF936C017A015B
:100380008B01C0E0D0E0CE15DF0581F0D8016D9182
:100390008D01D601ED91FC910190F081E02DC60117
:1003A0001995892B11F02196EECF7E01C701DF91BF
:1003B000CF911F910F91FF90EF90DF90CF90089514
:1003C000089508950895E091660380916503E81704
:1003D00030F4F0E0EB5EFC4F808190E008958FEF09
:1003E0009FEF08959091660380916503981750F4EC
:1003F000E92FF0E0EB5EFC4F208130E09F5F9093AF
:10040000660302C02FEF3FEFC90108958091650395
:1004100090E020916603821B910908953091630357
:10042000313208F04AC0809162038111FCCF909173
:10043000EF0222E020936203609361032FEF209389
:1004400014031092130330931203EFECF2E0A1EFC8
:10045000B2E020E0321721F041914D932F5FFACFA7
:100460001092110320911103990F922B9093110375
:1004700090916003913061F41092600390911103A8
:100480009093BB009091BC0093FDF8CF95EC01C018
:1004900095EE9093BC00909162039230E1F39091BD
:1004A00014039F3F79F080911403803241F08091D2
:1004B0001403803331F084E005C081E003C082E0A2
:1004C00001C083E010926403109263031092F00263
:1004D00008951F93CF93DF93EC01142F81E0809355
:1004E000F00289E68093EF02109264031092630396
:1004F00088819981DC01ED91FC910190F081E02DE2
:10050000199588819981DC01ED91FC910190F08130
:10051000E02D612F199561E088819981DF91CF915C
:100520001F910C940E02089580E090E0089585EDEF
:100530008093BC008091BC0084FDFCCF10926203CC
:1005400008954091AC02262F30E0240F311D213256
:100550003105DCF4209162032430C9F4FC0180E011
:1005600090E0861758F43091AC022191DC01A45739
:10057000BD4FA30FB11D2C930196F3CF8091AC0218
:10058000680F6093AC0280E0089581E0089582E0F6
:100590000895CF92DF92EF92FF920F931F93CF9324
:1005A000DF937C01CB018A012091F002222389F0A4
:1005B000EB016B01C40ED51ECC15DD0569F0699108
:1005C000D701ED91FC910190F081E02DC7011995C3
:1005D000F3CF642F0E94A102C801DF91CF911F9138
:1005E0000F91FF90EF90DF90CF900895CF93DF931E
:1005F0001F92CDB7DEB769832091F0022223D1F09C
:1006000020916303203240F021E030E0FC0133838D
:10061000228380E090E015C080916403E82FF0E031
:10062000E153FD4F998190838F5F809364038093A2
:10063000630305C061E0CE0101960E94A10281E042
:1006400090E00F90DF91CF91089584E793E00E94AE
:10065000190A21E0892B09F420E0822F08952F92B6
:100660003F924F925F926F927F928F929F92AF9242
:10067000BF92CF92DF92EF92FF920F931F93CF938F
:10068000DF93EC0181E08093F00289E68093EF0232
:10069000109264031092630388819981DC01ED91CB
:1006A000FC910190F081E02D6BE3199560E0888169
:1006B00099810E940E02809162038111FCCF81E03A
:1006C00080936203809361039FEF909314031092D1
:1006D00013039DE090931203809311038091110303
:1006E000826D8093110380916003813061F41092D8
:1006F0006003809111038093BB008091BC0083FD57
:10070000F8CF85EC01C085EE8093BC008091620338
:100710008130E1F3809113038E3018F4909113032C
:1007200001C09EE0A1EFB2E0E5E1F3E080E08917CF
:1007300021F02D9121938F5FFACF10926603809361
:10074000650388819981DC01ED91FC910284F38538
:10075000E02D1995182F88819981DC01ED91FC918C
:100760000284F385E02D199520E030E0312F822BB3
:10077000932B9B838A8388819981DC01ED91FC9185
:100780000284F385E02D1995182F88819981DC0169
:10079000ED91FC910284F385E02D199520E030E085
:1007A000312F822B932B9D838C8388819981DC014F
:1007B000ED91FC910284F385E02D1995182F888125
:1007C0009981DC01ED91FC910284F385E02D19956E
:1007D00020E030E0312F822B932B9F838E83888102
:1007E0009981DC01ED91FC910284F385E02D19954E
:1007F000182F88819981DC01ED91FC910284F385A9
:10080000E02D199520E030E0312F822B932B998732
:10081000888788819981DC01ED91FC910284F385C0
:10082000E02D1995182F88819981DC01ED91FC91BB
:100830000284F385E02D199520E030E0312F822BE2
:10084000932B9B878A8788819981DC01ED91FC91AC
:100850000284F385E02D1995182F88819981DC0198
:10086000ED91FC910284F385E02D199520E030E0B4
:10087000312F822B932B9D878C8788819981DC0176
:10088000ED91FC910284F385E02D1995F82E888175
:100890009981DC01ED91FC910284F385E02D19959D
:1008A00000E010E01F2D082B192B1F870E8768858D
:1008B0007985072E000C880B990B0E943D1120E0D2
:1008C00030EF41E456E40E94EB0F20E030E04AEACA
:1008D00053E40E94C9106C8F7D8F8E8F9F8F6A8129
:1008E0007B81072E000C880B990B0E943D1120E0A4
:1008F00030E040E858E30E94FD114B015C0168A321
:1009000079A38AA39BA36C817D81072E000C880BA1
:10091000990B0E943D1120E030E040E858E30E942E
:10092000FD116B017C016CA37DA38EA39FA36E813F
:100930007F81072E000C880B990B0E943D1120E04F
:1009400030E040E858E30E94FD112B013C0168A70C
:1009500079A78AA79BA720E030E0A901C501B401CF
:100960000E94F011181624F0C501B401905802C07D
:10097000C501B401A30192010E94EB0F9B01AC01E0
:10098000C701B6010E946A101E01B4E42B0E311C8F
:1009900020E030E044EB53E40E94FD1120E030E021
:1009A00040E05FE30E94FD112BED3FE049E450E49D
:1009B0000E94C910F101608371838283938320E0D8
:1009C00030E0A901C701B6010E94F011181624F009
:1009D000F7FAF094F7F8F094A3019201C701B60179
:1009E0000E94EB0F9B01AC01C501B4010E946A108B
:1009F0007E01F8E4EF0EF11C20E030E044EB53E41C
:100A00000E94FD1120E030E040E05FEB0E94FD110C
:100A10002BED3FE049E450E40E94C910D7016D93EB
:100A20007D938D939C9313976C857D85072E000C89
:100A3000880B990B0E943D1120E030E043E852E41E
:100A40000E94C9106B017C016A857B85072E000C12
:100A5000880B990B0E943D1120E030E043E852E4FE
:100A60000E94C910288939894A895B890E94EA0F46
:100A70006CA77DA78EA79FA72C893D894E895F898A
:100A8000C701B6010E94EA0F68AB79AB8AAB9BAB9A
:100A9000B801110F880B990B0E943D1120E030E046
:100AA00043E852E40E94C910288D398D4A8D5B8D30
:100AB0000E94EA0F6CAB7DAB8EAB9FAB0E94AA018C
:100AC0008E01005A1F4FF801C080D180E280F38070
:100AD0006C197D098E099F090E943B112FE632E1B6
:100AE00043E85AE30E94FD116B017C01FE01E45AC8
:100AF000FF4F60837183828393832CA53DA54EA510
:100B00005FA50E94FD119B01AC0168AD79AD8AAD76
:100B10009BAD0E94EB0F68AF79AF8AAF9BAF28A95E
:100B200039A94AA95BA9C701B6010E94FD119B0121
:100B3000AC016CAD7DAD8EAD9FAD0E94EB0F6CAF87
:100B40007DAF8EAF9FAF5E01F0E4AF0EB11C2CA95C
:100B50003DA94EA95FA9C701B6010E94FD11D501AB
:100B60002D913D914D915C910E94EB0FF5016083B9
:100B70007183828393837E01F0E5EF0EF11C6A8519
:100B80007B85072E000C880B990B0E943D11D70125
:100B90006D937D938D939C9313977E01B4E5EB0E3B
:100BA000F11C6C857D85072E000C880B990B0E942B
:100BB0003D11F70160837183828393837E01F8E5A1
:100BC000EF0EF11C6E857F85072E000C880B990BAC
:100BD0000E943D11D7016D937D938D939C93139744
:100BE0000E94AA01F8016083718382839383DF915D
:100BF000CF911F910F91FF90EF90DF90CF90BF901A
:100C0000AF909F908F907F906F905F904F903F90AC
:100C10002F900895FC018081823049F018F48130D2
:100C200079F00895833031F0843039F0089524E06C
:100C300031E008C027E035E005C026E030E002C022
:100C400023E032E06230A9F0643029F16130B9F577
:100C500081E090E0AC0101C0440F3A95EAF7309191
:100C60006703432B01C0880F2A95EAF780958423F8
:100C700022C081E090E0AC0101C0440F3A95EAF750
:100C8000342F309540916703342301C0880F2A9593
:100C9000EAF7832B10C041E050E0CA0101C0880F81
:100CA0003A95EAF701C0440F2A95EAF7842B80951C
:100CB000909167038923809367030C94600A0895D9
:100CC0001F920F920FB60F9211240BB60F922F9313
:100CD0003F934F935F936F937F938F939F93AF93C4
:100CE000BF93EF93FF9384E793E00E94A80BFF91DB
:100CF000EF91BF91AF919F918F917F916F915F9194
:100D00004F913F912F910F900BBE0F900FBE0F9000
:100D10001F9018951F920F920FB60F9211240BB6C9
:100D20000F922F938F939F93EF93FF93E091840300
:100D3000F09185038081E0918A03F0918B0382FD1D
:100D400012C0908180918D038F5F8F7320918E03ED
:100D5000821751F0E0918D03F0E0EC58FC4F958F35
:100D600080938D0301C08081FF91EF919F918F91BE
:100D70002F910F900BBE0F900FBE0F901F901895E4
:100D8000362F90E0FC01EC55FD4F4491FC01E25AF6
:100D9000FD4F2491FC01E85EFD4F9491992309F4E5
:100DA0006CC0442309F455C050E0FA013197E23198
:100DB000F10508F04EC08827EE58FF4F8F4F0C9476
:100DC000C812809180008F7707C0809180008F7D4E
:100DD00003C080918000877F809380003AC084B5F3
:100DE0008F7702C084B58F7D84BD33C08091B00001
:100DF0008F7703C08091B0008F7D8093B00029C0B1
:100E0000809190008F7707C0809190008F7D03C004
:100E100080919000877F809390001BC08091A000FC
:100E20008F7707C08091A0008F7D03C08091A000C4
:100E3000877F8093A0000DC0809120018F7707C02D
:100E4000809120018F7D03C080912001877F809356
:100E50002001E92FF0E0EE0FFF1FE250FE4FA591B9
:100E6000B4919FB7F894311104C08C912095282338
:100E700002C0EC912E2B2C939FBF0895CF93DF934C
:100E800090E0FC01E25AFD4F2491FC01E85EFD4F29
:100E90008491882361F190E0880F991FFC01EC5147
:100EA000FE4FC591D491FC01E250FE4FA591B49143
:100EB000611109C09FB7F8948881209582238883A7
:100EC000EC912E230BC0623061F49FB7F8948881B7
:100ED000322F309583238883EC912E2B2C939FBF48
:100EE00006C08FB7F894E8812E2B28838FBFDF913F
:100EF000CF9108950F931F93CF93DF93EC0161E09F
:100F000088810E943E0760E088810E94C00683E0DD
:100F100090E00197F1F761E088810E94C00683E2CA
:100F200090E00197F1F760E088810E94C00660E0E0
:100F300089810E943E07898190E0FC01E25AFD4FC1
:100F40006491FC01E85EFD4FE491F0E0EE0FFF1FBD
:100F5000E653FE4F859194910A811B812C813D813E
:100F60003F70462F0E94390C61157105810591056E
:100F700041F0AB01BC014F5F5F4F6F4F7F4F7F7000
:100F800003C040E050E0BA014115510531F0CA01FB
:100F900057FD01969595879502C080E090E0DF911E
:100FA000CF911F910F9108953FB7F8948091580306
:100FB00090915903A0915A03B0915B0326B5A89B69
:100FC00005C02F3F19F00196A11DB11D3FBFBA2FDB
:100FD000A92F982F8827820F911DA11DB11DBC013B
:100FE000CD0142E0660F771F881F991F4A95D1F700
:100FF00008951F920F920FB60F9211242F933F93D3
:101000008F939F93AF93BF93809154039091550317
:10101000A0915603B09157033091530323E0230F5F
:101020002D3720F40196A11DB11D05C026E8230F20
:101030000296A11DB11D20935303809354039093F6
:101040005503A0935603B093570380915803909192
:101050005903A0915A03B0915B030196A11DB11DE4
:101060008093580390935903A0935A03B0935B0362
:10107000BF91AF919F918F913F912F910F900FBE94
:101080000F901F9018951F920F920FB60F92112478
:101090000F900FBE0F901F901895CF93DF93EC0128
:1010A00082E392E00E94F00A40E069E1CE010E94F2
:1010B000690240E06AE1CE010E94690248E06BE10A
:1010C000CE010E94690240E06CE1CE010E946902FB
:1010D00041E06BE6CE010E946902CE010E942F031F
:1010E00018AE19AE1AAE1BAE1CAE1DAE1EAE1FAEB4
:1010F000FE01E05BFF4FDE01AC5BBF4F8D919D9128
:101100000D90BC91A02D80839183A283B3833496EC
:10111000DE01A85BBF4F8D919D910D90BC91A02DDC
:1011200080839183A283B3830E94AA01C05ADF4FB8
:10113000688379838A839B83DF91CF9108951F927F
:101140000F920FB60F9211240BB60F922F933F936D
:101150004F935F936F937F938F939F93AF93BF93BF
:10116000EF93FF938091B900887F803609F49CC08B
:1011700068F5883209F45BC090F4803109F454C0FA
:1011800038F4882309F4F6C0883009F44DC0F6C05D
:10119000883109F44CC0803209F45DC0EFC080345E
:1011A00009F468C048F4803309F455C0883309F065
:1011B000E5C080931403D8C0803509F44FC088354A
:1011C00009F45DC0883409F0D9C0D6C0883909F463
:1011D000C7C0A8F4883709F467C038F4883609F422
:1011E00063C0803709F460C0C9C0883809F4B8C04A
:1011F000803909F45FC0803809F0C0C05BC0803B13
:1012000009F486C038F4803A09F466C0883A09F4D3
:101210007FC0B4C0803C09F4A7C0883C09F4A4C0D6
:10122000883B09F48AC0AAC08091110310C0909134
:10123000130380911203981770F5E091130381E076
:101240008E0F80931303F0E0EF50FD4F8081809369
:10125000BB0085EC86C0809314038EC0E09113031D
:1012600081E08E0F809313038091BB00F0E0EF507C
:10127000FD4F808390911303809112036EC0E09123
:10128000130381E08E0F809313038091BB00F0E085
:10129000EF50FD4F80838091610381116DC081E02B
:1012A0008093600384EA61C083E0809362031092BC
:1012B000CE02CFCF8091CE02803208F051C0E091B3
:1012C000CE0281E08E0F8093CE028091BB00F0E0D1
:1012D000E255FD4F8083BDCF85EC8093BC0010921A
:1012E00062038091CE02803230F4E091CE02F0E0D1
:1012F000E255FD4F10826091CE0270E0E0915C03F8
:10130000F0915D038EEA92E019951092CE0236C0FC
:1013100084E0809362031092AD021092AC02E091DF
:101320005E03F0915F0319958091AC02811105C0B5
:1013300081E08093AC0210928C02E091AD0281E0DA
:101340008E0F8093AD02F0E0E457FD4F80818093D3
:10135000BB009091AD028091AC02981708F479CF50
:1013600085E88093BC000AC085EC8093BC00109295
:10137000620304C0109214030E949702FF91EF9140
:10138000BF91AF919F918F917F916F915F914F919D
:101390003F912F910F900BBE0F900FBE0F901F909B
:1013A0001895CF93DF93EC018C819D810E947C1373
:1013B0008A819B81DF91CF910C947C13CF93DF9333
:1013C000EC010E94D109CE01DF91CF910C947C13E6
:1013D000FC01538D448D252F30E0842F90E0821B3B
:1013E000930B541710F0CF96089501970895FC01C0
:1013F000918D828D981761F0828DDF01A80FB11D4C
:101400005D968C91928D9F5F9F73928F90E008956F
:101410008FEF9FEF0895FC01918D828D981731F029
:10142000828DE80FF11D858D90E008958FEF9FEF7D
:101430000895FC01918D228D892F90E0805C9F4F53
:10144000821B91098F739927089580E090E0892B82
:1014500021F00E942503811125C080E090E0892BB6
:1014600041F080E090E0892B21F00E940000811182
:101470001CC080E090E0892B41F080E090E0892B57
:1014800021F00E940000811113C080E090E0892BC0
:10149000A1F080E090E0892B81F00E940000811192
:1014A0000AC008950E940000D8CF0E940000E1CF3A
:1014B0000E940000EACF0C94000008950E940514D9
:1014C000CF93DF9360E08CE00E94C00660E088E08C
:1014D0000E94C006C7E0D0E060E084E00E94C00641
:1014E0008091670390E00C2E02C0959587950A9431
:1014F000E2F780FF02C061E001C060E088E00E9486
:10150000C00661E084E00E94C006219728F761E0F0
:101510008CE0DF91CF910C94C006FC018081823079
:1015200081F018F4813031F00895833089F08430EF
:10153000B1F0089584E690E090938900809388004C
:10154000089584E690E090939D0080939C00089518
:1015500084E690E09093A9008093A800089584E623
:1015600090E090939900809398000895E4E7F3E069
:10157000A089B18982E08C93A485B5851C92A6854B
:10158000B78580E18C93108EA489B58986E08C9311
:10159000A289B3898C9180618C93A289B3898C9143
:1015A00088608C93A289B3898C9180688C9302881F
:1015B000F389E02D80818F7D80830895009769F005
:1015C000FC0101900020E9F73197AF01481B590B4E
:1015D000BC0184E793E00C94B60180E090E00895AC
:1015E000CF93DF930E94DE0AEC0189E592E00E942E
:1015F000DE0A8C0F9D1FDF91CF9108951092660334
:1016000010926503109264031092630310926203B8
:1016100081E0809361031092600361E084E10E94A5
:10162000C00661E085E10E94C006E9EBF0E0808140
:101630008E7F808380818D7F808388E48093B80053
:1016400085E48093BC0080EE91E090935F038093EB
:101650005E0381EE91E090935D0380935C030895B7
:101660008F929F92AF92BF92CF92DF92EF92FF92B2
:101670000E94D4074B015C0184E6C82ED12CE12CDA
:10168000F12C0E94D407DC01CB0188199909AA0921
:10169000BB09883E9340A105B10598F321E0C21A29
:1016A000D108E108F10888EE880E83E0981EA11C9D
:1016B000B11CC114D104E104F10419F7FF90EF90BB
:1016C000DF90CF90BF90AF909F908F9008958F92B2
:1016D0009F92AF92BF920F931F93CF93DF93CDB79B
:1016E000DEB7A1970FB6F894DEBF0FBECDBF19A22B
:1016F000423008F44AE08E010F5D1F4F842E912C7A
:10170000A12CB12CA50194010E94A612E62FB901CB
:10171000CA0101501109EA3014F4E05D01C0E95C2E
:10172000D801EC93232B242B252B61F7C8010E94B1
:10173000DE0AA1960FB6F894DEBF0FBECDBFDF91D3
:10174000CF911F910F91BF90AF909F908F90089570
:10175000FC01848DDF01A80FB11DA35ABF4F2C914E
:10176000848D90E001968F739927848FA689B7891D
:101770002C93A089B1898C91837080648C93938D14
:10178000848D981306C00288F389E02D80818F7DB7
:1017900080830895EF92FF920F931F93CF93DF936F
:1017A000EC0181E0888F9B8D8C8D981305C0E889B2
:1017B000F989808185FD26C0F62E0B8D10E00F5F24
:1017C0001F4F0F731127E02E8C8DE8120CC00FB63F
:1017D00007FCFACFE889F989808185FFF5CFCE0132
:1017E0000E94A80BF1CF8B8DFE01E80FF11DE35A8B
:1017F000FF4FF0829FB7F8940B8FEA89FB898081B5
:1018000080620AC09FB7F894EE89FF896083E889F7
:10181000F98980818370806480839FBF81E090E03C
:10182000DF91CF911F910F91FF90EF900895CF938B
:10183000DF93EC01888D8823C9F0EA89FB898081D8
:1018400085FD05C0A889B9898C9186FD0FC00FB6AA
:1018500007FCF5CF808185FFF2CFA889B9898C91EB
:1018600085FFEDCFCE010E94A80BE7CFDF91CF918E
:101870000895CF92DF92EF92FF920F931F93E82F7C
:10188000F92F05C0015011092109310961F1908139
:1018900096239417B9F305C00150110921093109A4
:1018A00011F1908196239413F7CFC12CD12CE12C08
:1018B000F12C0AC08FEFC81AD80AE80AF80A0C15EA
:1018C0001D052E053F0579F080818623841791F34D
:1018D0006C2D7D2D8E2D9F2D1F910F91FF90EF90E0
:1018E000DF90CF90089560E070E080E090E01F917D
:1018F0000F91FF90EF90DF90CF900895789484B58A
:10190000826084BD84B5816084BD85B5826085BDFB
:1019100085B5816085BD80916E00816080936E0089
:10192000109281008091810082608093810080917B
:10193000810081608093810080918000816080932C
:1019400080008091B10084608093B1008091B000EC
:1019500081608093B00080919100826080939100BB
:1019600080919100816080939100809190008160CE
:10197000809390008091A10082608093A10080916B
:10198000A10081608093A1008091A000816080937C
:10199000A00080912101826080932101809121012A
:1019A00081608093210180912001816080932001DA
:1019B00080917A00846080937A0080917A008260BE
:1019C00080937A0080917A00816080937A00809180
:1019D0007A00806880937A001092C1000E94B60A53
:1019E0000E94FE0A8CE08093B8008FE392E00E9490
:1019F000F00A8CE690E00E94E412EC0188E693E0A5
:101A000099838883FE01EC59FF4F8AE097EDA3EAA2
:101A1000BCE380839183A283B383349688E491EE00
:101A2000AAE7BFE380839183A283B383D0934A0361
:101A3000C093490386E090E00E94E4128C0188E2A2
:101A4000F80180838AE2818388E893E1A0E0B0E036
:101A500082839383A483B58361E088E20E943E077A
:101A600060E08AE20E943E07109344030093430320
:101A7000CE010E944D0802E310E08091490390914D
:101A80004A030E942F03C0914903D0914A03FE01EB
:101A9000E05BFF4F20913F033091400340914103B1
:101AA0005091420360817181828193810E94EB0F8A
:101AB0004B015C0160933F037093400380934103AB
:101AC00090934203FE01EC5AFF4F20913B0330916B
:101AD0003C0340913D0350913E03608171818281BE
:101AE00093810E94EB0F6B017C0160933B03709329
:101AF0003C0380933D0390933E03C85ADF4F2091EF
:101B00003703309138034091390350913A0368818B
:101B100079818A819B810E94EB0F2B013C016093AC
:101B20003703709338038093390390933A0301503D
:101B3000110909F0A2CF20E030E048E452E4C501E9
:101B4000B4010E94C91060933F03709340038093D7
:101B500041039093420320E030E048E452E4C7019F
:101B6000B6010E94C91060933B0370933C038093BD
:101B70003D0390933E0320E030E048E452E4C3018B
:101B8000B2010E94C91060933703709338038093A9
:101B9000390390933A030E94AA0160934B03709318
:101BA0004C0380934D0390934E0361E083E194E0F6
:101BB0000E940A0661E081E194E00E940A0683E146
:101BC00094E00E948D0A81E194E00E948D0A0DE16B
:101BD00010E092E3C92ED12C0E94AA0160934F031A
:101BE0007093500380935103909352038091490363
:101BF00090914A030E942F0380914F0390915003CC
:101C0000A0915103B0915203409145035091460376
:101C10006091470370914803841B950BA60BB70B8B
:101C20008B3F9105A105B10508F4EAC0E09043039C
:101C3000F090440361E083E194E00E940A0661E0D1
:101C400081E194E00E940A0682E3A82EB12CC0E054
:101C5000D0E0C7010E947A07B8010E949212C60F15
:101C6000D71FF1E0AF1AB108A1F7CE01B6010E946B
:101C70009212EB014B01072E000CAA08BB0877FF5C
:101C80000EC06DE284E793E00E94CA0B66277727B7
:101C9000CB01681979098A099B094AE003C04AE027
:101CA000C501B4010E94670B89E592E00E94DE0A3B
:101CB00083E194E00E948D0A81E194E00E948D0A04
:101CC000C7010E947A07B8010E9492124B018C1A38
:101CD0009D0AAA24BB24A818B908CB018C1B9D0B14
:101CE00097FF03C091958195910982309105C4F0C9
:101CF000940197FC95018217930794F462E081E1C7
:101D000094E00E940A0681E194E00E948D0A0E94FC
:101D1000300BC7010E947A07B8010E949212DDCFF2
:101D200097FE03C0919481949108881599052CF52C
:101D30006C1B7D0B77FF03C0719561957109623053
:101D40007105DCF061E081E194E00E940A0681E126
:101D500094E00E948D0A62E083E194E00E940A060A
:101D600083E194E00E948D0A0E94300BC7010E941B
:101D70007A07B8010E949212DBCF61E083E194E020
:101D80000E940A0661E081E194E00E940A0683E174
:101D900094E00E948D0A81E194E00E948D0A8CE516
:101DA00092E00E94DE0A80914F0390915003A0912F
:101DB0005103B09152038090450390904603A09048
:101DC0004703B0904803BC01CD01681979098A091D
:101DD0009B094AE00E94670B89E592E00E94DE0AB7
:101DE00080914F0390915003A0915103B091520301
:101DF0008093450390934603A0934703B093480311
:101E00000E94250AE9CE85E194E00C94D1090F9354
:101E10001F93CF93DF93E4E7F3E01382128288EEFF
:101E200093E0A0E0B0E084839583A683B7832AE0A3
:101E300032E03183208325EC30E03587248724ECA1
:101E400030E03787268720EC30E0318B208B21EC87
:101E500030E0338B228B22EC30E0358B248B26EC68
:101E600030E0378B268B118E128E138E148E08E67F
:101E700013E0F8011382128284839583A683B783CB
:101E80008CE192E091838083C5E1D4E08EE292E020
:101E9000998388831F821E82198618860E94B60A3B
:101EA0008CE08093B8000E94FE0A8CE690E00E94CD
:101EB000E412FC0111830083EC59FF4F4AE057ED17
:101EC00063EA7CE34083518362837383349648E4FE
:101ED00051EE6AE77FE340835183628373839B8380
:101EE0008A8388EC90E00E94E4129D838C8319869B
:101EF000188683E692E00E94F00A8A819B810E9404
:101F00004D0886E792E00E94F00AE3E1F4E084E005
:101F10008083D2E0D18361E08CE00E943E0761E0E3
:101F200087E00E943E0761E088E00E943E0761E092
:101F300084E00E943E07109267030E94600A60E0FE
:101F400087E00E94C0060E94600AE0E9F0E080811C
:101F500081688083CAE0C09391001092990010922A
:101F6000980061E085E00E943E07E1E1F4E083E053
:101F70008083D18361E08CE00E943E0761E087E0CE
:101F80000E943E0761E088E00E943E0761E084E035
:101F90000E943E07109267030E94600A60E087E09B
:101FA0000E94C0060E94600AE0EAF0E08081816839
:101FB0008083C093A1001092A9001092A80061E054
:101FC00086E00E943E0710921F04DF91CF911F917F
:101FD0000F9108955058BB27AA270E9402100C9415
:101FE000B6110E94A81138F00E94AF1120F039F408
:101FF0009F3F19F426F40C947E110EF4E095E7FB54
:102000000C947811E92F0E94C71158F3BA17620790
:1020100073078407950720F079F4A6F50C94E9116D
:102020000EF4E0950B2EBA2FA02D0B01B9019001F3
:102030000C01CA01A0011124FF27591B99F0593F37
:1020400050F4503E68F11A16F040A22F232F342F7F
:102050004427585FF3CF469537952795A795F040CD
:102060005395C9F77EF41F16BA0B620B730B840BE2
:10207000BAF09150A1F0FF0FBB1F661F771F881F9A
:10208000C2F70EC0BA0F621F731F841F48F48795F2
:1020900077956795B795F7959E3F08F0B0CF9395E4
:1020A000880F08F09927EE0F9795879508950E945D
:1020B000A81160F080E891E009F49EEF0E94AF1152
:1020C00028F040E851E071F45EEF0CC00C947E11F2
:1020D0000C94E911E92FE0780E94C71140F3092E12
:1020E000052AB1F3261737074807590738F00E2E8F
:1020F00007F8E02569F0E025E0640AC0EF6307F81F
:10210000009407FADB01B9019D01DC01CA01AD01B0
:10211000EF930E94E0100E94B6110E949A105F9106
:10212000552339F02BED3FE049E450FD49EC0C9488
:10213000EB0F0895DF93DD27B92FBF7740E85FE30A
:102140001616170648075B0718F4D92F0E94F511D9
:102150009F938F937F936F930E946A12E8E0F1E060
:102160000E9481110E94B6112F913F914F915F9172
:102170000E941012DD2351F09058A2EA2AED3FE0B0
:1021800049EC5FE3D0785D270E940210DF910C9448
:10219000B6110E94DD100C94B6110E94AF1158F0D8
:1021A0000E94A81140F029F45F3F29F00C947811A7
:1021B00051110C94EA110C947E110E94C71168F31E
:1021C0009923B1F3552391F3951B550BBB27AA27F0
:1021D00062177307840738F09F5F5F4F220F331F2A
:1021E000441FAA1FA9F335D00E2E3AF0E0E832D0F2
:1021F00091505040E695001CCAF72BD0FE2F29D0F5
:10220000660F771F881FBB1F261737074807AB07C6
:10221000B0E809F0BB0B802DBF01FF2793585F4F3B
:102220003AF09E3F510578F00C9478110C94EA1125
:102230005F3FE4F3983ED4F3869577956795B7951D
:10224000F7959F5FC9F7880F911D9695879597F928
:102250000895E1E0660F771F881FBB1F62177307A1
:102260008407BA0720F0621B730B840BBA0BEE1FB6
:1022700088F7E0950895E89409C097FB3EF490959F
:102280008095709561957F4F8F4F9F4F9923A9F04F
:10229000F92F96E9BB279395F695879577956795DE
:1022A000B795F111F8CFFAF4BB0F11F460FF1BC022
:1022B0006F5F7F4F8F4F9F4F16C0882311F096E9B5
:1022C00011C0772321F09EE8872F762F05C0662363
:1022D00071F096E8862F70E060E02AF09A95660F1C
:1022E000771F881FDAF7880F9695879597F90895D5
:1022F00097F99F6780E870E060E008959FEF80ECB9
:102300000895DF93CF931F930F93FF92EF92DF9285
:102310007B018C01689406C0DA2EEF010E94101236
:10232000FE01E894A5912591359145915591A6F32B
:10233000EF010E940210FE019701A801DA9469F7EB
:10234000DF90EF90FF900F911F91CF91DF91089553
:1023500000240A9416161706180609060895002484
:102360000A9412161306140605060895092E0394FE
:10237000000C11F4882352F0BB0F40F4BF2B11F472
:1023800060FF04C06F5F7F4F8F4F9F4F089557FDD1
:102390009058440F551F59F05F3F71F04795880FD3
:1023A00097FB991F61F09F3F79F08795089512166A
:1023B00013061406551FF2CF4695F1DF08C0161616
:1023C00017061806991FF1CF8695710561050894C7
:1023D0000895E894BB2766277727CB0197F90895DE
:1023E0000E946E1208F48FEF08959B01AC0160E02B
:1023F00070E080E89FE30C94C9100E9410120C94C6
:10240000B6110E94A81138F00E94AF1120F0952358
:1024100011F00C9478110C947E1111240C94EA1193
:102420000E94C71170F3959FC1F3950F50E0551F9F
:10243000629FF001729FBB27F00DB11D639FAA2719
:10244000F00DB11DAA1F649F6627B00DA11D661F68
:10245000829F2227B00DA11D621F739FB00DA11D89
:10246000621F839FA00D611D221F749F3327A00D43
:10247000611D231F849F600D211D822F762F6A2FDF
:1024800011249F5750409AF0F1F088234AF0EE0F44
:10249000FF1FBB1F661F771F881F91505040A9F771
:1024A0009E3F510580F00C9478110C94EA115F3F27
:1024B000E4F3983ED4F3869577956795B795F795AD
:1024C000E7959F5FC1F7FE2B880F911D9695879525
:1024D00097F908959B01AC010C94FD11990F000828
:1024E000550FAA0BE0E8FEEF16161706E807F907E6
:1024F000C0F012161306E407F50798F0621B730B81
:10250000840B950B39F40A2661F0232B242B252B01
:1025100021F408950A2609F4A140A6958FEF811DA4
:10252000811D089597FB072E16F4009407D077FDC0
:1025300009D00E94D01207FC05D03EF490958195F9
:102540009F4F0895709561957F4F0895A1E21A2ECF
:10255000AA1BBB1BFD010DC0AA1FBB1FEE1FFF1F47
:10256000A217B307E407F50720F0A21BB30BE40B97
:10257000F50B661F771F881F991F1A9469F76095DE
:102580007095809590959B01AC01BD01CF01089598
:10259000EE0FFF1F881F8BBF0790F691E02D199457
:1025A000AA1BBB1B51E107C0AA1FBB1FA617B70779
:1025B00010F0A61BB70B881F991F5A95A9F7809595
:1025C0009095BC01CD0108950F931F93CF93DF9396
:1025D0008230910510F482E090E0E0912204F091C5
:1025E000230420E030E0A0E0B0E0309719F1408112
:1025F00051810281138148175907C8F08417950744
:1026000069F4109731F012960C93129713961C935D
:1026100027C0009322041093230422C02115310502
:1026200019F04217530718F49A01BD01EF01DF01B9
:10263000F801DBCF21153105F9F0281B390B2430C7
:10264000310580F48A819B816115710521F0FB01C0
:102650009383828304C09093230480932204FE0119
:10266000329644C0FE01E20FF31F819391932250F2
:102670003109398328833AC0209120043091210404
:10268000232B41F420910202309103023093210464
:102690002093200420910002309101022115310580
:1026A00041F42DB73EB74091040250910502241B1E
:1026B000350BE0912004F0912104E217F307A0F418
:1026C0002E1B3F0B2817390778F0AC014E5F5F4F88
:1026D0002417350748F04E0F5F1F50932104409395
:1026E00020048193919302C0E0E0F0E0CF01DF91FC
:1026F000CF911F910F910895CF93DF93009709F425
:1027000081C0FC01329713821282A0912204B09101
:102710002304109781F420813181820F931F20912F
:102720002004309121042817390751F5F093210432
:10273000E093200467C0ED0120E030E0CE17DF0712
:1027400040F44A815B819E0141155105F1F0EA0197
:10275000F5CFD383C28340815181840F951FC81761
:10276000D90759F488819981840F951F0296918326
:1027700080838A819B81938382832115310529F48B
:10278000F0932304E09322043DC0E901FB83EA8334
:1027900049915991C40FD51FEC17FD0761F4808151
:1027A0009181840F951F0296E90199838883828124
:1027B00093819B838A83E0E0F0E012968D919C9157
:1027C0001397009719F0FD01DC01F7CF8D919C91D3
:1027D00011979D012E5F3F4F820F931F2091200480
:1027E000309121042817390769F4309729F41092A1
:1027F00023041092220402C013821282B093210497
:10280000A0932004DF91CF91089581E090E0F894A7
:102810000C940A1411E0C6E7D1E000E006C0802F56
:10282000FE010E94C8122196011DC737D10780E022
:082830000807A9F7F894FFCF97
:1028380000002404800000000000CA0BB601E8096B
:10284800170C190AF7090B0A00000000F602C90262
:102858009402E2010602F201E30100000000D1093E
:10286800DE09496E7369646520426567696E0046D2
:10287800697273742057616C6C20466F6C6C6F774B
:10288800696E672054657374000D0A0054696D659C
:102898003A2000496E7369646520436F6E737472E1
:1028A8007563746F720046696E6973686564204366
:0C28B8006F6E7374727563746F720000B1
:00000001FF
