:100000000C94B3000C94DB000C94DB000C94DB002C
:100010000C94DB000C94DB000C94DB000C94DB00F4
:100020000C94DB000C94DB000C94DB000C94DB00E4
:100030000C94DB000C94DB000C94DB000C94DB00D4
:100040000C94560A0C94DB000C94DF090C94B9094B
:100050000C94DB000C94DB000C94DB000C94DB00B4
:100060000C94A00A0C94DB0097039F03A703B3032F
:10007000C303D603EF0308040305030503050305C3
:1000800003050305030503053004400403050305C8
:100090000305030503050305030503050305030520
:1000A00003050305030503050305030503056004B4
:1000B0008D04A604564C35334C315F537461727411
:1000C0004D6561737572656D656E74206661696CEE
:1000D0006564004175746F6E6F6D6F75732052614A
:1000E0006E67696E67205465737400564C35334CE7
:1000F00031583A2000564C35334C3158204D6F64FE
:10010000756C655F547970653A2000564C35334CF8
:100110003158204D6F64656C5F49443A20000000FF
:100120000000250028002B00040404040404040437
:100130000202020202020303030303030102040892
:100140001020408001020408102001020408102041
:100150000000000800020100000304070000000086
:1001600000000000BE2411241FBECFEFD8E0DEBF88
:10017000CDBF11E0A0E0B1E0E6EFFFE402C00590E2
:100180000D92A035B107D9F726E0A0E5B1E001C096
:100190001D92AA32B207E1F710E0C3EBD0E004C031
:1001A0002197FE010E947427C23BD107C9F70E9424
:1001B000EF140C94F9270C940000AC01FB01DC0156
:1001C000AE55BE4F9C91292F30E097FF07C0909508
:1001D0009770985F91832058310908C09770918378
:1001E0008FE790E0BC01621B730B9B0183E03595A8
:1001F00027958A95E1F72083DA01AD55BE4F8C91A2
:10020000982F92959F7093838F70828380E00895DA
:10021000AC01DB019C9111962C911197FA01EE55DE
:10022000FE4F283038F0990F990F990F921B915774
:10023000908307C08FE0891B98E0899F200D1124CF
:100240002083FA01ED55FE4F13969C911397129659
:100250008C9120E1929F800D1124808380E008958D
:100260004F925F926F927F92AF92BF92CF92DF9246
:10027000EF92FF920F931F93CF93DF93EC015B01FB
:100280006A017901FC01EC5BFE4F2081318121156F
:10029000310511F481EFBFC040E050E060E070E054
:1002A00080E090E40E943327A0E0B9E00E9490270C
:1002B0009B01AC0186E056954795379527958A9521
:1002C000D1F7FE01EB57FE4FA081AF5FAA0FB0E060
:1002D0000E9490272B013C0196E0769467945794F6
:1002E00047949A95D1F77497208130E040E050E030
:1002F000C301B2010E949B27385F4F4F5F4F6F4F82
:100300007F4F8F4F9F4F0CE00E94C827F50120833D
:10031000318342835383FE01E158FE4F808190E098
:10032000982F882731962081820F911DBC01772755
:10033000AB0160E070E08A019B0104C0000F111F57
:10034000221F331F9A95D2F7C901B8016F5F7F4F03
:100350008F4F9F4FA30192010E949B27385F4F4F01
:100360005F4F6F4F7F4F8F4F9F4F0CE00E94C8270A
:10037000F6012083318342835383FE01ED57FE4F04
:10038000808190E0982F882731962081820F911DDF
:10039000BC017727AB0160E070E08A019B0104C0DB
:1003A000000F111F221F331F9A95D2F7C901B80100
:1003B0006F5F7F4F8F4F9F4FA30192010E949B273A
:1003C000385F4F4F5F4F6F4F7F4F8F4F9F4F0CE006
:1003D0000E94C827F7012083318342835383F501AC
:1003E00080819181A281B3818D839E83AF83B88701
:1003F000F60180819181A281B38189879A87AB8739
:10040000BC87F70180819181A281B3818D879E870E
:10041000AF87B88B80E0DF91CF911F910F91FF9054
:10042000EF90DF90CF90BF90AF907F906F905F90F4
:100430004F9008952F923F924F925F926F927F92CA
:100440008F929F92AF92BF92CF92DF92EF92FF92E4
:100450000F931F93CF93DF93CDB7DEB728970FB6D7
:10046000F894DEBF0FBECDBF1C012A013B010D83F6
:100470001E832F833887FC01EC5BFE4F2081318186
:100480002115310511F481EFA9C0DC0115964D93BA
:100490005D936D937C9318978D819E81AF81B88514
:1004A000F10181879287A387B487C586D686E786C0
:1004B000F08A40E050E060E070E080E090E40E946C
:1004C0003327A0E0B9E00E9490279B01AC0196E0A1
:1004D00056954795379527959A95D1F729833A836D
:1004E0004B835C83810101581E4FF801A681AF5FE9
:1004F000AA0FB0E00E9490274B015C0126E0B69461
:10050000A794979487942A95D1F7D501C401B695FD
:10051000A795979587954CE0440C551C661C771C55
:100520004A95D1F7BC01CD01640D751D861D971D3F
:10053000A50194010E943327F6E92F1AFEEF3F0A26
:10054000C901DA018F3F9105A105B10529F020F01D
:100550008FEF90E0A0E0B0E04D805E806F80788407
:10056000F1018783A5019401C301B2010E94570DD7
:10057000D8019C9311968C93A5019401C701B601F3
:100580000E94570DF80194838583A185AF5FAA0F60
:10059000B0E029813A814B815C810E9490274B0118
:1005A0005C0186E0B694A794979487948A95D1F7D6
:1005B000A5019401C301B2010E94570DD801129602
:1005C0009C93129713968C93A5019401C701B601D1
:1005D0000E94570DF8019783808780E028960FB618
:1005E000F894DEBF0FBECDBFDF91CF911F910F9169
:1005F000FF90EF90DF90CF90BF90AF909F908F9043
:100600007F906F905F904F903F902F9008952F9222
:100610003F924F925F926F927F928F929F92AF9292
:10062000BF92CF92DF92EF92FF920F931F93CF93DF
:10063000DF93CDB7DEB762970FB6F894DEBF0FBE7B
:10064000CDBFDC01E62F5A8349830F87188B298B96
:100650003A8BB701A6011C0106EB201A0EEF300AF7
:100660006C0116E9C11A1EEFD10A3C0121E8621A99
:100670002EEF720A2C013CE6431A3EEF530A8A55CC
:100680009E4F7D01FAE9EF0EF11C1196EC93119744
:1006900019964D935D936D937C931C971D968D9247
:1006A0009D92AD92BC9250970FA118A529A53AA58D
:1006B00051960D931D932D933C93549733E094964C
:1006C0003C93949795961C929597F2E09696FC939E
:1006D000969797961C92979798963C939897999689
:1006E0001C9299979A96FC939A979B961C929B972B
:1006F0000E2F10E0F8013197E632F10508F083C1C2
:100700008B869C86AD86BE864F83588769877A879D
:100710002F85388949895A892B833C834D835E8391
:1007200089809A805D01EC5CFF4F0C9474278C01EA
:100730009201A301B601C1010E94080E0FC08C01F5
:100740009201A301B601C1010E94D00D07C08C0126
:100750009201A301B601C1010E94980D182F8823B0
:1007600009F42FC16BC18C019201A301B601C10133
:100770000E94080E182F811161C182E0D6011A96DD
:100780008C938BE30EC08C019201A301B601C101D1
:100790000E94080E182F811151C182E0F601828754
:1007A0008BE5F501EC56FE4F808B0BC18C0192015D
:1007B000A301B601C1010E94080E182F81113EC18C
:1007C000D501AC56BE4F51961C925197F501E15898
:1007D000FE4F148281EB8583178284ED31C08C013A
:1007E0009201A301B601C1010E94D00D182F811101
:1007F00025C1D501AC56BE4F51961C92519781E050
:10080000F501E158FE4F848394E89583878317C0F0
:100810008C019201A301B601C1010E94980D182F0D
:1008200081110CC1D501AC56BE4F51961C92519707
:10083000F501E158FE4F148287E98583178281EB29
:10084000808740E056E060E070E0408B518B628B27
:10085000738BE55EF10981A116968C9380E42CC020
:100860008C019201A301B601C1010E94080E182F4C
:100870008111E4C081E0F501EA55FE4F8183A1C0FA
:100880008C019201A301B601C1010E94080E182F2C
:100890008111D4C0D20151961C925197F301148258
:1008A00081EB8583178284ED8087F501E656FF4F43
:1008B00081A116968C9380E1E45FFE4F848381C012
:1008C0008C019201A301B601C1010E94D00D182F25
:1008D0008111B4C0D501AC56BE4F51961C925197B0
:1008E00081E0F501E158FE4F848394E89583878386
:1008F00091EB908740E056E060E070E0408B518BD8
:10090000628B738BE55EF10991A116969C93169705
:1009100090E4E45FFE4F948345C08C019201A301F3
:10092000B601C1010E94080E182F811187C0D501A0
:10093000AC56BE4F51961C925197F501E158FE4FAF
:10094000148281EB8583178284ED18C08C0192019B
:10095000A301B601C1010E94980D182F81116EC02C
:10096000D501AC56BE4F51961C925197F501E158F6
:10097000FE4F148287E98583178281EB808740E0F0
:1009800056E060E070E0408B518B628B738BE55ECC
:10099000F10981A116968C93169780E4E45FFE4FCF
:1009A000848381E0E65FFE4F818312828BE850965C
:1009B0008C9380E098ECE654F140908B878782E03E
:1009C0008287D1018D929C92F501968A858ACB848B
:1009D000DC84ED84FE840F81188529853A854B815E
:1009E0005C816D817E81C5010E941A02182F8111E0
:1009F00025C0D501AE57BD4F6D917C916115710534
:100A000021F411EF1BC01CEF19C0CFA0D8A4E9A49A
:100A1000FAA4D5015196CD92DD92ED92FC925497B5
:100A2000B1E7AB1ABEEFBB0ADB01A70196010E943A
:100A30009027F5016083718382839383812F62966F
:100A40000FB6F894DEBF0FBECDBFDF91CF911F91DF
:100A50000F91FF90EF90DF90CF90BF90AF909F905D
:100A60008F907F906F905F904F903F902F90089560
:100A70004F925F926F927F92AF92BF92CF92DF922E
:100A8000EF92FF920F931F93CF93DF93CDB7DEB713
:100A90002C970FB6F894DEBF0FBECDBF413826E9C4
:100AA000520728E96207710510F08CEFCFC02A01C8
:100AB0003B015C01FC01EC55FE4F808185FBEE247F
:100AC000E0F8F12C86FB002700F910E09E01275F7B
:100AD0003F4FAE014B5F5F4FBE016F5F7F4FC50160
:100AE0000E9430018111B2C0F501EC5CFC4F8081A5
:100AF000843031F0883079F1833009F050C015C06E
:100B0000EA94EF2809F452C080E794E6A8E0B0E048
:100B1000C12CD12C7601C3940130110509F44EC0CB
:100B200008EE13E020E030E057C080EE98ECA0E142
:100B3000B0E0EA94EF2809F446C052E0C52ED12C6B
:100B4000E12CF12C0130110509F442C000E614E556
:100B500020E030E041C0F501E055FD4F2081222327
:100B600061F030E0A5EFB0E00E947A278B019C0194
:100B70000B501F4F2F4F3F4F04C005EF10E020E0F8
:100B800030E00452124F2F4F3F4F80EE98ECA0E11F
:100B9000B0E042E0C42ED12CE12CF12C1DC0452840
:100BA0004628472809F481CF88EF50C080E794E6B3
:100BB000A8E0B0E0C12CD12C7601C39408E813E181
:100BC00020E030E009C022E0C22ED12CE12CF12C33
:100BD00008EE17E620E030E0041515052605370578
:100BE00008F063CFB301A201401B510B620B730BE2
:100BF00084179507A607B70708F457CFCB01BA01AA
:100C0000A70196010E94332769017A0129873A8753
:100C10004B875C870D811E812F81388549815A81E0
:100C20006B817C81C5010E941A0281110FC0498528
:100C30005A856B857C85F501458756876787708B5C
:100C4000E85CFC4F40825182628273822C960FB620
:100C5000F894DEBF0FBECDBFDF91CF911F910F91F2
:100C6000FF90EF90DF90CF90BF90AF907F906F900C
:100C70005F904F9008954F925F926F927F928F9204
:100C80009F92AF92BF92CF92DF92EF92FF920F931B
:100C90001F93CF93DF93CDB7DEB729970FB6F894A4
:100CA000DEBF0FBECDBFD801722E632E633029F098
:100CB000683019F030E2432E02C020E4422E22E0D8
:100CC0002F8321E0288723E0298727E02C8326E053
:100CD0002D8328E02E8324E2298325E22A8326E23D
:100CE0002B83413021F0423089F022E010C0643083
:100CF00039F06830C1F0633009F06BC020E00EC0FD
:100D000020E0FE01E20FF11D778112C021E0643086
:100D1000C1F3683049F0633009F05BC0FE01E20FB7
:100D2000F11D748105C020E0FE01E20FF11D71810B
:100D3000793030F4763008F5713008F448C016C0C8
:100D40007231D9F018F4713189F041C02CED270FC0
:100D50002330E8F5FC01E054FF4F40815181369685
:100D600000811181228133813C9612C0FC01E25442
:100D7000FF4F40815181349606C0FC01E054FF4F83
:100D800040815181369600811181228133813896CC
:100D9000C080D180E280F3803C9680809180A280E8
:100DA000B380F301562E3C01EF93FF93BF93AF93B3
:100DB000672F0E9407030F900F900F900F908111E3
:100DC00009C0F3014282EC5CFC4F508203C08CEFFF
:100DD00001C088EF29960FB6F894DEBF0FBECDBFD5
:100DE000DF91CF911F910F91FF90EF90DF90CF9007
:100DF000BF90AF909F908F907F906F905F904F903B
:100E000008957F928F929F92AF92BF92CF92DF927E
:100E1000EF92FF920F931F93CF93DF93CDB7DEB77F
:100E200065970FB6F894DEBF0FBECDBF5C01FC0125
:100E300062817C01F9ECEF1AFCEFFF0A4C018AECAD
:100E4000881A8CEF980AF7019081F4018081981735
:100E500009F4B4C0BE016E5E7F4FC5010E94DD0083
:100E6000F501EC5CFC4FD080F70170808111AAC0C5
:100E70009E01225F3F4FAE01465F5F4FBE016A5F3A
:100E80007F4FC5010E94300181119CC07501F6E5BC
:100E9000EF1AFEEFFF0AF70180818F708068808370
:100EA0003497908191709983918191709A83928106
:100EB00091709B83938193709C838D8305E010E0F8
:100EC00020E030E0AE014F5F5F4F63E870E0C501A6
:100ED0000E94F00CF70190819F70908323E0F50150
:100EE00024A315A292E096A317A220A711A692A769
:100EF00013A6EF54FD4F9081913009F59FEF319685
:100F0000908334961082319610821182128213825D
:100F100034961182108237979081992319F0EB56FD
:100F2000F1409083F501EB54FD4F9081992319F026
:100F3000EF56F1409083F501ED58FE4F108281117C
:100F400041C084EF91E00E94110AF50101891289E4
:100F500023893489472D6D2DC5010E943B068111DF
:100F600031C0CE84DF84E888F9880A851B852C850A
:100F70003D854E815F8168857985C5010E941A0291
:100F8000811120C08E859F85A889B989F501858743
:100F90009687A787B08BBE016E5E7F4FC5010E940A
:100FA000080181110FC046E0F5016281C5010E9470
:100FB000EB0E811107C0F401708204C043E0C5014B
:100FC0000E94EB0E65960FB6F894DEBF0FBECDBF44
:100FD000DF91CF911F910F91FF90EF90DF90CF9015
:100FE000BF90AF909F908F907F900895FC01538D9C
:100FF000448D252F30E0842F90E0821B930B5417F3
:1010000010F0CF96089501970895FC01918D828D7F
:10101000981761F0828DDF01A80FB11D5D968C914C
:10102000928D9F5F9F73928F90E008958FEF9FEF57
:101030000895FC01918D828D981731F0828DE80F13
:10104000F11D858D90E008958FEF9FEF0895FC01CD
:10105000918D228D892F90E0805C9F4F821B91099A
:101060008F739927089581E895E00E94270821E071
:10107000892B09F420E0822F0895FC01848DDF0183
:10108000A80FB11DA35ABF4F2C91848D90E00196FB
:101090008F739927848FA689B7892C93A089B189EA
:1010A0008C9180648C93938D848D981306C00288F4
:1010B000F389E02D80818F7D80830895EF92FF92E8
:1010C0000F931F93CF93DF93EC0181E0888F9B8D6B
:1010D0008C8D981305C0E889F989808185FD24C02D
:1010E000F62E0B8D10E00F5F1F4F0F731127E02EB0
:1010F0008C8DE8120CC00FB607FCFACFE889F9898D
:10110000808185FFF5CFCE010E943D08F1CF8B8D08
:10111000FE01E80FF11DE35AFF4FF0820B8FEA89C1
:10112000FB898081806207C0EE89FF896083E8893E
:10113000F98980818064808381E090E0DF91CF91A4
:101140001F910F91FF90EF900895CF93DF93EC01E3
:10115000888D8823C9F0EA89FB89808185FD05C0D7
:10116000A889B9898C9186FD0FC00FB607FCF5CF11
:10117000808185FFF2CFA889B9898C9185FFEDCF59
:10118000CE010E943D08E7CFDF91CF91089580E026
:1011900090E0892B29F00E94330881110C94000003
:1011A00008953FB7F8948091100590911105A09192
:1011B0001205B091130526B5A89B05C02F3F19F065
:1011C0000196A11DB11D3FBFBA2FA92F982F8827C7
:1011D000820F911DA11DB11DBC01CD0142E0660F22
:1011E000771F881F991F4A95D1F7089585ED809341
:1011F000BC008091BC0084FDFCCF10925C0508957A
:101200004091E604262F30E0240F311D21323105B4
:10121000DCF420915C052430C9F4FC0180E090E00E
:10122000861758F43091E6042191DC01AC53BB4F92
:10123000A30FB11D2C930196F3CF8091E604680FA4
:101240006093E60480E0089581E0089582E00895C7
:101250000895E091150580911405E81730F4F0E049
:10126000EA5EFA4F808190E008958FEF9FEF089536
:101270009091150580911405981750F4E92FF0E02E
:10128000EA5EFA4F208130E09F5F9093150502C01F
:101290002FEF3FEFC90108958091140590E0209150
:1012A0001505821B91090895CF92DF92EF92FF926C
:1012B0000F931F93CF93DF937C01262F972F8A01E3
:1012C00080915D05882391F0C62FD72F6E01C40E43
:1012D000D51ECC15DD0571F06991D701ED91FC911A
:1012E0000190F081E02DC7010995F3CF642F822F83
:1012F0000E940009C801DF91CF911F910F91FF90CB
:10130000EF90DF90CF900895CF93DF931F92CDB7EA
:10131000DEB7698320915D052223D1F020918005FD
:10132000203240F021E030E0FC013383228380E072
:1013300090E015C080915E05E82FF0E0E15AFA4F89
:10134000998190838F5F80935E058093800505C0AF
:1013500061E0CE0101960E94000981E090E00F90CB
:10136000DF91CF910895089580E090E008950E9464
:10137000ED271F920F920FB60F9211242F933F93D8
:101380004F935F936F937F938F939F93AF93BF938D
:10139000EF93FF9381E895E00E943D08FF91EF9164
:1013A000BF91AF919F918F917F916F915F914F917D
:1013B0003F912F910F900FBE0F901F9018951F9285
:1013C0000F920FB60F9211242F938F939F93EF9349
:1013D000FF93E0919105F09192058081E09197054E
:1013E000F091980582FD12C0908180919A058F5FDF
:1013F0008F7320919B05821751F0E0919A05F0E0E0
:10140000EF57FA4F958F80939A0501C08081FF9125
:10141000EF919F918F912F910F900FBE0F901F9082
:1014200018958230910538F0880F991F880F991F01
:1014300005970197F1F708958F929F92AF92BF920F
:10144000CF92DF92EF92FF926B017C010E94D10854
:101450004B015C01C114D104E104F104F1F00E94DC
:10146000D108DC01CB0188199909AA09BB09883E7A
:101470009340A105B10570F321E0C21AD108E1083B
:10148000F10888EE880E83E0981EA11CB11CC114DF
:10149000D104E104F10419F7DDCFFF90EF90DF9064
:1014A000CF90BF90AF909F908F9008951F920F9212
:1014B0000FB60F9211242F933F938F939F93AF9367
:1014C000BF9380910C0590910D05A0910E05B091F0
:1014D0000F0530910B0523E0230F2D3720F40196E3
:1014E000A11DB11D05C026E8230F0296A11DB11D47
:1014F00020930B0580930C0590930D05A0930E058A
:10150000B0930F058091100590911105A0911205DF
:10151000B09113050196A11DB11D80931005909304
:101520001105A0931205B0931305BF91AF919F9140
:101530008F913F912F910F900FBE0F901F90189594
:101540001F920F920FB60F9211242F933F934F9338
:101550005F936F937F938F939F93AF93BF93EF931B
:10156000FF938091B900887F803609F49CC068F5AC
:10157000883209F45BC090F4803109F454C038F427
:10158000882309F4F6C0883009F44DC0F6C08831CC
:1015900009F44CC0803209F45DC0EFC0803409F416
:1015A00068C048F4803309F455C0883309F0E5C0B9
:1015B00080935A05D8C0803509F44FC0883509F4A6
:1015C0005DC0883409F0D9C0D6C0883909F4C7C0D5
:1015D000A8F4883709F467C038F4883609F463C082
:1015E000803709F460C0C9C0883809F4B8C08039B0
:1015F00009F45FC0803809F0C0C05BC0803B09F4CB
:1016000086C038F4803A09F466C0883A09F47FC08D
:10161000B4C0803C09F4A7C0883C09F4A4C0883B4E
:1016200009F48AC0AAC08091370510C0909159056D
:1016300080915805981770F5E091590581E08E0F5B
:1016400080935905F0E0E85CFA4F80818093BB00FD
:1016500085EC86C080935A058EC0E091590581E0E3
:101660008E0F809359058091BB00F0E0E85CFA4F43
:10167000808390915905809158056EC0E09159057D
:1016800081E08E0F809359058091BB00F0E0E85C0B
:10169000FA4F808380915B0581116DC081E080935A
:1016A000360584EA61C083E080935C0510920A05E8
:1016B000CFCF80910A05803208F051C0E0910A0531
:1016C00081E08E0F80930A058091BB00F0E0E65127
:1016D000FB4F8083BDCF85EC8093BC0010925C05EE
:1016E00080910A05803230F4E0910A05F0E0E6517D
:1016F000FB4F108260910A0570E0E091E804F091E0
:10170000E9048AEE94E0099510920A0536C084E057
:1017100080935C051092E7041092E604E091E404E3
:10172000F091E50409958091E604811105C081E0FE
:101730008093E6041092C404E091E70481E08E0FE8
:101740008093E704F0E0EC53FB4F80818093BB0073
:101750009091E7048091E604981708F479CF85E822
:101760008093BC000AC085EC8093BC0010925C059D
:1017700004C010925A050E94F608FF91EF91BF91A4
:10178000AF919F918F917F916F915F914F913F9119
:101790002F910F900FBE0F901F901895EF92FF9210
:1017A0000F931F93CF93DF937B01EA018C01005BC2
:1017B0001C4FF801208130E03595279581E080931A
:1017C0005D0520937F0510925E05109280058F2D98
:1017D00090E00E948513C70199270E94851381E03C
:1017E0000E942813882311F083EF1CC0F801808128
:1017F00090E062E070E0969587950E94B013823089
:1018000099F78EE196E00E943809188289838EE16B
:1018100096E00E94380928813981822B932B998385
:10182000888380E0DF91CF911F910F91FF90EF901F
:101830000895EF92FF920F931F93CF93DF937B0155
:10184000EA018C01005B1C4FF801208130E03595E6
:10185000279581E080935D0520937F0510925E05BA
:10186000109280058F2D90E00E948513C701992763
:101870000E94851381E00E942813882311F083EFD2
:1018800011C0F801808190E061E070E09695879545
:101890000E94B013813099F78EE196E00E943809DA
:1018A000888380E0DF91CF911F910F91FF90EF909F
:1018B00008950F931F93CF93DF931F92CDB7DEB799
:1018C0008B01FC01E05BFC4F208130E035952795D2
:1018D00081E080935D0520937F0510925E05109254
:1018E0008005812F90E049830E948513C8019927C4
:1018F0000E9485134981642F8EE196E00E9484093D
:1019000081E00E942813882311F083EF01C080E05A
:101910000F90DF91CF911F910F9108958F929F9219
:10192000AF92BF92CF92DF92EF92FF920F931F93ED
:10193000CF93DF937B01EA0148015901805B9C4F03
:101940006C01FC01208130E03595279581E0809382
:101950005D0520937F0510925E05109280058F2D06
:1019600090E00E948513C70199270E94851381E0AA
:101970000E942813882321F083EF25C0C10FD11DB9
:1019800081149104A104B104E9F0F601808190E092
:10199000B401969587950E94B013182F882361F3A0
:1019A000881A9108A108B108EC2EFD2E0C2F010F0A
:1019B0000E1521F38EE196E00E943809F70181931C
:1019C0007F01F6CF80E0DF91CF911F910F91FF90C3
:1019D000EF90DF90CF90BF90AF909F908F90089541
:1019E0004F925F926F927F929F92AF92BF92CF92EF
:1019F000DF92EF92FF920F931F93CF93DF936B01D0
:101A00007A0128013901805B9C4F5C0111E041148F
:101A100051046104710429F1F501208130E035950C
:101A2000279510935D0520937F0510925E05109217
:101A300080058D2D90E00E948513C60199270E9494
:101A400085139E2CCE2DDF2D0C2F09197E0121969A
:101A5000F70160818EE196E00E948409892B19F4D8
:101A60000BC080E014C07E010C2F0919F1E04F1A61
:101A700051086108710841F7002341F081E00E949C
:101A80002813811103C0C00ED11CC1CF83EFDF9199
:101A9000CF911F910F91FF90EF90DF90CF90BF906B
:101AA000AF909F907F906F905F904F900895CF92EE
:101AB000DF92EF92FF926B017C016CE0CC0CDD1C9D
:101AC000EE1CFF1C6A95D1F7DA01C901B695A795FE
:101AD00097958795BC01CD016C0D7D1D8E1D9F1DB9
:101AE0000E9433272115310541055105D1F0BA0176
:101AF000A901415051096109710980E090E06A0132
:101B00007B01CC24CD28CE28CF2831F0769567955F
:101B1000579547950196F3CF982F8827840F951FE7
:101B200002C080E090E0FF90EF90DF90CF900895AA
:101B3000AF92BF92CF92DF92EF92FF920F931F93DB
:101B4000CF93DF93EA01690157010E94080E8111CA
:101B50001CC02FE02E839DE09987F50141895289B1
:101B60005B874A874789508D5D874C8738E03E8781
:101B700038EB3F87F60127839087F5019681F601C0
:101B80009187F5019185F6019287DF91CF911F91A1
:101B90000F91FF90EF90DF90CF90BF90AF9008959E
:101BA000AF92BF92CF92DF92EF92FF920F931F936B
:101BB000CF93DF93EA01690157010E94080E81115A
:101BC0001CC027E02E8395E09987F5014589568949
:101BD0005B874A87438D548D5D874C8738E03E870D
:101BE00038E33F87F60127839087F5019085F6015A
:101BF0009187F5019385F6019287DF91CF911F912F
:101C00000F91FF90EF90DF90CF90BF90AF9008952D
:101C1000CF92DF92EF92FF920F931F93CF93DF93B8
:101C2000FC01DB01690180E09AE0918380831282EC
:101C300013821482158216821782108611861286EC
:101C4000138681E1848792E095871686978778E0EE
:101C5000708B118AE7018D8D828B8E8D838B8F8D9A
:101C6000848B81E0858B168A178A118E108E2FEF58
:101C7000228F3889338F3C85348F158E168E178EC0
:101C80001C9211961C92119760E212966C93129717
:101C90003BE013963C931397EE85FF851596FC93D6
:101CA000EE93149716969C931697EDE01796EC9387
:101CB0001797ED851896EC93189719961C9219971B
:101CC0001A968C931A971C961C921E921B971E961E
:101CD0001C921E921D97E0E0FCE85096FC93EE9358
:101CE0001F9751961C925197E8E35296EC935297A6
:101CF00053962C93539754968C93FA011082EAE1F1
:101D0000DA011196EC93119712961C921297139682
:101D10006C93139714968C9314976CEC15966C93A4
:101D2000159716963C93169717968C93179765EF11
:101D300018966C93189769E019966C931997EB892C
:101D4000FC891B96FC93EE931A97E98DFA8D1D96EC
:101D5000FC93EE931C971E967C931E9778E71F9634
:101D60007C93EA01188A198A1A8A1B8A1C8AF6014E
:101D7000808312821182148213821582D701909679
:101D80004C91909746833783608717963C911797BD
:101D900031871A963C911A973287838793963C91A4
:101DA0009397348792963C91358737EC368727870F
:101DB0002BED208B918BE80119828A838B8381E242
:101DC0008C8380E0DF91CF911F910F91FF90EF9076
:101DD000DF90CF9008954F925F926F927F928F9293
:101DE0009F92AF92BF92CF92DF92EF92FF920F93AA
:101DF0001F93CF93DF93CDB7DEB7DA950FB6F89484
:101E0000DEBF0FBECDBF7C01DC0112966C935C017E
:101E1000BAE5AB1ABEEFBB0AF50184818F70682B5F
:101E20006483E454F109D701A45DBE4F8D919C9168
:101E300091838083E05BFE4F80818F3F09F41082A5
:101E4000D701AF54BD4F8C91813079F580818111DC
:101E500022C0A554B1408C91F701ED54FD4F808311
:101E600080E28C93EF50F14080818076EA55F1401A
:101E700081110BC0AE51B1408D919C91880F991F7B
:101E8000880F991F9183808302C011821082453090
:101E900060F445E00AC0813041F4F701ED54FD4F94
:101EA0008081E754F140808346E0EFEFE40FE630B5
:101EB00030F4F0E0E05FFE4FC080D12C03C033E887
:101EC000C32ED12C08E810E028014C185D08FE0153
:101ED0003196CF01840D951D4F01E817F90711F0D8
:101EE0001192FBCF463008F43FC084010C191D0944
:101EF0000F5F1F4F3701F1EC6F1AFEEF7F0AD3011E
:101F00008C918F77F801808311968C9111978F7047
:101F1000818312968C9112978F77828313968C917E
:101F200013978370838314968C9114978F7784838F
:101F3000B8016B5F7F4F15968D919C9116970E940B
:101F40008A13D30117968C911797F80187831896F7
:101F50008C911897808719968C9119978F73818728
:101F60001A968C91828703C0453009F077C08401AE
:101F70000C191D09035F1F4FD701D9968C91D99772
:101F8000F8018083DA968C91DA978183DB968C91C5
:101F9000DB978283DC968C91DC978383DD968C9132
:101FA000DD978483DE968C91DE978F708583DF9634
:101FB0008C918683F701E05CFF4F80818F73D8019D
:101FC00017968C93179731968081837018968C930F
:101FD000B801675F7F4F3196808191810E948A139B
:101FE000B801655F7F4FF701EC5BFF4F8081918106
:101FF0000E948E13B801635F7F4FF701EA5BFF4FCA
:10200000808191810E948E13B801615F7F4FF7013B
:10201000E85BFF4F808191810E948A13B8016F5E57
:102020007F4FF701E65BFF4F808191819F710E9496
:102030008E13B8016D5E7F4FF701E45BFF4F808127
:1020400091810E948E13B8016B5E7F4FF701E25BB6
:10205000FF4F808191810E948E1303C0443009F0AC
:102060009EC084010C191D090C5D1F4FB80137017A
:10207000B6EB6B1ABEEF7B0AF301808191810E945F
:102080008A13D30112968C9112978170F801828382
:1020900013968C9113978F70838314968C91149759
:1020A0008F70848315968C9115978F718583169602
:1020B0008C9116978F77868317968C9117978F77C9
:1020C000878318968C9118978170808719968C91C8
:1020D000199781871A968C911A97817082871B961F
:1020E0008C911B97837083871C968C911C978F71A2
:1020F00084871D968C911D97837085871E968C9181
:102100001E97837086871F968C911F97877087878D
:1021100050968C9150978F71808B51968C915197DE
:102120008170818B52968C915297828B53968C91B1
:102130005397838B54968C915497848B55968C919E
:102140005597858B56968C915697868B57968C9182
:102150005797878BB801685E7F4F58968D919C91F9
:1021600059970E948A13D3015A968C915A97F80175
:10217000828F5B968C915B97838F5C968C915C973A
:102180008F70848F5D968C915D97858F5E968C9114
:102190005E978F70868F5F968C91878F03C04330D8
:1021A00009F06BC084010C191D090C5B1F4F37012E
:1021B000F6E96F1AFEEF7F0AD3018C91F801808354
:1021C00011968C911197818312968C91129782832C
:1021D00013968C9113978F778383B8016C5F7F4F31
:1021E00014968D919C9115979F700E948A13D3012C
:1021F00016968C9116978F77F801868317968C9197
:102200001797878318968C911897808719968C91C9
:102210001997817081871A968C911A978770838796
:10222000B801645F7F4F1B968D919C911C970E9413
:102230008A13B801625F7F4FD3011D968D919C91E7
:102240001E970E948A13B801605F7F4FF301878554
:1022500090890E948A13D30151968C915197F8016D
:10226000828B52968C915297838B53968C91539775
:10227000848B54968C91858B03C0423009F06BC0DF
:1022800084010C191D09065A1F4F3701F1E86F1A16
:10229000FEEF7F0AD3018C918F70F8018083119635
:1022A0008C911197818312968C9112978F708283F3
:1022B00013968C911397838314968C9114978F7037
:1022C000848315968C911597858316968C91169715
:1022D0008F73868317968C9117978F7087831896C4
:1022E0008C911897808719968C9119978F73818795
:1022F000B801665F7F4F1A968D919C911B970E9443
:102300008A13B801645F7F4FD3011C968D919C9115
:102310001D970E948A13F3018685D8011E968C931F
:102320001E9787851F968C9340895189628973898E
:10233000F8017696C80142964293452F562F672F93
:102340007727E817F907C1F7F30184898170D8016D
:1023500056968C9303C0442309F46AC001E710E049
:102360000C191D09F501848197012C563E4F390146
:1023700085FF09C0D70196968C91982F9160F9013D
:1023800090839387818B080D191DD3018C918370E5
:10239000F8018193BF0111968D919C9112970E9433
:1023A0008A13B8016D5F7F4FD30113968D919C9175
:1023B00014970E948A13F30185818170D8011596C4
:1023C0008C9315978681877016968C9316978781C4
:1023D00017968C931797808518968C9318978185FC
:1023E0008F7719968C93199782858F771A968C938D
:1023F0001A97838583701B968C931B9784858370B3
:102400001C968C931C9785858F701D968C931D97B9
:1024100086851E968C931E9787851F968C931F9793
:10242000808950968C9350978189837051968C93B4
:10243000F401EC19FD09ED57FF4FD5018C91817026
:10244000808311968C9111978170818312968C9163
:1024500012978170828313968C9113978370838374
:1024600014968C918483820120E030E0A401B601AF
:10247000C7010E94F00C811197C0F701E655FE4F8D
:102480009081907F59F423E0F70120A711A692E0F4
:1024900092A713A624A315A296A357C0D701999675
:1024A0009C9199979F3F21F490E899969C9303C043
:1024B0009F5FF70191A7D7019A962C919A9792E086
:1024C00092279A969C939A9798969C91963019F198
:1024D00018F4933079F02CC0973019F1983041F509
:1024E000D7019B963C919B9721E023279B962C93A9
:1024F0009B971BC0F701EB55FE4F908191FF04C0E5
:1025000096E0F70190A704C098E0D70198969C93B5
:10251000F70111A613C0D70199961C92999798E0DC
:1025200004C098E0F70190A712C098969C930FC042
:1025300093E0F70190A711A692E092A713A607C017
:1025400093E0F70194A315A226A317A22DC0D701EB
:1025500095969C919F3F29F490E8D70195969C937E
:1025600003C09F5FF70195A3D70196969C9196971C
:1025700022E0922796969C93969794969C919330FE
:1025800059F09430E9F6D70197962C91979791E0FE
:10259000922797969C9308C0F70197A121E0922774
:1025A00097A325A394E094A3D3950FB6F894DEBF28
:1025B0000FBECDBFDF91CF911F910F91FF90EF9094
:1025C000DF90CF90BF90AF909F908F907F906F9053
:1025D0005F904F900895CF92DF92EF92FF920F930A
:1025E0001F93CF93DF936C017A018B01C0E0D0E0A1
:1025F000CE15DF0589F0D8016D918D01D601ED91E1
:10260000FC910190F081E02DC6010995892B11F410
:102610007E0102C02196ECCFC701DF91CF911F91BF
:102620000F91FF90EF90DF90CF900895009769F0A1
:10263000FC0101900020E9F73197AF01481B590BCD
:10264000BC0181E895E00C94EB1280E090E00895E5
:10265000382F2091800590917F05213208F049C0E4
:1026600080915C058111FCCF42E040935C05309382
:102670005B053FEF30935A0510925905209358059A
:10268000AFE5B5E048E355E0FA013E2F341B3217C1
:1026900018F43D913193F9CF109237052091370509
:1026A000990F922B9093370590913605913061F4F4
:1026B00010923605909137059093BB009091BC0025
:1026C00093FDF8CF95EC01C095EE9093BC009091EE
:1026D0005C059230E1F390915A059F3F79F080912B
:1026E0005A05803241F080915A05803331F084E000
:1026F00005C081E003C082E001C083E010925E0566
:102700001092800510925D050895682F8EE196E085
:102710000C948409FB01818390830895FB018183DC
:1027200090830895FC01208130E0322F222781819F
:10273000A901482BCA010895FC019C012C5F3F4F61
:1027400060E070E0CB01E217F30749F0B82FA72F44
:10275000962F88274191BC01CD01642BF4CF0895B9
:1027600090915C059111FCCF613208F060E291E03C
:1027700090935C0590935B052FEF20935A05109280
:102780005905260F209358059093370590913705EA
:10279000880F892B8093370580913605813061F44D
:1027A00010923605809137058093BB008091BC0064
:1027B00083FDF8CF85EC01C085EE8093BC0080914D
:1027C0005C058130E1F380915905861710F4609122
:1027D0005905A8E3B5E026E135E0F9018E2F821B0B
:1027E000861718F48D918193F9CF10921505609397
:1027F0001405862F08950F931F93CF93DF938C01B9
:10280000C0E0D0E0F801EC0FFD1F6491662371F089
:10281000E0918105F09182050190F081E02D81E841
:1028200095E00995892B11F02196ECCFCE01DF912F
:10283000CF911F910F910895FC01208130E0322F3C
:1028400022278181A901482BCA010895EF92FF92A6
:102850000F931F93CF93DF931F92CDB7DEB78C01F9
:1028600080EB94E00E94110AE12CF12CAE014F5F45
:102870005F4F65EE70E0C8010E94190C811120C005
:10288000898180FD0FC061E070E080E090E00E94EF
:102890001C0A83EFE81681E0F80689F0EFEFEE1AE4
:1028A000FE0AE4CF80E023E0F80124A315A292E021
:1028B00096A317A220A711A692A713A601C089EF7D
:1028C0000F90DF91CF911F910F91FF90EF9008959E
:1028D0008F929F92AF92BF920F931F93CF93DF93EC
:1028E000CDB7DEB7A1970FB6F894DEBF0FBECDBF50
:1028F00019A2423008F44AE08E010F5D1F4F842E6A
:10290000912CA12CB12CA50194010E943327E62F14
:10291000B901CA0101501109EA3014F4E05D01C0A7
:10292000E95CD801EC93232B242B252B61F7C801FC
:102930000E941613A1960FB6F894DEBF0FBECDBF4E
:10294000DF91CF911F910F91BF90AF909F908F908B
:10295000089590E0FC01E05BFE4F2491FC01E45CF3
:10296000FE4F3491FC01E85DFE4FE491EE23B1F19E
:10297000222339F1233091F038F42130A9F02230AC
:1029800001F584B58F7D12C0273091F02830A1F079
:102990002430B9F4809180008F7D03C08091800045
:1029A0008F77809380000DC084B58F7784BD09C078
:1029B0008091B0008F7703C08091B0008F7D8093AD
:1029C000B000F0E0EE0FFF1FE25EFE4FA591B49164
:1029D0008FB7F894EC913E2B3C938FBF0895CF9323
:1029E000DF93CDB7DEB7C752D1400FB6F894DEBF44
:1029F0000FBECDBF789484B5826084BD84B58160FC
:102A000084BD85B5826085BD85B5816085BD8091B9
:102A10006E00816080936E00109281008091810031
:102A20008260809381008091810081608093810029
:102A3000809180008160809380008091B1008460EB
:102A40008093B1008091B00081608093B00080914C
:102A50007A00846080937A0080917A00826080930B
:102A60007A0080917A00816080937A0080917A0068
:102A7000806880937A001092C10010921505109220
:102A8000140510925E051092800510925C0581E09D
:102A900080935B051092360582E10E94A91483E1C0
:102AA0000E94A9148091B9008E7F8093B900809113
:102AB000B9008D7F8093B90088E48093B80085E4E5
:102AC0008093BC008CE08093B800E0919105F09178
:102AD000920582E08083E0918D05F0918E05108251
:102AE000E0918F05F091900580E180831092990527
:102AF000E0919505F091960586E08083E09193053D
:102B0000F0919405808180618083E0919305F0913C
:102B10009405808188608083E0919305F09194050D
:102B2000808180688083E0919305F0919405808195
:102B30008F7D808382E58093A00440E060E070E0B8
:102B400080E591E00E94590C811157C084E690E025
:102B50000E94110A41E060E070E080E591E00E948F
:102B6000590C81114AC080915001811105C080E546
:102B700091E00E94261441C000E012E043E0F42EF0
:102B800080E001113AC0811138C01982AE014F5F57
:102B90005F4F65EE70E080E591E00E94190C99812D
:102BA00090FF12C0F092740110927501109376019B
:102BB00010927701F09278011092790110937A01C6
:102BC00010927B0101E010C0109374011092750106
:102BD0001093760110927701109378011092790189
:102BE00010937A0110927B018111CBCF61E070E0EC
:102BF00080E090E00E941C0AC3CFAE01415F5E4FAF
:102C00006FE071E080E591E00E94190C8BE091E0AB
:102C10000E94FB13C15FDE4F6881CF50D14070E04E
:102C200080E090E040E10E9468148AE391E00E9415
:102C30001613AE01415F5E4F60E171E080E591E007
:102C40000E94190C85EF90E00E94FB13C15FDE4FDC
:102C50006881CF50D14070E080E090E040E10E9478
:102C600068148AE391E00E941613AE01435F5E4F41
:102C70006FE071E080E591E00E94CE0B8BEE90E07A
:102C80000E94FB13C35FDE4F68817981CD50D14034
:102C900080E090E040E10E9468148AE391E00E94A5
:102CA000161383ED90E00E94FB138AE391E00E94EB
:102CB000161380E591E00E942614082E000C990B53
:102CC0009093C3048093C204AE014F5F5E4F6EE2E7
:102CD00070E080E591E00E94190C8111BBC4CF5FC8
:102CE000DE4F4881C150D1404160CF5FDE4F488305
:102CF000C150D1406EE270E080E591E00E94590C35
:102D00008111A8C482E6809374011092750192E04B
:102D10009093760110927701809378011092790157
:102D200090937A0110927B011092500181E0809380
:102D3000510110925201809353018093540148EE47
:102D400053E060E070E0409355015093560160936A
:102D500057017093580140ED57E060E070E04093F8
:102D6000590150935A0160935B0170935C0148ECE8
:102D700052E360E070E040935D0150935E01609328
:102D80005F017093600144E650E060E070E04093C2
:102D9000610150936201609363017093640120E0CC
:102DA0003AE0309366012093650110926C012BED9F
:102DB00037E03093E3012093E20180937101909317
:102DC00072018AE08093730180E397E0A0E0B0E0B5
:102DD00080936D0190936E01A0936F01B093700189
:102DE0000BE010E020E030E0AE014F5F5F4F61E0AC
:102DF00070E080E591E00E948E0C8111B7C189815D
:102E00008F7780938F028A818F70809390028B815D
:102E10008F77809391028C818370809392028D8151
:102E20008F7780939302CE0106960E94921390931F
:102E30009502809394028885809396028985809379
:102E400097028A858F73809398028B85809399026D
:102E500007E110E020E030E0AE014F5F5F4F6DE032
:102E600070E080E591E00E948E0C81117FC1898124
:102E7000809389018A8180938A018B8180938B0161
:102E80008C8180938C018D8180938D018E818F70D8
:102E900080938E018F8180938F0188858F738093BB
:102EA00090018985837080939101CE010A960E94DA
:102EB00092139093930180939201CE010C960E94FD
:102EC0001C149093950180939401CE010E960E945C
:102ED0001C149093970180939601CE0140960E9416
:102EE00092139093990180939801CE0142960E948B
:102EF0001C149F7190939B0180939A01CE0144967C
:102F00000E941C1490939D0180939C01CE014696D3
:102F10000E941C1490939F0180939E0101E310E096
:102F200020E030E0AE014F5F5F4F6FE071E080E581
:102F300091E00E948E0C811119C189818093270331
:102F40008A81809328038B8180932903CE01049684
:102F50000E94921390932B0380932A038E818F7784
:102F600080932C038F81877080932D0388858770D1
:102F700080932E0389858F7380932F038A858F73A7
:102F8000809330038B858170809331038C858F779C
:102F9000809332038D858170809333038E858F7388
:102FA000809334038F858F738093350338883092F4
:102FB00036034988409237035A88509238036B8809
:102FC000609239037C8870923A038D8880923B032B
:102FD0009E8890923C03AF88A0923D03B88CB0923B
:102FE0003E03C98CC0923F03DA8CD0924003EB8C35
:102FF000E0924103FC8CF09242030D8D0093430359
:103000001E8D10934403BF8DB093450328A1C05F6C
:10301000DE4F2883C051D1402093460339A1CF5EB3
:10302000DE4F3883C151D140309347034AA1CD5E72
:10303000DE4F4883C351D140409348035BA1CC5E2F
:10304000DE4F5883C451D140509349038CA1CB5ECD
:10305000DE4F8883C551D14080934A03ADA1A09330
:103060004B03FEA1F0934C03EFA1E0934D0378A531
:1030700070934E0369A560934F035AA55093500374
:103080004BA5409351033CA5309352032DA52093AB
:1030900053039EA5909354038FA58093550328A8AE
:1030A0002092560329A82092570330923202409270
:1030B000330250923402609235027092360280924E
:1030C000370290923802A0923902B0923A02C0922E
:1030D0003B02D0923C02E0923D02F0923E0200930D
:1030E0003F0210934002B0934102C05FDE4FB881AF
:1030F000C051D140B0934202CF5EDE4FB881C15182
:10310000D140B0934302CD5EDE4FB881C351D14070
:10311000B0934402CC5EDE4FB881C451D140B0932D
:103120004502CB5EDE4FB881C551D140B093460217
:10313000A0934702F0934802E093490270934A0239
:1031400060934B0250934C0240934D0230934E02D9
:1031500020934F02909350028093510242ED53E02E
:103160006EED70E080E591E00E94CE0B209194021C
:10317000309195022115304130F42CEC3CEB30932A
:10318000950220939402811127C090915603492FF4
:1031900050E097FF08C09095977028E0290FCA016A
:1031A0008058910906C0292F27708FE790E0841B73
:1031B000950B33E0959587953A95E1F78093E40177
:1031C0002093E50180915703982F92959F709093DB
:1031D000E7018F708093E6018091E801811110C0B2
:1031E0008091E90181110CC08091E4018295807F7A
:1031F0008093E8018091E5018295807F8093E901C9
:1032000088E0809352028BE08093530288EE93E033
:10321000A0E0B0E08093540290935502A093560230
:10322000B093570280E09AE090935902809358023D
:1032300080E095E090935B0280935A0280E094E1F5
:1032400090935D0280935C0210925E0282E1809313
:103250005F028FE08093600282E08093610280EAE7
:103260009CE8A0E0B0E08093620290936302A09398
:103270006402B09365028CE090E0909367028093C3
:1032800066026091920170919301CB01A0E0B0E0E1
:103290008093680290936902A0936A02B0936B02D4
:1032A000E0909401F0909501F0926D02E0926C0232
:1032B000009196011091970110936F0200936E0296
:1032C0008093700290937102A0937202B093730284
:1032D000F0927502E09274021093770200937602E6
:1032E00010927A021092790220E420937B020097D8
:1032F000A105B10549F4E114F10431F401151105FA
:1033000019F41092780203C021E0209378022091F2
:103310007802213009F059C0BC01CD0124E0660FCC
:10332000771F881F991F2A95D1F728EE33E040E0D8
:1033300050E00E94552749015A01F7FE05C0662753
:1033400077276E197F0902C060E070E017FF04C0A4
:1033500011950195110902C000E010E0600F711F86
:10336000F5E0660F771FFA95E1F7072E000C880B42
:10337000990B28EE33E040E050E00E945527DA0137
:10338000C901880D991DAA1DBB1D16E0880F991F44
:10339000AA1FBB1F1A95D1F7BC01CD01605F7F4FFB
:1033A0008F4F9F4F20E230E040E050E00E945527D1
:1033B00021153105F1E04F07510514F02FEF3FEFD4
:1033C00030937D0220937C0204C010927D02109203
:1033D0007C0220E03AE030937F0220937E0278EE78
:1033E000C72E73E0D72EE12CF12CC0928002D09230
:1033F0008102E0928202F092830288EC92E3A0E0E4
:10340000B0E08093840290938502A0938602B093EB
:1034100087028093880290938902A0938A02B093D6
:103420008B02E8E07E2E70928C0248E240938D027F
:1034300049E040938E0243E050E85093EB01409303
:10344000EA0141E050E85093ED014093EC0141E482
:1034500050E85093EF014093EE016EE06093F0016D
:103460005AE05093F10146E04093F2016093F3017A
:103470005093F4014093F50162E06093F60141E25C
:103480004093F7011092F9011092F8011092FA019D
:1034900048E651E05093FC014093FB015093FE013C
:1034A0004093FD01509300024093FF0140EC50E037
:1034B000509302024093010250930402409303028E
:1034C00050930602409305027092070240E1409338
:1034D0000802662463946092090260930A02609273
:1034E0000B0260930C0210920D0230930F02209396
:1034F0000E02309311022093100240E350E860E086
:1035000070E0409312025093130260931402709380
:103510001502C0921602D0921702E0921802F092A1
:10352000190240ED57E060E070E040931A025093BA
:103530001B0260931C0270931D0240931E02509365
:103540001F02609320027093210248E156EF60E071
:1035500070E04093260250932702609328027093F4
:10356000290280932A0290932B02A0932C02B093FD
:103570002D0281E090E0A0E0B0E0809322029093E1
:103580002302A0932402B093250280E49FE1A0E0EF
:10359000B0E080932E0290932F02A0933002B0935C
:1035A00031028091960283708058809396028090B9
:1035B0005D0190905E01A0905F01B0906001C090AD
:1035C0005901D0905A01E0905B01F0905C010091AC
:1035D00055011091560120915701309158014091A9
:1035E000650150916601809164018F938091630120
:1035F0008F93809162018F93809161018F9360918D
:10360000510180E591E00E94070393E0909300044C
:103610001092010410920204109203041092040408
:1036200010920504109206041092070410920804E8
:103630001092090410920A0410920C0410920B04C8
:103640000F900F900F900F90811104C0609283042F
:1036500070928404CF5FDE4F1882C150D140A09198
:10366000DB02B091DC02E090D902F090DA0290E047
:1036700011E0923079F1882349F0F092DA02E09279
:10368000D902B093DC02A093DB025FC0292F30E0A7
:10369000A901440F551F440F551F40575B4FFA01B6
:1036A0004081518162817381913051F00EE07695B5
:1036B0006795579547950A95D1F77A010C9473242D
:1036C000F9E07695679557954795FA95D1F7DA0120
:1036D0000C947324F092DA02E092D902B093DC02E7
:1036E000A093DB02CF5FDE4F9883C150D1408111A0
:1036F0002CC090918C04992331F028E430E0309371
:10370000DA022093D90240E050E062E170E0409399
:103710009004509391046093920470939304909159
:103720008D04992331F020E230E03093DC022093C5
:10373000DB0240E050E460E070E04093940450937A
:1037400095046093960470939704082E000C990BCF
:103750009093C3048093C204E3E0FE2EF0928304AE
:1037600080E280935201F0928704F0928604F092F6
:10377000850408EE13E020E030E043E068E080E5F7
:1037800091E00E943B06482F811119C0F0928604F7
:10379000F092870448E250EA60E070E080E591E052
:1037A0000E943805482F81110AC02091D203309120
:1037B000D3032115310511F00C947A2441EF842FA5
:1037C000440F990B9093C3048093C204F090840437
:1037D000BE016F5F7F4F80E591E00E94DD00809029
:1037E000610190906201A0906301B0906401811129
:1037F00055C09E01275F3E4FAE014B5F5E4FBE013D
:103800006F5F7E4F80E591E00E943001811146C0DC
:103810009501840142E06F2D80E591E00E943B0616
:1038200081113CC082E0809386048093870480935A
:103830008504C75FDE4FC880D980EA80FB80C9500D
:10384000D140CB5FDE4F088119812A813B81C55071
:10385000D140CF5FDE4F488159816A817B81C15061
:10386000D14080E591E00E941A02811117C0C75F24
:10387000DE4F88819981AA81BB81C950D140809354
:103880005D0190935E01A0935F01B0936001BE0162
:103890006F5F7F4F80E591E00E94080140E553ECA7
:1038A00060E070E080E591E00E9438052091D2034D
:1038B0003091D3032115310511F00C94942481EF3C
:1038C000082E000C990B9093C3048093C20480913E
:1038D0008304863028F4843030F4833040F403C00D
:1038E0008256823010F482EF03C08DEF01C080E079
:1038F0006091520181110AC046E080E591E00E948A
:10390000EB0E811103C094E090938304082E000C09
:10391000990B9093C3048093C204892B09F459C076
:1039200084EB90E00E94FB138AE391E00E9416135F
:10393000FFCF1091A60214FB882780F911E0182709
:10394000E12CF12CAE014F5F5F4F61E370E080E549
:1039500091E00E94190C882309F447C0282E880F93
:1039600033083092C3042092C2042114310409F4B4
:1039700053C0CF5EDE4FE881F981C151D14031970C
:10398000CF5EDE4FF983E883C151D140EF2B89F63A
:1039900020E030E040E251E4C501B4010E94692515
:1039A0006B017C019B01AC010E942E27882309F446
:1039B000FCC683E491E00E9416138AE391E00E9422
:1039C000161360EA76E881E090E00E941C0A0E94EB
:1039D000C7082AE030E0CF5EDE4F39832883C1512B
:1039E000D140812C912C5401A4CF89818170811701
:1039F00079F061E070E080E090E00E941C0A3FEC0A
:103A0000E31637E0F30631F04FEFE41AF40A9ACFE9
:103A100080E0A4CF89EFA2CF48E150E06FEF70E0E3
:103A20008AEA94E00E94F22706E810E020E030E005
:103A3000AE014F5F5F4F68E870E080E591E00E9463
:103A40008E0C182F8111D5C3CE01815B9F4F0E9430
:103A500092139093CB038093CA0362968FAD6297C3
:103A60008F778093CC0363968FAD63978F7380932A
:103A7000CD0364968FAD649783708093CE03659673
:103A80008FAD659781708093CF0366968FAD6697F3
:103A90008F738093D00367968FAD67978F738093F2
:103AA000D103CE01895A9F4F0E9492139370909335
:103AB000D3038093D2036A968FAD6A978370809305
:103AC000D4036B968FAD6B9783708093D5036C9600
:103AD0008FAD6C978F708093D6036D968FAD6D9779
:103AE00087708093D7036E968FAD6E9781708093A9
:103AF000D8036F968FAD6F9783708093D903A0968C
:103B00008FADA0978093DA03A1968FADA197809394
:103B1000DB03CE018F599F4F0E9492139F709093A9
:103B2000DD038093DC03CE018B599F4F0E949213DB
:103B30009093DF038093DE03CE0189599F4F0E944B
:103B400092139093E1038093E003AA968FADAA9716
:103B500081708093E203AB968FADAB9787708093B3
:103B6000E303AC968FADAC978093E403AD968FAD35
:103B7000AD978093E503AE968FADAE978F77809328
:103B8000E603AF968FADAF978F778093E703E0960C
:103B90008FADE09783708093E803E1968FADE19756
:103BA0008F708093E903E2968FADE2978093EA03EA
:103BB000E3968FADE3978093EB03E4968FADE497A4
:103BC0008093EC03E5968FADE59781708093ED03CC
:103BD000E6968FADE69783708093EE03E7968FAD00
:103BE000E7978F718093EF03E8968FADE8978F7119
:103BF0008093F003E9968FADE9978F718093F1037D
:103C0000EA968FADEA9781708093F203EB968FADC1
:103C1000EB9781708093F303EC968FADEC978370F4
:103C20008093F403ED968FADED978F738093F5033A
:103C3000CE0183589F4F0E949C13DC01CB01A370DF
:103C4000BB278093F6039093F703A093F803B093F8
:103C5000F903CE018F579F4F0E949C136093FA0384
:103C60007093FB038093FC039093FD03CB57DF4FCE
:103C70008881C558D04081708093FE03CA57DF4FBA
:103C80008881C658D04081708093FF03CE018D9605
:103C90000E949C136093A9037093AA038093AB03C3
:103CA0009093AC03CE01C1960E949C136093AD0328
:103CB0007093AE038093AF039093B0032DA9822F2E
:103CC000022E000C990BAA0BBB0BBB0F880B982F75
:103CD000DC01BA2FA92F982F8827822BBA2FA92F62
:103CE000982F88272EA9822BBA2FA92F982F8827A3
:103CF0002FA9822BBA2FA92F982F882728AD822B86
:103D00008093B1039093B203A093B303B093B40331
:103D1000CE01C9960E949C136093B5037093B603BD
:103D20008093B7039093B803CE01CD960E949C1365
:103D30006093B9037093BA038093BB039093BC0361
:103D4000CE018F5B9F4F0E949C136093BD037093C5
:103D5000BE038093BF039093C00326962FAD269792
:103D6000822F022E000C990BAA0BBB0BBB0F880BEA
:103D7000982FDC01BA2FA92F982F8827822BBA2FD2
:103D8000A92F982F882727962FAD2797822BBA2FF8
:103D9000A92F982F882728962FAD2897822BBA2FE6
:103DA000A92F982F882729962FAD2997822B8093AA
:103DB000C1039093C203A093C303B093C403CE0185
:103DC000875B9F4F0E949C136093C5037093C6034B
:103DD0008093C7039093C8032E968FAD2E97809340
:103DE000C90389818F738093FB028A818093FC02CF
:103DF0008B818F708093FD020C810093FE02CE01B7
:103E000005960E949213909300038093FF02CE01C7
:103E100007960E9492139093020380930103CE01B0
:103E200009960E9492139093040380930303CE019A
:103E30000B960E9492139093060380930503CE0184
:103E40000D960E9492139093080380930703CE016E
:103E50000F960E94921390930A0380930903CE0158
:103E600041960E94921390930C0380930B03CE0112
:103E700043960E94921390930E0380930D03CE01FC
:103E800045960E9492139093100380930F03CE01E6
:103E900047960E9492139093120380931103CE01D0
:103EA00049960E9492139093140380931303CE01BA
:103EB0004B960E9492139093160380931503CE01A4
:103EC0004D960E9492139093180380931703CE018E
:103ED0004F960E94921390931A0380931903CE0178
:103EE00081960E94921390931C0380931B03CE0132
:103EF00083960E94921390931E0380931D03CE011C
:103F000085960E9492139093200380931F03CE0105
:103F100087960E9492139093220380932103CE01EF
:103F200089960E94921390932403809323038BA578
:103F3000809325038CA580932603C090E201D09046
:103F4000E30100930F045FE2452E54E0552E69E42F
:103F5000E62E64E0F62E41E154E000E073E1772EB6
:103F6000DA010C93FA011182128213821482909169
:103F7000FE028091FC02911107C0982F9F71993029
:103F800019F4D7017C9203C08F71F701808301304F
:103F900009F491C08091FD02873029F480910D03CE
:103FA00090910E030EC0883041F480910F039091E0
:103FB0001003FA019587848709C08091FF029091D0
:103FC0000003DA011D969C938E931C9780910B033E
:103FD00090910C03F2019187808780911103909159
:103FE000120393878287809103039091040395873E
:103FF00084878091050390910603A0E0B0E035E04E
:10400000880F991FAA1FBB1F3A95D1F70097F1E0BF
:10401000AF07B10520F08FEF9FEFA0E0B0E0F20115
:10402000958B848B8091070390910803978B868BE7
:104030002091090330910A03D6010E947A27DC01FE
:10404000CB019C5FAF4FBF4F2BE0B595A7959795E0
:1040500087952A95D1F7918F808F8091AD039091AC
:10406000AE03A091AF03B091B00380839183A2838C
:10407000B3838091B1039091B203A091B303B09147
:10408000B40384839583A683B7838091B50390910D
:10409000B603A091B703B091B803FA01868797875A
:1040A000A08BB18B8091A9039091AA03A091AB033F
:1040B000B091AC037BC08091130390911403DA019B
:1040C0001D969C938E931C978091150390911603D7
:1040D000F201918780872FEF3FEF3387228780910E
:1040E0001703909118039587848780911903909105
:1040F0001A03A0E0B0E075E0880F991FAA1FBB1F4C
:104100007A95D1F7009731E0A307B10520F08FEF42
:104110009FEFA0E0B0E0F201958B848B80911B03B0
:1041200090911C03978B868B20911D0330911E0369
:10413000D6010E947A27DC01CB019C5FAF4FBF4FB5
:104140006BE0B595A795979587956A95D1F7918F6F
:10415000808F8091BD039091BE03A091BF03B09169
:10416000C00380839183A283B3838091C103909124
:10417000C203A091C303B091C40384839583A68333
:10418000B7838091C5039091C603A091C703B091F6
:10419000C803FA0186879787A08BB18B8091B903FA
:1041A0009091BA03A091BB03B091BC03828F938F0F
:1041B000A48FB58F475C5F4FF9E34F0E511C29E385
:1041C000E20EF11C013011F001E0CACE1092100491
:1041D0008091FC028F718D3041F028F49FEF980F91
:1041E000933018F006C0813121F4809310041092AE
:1041F000490420910104213009F079C0111127C030
:104200008091020481111EC0909199029093040440
:1042100080919602809305049F77909399029091E4
:104220000004990F990F8370890F80939602209351
:10423000C3028091CC03809306048093BD02209337
:10424000020405C0813019F482E080930204809159
:1042500002048F3F09F44BC0111149C080910B0338
:1042600090910C0360910303709104032091FF026D
:10427000309100032115310509F471C3680F791FCE
:10428000CB01A0E0B0E07727662740E050E00E9435
:104290003327209307043093080440930904509374
:1042A0000A0460919A0270919B0221153105410523
:1042B000510509F454C3CB01A0E0B0E0772766278D
:1042C0000E9433272115310581E04807510520F070
:1042D0002FEF3FEF40E050E030930C0420930B04AD
:1042E0003093CA022093C90282E08093C402809175
:1042F000740180930D043091780130930E04509135
:104300000F04009110044090120450901304609028
:10431000140470901504E0901D04F0901E04909118
:104320003704CC5EDE4F9883C451D140A0913B044A
:10433000CB5EDE4FA883C551D140B0914304CD5E22
:10434000DE4FB883C351D14040914404C09047042C
:10435000D0904804909149041111BEC18091FC0293
:104360006091FE022091FB027091FA0275FF1AC063
:10437000363021F48F718231A9F0FCC2809179012D
:10438000861711F08EEE01C080E0207230E0B4E0BC
:1043900035952795BA95E1F730917A013213ECC241
:1043A000811199C15093AE044092AA045092AB047B
:1043B0006092AC047092AD049F71C05FDE4F988331
:1043C000C051D140973009F451C0ECE2CE16E1E083
:1043D000DE0644F02AE939E1D6010E9489272B0143
:1043E0003C0105C0412C512CAEE16A2E712CCD5EF2
:1043F000DE4FA881C351D140B42F2DEC3CEC40E3FB
:1044000050E00E949027A301920156954795379559
:104410002795620F731F841F951FA30192010E94AD
:104420003327D901992788278433F3EB9F07F5E7D2
:10443000AF07B10558F423E333EB45E750E0281B01
:10444000390B4A0B5B0BDA01C90104C080E090E034
:10445000A2E3B0E0CD01AA27BB2783339105A105D4
:10446000B10520F0853618F084E601C082E3809320
:10447000AF04CC5EDE4F3881C451D140330FC55EEE
:10448000DE4F3883CB51D140C65EDE4F1882CA5111
:10449000D140C65EDE4F48815981CA51D140CA0120
:1044A000A0E0B0E08093B0049093B104A093B20474
:1044B000B093B304CB5EDE4F5881C551D140550F48
:1044C000C35EDE4F5883CD51D140C45EDE4F1882AB
:1044D000CC51D140C45EDE4FE881F981CC51D1404E
:1044E000AF0160E070E04093B4045093B504609372
:1044F000B6047093B704F092B904E092B804CD5EAC
:10450000DE4FF881C351D140FF0FC15EDE4FF8830B
:10451000CF51D140C25EDE4F1882CE51D140C25E33
:10452000DE4F28813981CE51D140A90160E070E091
:104530004093BA045093BB046093BC047093BD04D1
:10454000D092BF04C092BE041092C0040D3059F046
:1045500020F40150033050F402C0013139F425E059
:104560002093C10405C00093C10402C01092C1048D
:104570002091C104211110C0C05FDE4FE881C051FD
:10458000D140E450E03128F4F0E0E050FF4F2081CA
:1045900001C02FEF2093C1044093980450939904D5
:1045A00060939A0470939B0480939C0490939D0461
:1045B000A0939E04B0939F048091D9028295880FA6
:1045C000880F807CC95EDE4F8883C751D140CA5EA8
:1045D000DE4F1882C651D140CA5EDE4F48815981F4
:1045E000C651D140452B19F410928C0414C0CA5EF8
:1045F000DE4FE881F981C651D140CF01A0E0B0E0A3
:104600008093900490939104A0939204B0939304A8
:1046100081E080938C0480918C04813039F4C05FF8
:10462000DE4FF881C051D140F63009F080E0809330
:104630008E048091DB02880FC75EDE4F8883C951EC
:10464000D140C85EDE4F1882C851D140C85EDE4FEF
:1046500028813981C851D140232B19F410928D043F
:1046600014C0C85EDE4F48815981C851D140CA018B
:10467000A0E0B0E08093940490939504A0939604F6
:10468000B093970481E080938D0480918D048130F4
:1046900051F491E0C05FDE4F5881C051D140543099
:1046A00009F090E0292E20928F048091BE04909111
:1046B000BF042091C10421110FC097FF0DC0823E9D
:1046C0009F4F24F48EE08093C10406C01092BF0473
:1046D0001092BE0401C0182F812F110F990B9093D7
:1046E000C3048093C204892B09F046C06091BE04C4
:1046F0007091BF04072E000C880B990B0E940C26AA
:104700009B01AC0180E591E0C05EDE4F2883C05282
:10471000D140CF5DDE4F3883C152D140CE5DDE4FF8
:104720004883C252D140CD5DDE4F5883C352D14041
:104730000E940107082E000C990B9093C3048093EC
:10474000C204C05EDE4F2881C052D140CF5DDE4F33
:104750003881C152D140CE5DDE4F4881C252D14036
:10476000CD5DDE4F5881C352D140C501B4010E94D6
:10477000F8244B015C01FDC88DE391E00E94161303
:104780008AE391E00E94161380E591E00E94010700
:10479000082E000C990B9093C3048093C204C12C83
:1047A000D12C80E8E82E8FEBF82E46015701E894D3
:1047B000B7F82FEF3FEF4FE75FE7C501B4010E9465
:1047C0002E2781110DC02FEF3FEF4FE75FE7C501A7
:1047D000B4010E94642518161CF487E491E0EBC82C
:1047E0002FEF3FEF4FE75FE4C701B6010E94BC2601
:1047F00018161CF48BE491E0DEC82FEF3FEF4FE773
:104800005FECC701B6010E94642587FDF3CF20E06D
:1048100030E0A901C701B6010E94642587FF0FC0DF
:10482000E0918105F09182050190F081E02D6DE22B
:1048300081E895E00995F7FAF094F7F8F0942AE00A
:1048400037ED43EA5BE3C701B6010E94F8244B0150
:104850005C010E94DB256B017C010E940A269B0102
:10486000AC01C501B4010E94F7244B015C014AE090
:10487000C701B6010E946814E0918105F09182059C
:104880000190F081E02D6EE281E895E0099520E04D
:1048900030E040E251E4C501B4010E94C1266B0141
:1048A0007C010E94DB254B01A12CB12C4AE0C50103
:1048B000B4010E946814C501B4010E940A269B013C
:1048C000AC01C701B6010E94F72420E030E040E2CD
:1048D00051E40E94C1260E94DB2580E090E04AE07E
:1048E0000E9468146AC824573B4FF90110839F5FE8
:1048F0000C94391B88EE93E0A0E0B0E08093610156
:1049000090936201A0936301B0936401A8EEB3E0B9
:104910000E947A276093DF027093E0028093E102A5
:104920009093E2020C94DF1B82E390E0A0E0B0E001
:104930008093610190936201A0936301B09364013D
:10494000A2E3B0E00E947A276093DF027093E00256
:104950008093E1029093E20280E00C94601C80E07E
:1049600090E890930C0480930B049093CA02809378
:10497000C902BACC1FEEB0CE1DEEAECEE1E8F5E036
:104980001382128288EE93E0A0E0B0E084839583E6
:10499000A683B7832AE131E03183208325EC30E020
:1049A0003587248724EC30E03787268720EC30E0F9
:1049B000318B208B21EC30E0338B228B22EC30E0EA
:1049C000358B248B26EC30E0378B268B118E128EA4
:1049D000138E148EEEE1F6E01382128284839583A7
:1049E000A683B7838CE291E0918380830895505829
:1049F000BB27AA270E940F250C9482260E947426AA
:104A000038F00E947B2620F039F49F3F19F426F4F9
:104A10000C9471260EF4E095E7FB0C946B26E92FBD
:104A20000E94932658F3BA17620773078407950705
:104A300020F079F4A6F50C94B5260EF4E0950B2E33
:104A4000BA2FA02D0B01B90190010C01CA01A001E0
:104A50001124FF27591B99F0593F50F4503E68F13B
:104A60001A16F040A22F232F342F4427585FF3CF7C
:104A7000469537952795A795F0405395C9F77EF44D
:104A80001F16BA0B620B730B840BBAF09150A1F096
:104A9000FF0FBB1F661F771F881FC2F70EC0BA0F1C
:104AA000621F731F841F48F4879577956795B795A4
:104AB000F7959E3F08F0B0CF9395880F08F099279F
:104AC000EE0F9795879508950E94472608F481E098
:104AD00008950E947D250C9482260E947B2658F022
:104AE0000E94742640F029F45F3F29F00C946B2655
:104AF00051110C94B6260C9471260E94932668F3EB
:104B00009923B1F3552391F3951B550BBB27AA2786
:104B100062177307840738F09F5F5F4F220F331FC0
:104B2000441FAA1FA9F335D00E2E3AF0E0E832D088
:104B300091505040E695001CCAF72BD0FE2F29D08B
:104B4000660F771F881FBB1F261737074807AB075D
:104B5000B0E809F0BB0B802DBF01FF2793585F4FD2
:104B60003AF09E3F510578F00C946B260C94B626D3
:104B70005F3FE4F3983ED4F3869577956795B795B4
:104B8000F7959F5FC9F7880F911D9695879597F9BF
:104B90000895E1E0660F771F881FBB1F6217730738
:104BA0008407BA0720F0621B730B840BBA0BEE1F4D
:104BB00088F7E09508950E949B2688F09F5798F00B
:104BC000B92F9927B751B0F0E1F0660F771F881F12
:104BD000991F1AF0BA95C9F714C0B13091F00E942C
:104BE000B526B1E008950C94B526672F782F882755
:104BF000B85F39F0B93FCCF3869577956795B39553
:104C0000D9F73EF490958095709561957F4F8F4FC1
:104C10009F4F0895E89409C097FB3EF490958095C6
:104C2000709561957F4F8F4F9F4F9923A9F0F92F72
:104C300096E9BB279395F695879577956795B795F0
:104C4000F111F8CFFAF4BB0F11F460FF1BC06F5FD6
:104C50007F4F8F4F9F4F16C0882311F096E911C0E8
:104C6000772321F09EE8872F762F05C0662371F009
:104C700096E8862F70E060E02AF09A95660F771F1D
:104C8000881FDAF7880F9695879597F90895990FF9
:104C90000008550FAA0BE0E8FEEF16161706E80706
:104CA000F907C0F012161306E407F50798F0621B27
:104CB000730B840B950B39F40A2661F0232B242BFC
:104CC000252B21F408950A2609F4A140A6958FEF1B
:104CD000811D811D089597F99F6780E870E060E06D
:104CE00008959FEF80EC089500240A941616170685
:104CF00018060906089500240A94121613061406CD
:104D000005060895092E0394000C11F4882352F02F
:104D1000BB0F40F4BF2B11F460FF04C06F5F7F4FE7
:104D20008F4F9F4F089557FD9058440F551F59F0CE
:104D30005F3F71F04795880F97FB991F61F09F3F88
:104D400079F087950895121613061406551FF2CFB1
:104D50004695F1DF08C0161617061806991FF1CF01
:104D600086957105610508940895E894BB27662728
:104D70007727CB0197F908950E94472608F48FEF13
:104D800008950E94D4260C9482260E94742638F03E
:104D90000E947B2620F0952311F00C946B260C9436
:104DA000712611240C94B6260E94932670F3959FC9
:104DB000C1F3950F50E0551F629FF001729FBB2712
:104DC000F00DB11D639FAA27F00DB11DAA1F649FAE
:104DD0006627B00DA11D661F829F2227B00DA11D61
:104DE000621F739FB00DA11D621F839FA00D611DE7
:104DF000221F749F3327A00D611D231F849F600D08
:104E0000211D822F762F6A2F11249F5750409AF030
:104E1000F1F088234AF0EE0FFF1FBB1F661F771FBC
:104E2000881F91505040A9F79E3F510580F00C9487
:104E30006B260C94B6265F3FE4F3983ED4F3869538
:104E400077956795B795F795E7959F5FC1F7FE2B27
:104E5000880F911D9695879597F908950E9447268A
:104E6000880B990B0895A1E21A2EAA1BBB1BFD010A
:104E70000DC0AA1FBB1FEE1FFF1FA217B307E40739
:104E8000F50720F0A21BB30BE40BF50B661F771F91
:104E9000881F991F1A9469F7609570958095909571
:104EA0009B01AC01BD01CF010895052E97FB1EF4B7
:104EB00000940E946C2757FD07D00E94332707FCFF
:104EC00003D04EF40C946C27509540953095219565
:104ED0003F4F4F4F5F4F0895909580957095619526
:104EE0007F4F8F4F9F4F0895EE0FFF1F0590F49156
:104EF000E02D0994A29FB001B39FC001A39F700D44
:104F0000811D1124911DB29F700D811D1124911DD1
:104F100008950E947A27B7FF0895821B930B089586
:104F20000E947A27A59F900DB49F900DA49F800D9D
:104F3000911D11240895E894DF93CF93FC01DB01C8
:104F40000E947A277F936F93E9019A01AC01BF9386
:104F5000AF933F932F93DF010E947A2726F46C1BB7
:104F60007D0B820B930B9E01EB01FC010E94E42759
:104F7000AF91BF912F913F910E94E427BE01CF01D5
:104F8000F9012F913F91CF91DF91089597FB10F890
:104F9000169400080F93083098F00850232F342FF0
:104FA000452F562F672F782F892F902DF4CF0594FA
:104FB0009795879577956795579547953795279551
:104FC0000A95AAF70F9108950E947A27460F571F56
:104FD000C81FD91F08F43196089581E090E0F89435
:104FE0000C94F927DC0101C06D9341505040E0F76B
:064FF0000895F894FFCFC4
:104FF600020401070300FFFF09FFFFFFFFFF0A0688
:10500600715A44240D01000000005E08EB12F607F9
:10501600A508270805081908000000008409540996
:10502600B40928094C09380929090D0A0065727264
:105036006F72006E616E00696E66006F76660000C4
:00000001FF
